{
  "contractName": "CandyKillerCharacter",
  "abi": [
    {
      "constant": true,
      "inputs": [],
      "name": "name",
      "outputs": [
        {
          "name": "",
          "type": "string"
        }
      ],
      "payable": false,
      "stateMutability": "view",
      "type": "function"
    },
    {
      "constant": true,
      "inputs": [],
      "name": "totalSupply",
      "outputs": [
        {
          "name": "",
          "type": "uint256"
        }
      ],
      "payable": false,
      "stateMutability": "view",
      "type": "function"
    },
    {
      "constant": true,
      "inputs": [],
      "name": "decimals",
      "outputs": [
        {
          "name": "",
          "type": "uint8"
        }
      ],
      "payable": false,
      "stateMutability": "view",
      "type": "function"
    },
    {
      "constant": true,
      "inputs": [
        {
          "name": "",
          "type": "uint256"
        }
      ],
      "name": "characterIndexToAddress",
      "outputs": [
        {
          "name": "",
          "type": "address"
        }
      ],
      "payable": false,
      "stateMutability": "view",
      "type": "function"
    },
    {
      "constant": true,
      "inputs": [
        {
          "name": "",
          "type": "uint256"
        }
      ],
      "name": "characters",
      "outputs": [
        {
          "name": "id",
          "type": "uint256"
        },
        {
          "name": "name",
          "type": "string"
        },
        {
          "name": "isDeleted",
          "type": "bool"
        },
        {
          "name": "experienceCoin",
          "type": "uint256"
        },
        {
          "name": "winCount",
          "type": "uint256"
        },
        {
          "name": "gameCount",
          "type": "uint256"
        },
        {
          "name": "tenant",
          "type": "address"
        },
        {
          "name": "rentStart",
          "type": "uint256"
        },
        {
          "name": "rentDayLenght",
          "type": "uint256"
        }
      ],
      "payable": false,
      "stateMutability": "view",
      "type": "function"
    },
    {
      "constant": true,
      "inputs": [],
      "name": "standard",
      "outputs": [
        {
          "name": "",
          "type": "string"
        }
      ],
      "payable": false,
      "stateMutability": "view",
      "type": "function"
    },
    {
      "constant": true,
      "inputs": [],
      "name": "owner",
      "outputs": [
        {
          "name": "",
          "type": "address"
        }
      ],
      "payable": false,
      "stateMutability": "view",
      "type": "function"
    },
    {
      "constant": true,
      "inputs": [],
      "name": "symbol",
      "outputs": [
        {
          "name": "",
          "type": "string"
        }
      ],
      "payable": false,
      "stateMutability": "view",
      "type": "function"
    },
    {
      "constant": false,
      "inputs": [],
      "name": "owned",
      "outputs": [],
      "payable": false,
      "stateMutability": "nonpayable",
      "type": "function"
    },
    {
      "constant": true,
      "inputs": [],
      "name": "nextCharacterIndexToAssign",
      "outputs": [
        {
          "name": "",
          "type": "uint256"
        }
      ],
      "payable": false,
      "stateMutability": "view",
      "type": "function"
    },
    {
      "constant": false,
      "inputs": [
        {
          "name": "newOwner",
          "type": "address"
        }
      ],
      "name": "transferOwnership",
      "outputs": [],
      "payable": false,
      "stateMutability": "nonpayable",
      "type": "function"
    },
    {
      "anonymous": false,
      "inputs": [
        {
          "indexed": true,
          "name": "_creator",
          "type": "address"
        },
        {
          "indexed": false,
          "name": "_character",
          "type": "uint256"
        }
      ],
      "name": "CreateCharacter",
      "type": "event"
    },
    {
      "constant": false,
      "inputs": [],
      "name": "CandyKilleAccountCharacter",
      "outputs": [],
      "payable": false,
      "stateMutability": "nonpayable",
      "type": "function"
    },
    {
      "constant": false,
      "inputs": [
        {
          "name": "accountContract",
          "type": "address"
        }
      ],
      "name": "initCandyKillerAccount",
      "outputs": [],
      "payable": false,
      "stateMutability": "nonpayable",
      "type": "function"
    },
    {
      "constant": false,
      "inputs": [
        {
          "name": "serviceContract",
          "type": "address"
        }
      ],
      "name": "initCKServiceContract",
      "outputs": [],
      "payable": false,
      "stateMutability": "nonpayable",
      "type": "function"
    },
    {
      "constant": false,
      "inputs": [
        {
          "name": "characterName",
          "type": "string"
        }
      ],
      "name": "createCharacter",
      "outputs": [
        {
          "name": "",
          "type": "uint256"
        }
      ],
      "payable": false,
      "stateMutability": "nonpayable",
      "type": "function"
    },
    {
      "constant": false,
      "inputs": [
        {
          "name": "characterIndex",
          "type": "uint256"
        }
      ],
      "name": "deleteCharacter",
      "outputs": [
        {
          "name": "",
          "type": "bool"
        }
      ],
      "payable": false,
      "stateMutability": "nonpayable",
      "type": "function"
    },
    {
      "constant": true,
      "inputs": [
        {
          "name": "characterIndex",
          "type": "uint256"
        }
      ],
      "name": "getCharacterByIndex",
      "outputs": [
        {
          "name": "",
          "type": "address"
        },
        {
          "name": "",
          "type": "string"
        },
        {
          "name": "",
          "type": "uint8[32]"
        },
        {
          "name": "",
          "type": "uint8[32]"
        },
        {
          "name": "",
          "type": "bool"
        },
        {
          "name": "",
          "type": "uint256"
        },
        {
          "name": "",
          "type": "address"
        },
        {
          "name": "",
          "type": "uint256"
        },
        {
          "name": "",
          "type": "uint256"
        }
      ],
      "payable": false,
      "stateMutability": "view",
      "type": "function"
    },
    {
      "constant": true,
      "inputs": [
        {
          "name": "previousCharacterIndex",
          "type": "uint256"
        }
      ],
      "name": "getNextUserCharacterIndex",
      "outputs": [
        {
          "name": "",
          "type": "uint256"
        }
      ],
      "payable": false,
      "stateMutability": "view",
      "type": "function"
    }
  ],
  "bytecode": "0x60606040526040805190810160405280600b81526020017f43616e64794b696c6c6572000000000000000000000000000000000000000000815250600190805190602001906200005192919062000069565b50600160065534156200006357600080fd5b62000118565b828054600181600116156101000203166002900490600052602060002090601f016020900481019282601f10620000ac57805160ff1916838001178555620000dd565b82800160010185558215620000dd579182015b82811115620000dc578251825591602001919060010190620000bf565b5b509050620000ec9190620000f0565b5090565b6200011591905b8082111562000111576000816000905550600101620000f7565b5090565b90565b611c5180620001286000396000f3006060604052600436106100fc576000357c0100000000000000000000000000000000000000000000000000000000900463ffffffff16806306fdde031461010157806318160ddd1461018f578063313ce567146101b857806332453791146101e75780634810bc591461024a5780634917f11c1461034e5780635a3b7e42146103875780636da7aeb7146104155780636ed79e8d1461044c5780637e6cc17f146104875780638da5cb5b146104f857806395d89b411461054d578063c922c1f8146105db578063d9bcbb5014610759578063df32754b1461076e578063eac551e014610783578063f2b0f6ce146107ac578063f2fde38b146107e5575b600080fd5b341561010c57600080fd5b61011461081e565b6040518080602001828103825283818151815260200191508051906020019080838360005b83811015610154578082015181840152602081019050610139565b50505050905090810190601f1680156101815780820380516001836020036101000a031916815260200191505b509250505060405180910390f35b341561019a57600080fd5b6101a26108bc565b6040518082815260200191505060405180910390f35b34156101c357600080fd5b6101cb6108c2565b604051808260ff1660ff16815260200191505060405180910390f35b34156101f257600080fd5b61020860048080359060200190919050506108d5565b604051808273ffffffffffffffffffffffffffffffffffffffff1673ffffffffffffffffffffffffffffffffffffffff16815260200191505060405180910390f35b341561025557600080fd5b61026b6004808035906020019091905050610908565b604051808a815260200180602001891515151581526020018881526020018781526020018681526020018573ffffffffffffffffffffffffffffffffffffffff1673ffffffffffffffffffffffffffffffffffffffff16815260200184815260200183815260200182810382528a818151815260200191508051906020019080838360005b8381101561030b5780820151818401526020810190506102f0565b50505050905090810190601f1680156103385780820380516001836020036101000a031916815260200191505b509a505050505050505050505060405180910390f35b341561035957600080fd5b610385600480803573ffffffffffffffffffffffffffffffffffffffff16906020019091905050610a1b565b005b341561039257600080fd5b61039a610adf565b6040518080602001828103825283818151815260200191508051906020019080838360005b838110156103da5780820151818401526020810190506103bf565b50505050905090810190601f1680156104075780820380516001836020036101000a031916815260200191505b509250505060405180910390f35b341561042057600080fd5b6104366004808035906020019091905050610b7d565b6040518082815260200191505060405180910390f35b341561045757600080fd5b61046d6004808035906020019091905050610c87565b604051808215151515815260200191505060405180910390f35b341561049257600080fd5b6104e2600480803590602001908201803590602001908080601f01602080910402602001604051908101604052809392919081815260200183838082843782019150505050505091905050610e8b565b6040518082815260200191505060405180910390f35b341561050357600080fd5b61050b6112cc565b604051808273ffffffffffffffffffffffffffffffffffffffff1673ffffffffffffffffffffffffffffffffffffffff16815260200191505060405180910390f35b341561055857600080fd5b6105606112f1565b6040518080602001828103825283818151815260200191508051906020019080838360005b838110156105a0578082015181840152602081019050610585565b50505050905090810190601f1680156105cd5780820380516001836020036101000a031916815260200191505b509250505060405180910390f35b34156105e657600080fd5b6105fc600480803590602001909190505061138f565b604051808a73ffffffffffffffffffffffffffffffffffffffff1673ffffffffffffffffffffffffffffffffffffffff16815260200180602001896020800280838360005b8381101561065c578082015181840152602081019050610641565b50505050905001886020800280838360005b8381101561068957808201518184015260208101905061066e565b50505050905001871515151581526020018681526020018573ffffffffffffffffffffffffffffffffffffffff1673ffffffffffffffffffffffffffffffffffffffff16815260200184815260200183815260200182810382528a818151815260200191508051906020019080838360005b838110156107165780820151818401526020810190506106fb565b50505050905090810190601f1680156107435780820380516001836020036101000a031916815260200191505b509a505050505050505050505060405180910390f35b341561076457600080fd5b61076c611688565b005b341561077957600080fd5b610781611787565b005b341561078e57600080fd5b6107966117c9565b6040518082815260200191505060405180910390f35b34156107b757600080fd5b6107e3600480803573ffffffffffffffffffffffffffffffffffffffff169060200190919050506117cf565b005b34156107f057600080fd5b61081c600480803573ffffffffffffffffffffffffffffffffffffffff16906020019091905050611893565b005b60028054600181600116156101000203166002900480601f0160208091040260200160405190810160405280929190818152602001828054600181600116156101000203166002900480156108b45780601f10610889576101008083540402835291602001916108b4565b820191906000526020600020905b81548152906001019060200180831161089757829003601f168201915b505050505081565b60055481565b600460009054906101000a900460ff1681565b60076020528060005260406000206000915054906101000a900473ffffffffffffffffffffffffffffffffffffffff1681565b6008602052806000526040600020600091509050806000015490806001018054600181600116156101000203166002900480601f0160208091040260200160405190810160405280929190818152602001828054600181600116156101000203166002900480156109ba5780601f1061098f576101008083540402835291602001916109ba565b820191906000526020600020905b81548152906001019060200180831161099d57829003601f168201915b5050505050908060040160009054906101000a900460ff16908060050154908060060154908060070154908060080160009054906101000a900473ffffffffffffffffffffffffffffffffffffffff169080600901549080600a0154905089565b6000809054906101000a900473ffffffffffffffffffffffffffffffffffffffff1673ffffffffffffffffffffffffffffffffffffffff163373ffffffffffffffffffffffffffffffffffffffff16141515610a7657600080fd5b60008173ffffffffffffffffffffffffffffffffffffffff161415610a9a57610adc565b80600960006101000a81548173ffffffffffffffffffffffffffffffffffffffff021916908373ffffffffffffffffffffffffffffffffffffffff1602179055505b50565b60018054600181600116156101000203166002900480601f016020809104026020016040519081016040528092919081815260200182805460018160011615610100020316600290048015610b755780601f10610b4a57610100808354040283529160200191610b75565b820191906000526020600020905b815481529060010190602001808311610b5857829003601f168201915b505050505081565b6000803373ffffffffffffffffffffffffffffffffffffffff166007600085815260200190815260200160002060009054906101000a900473ffffffffffffffffffffffffffffffffffffffff1673ffffffffffffffffffffffffffffffffffffffff161480610bed5750600083145b15610c80576001830190505b600654811015610c7f573373ffffffffffffffffffffffffffffffffffffffff166007600083815260200190815260200160002060009054906101000a900473ffffffffffffffffffffffffffffffffffffffff1673ffffffffffffffffffffffffffffffffffffffff161415610c7257809150610c81565b8080600101915050610bf9565b5b5b50919050565b6000600960009054906101000a900473ffffffffffffffffffffffffffffffffffffffff1673ffffffffffffffffffffffffffffffffffffffff1663892d0f6e336040518263ffffffff167c0100000000000000000000000000000000000000000000000000000000028152600401808273ffffffffffffffffffffffffffffffffffffffff1673ffffffffffffffffffffffffffffffffffffffff168152602001915050602060405180830381600087803b1515610d4557600080fd5b5af11515610d5257600080fd5b505050604051805190501515610d6b5760009050610e86565b60006007600084815260200190815260200160002060009054906101000a900473ffffffffffffffffffffffffffffffffffffffff1673ffffffffffffffffffffffffffffffffffffffff161480610e2257503373ffffffffffffffffffffffffffffffffffffffff166007600084815260200190815260200160002060009054906101000a900473ffffffffffffffffffffffffffffffffffffffff1673ffffffffffffffffffffffffffffffffffffffff1614155b15610e305760009050610e86565b60016008600084815260200190815260200160002060040160006101000a81548160ff02191690831515021790555060006007600084815260200190815260200160002060009054906101000a90505050600190505b919050565b6000610e95611931565b610e9d6119b6565b6000600960009054906101000a900473ffffffffffffffffffffffffffffffffffffffff1673ffffffffffffffffffffffffffffffffffffffff1663892d0f6e336040518263ffffffff167c0100000000000000000000000000000000000000000000000000000000028152600401808273ffffffffffffffffffffffffffffffffffffffff1673ffffffffffffffffffffffffffffffffffffffff168152602001915050602060405180830381600087803b1515610f5b57600080fd5b5af11515610f6857600080fd5b505050604051805190501515610f8157600093506112c4565b600060076000600654815260200190815260200160002060009054906101000a900473ffffffffffffffffffffffffffffffffffffffff1673ffffffffffffffffffffffffffffffffffffffff16141515610fdf57600093506112c4565b848360200181905250600654836000018181525050600a60009054906101000a900473ffffffffffffffffffffffffffffffffffffffff1673ffffffffffffffffffffffffffffffffffffffff1663cfed8e5a600143034060206040518363ffffffff167c01000000000000000000000000000000000000000000000000000000000281526004018083600019166000191681526020018260ff1681526020019250505061042060405180830381600087803b151561109d57600080fd5b5af115156110aa57600080fd5b5050506040518061040001805190602001604052809250819350505080156110d557600093506112c4565b818360600181905250600083608001901515908115158152505060008360a0018181525050826008600060065481526020019081526020016000206000820151816000015560208201518160010190805190602001906111369291906119e2565b5060408201518160020190602061114e929190611a62565b50606082015181600301906020611166929190611a62565b5060808201518160040160006101000a81548160ff02191690831515021790555060a0820151816005015560c0820151816006015560e082015181600701556101008201518160080160006101000a81548173ffffffffffffffffffffffffffffffffffffffff021916908373ffffffffffffffffffffffffffffffffffffffff160217905550610120820151816009015561014082015181600a01559050503360076000600654815260200190815260200160002060006101000a81548173ffffffffffffffffffffffffffffffffffffffff021916908373ffffffffffffffffffffffffffffffffffffffff1602179055503373ffffffffffffffffffffffffffffffffffffffff167fac5723a3da81e10f32b38b7ea4f240852779f41801a2de2819fc56939313d5c96006546040518082815260200191505060405180910390a2600660008154809291906001019190505550826000015193505b505050919050565b6000809054906101000a900473ffffffffffffffffffffffffffffffffffffffff1681565b60038054600181600116156101000203166002900480601f0160208091040260200160405190810160405280929190818152602001828054600181600116156101000203166002900480156113875780601f1061135c57610100808354040283529160200191611387565b820191906000526020600020905b81548152906001019060200180831161136a57829003601f168201915b505050505081565b6000611399611afc565b6113a16119b6565b6113a96119b6565b60008060008060006113b9611931565b600860008c8152602001908152602001600020610160604051908101604052908160008201548152602001600182018054600181600116156101000203166002900480601f01602080910402602001604051908101604052809291908181526020018280546001816001161561010002031660029004801561147c5780601f106114515761010080835404028352916020019161147c565b820191906000526020600020905b81548152906001019060200180831161145f57829003601f168201915b50505050508152602001600282016020806020026040519081016040528092919082602080156114e7576020028201916000905b82829054906101000a900460ff1660ff16815260200190600101906020826000010492830192600103820291508084116114b05790505b5050505050815260200160038201602080602002604051908101604052809291908260208015611552576020028201916000905b82829054906101000a900460ff1660ff168152602001906001019060208260000104928301926001038202915080841161151b5790505b505050505081526020016004820160009054906101000a900460ff161515151581526020016005820154815260200160068201548152602001600782015481526020016008820160009054906101000a900473ffffffffffffffffffffffffffffffffffffffff1673ffffffffffffffffffffffffffffffffffffffff1673ffffffffffffffffffffffffffffffffffffffff16815260200160098201548152602001600a820154815250509050600760008c815260200190815260200160002060009054906101000a900473ffffffffffffffffffffffffffffffffffffffff1681602001518260400151836060015184608001518560a00151866101000151876101200151886101400151879750869650859550995099509950995099509950995099509950509193959799909294969850565b336000806101000a81548173ffffffffffffffffffffffffffffffffffffffff021916908373ffffffffffffffffffffffffffffffffffffffff1602179055506127106005819055506040805190810160405280601481526020017f43616e64794b696c6c65724368617261637465720000000000000000000000008152506002908051906020019061171c929190611b10565b506040805190810160405280600481526020017f434bd0a10000000000000000000000000000000000000000000000000000000081525060039080519060200190611768929190611b10565b506000600460006101000a81548160ff021916908360ff160217905550565b336000806101000a81548173ffffffffffffffffffffffffffffffffffffffff021916908373ffffffffffffffffffffffffffffffffffffffff160217905550565b60065481565b6000809054906101000a900473ffffffffffffffffffffffffffffffffffffffff1673ffffffffffffffffffffffffffffffffffffffff163373ffffffffffffffffffffffffffffffffffffffff1614151561182a57600080fd5b60008173ffffffffffffffffffffffffffffffffffffffff16141561184e57611890565b80600a60006101000a81548173ffffffffffffffffffffffffffffffffffffffff021916908373ffffffffffffffffffffffffffffffffffffffff1602179055505b50565b6000809054906101000a900473ffffffffffffffffffffffffffffffffffffffff1673ffffffffffffffffffffffffffffffffffffffff163373ffffffffffffffffffffffffffffffffffffffff161415156118ee57600080fd5b806000806101000a81548173ffffffffffffffffffffffffffffffffffffffff021916908373ffffffffffffffffffffffffffffffffffffffff16021790555050565b610920604051908101604052806000815260200161194d611b90565b815260200161195a611ba4565b8152602001611967611ba4565b8152602001600015158152602001600081526020016000815260200160008152602001600073ffffffffffffffffffffffffffffffffffffffff16815260200160008152602001600081525090565b610400604051908101604052806020905b600060ff168152602001906001900390816119c75790505090565b828054600181600116156101000203166002900490600052602060002090601f016020900481019282601f10611a2357805160ff1916838001178555611a51565b82800160010185558215611a51579182015b82811115611a50578251825591602001919060010190611a35565b5b509050611a5e9190611bd0565b5090565b826020601f01602090048101928215611aeb5791602002820160005b83821115611abc57835183826101000a81548160ff021916908360ff1602179055509260200192600101602081600001049283019260010302611a7e565b8015611ae95782816101000a81549060ff0219169055600101602081600001049283019260010302611abc565b505b509050611af89190611bf5565b5090565b602060405190810160405280600081525090565b828054600181600116156101000203166002900490600052602060002090601f016020900481019282601f10611b5157805160ff1916838001178555611b7f565b82800160010185558215611b7f579182015b82811115611b7e578251825591602001919060010190611b63565b5b509050611b8c9190611bd0565b5090565b602060405190810160405280600081525090565b610400604051908101604052806020905b600060ff16815260200190600190039081611bb55790505090565b611bf291905b80821115611bee576000816000905550600101611bd6565b5090565b90565b611c2291905b80821115611c1e57600081816101000a81549060ff021916905550600101611bfb565b5090565b905600a165627a7a723058201f3f6a5a84e9ffaafdd89ae12422b613722612a7844fa10e6354c51bb5458df10029",
  "source": "pragma solidity ^0.4.21;\r\n\r\nimport \"./Owned.sol\";\r\n\r\ncontract CandyKillerCharacter is Owned {\r\n\r\n    string public standard = 'CandyKiller';\r\n    string public name;\r\n    string public symbol;\r\n    uint8 public decimals;\r\n    uint256 public totalSupply;\r\n    // идентификатор следующего персонажа\r\n    uint public nextCharacterIndexToAssign = 1;\r\n    /* персонажи */\r\n    mapping(uint => address) public characterIndexToAddress;\r\n    mapping(uint => Character) public characters;\r\n    /*\r\n        Контракты\r\n    */\r\n    CandyKillerAccount ckAccount;\r\n    CKServiceContract ckService;\r\n    /*\r\n        Описание персонажа\r\n    */\r\n    struct Character {\r\n        uint id; // идентификатор\r\n        string name; // ник\r\n        uint8[32] skils; // способности\r\n        uint8[32] skilsMask; // верхний предел прокачки персонажа\r\n        bool isDeleted; // флаг удаления\r\n        uint experienceCoin; // монеты для прокачки\r\n        uint winCount; // количество побед\r\n        uint gameCount; // количство игр\r\n        address tenant; // арендатор\r\n        uint rentStart;\r\n        uint rentDayLenght;\r\n    }\r\n    // создание персонажа\r\n    event CreateCharacter(address indexed _creator, uint _character);\r\n\r\n    function CandyKilleAccountCharacter() public {\r\n        owner = msg.sender;\r\n        totalSupply = 10000;\r\n        name = \"CandyKillerCharacter\";\r\n        symbol = \"CKС\";\r\n        decimals = 0;\r\n    }\r\n    /*\r\n        инициализация объекта CandyKillerAccount\r\n    */\r\n    function initCandyKillerAccount(address accountContract) public onlyOwner {\r\n        if (accountContract == 0x0) return;\r\n        ckAccount = CandyKillerAccount(accountContract);\r\n    }\r\n    /*\r\n        инициализация объекта CKServiceContract\r\n    */\r\n    function initCKServiceContract(address serviceContract) public onlyOwner {\r\n        if (serviceContract == 0x0) return;\r\n        ckService = CKServiceContract(serviceContract);\r\n    }\r\n    /*\r\n        Создание персонажа\r\n    */\r\n    function createCharacter(string characterName) public returns (uint) {\r\n        // Аккаунта создан и активный\r\n        if (!ckAccount.isCreateAndActive(msg.sender)) return 0;\r\n        // Персонаж ещё никому не принадлежит\r\n        if (characterIndexToAddress[nextCharacterIndexToAssign] != 0x0) return 0;\r\n        // Инициализируем нового персонажа\r\n        Character memory newCharacter;\r\n        newCharacter.name = characterName;\r\n        newCharacter.id = nextCharacterIndexToAssign;\r\n        uint8[32] memory generateSkilsMask;\r\n        bool error;\r\n        (generateSkilsMask, error) = ckService.convertBlockHashToUintHexArray(block.blockhash(block.number - 1), 32);\r\n        if (error) return 0;\r\n        newCharacter.skilsMask = generateSkilsMask;\r\n        newCharacter.isDeleted = false;\r\n        newCharacter.experienceCoin = 0;\r\n        // Сохраняем персонажа в список персонажей\r\n        characters[nextCharacterIndexToAssign] = newCharacter;\r\n        // Связываем нового персонажа с хозяином\r\n        characterIndexToAddress[nextCharacterIndexToAssign] = msg.sender;\r\n        // Увеличиваем индекс для следующего персонажа\r\n        emit CreateCharacter(msg.sender, nextCharacterIndexToAssign);\r\n        nextCharacterIndexToAssign++;\r\n        return (newCharacter.id);\r\n    }\r\n    /*\r\n    Удаление персонажа.\r\n    Персонаж остается без хозяина и получет статус удален.\r\n*/\r\n    function deleteCharacter(uint characterIndex) public returns (bool) {\r\n        // Аккаунта создан и активный\r\n        if (!ckAccount.isCreateAndActive(msg.sender)) return false;\r\n        // Персонаж принадлежит вызвавшему функцию\r\n        if (characterIndexToAddress[characterIndex] == 0x0 || characterIndexToAddress[characterIndex] != msg.sender) return false;\r\n        // Устанавливаем персонажу флаг удален\r\n        characters[characterIndex].isDeleted = true;\r\n        // Удаляем првязку персонажа к владельцу\r\n        characterIndexToAddress[characterIndex] == 0x0;\r\n        return true;\r\n    }\r\n    /*\r\n        Получение инфо о персонаже по индексу\r\n        владелец, ник, способности, маска способностей, флаг удаления, монеты для прокачки\r\n    */\r\n    function getCharacterByIndex(uint characterIndex) public view returns (address, string, uint8[32], uint8[32], bool, uint, address, uint, uint) {\r\n        Character memory userCharacter = characters[characterIndex];\r\n        return (\r\n        characterIndexToAddress[characterIndex],\r\n        userCharacter.name,\r\n        userCharacter.skils,\r\n        userCharacter.skilsMask,\r\n        userCharacter.isDeleted,\r\n        userCharacter.experienceCoin,\r\n        userCharacter.tenant,\r\n        userCharacter.rentStart,\r\n        userCharacter.rentDayLenght\r\n        );\r\n    }\r\n    /*\r\n        Получение идентификатора следующего персонажа пользователя.\r\n        previousCharacterIndex - предыдущий персонаж пользователя.\r\n        Если previousCharacterIndex не принадлежит вызвавшему функцию вернет 0.\r\n        Если персонажей нет вернет 0.\r\n    */\r\n    function getNextUserCharacterIndex(uint previousCharacterIndex) public view returns (uint) {\r\n        if (characterIndexToAddress[previousCharacterIndex] == msg.sender || previousCharacterIndex == 0) {\r\n            for (uint i = previousCharacterIndex + 1; i < nextCharacterIndexToAssign; i++) {\r\n                if (characterIndexToAddress[i] == msg.sender) {\r\n                    return i;\r\n                }\r\n            }\r\n        }\r\n    }\r\n}\r\n\r\ncontract CandyKillerAccount {\r\n    function isCreateAndActive(address userAddress) public view returns (bool);\r\n}\r\n\r\ncontract CKServiceContract {\r\n    function convertBlockHashToUintHexArray(bytes32 bloclHash, uint8 convertCharacterCount) public pure returns (uint8[32] convertValues, bool error);\r\n}",
  "sourcePath": "F:\\Blockchain\\Projects\\Smarts\\Lottery\\contracts\\CandyKillerCharacter.sol",
  "compiler": {
    "name": "solc",
    "version": "0.4.21+commit.dfe3193c.Emscripten.clang"
  },
  "schemaVersion": "2.0.0",
  "updatedAt": "2018-03-24T14:17:15.069Z"
}