{
  "contractName": "CandyKillerColony",
  "abi": [
    {
      "constant": true,
      "inputs": [],
      "name": "owner",
      "outputs": [
        {
          "name": "",
          "type": "address"
        }
      ],
      "payable": false,
      "stateMutability": "view",
      "type": "function"
    },
    {
      "constant": false,
      "inputs": [],
      "name": "owned",
      "outputs": [],
      "payable": false,
      "stateMutability": "nonpayable",
      "type": "function"
    },
    {
      "constant": false,
      "inputs": [
        {
          "name": "newOwner",
          "type": "address"
        }
      ],
      "name": "transferOwnership",
      "outputs": [],
      "payable": false,
      "stateMutability": "nonpayable",
      "type": "function"
    },
    {
      "inputs": [],
      "payable": false,
      "stateMutability": "nonpayable",
      "type": "constructor"
    },
    {
      "anonymous": false,
      "inputs": [
        {
          "indexed": false,
          "name": "colonyIndex",
          "type": "uint256"
        },
        {
          "indexed": true,
          "name": "ownerColonyAddress",
          "type": "address"
        }
      ],
      "name": "CreateColony",
      "type": "event"
    },
    {
      "anonymous": false,
      "inputs": [
        {
          "indexed": false,
          "name": "earthCellIndex",
          "type": "uint256"
        },
        {
          "indexed": false,
          "name": "sugar",
          "type": "uint256"
        },
        {
          "indexed": false,
          "name": "medarium",
          "type": "uint256"
        },
        {
          "indexed": true,
          "name": "ownerEarthCellAddress",
          "type": "address"
        }
      ],
      "name": "CreateEarthCellForNewColony",
      "type": "event"
    },
    {
      "anonymous": false,
      "inputs": [
        {
          "indexed": false,
          "name": "colonyIndex",
          "type": "uint256"
        },
        {
          "indexed": true,
          "name": "ownerColonyAddress",
          "type": "address"
        }
      ],
      "name": "DeleteColony",
      "type": "event"
    },
    {
      "anonymous": false,
      "inputs": [
        {
          "indexed": false,
          "name": "gameId",
          "type": "uint256"
        },
        {
          "indexed": false,
          "name": "earthCellIndex",
          "type": "uint256"
        },
        {
          "indexed": false,
          "name": "sugar",
          "type": "uint256"
        },
        {
          "indexed": false,
          "name": "medarium",
          "type": "uint256"
        },
        {
          "indexed": true,
          "name": "ownerEarthCellAddress",
          "type": "address"
        }
      ],
      "name": "GenerateNewEarthCell",
      "type": "event"
    },
    {
      "anonymous": false,
      "inputs": [
        {
          "indexed": false,
          "name": "building",
          "type": "uint256"
        },
        {
          "indexed": false,
          "name": "earthCellIndex",
          "type": "uint256"
        },
        {
          "indexed": false,
          "name": "colonyIndex",
          "type": "uint256"
        },
        {
          "indexed": true,
          "name": "ownerColonyAddress",
          "type": "address"
        }
      ],
      "name": "BuildBuilding",
      "type": "event"
    },
    {
      "anonymous": false,
      "inputs": [
        {
          "indexed": false,
          "name": "building",
          "type": "uint256"
        },
        {
          "indexed": false,
          "name": "colonyIndex",
          "type": "uint256"
        },
        {
          "indexed": true,
          "name": "ownerColonyAddress",
          "type": "address"
        }
      ],
      "name": "DeleteBuilding",
      "type": "event"
    },
    {
      "constant": false,
      "inputs": [
        {
          "name": "accountContract",
          "type": "address"
        }
      ],
      "name": "initCandyKillerAccount",
      "outputs": [],
      "payable": false,
      "stateMutability": "nonpayable",
      "type": "function"
    },
    {
      "constant": false,
      "inputs": [
        {
          "name": "serviceContract",
          "type": "address"
        }
      ],
      "name": "initCKServiceContract",
      "outputs": [],
      "payable": false,
      "stateMutability": "nonpayable",
      "type": "function"
    },
    {
      "constant": false,
      "inputs": [
        {
          "name": "colonyMarketPlaceAddress",
          "type": "address"
        }
      ],
      "name": "setColonyMarketPlace",
      "outputs": [],
      "payable": false,
      "stateMutability": "nonpayable",
      "type": "function"
    },
    {
      "constant": false,
      "inputs": [
        {
          "name": "colonyName",
          "type": "string"
        }
      ],
      "name": "createColony",
      "outputs": [],
      "payable": false,
      "stateMutability": "nonpayable",
      "type": "function"
    },
    {
      "constant": false,
      "inputs": [
        {
          "name": "indexColony",
          "type": "uint256"
        }
      ],
      "name": "deleteColony",
      "outputs": [],
      "payable": false,
      "stateMutability": "nonpayable",
      "type": "function"
    },
    {
      "constant": false,
      "inputs": [
        {
          "name": "indexColony",
          "type": "uint256"
        },
        {
          "name": "newSugar",
          "type": "uint256"
        }
      ],
      "name": "addSugar",
      "outputs": [],
      "payable": false,
      "stateMutability": "nonpayable",
      "type": "function"
    },
    {
      "constant": false,
      "inputs": [
        {
          "name": "indexColony",
          "type": "uint256"
        },
        {
          "name": "newHeavySugar",
          "type": "uint256"
        }
      ],
      "name": "addHeavySugar",
      "outputs": [],
      "payable": false,
      "stateMutability": "nonpayable",
      "type": "function"
    },
    {
      "constant": false,
      "inputs": [
        {
          "name": "indexColony",
          "type": "uint256"
        },
        {
          "name": "newMedarium",
          "type": "uint256"
        }
      ],
      "name": "addMedarium",
      "outputs": [],
      "payable": false,
      "stateMutability": "nonpayable",
      "type": "function"
    },
    {
      "constant": false,
      "inputs": [
        {
          "name": "userAddress",
          "type": "address"
        },
        {
          "name": "gameId",
          "type": "uint256"
        }
      ],
      "name": "generateCandyEarthCell",
      "outputs": [],
      "payable": false,
      "stateMutability": "nonpayable",
      "type": "function"
    },
    {
      "constant": true,
      "inputs": [
        {
          "name": "customer",
          "type": "address"
        },
        {
          "name": "cellIndex",
          "type": "uint256"
        }
      ],
      "name": "isExistAndForSaleCell",
      "outputs": [
        {
          "name": "",
          "type": "bool"
        }
      ],
      "payable": false,
      "stateMutability": "view",
      "type": "function"
    },
    {
      "constant": true,
      "inputs": [
        {
          "name": "possibleOwner",
          "type": "address"
        },
        {
          "name": "cellIndex",
          "type": "uint256"
        }
      ],
      "name": "isOwnerEarthCell",
      "outputs": [
        {
          "name": "",
          "type": "bool"
        }
      ],
      "payable": false,
      "stateMutability": "view",
      "type": "function"
    },
    {
      "constant": true,
      "inputs": [
        {
          "name": "customer",
          "type": "address"
        },
        {
          "name": "colonyIndex",
          "type": "uint256"
        }
      ],
      "name": "isExistColony",
      "outputs": [
        {
          "name": "",
          "type": "bool"
        }
      ],
      "payable": false,
      "stateMutability": "view",
      "type": "function"
    },
    {
      "constant": true,
      "inputs": [
        {
          "name": "possibleOwner",
          "type": "address"
        },
        {
          "name": "colonyIndex",
          "type": "uint256"
        }
      ],
      "name": "isOwnerColony",
      "outputs": [
        {
          "name": "",
          "type": "bool"
        }
      ],
      "payable": false,
      "stateMutability": "view",
      "type": "function"
    },
    {
      "constant": false,
      "inputs": [
        {
          "name": "from",
          "type": "address"
        },
        {
          "name": "to",
          "type": "address"
        },
        {
          "name": "cellIndex",
          "type": "uint256"
        }
      ],
      "name": "transferEarthCell",
      "outputs": [
        {
          "name": "",
          "type": "bool"
        }
      ],
      "payable": false,
      "stateMutability": "nonpayable",
      "type": "function"
    },
    {
      "constant": true,
      "inputs": [
        {
          "name": "previousColonyIndex",
          "type": "uint256"
        }
      ],
      "name": "getNextUserColonyIndex",
      "outputs": [
        {
          "name": "",
          "type": "uint256"
        }
      ],
      "payable": false,
      "stateMutability": "view",
      "type": "function"
    },
    {
      "constant": false,
      "inputs": [
        {
          "name": "colonyIndex",
          "type": "uint256"
        },
        {
          "name": "cellIndex",
          "type": "uint256"
        },
        {
          "name": "x",
          "type": "int256"
        },
        {
          "name": "y",
          "type": "int256"
        }
      ],
      "name": "putCandyEarthCellOnColony",
      "outputs": [],
      "payable": false,
      "stateMutability": "nonpayable",
      "type": "function"
    },
    {
      "constant": true,
      "inputs": [
        {
          "name": "colonyIndex",
          "type": "uint256"
        }
      ],
      "name": "getColonyByIndex",
      "outputs": [
        {
          "name": "",
          "type": "uint256"
        },
        {
          "name": "",
          "type": "address"
        },
        {
          "name": "",
          "type": "uint256"
        },
        {
          "name": "",
          "type": "uint256"
        },
        {
          "name": "",
          "type": "uint256"
        },
        {
          "name": "",
          "type": "uint256"
        },
        {
          "name": "",
          "type": "uint256"
        },
        {
          "name": "",
          "type": "uint256"
        },
        {
          "name": "",
          "type": "uint256"
        },
        {
          "name": "",
          "type": "string"
        },
        {
          "name": "",
          "type": "bool"
        }
      ],
      "payable": false,
      "stateMutability": "view",
      "type": "function"
    },
    {
      "constant": true,
      "inputs": [
        {
          "name": "candyEarthCellIndex",
          "type": "uint256"
        }
      ],
      "name": "getEarthCellByIndex",
      "outputs": [
        {
          "name": "",
          "type": "uint256"
        },
        {
          "name": "",
          "type": "uint256"
        },
        {
          "name": "",
          "type": "int256[2]"
        },
        {
          "name": "",
          "type": "address"
        },
        {
          "name": "",
          "type": "bool"
        },
        {
          "name": "",
          "type": "bool"
        }
      ],
      "payable": false,
      "stateMutability": "view",
      "type": "function"
    },
    {
      "constant": true,
      "inputs": [
        {
          "name": "previousEarthCellIndex",
          "type": "uint256"
        },
        {
          "name": "colonyIndex",
          "type": "uint256"
        }
      ],
      "name": "getNextUserEarthCellIndex",
      "outputs": [
        {
          "name": "",
          "type": "uint256"
        }
      ],
      "payable": false,
      "stateMutability": "view",
      "type": "function"
    },
    {
      "constant": false,
      "inputs": [
        {
          "name": "colonyIndex",
          "type": "uint256"
        },
        {
          "name": "cellIndex",
          "type": "uint256"
        },
        {
          "name": "cellPartIndex",
          "type": "uint256"
        },
        {
          "name": "collectSugar",
          "type": "uint256"
        },
        {
          "name": "collectMedarium",
          "type": "uint256"
        }
      ],
      "name": "collectResources",
      "outputs": [],
      "payable": false,
      "stateMutability": "nonpayable",
      "type": "function"
    },
    {
      "constant": true,
      "inputs": [
        {
          "name": "colonyIndex",
          "type": "uint256"
        },
        {
          "name": "buildingIndex",
          "type": "uint256"
        }
      ],
      "name": "getBuildingByIndex",
      "outputs": [
        {
          "name": "",
          "type": "uint256"
        },
        {
          "name": "",
          "type": "uint256"
        },
        {
          "name": "",
          "type": "uint8"
        },
        {
          "name": "",
          "type": "uint8"
        },
        {
          "name": "",
          "type": "uint8"
        },
        {
          "name": "",
          "type": "uint256"
        },
        {
          "name": "",
          "type": "uint256"
        },
        {
          "name": "",
          "type": "bool"
        }
      ],
      "payable": false,
      "stateMutability": "view",
      "type": "function"
    },
    {
      "constant": false,
      "inputs": [
        {
          "name": "colonyIndexForBuild",
          "type": "uint256"
        },
        {
          "name": "earthCellIndexForBuild",
          "type": "uint256"
        },
        {
          "name": "buildingIndexOnCellForBuild",
          "type": "uint8"
        },
        {
          "name": "buildingType",
          "type": "uint8"
        }
      ],
      "name": "buildBuilding",
      "outputs": [],
      "payable": false,
      "stateMutability": "nonpayable",
      "type": "function"
    },
    {
      "constant": false,
      "inputs": [
        {
          "name": "colonyIndex",
          "type": "uint256"
        },
        {
          "name": "buildingIndex",
          "type": "uint256"
        }
      ],
      "name": "deleteBuilding",
      "outputs": [],
      "payable": false,
      "stateMutability": "nonpayable",
      "type": "function"
    },
    {
      "constant": true,
      "inputs": [
        {
          "name": "previousBuildingIndex",
          "type": "uint256"
        },
        {
          "name": "colonyIndex",
          "type": "uint256"
        }
      ],
      "name": "getNextUserBuildingIndex",
      "outputs": [
        {
          "name": "",
          "type": "uint256"
        }
      ],
      "payable": false,
      "stateMutability": "view",
      "type": "function"
    },
    {
      "constant": false,
      "inputs": [
        {
          "name": "colonyIndex",
          "type": "uint256"
        },
        {
          "name": "buildingIndex",
          "type": "uint256"
        },
        {
          "name": "addUnitCount",
          "type": "uint256"
        }
      ],
      "name": "addUnitInBuilding",
      "outputs": [],
      "payable": false,
      "stateMutability": "nonpayable",
      "type": "function"
    },
    {
      "constant": false,
      "inputs": [
        {
          "name": "colonyIndex",
          "type": "uint256"
        },
        {
          "name": "buildingIndex",
          "type": "uint256"
        },
        {
          "name": "removeUnitCount",
          "type": "uint256"
        }
      ],
      "name": "removeUnitFromBuilding",
      "outputs": [],
      "payable": false,
      "stateMutability": "nonpayable",
      "type": "function"
    },
    {
      "constant": false,
      "inputs": [
        {
          "name": "colonyIndex",
          "type": "uint256"
        }
      ],
      "name": "createNewUnitInColony",
      "outputs": [],
      "payable": false,
      "stateMutability": "nonpayable",
      "type": "function"
    },
    {
      "constant": true,
      "inputs": [
        {
          "name": "earthCellIndex",
          "type": "uint256"
        },
        {
          "name": "earthCellPartIndex",
          "type": "uint256"
        }
      ],
      "name": "getEarthCellPart",
      "outputs": [
        {
          "name": "",
          "type": "uint256"
        },
        {
          "name": "",
          "type": "uint256"
        },
        {
          "name": "",
          "type": "uint256"
        }
      ],
      "payable": false,
      "stateMutability": "view",
      "type": "function"
    }
  ],
  "bytecode": "0x606060405260016006556001600755341561001957600080fd5b336000806101000a81548173ffffffffffffffffffffffffffffffffffffffff021916908373ffffffffffffffffffffffffffffffffffffffff16021790555061495d806100686000396000f30060606040526004361061018b576000357c0100000000000000000000000000000000000000000000000000000000900463ffffffff1680630826693b146101905780630b1be6cc146101ea57806313f58fd11461021657806318bcf60d1461024f5780631959400714610284578063355064e3146102c65780633df34d9a146103065780634917f11c1461037f5780634e3d59e1146103b85780635c683f43146103e45780635d4a109d1461043e5780636010375b1461047e57806363bab95d146104d8578063683454b21461050d57806368f863cd14610539578063762017571461064b5780637c14566b146106a85780638da5cb5b1461072f578063a4a920b614610784578063b8979915146107bb578063c1f57ba7146107e7578063d5f5462f1461082b578063d6889b80146108e1578063da99c12d14610904578063df32754b14610942578063ec522a1414610957578063f2b0f6ce146109b1578063f2fde38b146109ea578063f41f931014610a23578063fbd59ab614610a6a578063fd04e23414610a8d575b600080fd5b341561019b57600080fd5b6101d0600480803573ffffffffffffffffffffffffffffffffffffffff16906020019091908035906020019091905050610adb565b604051808215151515815260200191505060405180910390f35b34156101f557600080fd5b6102146004808035906020019091908035906020019091905050610b6d565b005b341561022157600080fd5b61024d600480803573ffffffffffffffffffffffffffffffffffffffff16906020019091905050610f3a565b005b341561025a57600080fd5b6102826004808035906020019091908035906020019091908035906020019091905050610ffe565b005b341561028f57600080fd5b6102c4600480803573ffffffffffffffffffffffffffffffffffffffff16906020019091908035906020019091905050611296565b005b34156102d157600080fd5b6102f06004808035906020019091908035906020019091905050611852565b6040518082815260200191505060405180910390f35b341561031157600080fd5b610365600480803573ffffffffffffffffffffffffffffffffffffffff1690602001909190803573ffffffffffffffffffffffffffffffffffffffff1690602001909190803590602001909190505061198d565b604051808215151515815260200191505060405180910390f35b341561038a57600080fd5b6103b6600480803573ffffffffffffffffffffffffffffffffffffffff16906020019091905050611ae6565b005b34156103c357600080fd5b6103e26004808035906020019091908035906020019091905050611baa565b005b34156103ef57600080fd5b610424600480803573ffffffffffffffffffffffffffffffffffffffff16906020019091908035906020019091905050611cf4565b604051808215151515815260200191505060405180910390f35b341561044957600080fd5b6104686004808035906020019091908035906020019091905050611d86565b6040518082815260200191505060405180910390f35b341561048957600080fd5b6104be600480803573ffffffffffffffffffffffffffffffffffffffff16906020019091908035906020019091905050611e81565b604051808215151515815260200191505060405180910390f35b34156104e357600080fd5b61050b6004808035906020019091908035906020019091908035906020019091905050611f76565b005b341561051857600080fd5b610537600480803590602001909190803590602001909190505061215d565b005b341561054457600080fd5b61055a60048080359060200190919050506122a7565b604051808c81526020018b73ffffffffffffffffffffffffffffffffffffffff1673ffffffffffffffffffffffffffffffffffffffff1681526020018a81526020018981526020018881526020018781526020018681526020018581526020018481526020018060200183151515158152602001828103825284818151815260200191508051906020019080838360005b838110156106065780820151818401526020810190506105eb565b50505050905090810190601f1680156106335780820380516001836020036101000a031916815260200191505b509c5050505050505050505050505060405180910390f35b341561065657600080fd5b6106a6600480803590602001908201803590602001908080601f016020809104026020016040519081016040528093929190818152602001838380828437820191505050505050919050506124af565b005b34156106b357600080fd5b6106d26004808035906020019091908035906020019091905050612e6e565b604051808981526020018881526020018760ff1660ff1681526020018660ff1660ff1681526020018560ff1660ff168152602001848152602001838152602001821515151581526020019850505050505050505060405180910390f35b341561073a57600080fd5b610742612f98565b604051808273ffffffffffffffffffffffffffffffffffffffff1673ffffffffffffffffffffffffffffffffffffffff16815260200191505060405180910390f35b341561078f57600080fd5b6107a56004808035906020019091905050612fbd565b6040518082815260200191505060405180910390f35b34156107c657600080fd5b6107e560048080359060200190919080359060200190919050506130cd565b005b34156107f257600080fd5b610829600480803590602001909190803590602001909190803560ff1690602001909190803560ff16906020019091905050613217565b005b341561083657600080fd5b61084c600480803590602001909190505061365e565b6040518087815260200186815260200185600260200280838360005b83811015610883578082015181840152602081019050610868565b505050509050018473ffffffffffffffffffffffffffffffffffffffff1673ffffffffffffffffffffffffffffffffffffffff1681526020018315151515815260200182151515158152602001965050505050505060405180910390f35b34156108ec57600080fd5b61090260048080359060200190919050506137b3565b005b341561090f57600080fd5b6109406004808035906020019091908035906020019091908035906020019091908035906020019091905050613951565b005b341561094d57600080fd5b610955613c56565b005b341561096257600080fd5b610997600480803573ffffffffffffffffffffffffffffffffffffffff16906020019091908035906020019091905050613c98565b604051808215151515815260200191505060405180910390f35b34156109bc57600080fd5b6109e8600480803573ffffffffffffffffffffffffffffffffffffffff16906020019091905050613d60565b005b34156109f557600080fd5b610a21600480803573ffffffffffffffffffffffffffffffffffffffff16906020019091905050613e24565b005b3415610a2e57600080fd5b610a686004808035906020019091908035906020019091908035906020019091908035906020019091908035906020019091905050613ec2565b005b3415610a7557600080fd5b610a8b6004808035906020019091905050614243565b005b3415610a9857600080fd5b610ab76004808035906020019091908035906020019091905050614585565b60405180848152602001838152602001828152602001935050505060405180910390f35b60008273ffffffffffffffffffffffffffffffffffffffff166004600084815260200190815260200160002060050160009054906101000a900473ffffffffffffffffffffffffffffffffffffffff1673ffffffffffffffffffffffffffffffffffffffff16148015610b65575060008373ffffffffffffffffffffffffffffffffffffffff1614155b905092915050565b600160009054906101000a900473ffffffffffffffffffffffffffffffffffffffff1673ffffffffffffffffffffffffffffffffffffffff1663892d0f6e336040518263ffffffff167c0100000000000000000000000000000000000000000000000000000000028152600401808273ffffffffffffffffffffffffffffffffffffffff1673ffffffffffffffffffffffffffffffffffffffff168152602001915050602060405180830381600087803b1515610c2957600080fd5b5af11515610c3657600080fd5b505050604051805190501580610c9957506000809054906101000a900473ffffffffffffffffffffffffffffffffffffffff1673ffffffffffffffffffffffffffffffffffffffff163373ffffffffffffffffffffffffffffffffffffffff1614155b15610ca357610f36565b3373ffffffffffffffffffffffffffffffffffffffff166005600084815260200190815260200160002060010160009054906101000a900473ffffffffffffffffffffffffffffffffffffffff1673ffffffffffffffffffffffffffffffffffffffff16141580610d6157506000809054906101000a900473ffffffffffffffffffffffffffffffffffffffff1673ffffffffffffffffffffffffffffffffffffffff163373ffffffffffffffffffffffffffffffffffffffff1614155b15610d6b57610f36565b6000600560008481526020019081526020016000206003016000838152602001908152602001600020600101541415610da357610f36565b600060046000600560008681526020019081526020016000206003016000858152602001908152602001600020600101548152602001908152602001600020600401600060056000868152602001908152602001600020600301600085815260200190815260200160002060020160009054906101000a900460ff1660ff16815260200190815260200160002060000181905550600160056000848152602001908152602001600020600301600083815260200190815260200160002060050160006101000a81548160ff021916908315150217905550600060056000848152602001908152602001600020600301600083815260200190815260200160002060010181905550610edf828260056000868152602001908152602001600020600301600085815260200190815260200160002060030154611f76565b3373ffffffffffffffffffffffffffffffffffffffff167fabcb8d12256095a52c6cf3b72b238ed60430c811ea49b66a9ecbbd4e025e7c508284604051808381526020018281526020019250505060405180910390a25b5050565b6000809054906101000a900473ffffffffffffffffffffffffffffffffffffffff1673ffffffffffffffffffffffffffffffffffffffff163373ffffffffffffffffffffffffffffffffffffffff16141515610f9557600080fd5b60008173ffffffffffffffffffffffffffffffffffffffff161415610fb957610ffb565b80600360006101000a81548173ffffffffffffffffffffffffffffffffffffffff021916908373ffffffffffffffffffffffffffffffffffffffff1602179055505b50565b600160009054906101000a900473ffffffffffffffffffffffffffffffffffffffff1673ffffffffffffffffffffffffffffffffffffffff1663892d0f6e336040518263ffffffff167c0100000000000000000000000000000000000000000000000000000000028152600401808273ffffffffffffffffffffffffffffffffffffffff1673ffffffffffffffffffffffffffffffffffffffff168152602001915050602060405180830381600087803b15156110ba57600080fd5b5af115156110c757600080fd5b5050506040518051905015156110dc57611291565b3373ffffffffffffffffffffffffffffffffffffffff166005600085815260200190815260200160002060010160009054906101000a900473ffffffffffffffffffffffffffffffffffffffff1673ffffffffffffffffffffffffffffffffffffffff1614151561114c57611291565b60056000848152602001908152602001600020600301600083815260200190815260200160002060040154600560008581526020019081526020016000206003016000848152602001908152602001600020600301541015156111ae57611291565b80600560008581526020019081526020016000206009015410156111d157611291565b60056000848152602001908152602001600020600301600083815260200190815260200160002060040154816005600086815260200190815260200160002060030160008581526020019081526020016000206003015401111561123457611291565b80600560008581526020019081526020016000206003016000848152602001908152602001600020600301600082825401925050819055508060056000858152602001908152602001600020600901600082825403925050819055505b505050565b61129e614602565b60006112a861462e565b60008060006112b5614685565b6000809054906101000a900473ffffffffffffffffffffffffffffffffffffffff1673ffffffffffffffffffffffffffffffffffffffff163373ffffffffffffffffffffffffffffffffffffffff1614151561131057600080fd5b60008814806113ef5750600160009054906101000a900473ffffffffffffffffffffffffffffffffffffffff1673ffffffffffffffffffffffffffffffffffffffff1663892d0f6e336040518263ffffffff167c0100000000000000000000000000000000000000000000000000000000028152600401808273ffffffffffffffffffffffffffffffffffffffff1673ffffffffffffffffffffffffffffffffffffffff168152602001915050602060405180830381600087803b15156113d657600080fd5b5af115156113e357600080fd5b50505060405180519050155b156113f957611847565b600160009054906101000a900473ffffffffffffffffffffffffffffffffffffffff1673ffffffffffffffffffffffffffffffffffffffff1663892d0f6e336040518263ffffffff167c0100000000000000000000000000000000000000000000000000000000028152600401808273ffffffffffffffffffffffffffffffffffffffff1673ffffffffffffffffffffffffffffffffffffffff168152602001915050602060405180830381600087803b15156114b557600080fd5b5af115156114c257600080fd5b5050506040518051905015156114d757611847565b600260009054906101000a900473ffffffffffffffffffffffffffffffffffffffff1673ffffffffffffffffffffffffffffffffffffffff1663cfed8e5a600143034060026040518363ffffffff167c01000000000000000000000000000000000000000000000000000000000281526004018083600019166000191681526020018260ff1681526020019250505061042060405180830381600087803b151561158057600080fd5b5af1151561158d57600080fd5b5050506040518061040001805190602001604052809750819850505085156115b457611847565b6000915060065485600001818152505088856060019073ffffffffffffffffffffffffffffffffffffffff16908173ffffffffffffffffffffffffffffffffffffffff168152505084600460006006548152602001908152602001600020600082015181600001556020820151816001015560408201518160020190600261163d9291906146a7565b5060608201518160050160006101000a81548173ffffffffffffffffffffffffffffffffffffffff021916908373ffffffffffffffffffffffffffffffffffffffff16021790555060808201518160050160146101000a81548160ff02191690831515021790555060a08201518160050160156101000a81548160ff0219169083151502179055509050506103e88760006020811015156116da57fe5b602002015160ff160261ffff1693506103e88760016020811015156116fb57fe5b602002015160ff160261ffff169250600091505b60098210156117c65760008160200181815250506000816040018181525050600084111561174e5760098481151561174357fe5b048160200181815250505b600083111561176e5760098381151561176357fe5b048160400181815250505b806004600060065481526020019081526020016000206004016000848152602001908152602001600020600082015181600001556020820151816001015560408201518160020155905050818060010192505061170f565b846060015173ffffffffffffffffffffffffffffffffffffffff167f84d514b861143269506926a4f751e28025b47dbedae193d4fb895e8655f2bc5f89876000015187876040518085815260200184815260200183815260200182815260200194505050505060405180910390a26006600081548092919060010191905055505b505050505050505050565b6000803373ffffffffffffffffffffffffffffffffffffffff166004600086815260200190815260200160002060050160009054906101000a900473ffffffffffffffffffffffffffffffffffffffff1673ffffffffffffffffffffffffffffffffffffffff1614806118c55750600084145b15611985576001840190505b600654811015611984573373ffffffffffffffffffffffffffffffffffffffff166004600083815260200190815260200160002060050160009054906101000a900473ffffffffffffffffffffffffffffffffffffffff1673ffffffffffffffffffffffffffffffffffffffff1614156119775760008314806119695750826004600083815260200190815260200160002060010154145b1561197657809150611986565b5b80806001019150506118d1565b5b5b5092915050565b6000600360009054906101000a900473ffffffffffffffffffffffffffffffffffffffff1673ffffffffffffffffffffffffffffffffffffffff163373ffffffffffffffffffffffffffffffffffffffff161415156119ef5760009050611adf565b8373ffffffffffffffffffffffffffffffffffffffff166004600084815260200190815260200160002060050160009054906101000a900473ffffffffffffffffffffffffffffffffffffffff1673ffffffffffffffffffffffffffffffffffffffff16141580611a7757506000600460008481526020019081526020016000206001015414155b15611a855760009050611adf565b826004600084815260200190815260200160002060050160006101000a81548173ffffffffffffffffffffffffffffffffffffffff021916908373ffffffffffffffffffffffffffffffffffffffff160217905550600190505b9392505050565b6000809054906101000a900473ffffffffffffffffffffffffffffffffffffffff1673ffffffffffffffffffffffffffffffffffffffff163373ffffffffffffffffffffffffffffffffffffffff16141515611b4157600080fd5b60008173ffffffffffffffffffffffffffffffffffffffff161415611b6557611ba7565b80600160006101000a81548173ffffffffffffffffffffffffffffffffffffffff021916908373ffffffffffffffffffffffffffffffffffffffff1602179055505b50565b6000809054906101000a900473ffffffffffffffffffffffffffffffffffffffff1673ffffffffffffffffffffffffffffffffffffffff163373ffffffffffffffffffffffffffffffffffffffff16141515611c0557600080fd5b6005600083815260200190815260200160002060010160009054906101000a900473ffffffffffffffffffffffffffffffffffffffff1673ffffffffffffffffffffffffffffffffffffffff163373ffffffffffffffffffffffffffffffffffffffff161480611cc1575060006005600084815260200190815260200160002060010160009054906101000a900473ffffffffffffffffffffffffffffffffffffffff1673ffffffffffffffffffffffffffffffffffffffff16145b15611ccb57611cf0565b8060056000848152602001908152602001600020600601600082825401925050819055505b5050565b60008273ffffffffffffffffffffffffffffffffffffffff166005600084815260200190815260200160002060010160009054906101000a900473ffffffffffffffffffffffffffffffffffffffff1673ffffffffffffffffffffffffffffffffffffffff16148015611d7e575060008373ffffffffffffffffffffffffffffffffffffffff1614155b905092915050565b6000803373ffffffffffffffffffffffffffffffffffffffff166005600085815260200190815260200160002060010160009054906101000a900473ffffffffffffffffffffffffffffffffffffffff1673ffffffffffffffffffffffffffffffffffffffff16141515611dfd5760009150611e7a565b6001840190505b6005600084815260200190815260200160002060040154811015611e755760056000848152602001908152602001600020600301600082815260200190815260200160002060050160009054906101000a900460ff161515611e6857809150611e7a565b8080600101915050611e04565b600091505b5092915050565b6000806004600084815260200190815260200160002060050160009054906101000a900473ffffffffffffffffffffffffffffffffffffffff1673ffffffffffffffffffffffffffffffffffffffff1614158015611f4157508273ffffffffffffffffffffffffffffffffffffffff166004600084815260200190815260200160002060050160009054906101000a900473ffffffffffffffffffffffffffffffffffffffff1673ffffffffffffffffffffffffffffffffffffffff1614155b8015611f6e57506004600083815260200190815260200160002060050160159054906101000a900460ff16155b905092915050565b600160009054906101000a900473ffffffffffffffffffffffffffffffffffffffff1673ffffffffffffffffffffffffffffffffffffffff1663892d0f6e336040518263ffffffff167c0100000000000000000000000000000000000000000000000000000000028152600401808273ffffffffffffffffffffffffffffffffffffffff1673ffffffffffffffffffffffffffffffffffffffff168152602001915050602060405180830381600087803b151561203257600080fd5b5af1151561203f57600080fd5b50505060405180519050151561205457612158565b3373ffffffffffffffffffffffffffffffffffffffff166005600085815260200190815260200160002060010160009054906101000a900473ffffffffffffffffffffffffffffffffffffffff1673ffffffffffffffffffffffffffffffffffffffff161415156120c457612158565b806005600085815260200190815260200160002060030160008481526020019081526020016000206003015410156120fb57612158565b80600560008581526020019081526020016000206003016000848152602001908152602001600020600301600082825403925050819055508060056000858152602001908152602001600020600901600082825401925050819055505b505050565b6000809054906101000a900473ffffffffffffffffffffffffffffffffffffffff1673ffffffffffffffffffffffffffffffffffffffff163373ffffffffffffffffffffffffffffffffffffffff161415156121b857600080fd5b6005600083815260200190815260200160002060010160009054906101000a900473ffffffffffffffffffffffffffffffffffffffff1673ffffffffffffffffffffffffffffffffffffffff163373ffffffffffffffffffffffffffffffffffffffff161480612274575060006005600084815260200190815260200160002060010160009054906101000a900473ffffffffffffffffffffffffffffffffffffffff1673ffffffffffffffffffffffffffffffffffffffff16145b1561227e576122a3565b8060056000848152602001908152602001600020600701600082825401925050819055505b5050565b60008060008060008060008060006122bd6146e7565b60006122c76146fb565b600560008e81526020019081526020016000206101606040519081016040529081600082015481526020016001820160009054906101000a900473ffffffffffffffffffffffffffffffffffffffff1673ffffffffffffffffffffffffffffffffffffffff1673ffffffffffffffffffffffffffffffffffffffff16815260200160028201548152602001600482015481526020016005820154815260200160068201548152602001600782015481526020016008820154815260200160098201548152602001600a82018054600181600116156101000203166002900480601f0160208091040260200160405190810160405280929190818152602001828054600181600116156101000203166002900480156124265780601f106123fb57610100808354040283529160200191612426565b820191906000526020600020905b81548152906001019060200180831161240957829003601f168201915b50505050508152602001600b820160009054906101000a900460ff1615151515815250509050806000015181602001518260400151836060015184608001518560a001518660c001518760e001518861010001518961012001518a61014001518191509b509b509b509b509b509b509b509b509b509b509b505091939597999b90929496989a50565b6124b7614602565b60006124c16146fb565b60006124cb614774565b6124d361462e565b6124db614685565b6000806000806000600160009054906101000a900473ffffffffffffffffffffffffffffffffffffffff1673ffffffffffffffffffffffffffffffffffffffff1663892d0f6e336040518263ffffffff167c0100000000000000000000000000000000000000000000000000000000028152600401808273ffffffffffffffffffffffffffffffffffffffff1673ffffffffffffffffffffffffffffffffffffffff168152602001915050602060405180830381600087803b151561259f57600080fd5b5af115156125ac57600080fd5b5050506040518051905015156125c157612e5f565b600260009054906101000a900473ffffffffffffffffffffffffffffffffffffffff1673ffffffffffffffffffffffffffffffffffffffff1663cfed8e5a6001430340600e6040518363ffffffff167c01000000000000000000000000000000000000000000000000000000000281526004018083600019166000191681526020018260ff1681526020019250505061042060405180830381600087803b151561266a57600080fd5b5af1151561267757600080fd5b5050506040518061040001805190602001604052809c50819d5050508a1561269e57612e5f565b6007548a6000018181525050338a6020019073ffffffffffffffffffffffffffffffffffffffff16908173ffffffffffffffffffffffffffffffffffffffff168152505060018a60400181815250508c8a610120018190525060018a6060018181525050896005600060075481526020019081526020016000206000820151816000015560208201518160010160006101000a81548173ffffffffffffffffffffffffffffffffffffffff021916908373ffffffffffffffffffffffffffffffffffffffff16021790555060408201518160020155606082015181600401556080820151816005015560a0820151816006015560c0820151816007015560e08201518160080155610100820151816009015561012082015181600a0190805190602001906127cd92919061479b565b5061014082015181600b0160006101000a81548160ff0219169083151502179055509050506000985060009250600091508960000151876020018181525050600187608001901515908115158152505060018760a001901515908115158152505033876060019073ffffffffffffffffffffffffffffffffffffffff16908173ffffffffffffffffffffffffffffffffffffffff1681525050600091505b6002821215612b3257600090505b6002811215612b25578188600060028110151561289257fe5b602002018181525050808860016002811015156128ab57fe5b60200201818152505060065487600001818152505087876040018190525086600460006006548152602001908152602001600020600082015181600001556020820151816001015560408201518160020190600261290a9291906146a7565b5060608201518160050160006101000a81548173ffffffffffffffffffffffffffffffffffffffff021916908373ffffffffffffffffffffffffffffffffffffffff16021790555060808201518160050160146101000a81548160ff02191690831515021790555060a08201518160050160156101000a81548160ff0219169083151502179055509050506103e88c8a60ff166020811015156129a957fe5b602002015160ff160261ffff1694506103e88c60018b0160ff166020811015156129cf57fe5b602002015160ff160261ffff169350600092505b6009831015612a9a57600086602001818152505060008660400181815250506000851115612a2257600985811515612a1757fe5b048660200181815250505b6000841115612a4257600984811515612a3757fe5b048660400181815250505b85600460006006548152602001908152602001600020600401600085815260200190815260200160002060008201518160000155602082015181600101556040820151816002015590505082806001019350506129e3565b866060015173ffffffffffffffffffffffffffffffffffffffff167f872ea05cdaa5e31ccfd24b02719426e1021b5095e2db570b240473980ba40a548860000151878760405180848152602001838152602001828152602001935050505060405180910390a26002890198506006600081548092919060010191905055508080600101915050612879565b818060010192505061286b565b6000886000600281101515612b4357fe5b6020020181815250506000886001600281101515612b5d57fe5b6020020181815250508787604001819052506000876080019015159081151581525050600091505b6003821215612df657600654876000018181525050866004600060065481526020019081526020016000206000820151816000015560208201518160010155604082015181600201906002612bdb9291906146a7565b5060608201518160050160006101000a81548173ffffffffffffffffffffffffffffffffffffffff021916908373ffffffffffffffffffffffffffffffffffffffff16021790555060808201518160050160146101000a81548160ff02191690831515021790555060a08201518160050160156101000a81548160ff0219169083151502179055509050506103e88c8a60ff16602081101515612c7a57fe5b602002015160ff160261ffff1694506103e88c60018b0160ff16602081101515612ca057fe5b602002015160ff160261ffff169350600092505b6009831015612d6b57600086602001818152505060008660400181815250506000851115612cf357600985811515612ce857fe5b048660200181815250505b6000841115612d1357600984811515612d0857fe5b048660400181815250505b8560046000600654815260200190815260200160002060040160008581526020019081526020016000206000820151816000015560208201518160010155604082015181600201559050508280600101935050612cb4565b866060015173ffffffffffffffffffffffffffffffffffffffff167f872ea05cdaa5e31ccfd24b02719426e1021b5095e2db570b240473980ba40a548860000151878760405180848152602001838152602001828152602001935050505060405180910390a26002890198506006600081548092919060010191905055508180600101925050612b85565b600760008154809291906001019190505550896020015173ffffffffffffffffffffffffffffffffffffffff167f2645139ece6c075c00e648daefa920b9fac2a46ffb3502f6a15006a8f6d39cf98b600001516040518082815260200191505060405180910390a25b50505050505050505050505050565b600080600080600080600080612e8261481b565b600560008c815260200190815260200160002060030160008b8152602001908152602001600020610100604051908101604052908160008201548152602001600182015481526020016002820160009054906101000a900460ff1660ff1660ff1681526020016002820160019054906101000a900460ff1660ff1660ff1681526020016002820160029054906101000a900460ff1660ff1660ff16815260200160038201548152602001600482015481526020016005820160009054906101000a900460ff1615151515815250509050806000015181602001518260400151836060015184608001518560a001518660c001518760e0015198509850985098509850985098509850509295985092959890939650565b6000809054906101000a900473ffffffffffffffffffffffffffffffffffffffff1681565b6000803373ffffffffffffffffffffffffffffffffffffffff166005600085815260200190815260200160002060010160009054906101000a900473ffffffffffffffffffffffffffffffffffffffff1673ffffffffffffffffffffffffffffffffffffffff1614806130305750600083145b156130c6576001830190505b6007548110156130c5573373ffffffffffffffffffffffffffffffffffffffff166005600083815260200190815260200160002060010160009054906101000a900473ffffffffffffffffffffffffffffffffffffffff1673ffffffffffffffffffffffffffffffffffffffff1614156130b8578091506130c7565b808060010191505061303c565b5b5b50919050565b6000809054906101000a900473ffffffffffffffffffffffffffffffffffffffff1673ffffffffffffffffffffffffffffffffffffffff163373ffffffffffffffffffffffffffffffffffffffff1614151561312857600080fd5b6005600083815260200190815260200160002060010160009054906101000a900473ffffffffffffffffffffffffffffffffffffffff1673ffffffffffffffffffffffffffffffffffffffff163373ffffffffffffffffffffffffffffffffffffffff1614806131e4575060006005600084815260200190815260200160002060010160009054906101000a900473ffffffffffffffffffffffffffffffffffffffff1673ffffffffffffffffffffffffffffffffffffffff16145b156131ee57613213565b8060056000848152602001908152602001600020600501600082825401925050819055505b5050565b61321f61481b565b600160009054906101000a900473ffffffffffffffffffffffffffffffffffffffff1673ffffffffffffffffffffffffffffffffffffffff1663892d0f6e336040518263ffffffff167c0100000000000000000000000000000000000000000000000000000000028152600401808273ffffffffffffffffffffffffffffffffffffffff1673ffffffffffffffffffffffffffffffffffffffff168152602001915050602060405180830381600087803b15156132db57600080fd5b5af115156132e857600080fd5b5050506040518051905015156132fd57613657565b3373ffffffffffffffffffffffffffffffffffffffff166005600087815260200190815260200160002060010160009054906101000a900473ffffffffffffffffffffffffffffffffffffffff1673ffffffffffffffffffffffffffffffffffffffff1614151561336d57613657565b3373ffffffffffffffffffffffffffffffffffffffff166004600086815260200190815260200160002060050160009054906101000a900473ffffffffffffffffffffffffffffffffffffffff1673ffffffffffffffffffffffffffffffffffffffff161415156133dd57613657565b60056000868152602001908152602001600020600401548160000181815250508381602001818152505082816040019060ff16908160ff168152505081816060019060ff16908160ff16815250506001816080019060ff16908160ff168152505060028160c001818152505060006004600086815260200190815260200160002060040160008560ff1681526020019081526020016000206000015414151561348557613657565b60056000868152602001908152602001600020600401546004600086815260200190815260200160002060040160008560ff168152602001908152602001600020600001819055508060056000878152602001908152602001600020600301600060056000898152602001908152602001600020600401548152602001908152602001600020600082015181600001556020820151816001015560408201518160020160006101000a81548160ff021916908360ff16021790555060608201518160020160016101000a81548160ff021916908360ff16021790555060808201518160020160026101000a81548160ff021916908360ff16021790555060a0820151816003015560c0820151816004015560e08201518160050160006101000a81548160ff02191690831515021790555090505060056000868152602001908152602001600020600401600081548092919060010191905055503373ffffffffffffffffffffffffffffffffffffffff167ffb11f9e49702651ce4dcec7025723689c5a08af949c6aaab4fa21fa05bf1c4fe6001600560008981526020019081526020016000206004015403868860405180848152602001838152602001828152602001935050505060405180910390a25b5050505050565b600080613669614774565b600080600061367661462e565b6004600089815260200190815260200160002060c060405190810160405290816000820154815260200160018201548152602001600282016002806020026040519081016040528092919082600280156136e5576020028201915b8154815260200190600101908083116136d1575b505050505081526020016005820160009054906101000a900473ffffffffffffffffffffffffffffffffffffffff1673ffffffffffffffffffffffffffffffffffffffff1673ffffffffffffffffffffffffffffffffffffffff1681526020016005820160149054906101000a900460ff161515151581526020016005820160159054906101000a900460ff1615151515815250509050806000015181602001518260400151836060015184608001518560a001518393509650965096509650965096505091939550919395565b600160009054906101000a900473ffffffffffffffffffffffffffffffffffffffff1673ffffffffffffffffffffffffffffffffffffffff1663892d0f6e336040518263ffffffff167c0100000000000000000000000000000000000000000000000000000000028152600401808273ffffffffffffffffffffffffffffffffffffffff1673ffffffffffffffffffffffffffffffffffffffff168152602001915050602060405180830381600087803b151561386f57600080fd5b5af1151561387c57600080fd5b5050506040518051905015156138915761394e565b3373ffffffffffffffffffffffffffffffffffffffff166005600083815260200190815260200160002060010160009054906101000a900473ffffffffffffffffffffffffffffffffffffffff1673ffffffffffffffffffffffffffffffffffffffff161415156139015761394e565b600560008281526020019081526020016000206008016000815480929190600101919050555060056000828152602001908152602001600020600901600081548092919060010191905055505b50565b613959614774565b600160009054906101000a900473ffffffffffffffffffffffffffffffffffffffff1673ffffffffffffffffffffffffffffffffffffffff1663892d0f6e336040518263ffffffff167c0100000000000000000000000000000000000000000000000000000000028152600401808273ffffffffffffffffffffffffffffffffffffffff1673ffffffffffffffffffffffffffffffffffffffff168152602001915050602060405180830381600087803b1515613a1557600080fd5b5af11515613a2257600080fd5b505050604051805190501515613a3757613c4f565b3373ffffffffffffffffffffffffffffffffffffffff166004600086815260200190815260200160002060050160009054906101000a900473ffffffffffffffffffffffffffffffffffffffff1673ffffffffffffffffffffffffffffffffffffffff16141580613b0a57503373ffffffffffffffffffffffffffffffffffffffff166005600087815260200190815260200160002060010160009054906101000a900473ffffffffffffffffffffffffffffffffffffffff1673ffffffffffffffffffffffffffffffffffffffff1614155b80613b3557506004600085815260200190815260200160002060050160149054906101000a900460ff165b15613b3f57613c4f565b7fffffffffffffffffffffffffffffffffffffffffffffffffffffffffffffff80831280613b6d5750608083135b80613b9757507fffffffffffffffffffffffffffffffffffffffffffffffffffffffffffffff8082125b80613ba25750608082135b15613bac57613c4f565b82816000600281101515613bbc57fe5b60200201818152505081816001600281101515613bd557fe5b6020020181815250508060046000868152602001908152602001600020600201906002613c0392919061486c565b5060016004600086815260200190815260200160002060050160146101000a81548160ff0219169083151502179055508460046000868152602001908152602001600020600101819055505b5050505050565b336000806101000a81548173ffffffffffffffffffffffffffffffffffffffff021916908373ffffffffffffffffffffffffffffffffffffffff160217905550565b6000806005600084815260200190815260200160002060010160009054906101000a900473ffffffffffffffffffffffffffffffffffffffff1673ffffffffffffffffffffffffffffffffffffffff1614158015613d5857508273ffffffffffffffffffffffffffffffffffffffff166005600084815260200190815260200160002060010160009054906101000a900473ffffffffffffffffffffffffffffffffffffffff1673ffffffffffffffffffffffffffffffffffffffff1614155b905092915050565b6000809054906101000a900473ffffffffffffffffffffffffffffffffffffffff1673ffffffffffffffffffffffffffffffffffffffff163373ffffffffffffffffffffffffffffffffffffffff16141515613dbb57600080fd5b60008173ffffffffffffffffffffffffffffffffffffffff161415613ddf57613e21565b80600260006101000a81548173ffffffffffffffffffffffffffffffffffffffff021916908373ffffffffffffffffffffffffffffffffffffffff1602179055505b50565b6000809054906101000a900473ffffffffffffffffffffffffffffffffffffffff1673ffffffffffffffffffffffffffffffffffffffff163373ffffffffffffffffffffffffffffffffffffffff16141515613e7f57600080fd5b806000806101000a81548173ffffffffffffffffffffffffffffffffffffffff021916908373ffffffffffffffffffffffffffffffffffffffff16021790555050565b6000809054906101000a900473ffffffffffffffffffffffffffffffffffffffff1673ffffffffffffffffffffffffffffffffffffffff163373ffffffffffffffffffffffffffffffffffffffff16141515613f1d57600080fd5b600160009054906101000a900473ffffffffffffffffffffffffffffffffffffffff1673ffffffffffffffffffffffffffffffffffffffff1663892d0f6e6005600088815260200190815260200160002060010160009054906101000a900473ffffffffffffffffffffffffffffffffffffffff166040518263ffffffff167c0100000000000000000000000000000000000000000000000000000000028152600401808273ffffffffffffffffffffffffffffffffffffffff1673ffffffffffffffffffffffffffffffffffffffff168152602001915050602060405180830381600087803b151561400f57600080fd5b5af1151561401c57600080fd5b5050506040518051905015156140315761423c565b6005600086815260200190815260200160002060010160009054906101000a900473ffffffffffffffffffffffffffffffffffffffff1673ffffffffffffffffffffffffffffffffffffffff166004600086815260200190815260200160002060050160009054906101000a900473ffffffffffffffffffffffffffffffffffffffff1673ffffffffffffffffffffffffffffffffffffffff161415806140f957506004600085815260200190815260200160002060050160149054906101000a900460ff16155b156141035761423c565b60008211801561413d5750816004600086815260200190815260200160002060040160008581526020019081526020016000206001015410155b1561419f5781600460008681526020019081526020016000206004016000858152602001908152602001600020600101600082825403925050819055508160056000878152602001908152602001600020600501600082825401925050819055505b6000811180156141d95750806004600086815260200190815260200160002060040160008581526020019081526020016000206002015410155b1561423b5780600460008681526020019081526020016000206004016000858152602001908152602001600020600201600082825403925050819055508060056000878152602001908152602001600020600701600082825401925050819055505b5b5050505050565b6000600182101561425357614581565b600160009054906101000a900473ffffffffffffffffffffffffffffffffffffffff1673ffffffffffffffffffffffffffffffffffffffff1663892d0f6e336040518263ffffffff167c0100000000000000000000000000000000000000000000000000000000028152600401808273ffffffffffffffffffffffffffffffffffffffff1673ffffffffffffffffffffffffffffffffffffffff168152602001915050602060405180830381600087803b151561430f57600080fd5b5af1151561431c57600080fd5b50505060405180519050151561433157614581565b6005600083815260200190815260200160002060010160009054906101000a900473ffffffffffffffffffffffffffffffffffffffff1673ffffffffffffffffffffffffffffffffffffffff163373ffffffffffffffffffffffffffffffffffffffff161415156143a157614581565b600160056000848152602001908152602001600020600b0160006101000a81548160ff02191690831515021790555060006005600084815260200190815260200160002060010160006101000a81548173ffffffffffffffffffffffffffffffffffffffff021916908373ffffffffffffffffffffffffffffffffffffffff160217905550600090505b600654811015614532573373ffffffffffffffffffffffffffffffffffffffff166004600083815260200190815260200160002060050160009054906101000a900473ffffffffffffffffffffffffffffffffffffffff1673ffffffffffffffffffffffffffffffffffffffff1614156145255760006004600083815260200190815260200160002060050160006101000a81548173ffffffffffffffffffffffffffffffffffffffff021916908373ffffffffffffffffffffffffffffffffffffffff16021790555060016004600083815260200190815260200160002060050160156101000a81548160ff0219169083151502179055505b808060010191505061442b565b3373ffffffffffffffffffffffffffffffffffffffff167f6abde5ff82dbac3106489bd4cdeb22163bfa1912a2282d0485c50f49c547905a836040518082815260200191505060405180910390a25b5050565b6000806000614592614685565b6004600087815260200190815260200160002060040160008681526020019081526020016000206060604051908101604052908160008201548152602001600182015481526020016002820154815250509050806000015181602001518260400151935093509350509250925092565b610400604051908101604052806020905b600060ff168152602001906001900390816146135790505090565b60e06040519081016040528060008152602001600081526020016146506148ac565b8152602001600073ffffffffffffffffffffffffffffffffffffffff1681526020016000151581526020016000151581525090565b6060604051908101604052806000815260200160008152602001600081525090565b82600281019282156146d6579160200282015b828111156146d55782518255916020019190600101906146ba565b5b5090506146e391906148d3565b5090565b602060405190810160405280600081525090565b6101606040519081016040528060008152602001600073ffffffffffffffffffffffffffffffffffffffff168152602001600081526020016000815260200160008152602001600081526020016000815260200160008152602001600081526020016147656148f8565b81526020016000151581525090565b60408051908101604052806002905b60008152602001906001900390816147835790505090565b828054600181600116156101000203166002900490600052602060002090601f016020900481019282601f106147dc57805160ff191683800117855561480a565b8280016001018555821561480a579182015b828111156148095782518255916020019190600101906147ee565b5b509050614817919061490c565b5090565b610100604051908101604052806000815260200160008152602001600060ff168152602001600060ff168152602001600060ff16815260200160008152602001600081526020016000151581525090565b826002810192821561489b579160200282015b8281111561489a57825182559160200191906001019061487f565b5b5090506148a891906148d3565b5090565b60408051908101604052806002905b60008152602001906001900390816148bb5790505090565b6148f591905b808211156148f15760008160009055506001016148d9565b5090565b90565b602060405190810160405280600081525090565b61492e91905b8082111561492a576000816000905550600101614912565b5090565b905600a165627a7a723058209fcbf6bcf3b9c0e8206acd34de31f4e71266e7216f7e81192cc356cbe85313710029",
  "source": "pragma solidity ^0.4.21;\r\n\r\nimport \"./Owned.sol\";\r\n\r\n\r\ncontract CandyKillerColony is Owned {\r\n    /*\r\n        \r\n    */\r\n    CandyKillerAccount ckAccount;\r\n    CKServiceContract ckService;\r\n    //  \r\n    address colonyMarketPlace;\r\n    /*\r\n        \r\n    */\r\n    struct Colony {\r\n        uint index;\r\n        address owner;\r\n        uint level;\r\n        mapping(uint => Building) buildingList;\r\n        uint nextBuildingIndex;\r\n        uint sugar;\r\n        uint heavySugar;\r\n        uint medarium;\r\n        uint unitCount;\r\n        uint freeUnitCount;\r\n        string name;\r\n        bool isDelete;\r\n    }\r\n    /*\r\n         \r\n    */\r\n    struct EarthCell {\r\n        uint index;\r\n        uint colonyIndex;\r\n        int[2] coords;\r\n        mapping(uint => EarthCellPart) earthCellParts;\r\n        address owner;\r\n        bool cellStatus;\r\n        bool isNotSale;\r\n    }\r\n    /*\r\n        \r\n    */\r\n    struct Building {\r\n        //  \r\n        uint index;\r\n        // Id  -     \r\n        uint cellIndex;\r\n        //       \r\n        uint8 indexOnCell;\r\n        //  \r\n        uint8 buildingType;\r\n        //  \r\n        uint8 level;\r\n        //  \r\n        // bool isDestroyed;\r\n        //    \r\n        uint unitCount;\r\n        //     \r\n        uint maxUnitCount;\r\n        //  \r\n        bool isDelete;\r\n    }\r\n    /*\r\n          \r\n    */\r\n    struct EarthCellPart {\r\n        //  \r\n        uint indexBuilding;\r\n        // \r\n        uint sugar;\r\n        // \r\n        uint medarium;\r\n    }\r\n\r\n    mapping(uint => EarthCell) earthCellList;\r\n    mapping(uint => Colony) colonyList;\r\n\r\n    uint nextEarthCellIndex = 1;\r\n    uint nextColonyIndex = 1;\r\n\r\n    event CreateColony(uint colonyIndex, address indexed ownerColonyAddress);\r\n    event CreateEarthCellForNewColony(uint earthCellIndex, uint sugar, uint medarium, address indexed ownerEarthCellAddress);\r\n    event DeleteColony(uint colonyIndex, address indexed ownerColonyAddress);\r\n    event GenerateNewEarthCell(uint gameId, uint earthCellIndex, uint sugar, uint medarium, address indexed ownerEarthCellAddress);\r\n\r\n    event BuildBuilding(uint building, uint earthCellIndex, uint colonyIndex, address indexed ownerColonyAddress);\r\n    event DeleteBuilding(uint building, uint colonyIndex, address indexed ownerColonyAddress);\r\n\r\n    function CandyKillerColony() public {\r\n        owner = msg.sender;\r\n    }\r\n    /*\r\n          CandyKillerAccount\r\n    */\r\n    function initCandyKillerAccount(address accountContract) public onlyOwner {\r\n        if (accountContract == 0x0) return;\r\n        ckAccount = CandyKillerAccount(accountContract);\r\n    }\r\n    /*\r\n          CKServiceContract\r\n    */\r\n    function initCKServiceContract(address serviceContract) public onlyOwner {\r\n        if (serviceContract == 0x0) return;\r\n        ckService = CKServiceContract(serviceContract);\r\n    }\r\n    /*\r\n            \r\n    */\r\n    function setColonyMarketPlace(address colonyMarketPlaceAddress) public onlyOwner {\r\n        if (colonyMarketPlaceAddress == 0x0) return;\r\n        colonyMarketPlace = colonyMarketPlaceAddress;\r\n    }\r\n    /*\r\n         \r\n    */\r\n    function createColony(string colonyName) public {\r\n        //    \r\n        if (!ckAccount.isCreateAndActive(msg.sender)) return;\r\n        uint8[32] memory convertHash;\r\n        bool error;\r\n        (convertHash, error) = ckService.convertBlockHashToUintHexArray(block.blockhash(block.number - 1), 14);\r\n        if (error) return;\r\n        Colony memory newColony;\r\n        newColony.index = nextColonyIndex;\r\n        newColony.owner = msg.sender;\r\n        newColony.level = 1;\r\n        newColony.name = colonyName;\r\n        newColony.nextBuildingIndex = 1;\r\n        colonyList[nextColonyIndex] = newColony;\r\n        //   \r\n        uint8 convertHashIndex = 0;\r\n        int[2] memory cellCoords;\r\n        EarthCell memory newEarthCell;\r\n        EarthCellPart memory newEarthCellPart;\r\n        uint createSugar;\r\n        uint createMedarium;\r\n        uint z = 0;\r\n        int i = 0;\r\n\r\n        newEarthCell.colonyIndex = newColony.index;\r\n        newEarthCell.cellStatus = true;\r\n        newEarthCell.isNotSale = true;\r\n        newEarthCell.owner = msg.sender;\r\n\r\n        for (i = 0; i < 2; i++) {\r\n            for (int j = 0; j < 2; j++) {\r\n                cellCoords[0] = i;\r\n                cellCoords[1] = j;\r\n                newEarthCell.index = nextEarthCellIndex;\r\n                newEarthCell.coords = cellCoords;\r\n                earthCellList[nextEarthCellIndex] = newEarthCell;\r\n                createSugar = convertHash[convertHashIndex] * 1000;\r\n                createMedarium = convertHash[convertHashIndex + 1] * 1000;\r\n                for (z = 0; z < 9; z++) {\r\n                    newEarthCellPart.sugar = 0;\r\n                    newEarthCellPart.medarium = 0;\r\n                    if (createSugar > 0) {\r\n                        newEarthCellPart.sugar = createSugar / 9;\r\n                    }\r\n                    if (createMedarium > 0) {\r\n                        newEarthCellPart.medarium = createMedarium / 9;\r\n                    }\r\n                    earthCellList[nextEarthCellIndex].earthCellParts[z] = newEarthCellPart;\r\n                }\r\n                emit CreateEarthCellForNewColony(newEarthCell.index, createSugar, createMedarium, newEarthCell.owner);\r\n                convertHashIndex += 2;\r\n                nextEarthCellIndex++;\r\n            }\r\n        }\r\n\r\n        cellCoords[0] = 0;\r\n        cellCoords[1] = 0;\r\n        newEarthCell.coords = cellCoords;\r\n        newEarthCell.cellStatus = false;\r\n\r\n        for (i = 0; i < 3; i++) {\r\n            newEarthCell.index = nextEarthCellIndex;\r\n            earthCellList[nextEarthCellIndex] = newEarthCell;\r\n            createSugar = convertHash[convertHashIndex] * 1000;\r\n            createMedarium = convertHash[convertHashIndex + 1] * 1000;\r\n            for (z = 0; z < 9; z++) {\r\n                newEarthCellPart.sugar = 0;\r\n                newEarthCellPart.medarium = 0;\r\n                if (createSugar > 0) {\r\n                    newEarthCellPart.sugar = createSugar / 9;\r\n                }\r\n                if (createMedarium > 0) {\r\n                    newEarthCellPart.medarium = createMedarium / 9;\r\n                }\r\n                earthCellList[nextEarthCellIndex].earthCellParts[z] = newEarthCellPart;\r\n            }\r\n\r\n            emit CreateEarthCellForNewColony(newEarthCell.index, createSugar, createMedarium, newEarthCell.owner);\r\n            convertHashIndex += 2;\r\n            nextEarthCellIndex++;\r\n        }\r\n        nextColonyIndex++;\r\n        emit CreateColony(newColony.index, newColony.owner);\r\n    }\r\n    /*\r\n         \r\n    */\r\n    function deleteColony(uint indexColony) public {\r\n        if (indexColony < 1) return;\r\n        //    \r\n        if (!ckAccount.isCreateAndActive(msg.sender)) return;\r\n        //   \r\n        if (msg.sender != colonyList[indexColony].owner) return;\r\n        colonyList[indexColony].isDelete = true;\r\n        colonyList[indexColony].owner = 0x0;\r\n\r\n        for (uint i = 0; i < nextEarthCellIndex; i++) {\r\n            if (earthCellList[i].owner == msg.sender) {\r\n                earthCellList[i].owner = 0x0;\r\n                earthCellList[i].isNotSale = true;\r\n            }\r\n        }\r\n        emit DeleteColony(indexColony, msg.sender);\r\n    }\r\n    /*\r\n         \r\n    */\r\n    function addSugar(uint indexColony, uint newSugar) public onlyOwner {\r\n        if (msg.sender == colonyList[indexColony].owner || colonyList[indexColony].owner == 0x0) return;\r\n        colonyList[indexColony].sugar += newSugar;\r\n    }\r\n    /*\r\n          \r\n    */\r\n    function addHeavySugar(uint indexColony, uint newHeavySugar) public onlyOwner {\r\n        if (msg.sender == colonyList[indexColony].owner || colonyList[indexColony].owner == 0x0) return;\r\n        colonyList[indexColony].heavySugar += newHeavySugar;\r\n    }\r\n    /*\r\n         \r\n    */\r\n    function addMedarium(uint indexColony, uint newMedarium) public onlyOwner {\r\n        if (msg.sender == colonyList[indexColony].owner || colonyList[indexColony].owner == 0x0) return;\r\n        colonyList[indexColony].medarium += newMedarium;\r\n    }\r\n    /*\r\n          \r\n    */\r\n    function generateCandyEarthCell(address userAddress, uint gameId) public onlyOwner {\r\n        if (gameId == 0 || !ckAccount.isCreateAndActive(msg.sender)) return;\r\n        //    \r\n        if (!ckAccount.isCreateAndActive(msg.sender)) return;\r\n        uint8[32] memory convertHash;\r\n        bool error;\r\n        (convertHash, error) = ckService.convertBlockHashToUintHexArray(block.blockhash(block.number - 1), 2);\r\n        if (error) return;\r\n\r\n\r\n        EarthCell memory newEarthCell;\r\n        uint createSugar;\r\n        uint createMedarium;\r\n        uint z = 0;\r\n        newEarthCell.index = nextEarthCellIndex;\r\n        newEarthCell.owner = userAddress;\r\n        earthCellList[nextEarthCellIndex] = newEarthCell;\r\n        createSugar = convertHash[0] * 1000;\r\n        createMedarium = convertHash[1] * 1000;\r\n        EarthCellPart memory newEarthCellPart;\r\n        for (z = 0; z < 9; z++) {\r\n            newEarthCellPart.sugar = 0;\r\n            newEarthCellPart.medarium = 0;\r\n            if (createSugar > 0) {\r\n                newEarthCellPart.sugar = createSugar / 9;\r\n            }\r\n            if (createMedarium > 0) {\r\n                newEarthCellPart.medarium = createMedarium / 9;\r\n            }\r\n            earthCellList[nextEarthCellIndex].earthCellParts[z] = newEarthCellPart;\r\n        }\r\n        emit GenerateNewEarthCell(gameId, newEarthCell.index, createSugar, createMedarium, newEarthCell.owner);\r\n        nextEarthCellIndex++;\r\n    }\r\n    /*\r\n            \r\n    */\r\n    function isExistAndForSaleCell(address customer, uint cellIndex) public view returns (bool) {\r\n        return (earthCellList[cellIndex].owner != 0x0 && earthCellList[cellIndex].owner != customer && !earthCellList[cellIndex].isNotSale);\r\n    }\r\n    /*\r\n         \r\n    */\r\n    function isOwnerEarthCell(address possibleOwner, uint cellIndex) public view returns (bool) {\r\n        return (earthCellList[cellIndex].owner == possibleOwner && possibleOwner != 0x0);\r\n    }\r\n    /*\r\n            \r\n    */\r\n    function isExistColony(address customer, uint colonyIndex) public view returns (bool) {\r\n        return (colonyList[colonyIndex].owner != 0x0 && colonyList[colonyIndex].owner != customer);\r\n    }\r\n    /*\r\n         \r\n    */\r\n    function isOwnerColony(address possibleOwner, uint colonyIndex) public view returns (bool) {\r\n        return (colonyList[colonyIndex].owner == possibleOwner && possibleOwner != 0x0);\r\n    }\r\n    /*\r\n         \r\n    */\r\n    function transferEarthCell(address from, address to, uint cellIndex) public returns (bool) {\r\n        //     \r\n        if (msg.sender != colonyMarketPlace) return false;\r\n        if (earthCellList[cellIndex].owner != from || earthCellList[cellIndex].colonyIndex != 0) return false;\r\n        earthCellList[cellIndex].owner = to;\r\n        return true;\r\n    }\r\n    /*\r\n            .\r\n        previousColonyIndex -   .\r\n         previousColonyIndex      0.\r\n            0.\r\n    */\r\n    function getNextUserColonyIndex(uint previousColonyIndex) public view returns (uint) {\r\n        if (colonyList[previousColonyIndex].owner == msg.sender || previousColonyIndex == 0) {\r\n            for (uint i = previousColonyIndex + 1; i < nextColonyIndex; i++) {\r\n                if (colonyList[i].owner == msg.sender) {\r\n                    return i;\r\n                }\r\n            }\r\n        }\r\n    }\r\n\r\n    function putCandyEarthCellOnColony(uint colonyIndex, uint cellIndex, int x, int y) public {\r\n        //    \r\n        if (!ckAccount.isCreateAndActive(msg.sender)) return;\r\n        if (earthCellList[cellIndex].owner != msg.sender || colonyList[colonyIndex].owner != msg.sender || earthCellList[cellIndex].cellStatus) return;\r\n        if (x < - 128 || x > 128 || y < - 128 || y > 128) return;\r\n        // ToDo         \r\n        int[2] memory cellCoords;\r\n        cellCoords[0] = x;\r\n        cellCoords[1] = y;\r\n\r\n        earthCellList[cellIndex].coords = cellCoords;\r\n        earthCellList[cellIndex].cellStatus = true;\r\n        earthCellList[cellIndex].colonyIndex = colonyIndex;\r\n    }\r\n    /*\r\n           \r\n        , , , - , ,  , , - , -  , \r\n    */\r\n    function getColonyByIndex(uint colonyIndex) public view returns (uint, address, uint, uint, uint, uint, uint, uint, uint, string, bool) {\r\n        Colony memory colony = colonyList[colonyIndex];\r\n        return (\r\n        colony.index,\r\n        colony.owner,\r\n        colony.level,\r\n        colony.nextBuildingIndex,\r\n        colony.sugar,\r\n        colony.heavySugar,\r\n        colony.medarium,\r\n        colony.unitCount,\r\n        colony.freeUnitCount,\r\n        colony.name,\r\n        colony.isDelete\r\n        );\r\n    }\r\n    /*\r\n            \r\n        Id  -     ,       ,  ,  ,  \r\n    */\r\n    function getEarthCellByIndex(uint candyEarthCellIndex) public view returns (uint, uint, int[2], address, bool, bool) {\r\n        EarthCell memory earthCell = earthCellList[candyEarthCellIndex];\r\n        return (\r\n        earthCell.index,\r\n        earthCell.colonyIndex,\r\n        earthCell.coords,\r\n        earthCell.owner,\r\n        earthCell.cellStatus,\r\n        earthCell.isNotSale\r\n        );\r\n    }\r\n\r\n    /*\r\n             .\r\n        previousEarthCellIndex -     .\r\n         previousEarthCellIndex      0.\r\n             0.\r\n              colonyIndex,   0\r\n    */\r\n    function getNextUserEarthCellIndex(uint previousEarthCellIndex, uint colonyIndex) public view returns (uint) {\r\n        if (earthCellList[previousEarthCellIndex].owner == msg.sender || previousEarthCellIndex == 0) {\r\n            for (uint i = previousEarthCellIndex + 1; i < nextEarthCellIndex; i++) {\r\n                if (earthCellList[i].owner == msg.sender) {\r\n                    if (colonyIndex == 0 || earthCellList[i].colonyIndex == colonyIndex) {\r\n                        return i;\r\n                    }\r\n                }\r\n            }\r\n        }\r\n    }\r\n    /*\r\n           \r\n    */\r\n    function collectResources(uint colonyIndex, uint cellIndex, uint cellPartIndex, uint collectSugar, uint collectMedarium) public onlyOwner {\r\n        //    \r\n        if (!ckAccount.isCreateAndActive(colonyList[colonyIndex].owner)) return;\r\n        //        \r\n        if (earthCellList[cellIndex].owner != colonyList[colonyIndex].owner || !earthCellList[cellIndex].cellStatus) return;\r\n        if (collectSugar > 0 && earthCellList[cellIndex].earthCellParts[cellPartIndex].sugar >= collectSugar) {\r\n            earthCellList[cellIndex].earthCellParts[cellPartIndex].sugar -= collectSugar;\r\n            colonyList[colonyIndex].sugar += collectSugar;\r\n        }\r\n        if (collectMedarium > 0 && earthCellList[cellIndex].earthCellParts[cellPartIndex].medarium >= collectMedarium) {\r\n            earthCellList[cellIndex].earthCellParts[cellPartIndex].medarium -= collectMedarium;\r\n            colonyList[colonyIndex].medarium += collectMedarium;\r\n        }\r\n    }\r\n    /*\r\n           \r\n        Id  -     ,       ,  ,  ,  ,\r\n           ,     \r\n    */\r\n    function getBuildingByIndex(uint colonyIndex, uint buildingIndex) public view returns (uint, uint, uint8, uint8, uint8, uint, uint, bool) {\r\n        Building memory building = colonyList[colonyIndex].buildingList[buildingIndex];\r\n        return (\r\n        building.index,\r\n        building.cellIndex,\r\n        building.indexOnCell,\r\n        building.buildingType,\r\n        building.level,\r\n        building.unitCount,\r\n        building.maxUnitCount,\r\n        building.isDelete\r\n        );\r\n    }\r\n    /*\r\n         \r\n    */\r\n    function buildBuilding(uint colonyIndexForBuild, uint earthCellIndexForBuild, uint8 buildingIndexOnCellForBuild, uint8 buildingType) public {\r\n        //    \r\n        if (!ckAccount.isCreateAndActive(msg.sender)) return;\r\n        //    \r\n        if (colonyList[colonyIndexForBuild].owner != msg.sender) return;\r\n        //    \r\n        if (earthCellList[earthCellIndexForBuild].owner != msg.sender) return;\r\n\r\n        Building memory building;\r\n        building.index = colonyList[colonyIndexForBuild].nextBuildingIndex;\r\n        building.cellIndex = earthCellIndexForBuild;\r\n        building.indexOnCell = buildingIndexOnCellForBuild;\r\n        building.buildingType = buildingType;\r\n        building.level = 1;\r\n        // ToDo   -   \r\n        building.maxUnitCount = 2;\r\n\r\n        // ToDo      \r\n        // ,    \r\n        if (earthCellList[earthCellIndexForBuild].earthCellParts[buildingIndexOnCellForBuild].indexBuilding != 0) return;\r\n        earthCellList[earthCellIndexForBuild].earthCellParts[buildingIndexOnCellForBuild].indexBuilding = colonyList[colonyIndexForBuild].nextBuildingIndex;\r\n\r\n        colonyList[colonyIndexForBuild].buildingList[colonyList[colonyIndexForBuild].nextBuildingIndex] = building;\r\n        colonyList[colonyIndexForBuild].nextBuildingIndex++;\r\n\r\n        emit BuildBuilding(colonyList[colonyIndexForBuild].nextBuildingIndex - 1, earthCellIndexForBuild, colonyIndexForBuild, msg.sender);\r\n    }\r\n    /*\r\n         \r\n    */\r\n    function deleteBuilding(uint colonyIndex, uint buildingIndex) public {\r\n        //    \r\n        if (!ckAccount.isCreateAndActive(msg.sender) || msg.sender != owner) return;\r\n        //    \r\n        if (colonyList[colonyIndex].owner != msg.sender || msg.sender != owner) return;\r\n        //     \r\n        if (colonyList[colonyIndex].buildingList[buildingIndex].cellIndex == 0) return;\r\n        earthCellList[colonyList[colonyIndex].buildingList[buildingIndex].cellIndex].earthCellParts[colonyList[colonyIndex].buildingList[buildingIndex].indexOnCell].indexBuilding = 0;\r\n        colonyList[colonyIndex].buildingList[buildingIndex].isDelete = true;\r\n        colonyList[colonyIndex].buildingList[buildingIndex].cellIndex = 0;\r\n        removeUnitFromBuilding(colonyIndex, buildingIndex, colonyList[colonyIndex].buildingList[buildingIndex].unitCount);\r\n\r\n        emit DeleteBuilding(buildingIndex, colonyIndex, msg.sender);\r\n    }\r\n    /*\r\n             .\r\n        previousBuildingIndex -   .\r\n         colonyIndex      0.\r\n             0.\r\n    */\r\n    function getNextUserBuildingIndex(uint previousBuildingIndex, uint colonyIndex) public view returns (uint) {\r\n        if (colonyList[colonyIndex].owner != msg.sender) return 0;\r\n        for (uint i = previousBuildingIndex + 1; i < colonyList[colonyIndex].nextBuildingIndex; i++) {\r\n            if (!colonyList[colonyIndex].buildingList[i].isDelete) {\r\n                return i;\r\n            }\r\n        }\r\n        return 0;\r\n    }\r\n    /*\r\n           \r\n    */\r\n    function addUnitInBuilding(uint colonyIndex, uint buildingIndex, uint addUnitCount) public {\r\n        //    \r\n        if (!ckAccount.isCreateAndActive(msg.sender)) return;\r\n        //    \r\n        if (colonyList[colonyIndex].owner != msg.sender) return;\r\n        //    \r\n        if (colonyList[colonyIndex].buildingList[buildingIndex].unitCount >= colonyList[colonyIndex].buildingList[buildingIndex].maxUnitCount) return;\r\n        //     \r\n        if (colonyList[colonyIndex].freeUnitCount < addUnitCount) return;\r\n        //   ,  \r\n        if (colonyList[colonyIndex].buildingList[buildingIndex].unitCount + addUnitCount > colonyList[colonyIndex].buildingList[buildingIndex].maxUnitCount) return;\r\n        colonyList[colonyIndex].buildingList[buildingIndex].unitCount += addUnitCount;\r\n        colonyList[colonyIndex].freeUnitCount -= addUnitCount;\r\n    }\r\n    /*\r\n           \r\n    */\r\n    function removeUnitFromBuilding(uint colonyIndex, uint buildingIndex, uint removeUnitCount) public {\r\n        //    \r\n        if (!ckAccount.isCreateAndActive(msg.sender)) return;\r\n        //    \r\n        if (colonyList[colonyIndex].owner != msg.sender) return;\r\n        //   ,  \r\n        if (colonyList[colonyIndex].buildingList[buildingIndex].unitCount < removeUnitCount) return;\r\n        colonyList[colonyIndex].buildingList[buildingIndex].unitCount -= removeUnitCount;\r\n        colonyList[colonyIndex].freeUnitCount += removeUnitCount;\r\n    }\r\n    /*\r\n          \r\n    */\r\n    function createNewUnitInColony(uint colonyIndex) public {\r\n        //    \r\n        if (!ckAccount.isCreateAndActive(msg.sender)) return;\r\n        //    \r\n        if (colonyList[colonyIndex].owner != msg.sender) return;\r\n\r\n        colonyList[colonyIndex].unitCount++;\r\n        colonyList[colonyIndex].freeUnitCount++;\r\n    }\r\n    /*\r\n             \r\n    */\r\n    function getEarthCellPart(uint earthCellIndex, uint earthCellPartIndex) public view returns (uint, uint, uint) {\r\n        EarthCellPart memory earthCellPart = earthCellList[earthCellIndex].earthCellParts[earthCellPartIndex];\r\n        return (earthCellPart.indexBuilding, earthCellPart.sugar, earthCellPart.medarium);\r\n    }\r\n}\r\n\r\ncontract CandyKillerAccount {\r\n    function isCreateAndActive(address userAddress) public view returns (bool);\r\n}\r\n\r\ncontract CKServiceContract {\r\n    function convertBlockHashToUintHexArray(bytes32 bloclHash, uint8 convertCharacterCount) public pure returns (uint8[32] convertValues, bool error);\r\n}",
  "sourcePath": "F:\\Blockchain\\Projects\\Smarts\\Lottery\\contracts\\CandyKillerColony.sol",
  "compiler": {
    "name": "solc",
    "version": "0.4.21+commit.dfe3193c.Emscripten.clang"
  },
  "schemaVersion": "2.0.0",
  "updatedAt": "2018-03-24T14:17:15.149Z"
}