{
  "contractName": "CKColonyMarketPlace",
  "abi": [
    {
      "constant": true,
      "inputs": [
        {
          "name": "",
          "type": "uint256"
        }
      ],
      "name": "colonyOffers",
      "outputs": [
        {
          "name": "index",
          "type": "uint256"
        },
        {
          "name": "owner",
          "type": "address"
        },
        {
          "name": "price",
          "type": "uint256"
        },
        {
          "name": "specialCustomer",
          "type": "address"
        },
        {
          "name": "isForSale",
          "type": "bool"
        }
      ],
      "payable": false,
      "stateMutability": "view",
      "type": "function"
    },
    {
      "constant": true,
      "inputs": [
        {
          "name": "",
          "type": "uint256"
        }
      ],
      "name": "earthCellBids",
      "outputs": [
        {
          "name": "index",
          "type": "uint256"
        },
        {
          "name": "customer",
          "type": "address"
        },
        {
          "name": "price",
          "type": "uint256"
        }
      ],
      "payable": false,
      "stateMutability": "view",
      "type": "function"
    },
    {
      "constant": true,
      "inputs": [
        {
          "name": "",
          "type": "uint256"
        }
      ],
      "name": "earthCellOffer",
      "outputs": [
        {
          "name": "index",
          "type": "uint256"
        },
        {
          "name": "owner",
          "type": "address"
        },
        {
          "name": "price",
          "type": "uint256"
        },
        {
          "name": "specialCustomer",
          "type": "address"
        },
        {
          "name": "isForSale",
          "type": "bool"
        }
      ],
      "payable": false,
      "stateMutability": "view",
      "type": "function"
    },
    {
      "constant": true,
      "inputs": [],
      "name": "owner",
      "outputs": [
        {
          "name": "",
          "type": "address"
        }
      ],
      "payable": false,
      "stateMutability": "view",
      "type": "function"
    },
    {
      "constant": true,
      "inputs": [
        {
          "name": "",
          "type": "uint256"
        }
      ],
      "name": "colonyBids",
      "outputs": [
        {
          "name": "index",
          "type": "uint256"
        },
        {
          "name": "customer",
          "type": "address"
        },
        {
          "name": "price",
          "type": "uint256"
        }
      ],
      "payable": false,
      "stateMutability": "view",
      "type": "function"
    },
    {
      "constant": false,
      "inputs": [],
      "name": "owned",
      "outputs": [],
      "payable": false,
      "stateMutability": "nonpayable",
      "type": "function"
    },
    {
      "constant": false,
      "inputs": [
        {
          "name": "newOwner",
          "type": "address"
        }
      ],
      "name": "transferOwnership",
      "outputs": [],
      "payable": false,
      "stateMutability": "nonpayable",
      "type": "function"
    },
    {
      "inputs": [],
      "payable": false,
      "stateMutability": "nonpayable",
      "type": "constructor"
    },
    {
      "anonymous": false,
      "inputs": [
        {
          "indexed": false,
          "name": "cellIndex",
          "type": "uint256"
        },
        {
          "indexed": false,
          "name": "price",
          "type": "uint256"
        },
        {
          "indexed": true,
          "name": "customerAddress",
          "type": "address"
        }
      ],
      "name": "EarthCellBidEntered",
      "type": "event"
    },
    {
      "anonymous": false,
      "inputs": [
        {
          "indexed": false,
          "name": "cellIndex",
          "type": "uint256"
        },
        {
          "indexed": false,
          "name": "price",
          "type": "uint256"
        },
        {
          "indexed": true,
          "name": "customerAddress",
          "type": "address"
        }
      ],
      "name": "EarthCellBidWithdrawn",
      "type": "event"
    },
    {
      "anonymous": false,
      "inputs": [
        {
          "indexed": false,
          "name": "charactecellIndexrIndex",
          "type": "uint256"
        },
        {
          "indexed": false,
          "name": "price",
          "type": "uint256"
        },
        {
          "indexed": true,
          "name": "tenantAddress",
          "type": "address"
        }
      ],
      "name": "EarthCellBidAccepted",
      "type": "event"
    },
    {
      "anonymous": false,
      "inputs": [
        {
          "indexed": false,
          "name": "cellIndex",
          "type": "uint256"
        },
        {
          "indexed": false,
          "name": "price",
          "type": "uint256"
        },
        {
          "indexed": true,
          "name": "toAddress",
          "type": "address"
        }
      ],
      "name": "EarthCellOffered",
      "type": "event"
    },
    {
      "anonymous": false,
      "inputs": [
        {
          "indexed": false,
          "name": "cellIndex",
          "type": "uint256"
        },
        {
          "indexed": false,
          "name": "price",
          "type": "uint256"
        },
        {
          "indexed": true,
          "name": "toAddress",
          "type": "address"
        }
      ],
      "name": "EarthCellBidBuy",
      "type": "event"
    },
    {
      "anonymous": false,
      "inputs": [
        {
          "indexed": true,
          "name": "cellIndex",
          "type": "uint256"
        }
      ],
      "name": "WithdrawOfferForEarthCell",
      "type": "event"
    },
    {
      "anonymous": false,
      "inputs": [
        {
          "indexed": false,
          "name": "colonyIndex",
          "type": "uint256"
        },
        {
          "indexed": false,
          "name": "price",
          "type": "uint256"
        },
        {
          "indexed": true,
          "name": "customerAddress",
          "type": "address"
        }
      ],
      "name": "ColonyBidEntered",
      "type": "event"
    },
    {
      "anonymous": false,
      "inputs": [
        {
          "indexed": false,
          "name": "colonyIndex",
          "type": "uint256"
        },
        {
          "indexed": false,
          "name": "price",
          "type": "uint256"
        },
        {
          "indexed": true,
          "name": "customerAddress",
          "type": "address"
        }
      ],
      "name": "ColonyBidWithdrawn",
      "type": "event"
    },
    {
      "anonymous": false,
      "inputs": [
        {
          "indexed": false,
          "name": "colonyIndex",
          "type": "uint256"
        },
        {
          "indexed": false,
          "name": "price",
          "type": "uint256"
        },
        {
          "indexed": true,
          "name": "toAddress",
          "type": "address"
        }
      ],
      "name": "ColonyOffered",
      "type": "event"
    },
    {
      "anonymous": false,
      "inputs": [
        {
          "indexed": true,
          "name": "colonyIndex",
          "type": "uint256"
        }
      ],
      "name": "WithdrawOfferForColony",
      "type": "event"
    },
    {
      "constant": false,
      "inputs": [
        {
          "name": "accountContract",
          "type": "address"
        }
      ],
      "name": "initCandyKillerAccount",
      "outputs": [],
      "payable": false,
      "stateMutability": "nonpayable",
      "type": "function"
    },
    {
      "constant": false,
      "inputs": [
        {
          "name": "colonyContract",
          "type": "address"
        }
      ],
      "name": "initCandyKillerColony",
      "outputs": [],
      "payable": false,
      "stateMutability": "nonpayable",
      "type": "function"
    },
    {
      "constant": false,
      "inputs": [
        {
          "name": "cellIndex",
          "type": "uint256"
        }
      ],
      "name": "enterBidEarthCell",
      "outputs": [],
      "payable": true,
      "stateMutability": "payable",
      "type": "function"
    },
    {
      "constant": false,
      "inputs": [
        {
          "name": "cellIndex",
          "type": "uint256"
        }
      ],
      "name": "acceptBidEarthCell",
      "outputs": [],
      "payable": false,
      "stateMutability": "nonpayable",
      "type": "function"
    },
    {
      "constant": false,
      "inputs": [
        {
          "name": "cellIndex",
          "type": "uint256"
        }
      ],
      "name": "withdrawBidEarthCell",
      "outputs": [],
      "payable": false,
      "stateMutability": "nonpayable",
      "type": "function"
    },
    {
      "constant": false,
      "inputs": [
        {
          "name": "cellIndex",
          "type": "uint256"
        },
        {
          "name": "price",
          "type": "uint256"
        }
      ],
      "name": "offerEarthCell",
      "outputs": [],
      "payable": false,
      "stateMutability": "nonpayable",
      "type": "function"
    },
    {
      "constant": false,
      "inputs": [
        {
          "name": "cellIndex",
          "type": "uint256"
        },
        {
          "name": "price",
          "type": "uint256"
        },
        {
          "name": "toAddress",
          "type": "address"
        }
      ],
      "name": "offerEarthCellToAddress",
      "outputs": [],
      "payable": false,
      "stateMutability": "nonpayable",
      "type": "function"
    },
    {
      "constant": false,
      "inputs": [
        {
          "name": "cellIndex",
          "type": "uint256"
        }
      ],
      "name": "buyEarthCell",
      "outputs": [],
      "payable": true,
      "stateMutability": "payable",
      "type": "function"
    },
    {
      "constant": false,
      "inputs": [
        {
          "name": "cellIndex",
          "type": "uint256"
        }
      ],
      "name": "withdrawOfferEarthCell",
      "outputs": [],
      "payable": false,
      "stateMutability": "nonpayable",
      "type": "function"
    },
    {
      "constant": true,
      "inputs": [
        {
          "name": "cellIndex",
          "type": "uint256"
        }
      ],
      "name": "getOfferEarthCell",
      "outputs": [
        {
          "name": "",
          "type": "uint256"
        },
        {
          "name": "",
          "type": "address"
        },
        {
          "name": "",
          "type": "uint256"
        },
        {
          "name": "",
          "type": "address"
        },
        {
          "name": "",
          "type": "bool"
        }
      ],
      "payable": false,
      "stateMutability": "view",
      "type": "function"
    },
    {
      "constant": true,
      "inputs": [
        {
          "name": "cellIndex",
          "type": "uint256"
        }
      ],
      "name": "getBidEarthCell",
      "outputs": [
        {
          "name": "",
          "type": "uint256"
        },
        {
          "name": "",
          "type": "address"
        },
        {
          "name": "",
          "type": "uint256"
        }
      ],
      "payable": false,
      "stateMutability": "view",
      "type": "function"
    },
    {
      "constant": false,
      "inputs": [
        {
          "name": "colonyIndex",
          "type": "uint256"
        }
      ],
      "name": "enterBidColony",
      "outputs": [],
      "payable": true,
      "stateMutability": "payable",
      "type": "function"
    },
    {
      "constant": false,
      "inputs": [
        {
          "name": "colonyIndex",
          "type": "uint256"
        }
      ],
      "name": "withdrawBidColony",
      "outputs": [],
      "payable": false,
      "stateMutability": "nonpayable",
      "type": "function"
    },
    {
      "constant": false,
      "inputs": [
        {
          "name": "colonyIndex",
          "type": "uint256"
        },
        {
          "name": "price",
          "type": "uint256"
        }
      ],
      "name": "offerColony",
      "outputs": [],
      "payable": false,
      "stateMutability": "nonpayable",
      "type": "function"
    },
    {
      "constant": false,
      "inputs": [
        {
          "name": "colonyIndex",
          "type": "uint256"
        },
        {
          "name": "price",
          "type": "uint256"
        },
        {
          "name": "toAddress",
          "type": "address"
        }
      ],
      "name": "offerColony",
      "outputs": [],
      "payable": false,
      "stateMutability": "nonpayable",
      "type": "function"
    },
    {
      "constant": false,
      "inputs": [
        {
          "name": "colonyIndex",
          "type": "uint256"
        }
      ],
      "name": "withdrawOfferColony",
      "outputs": [],
      "payable": false,
      "stateMutability": "nonpayable",
      "type": "function"
    },
    {
      "constant": true,
      "inputs": [
        {
          "name": "colonyIndex",
          "type": "uint256"
        }
      ],
      "name": "getOfferColony",
      "outputs": [
        {
          "name": "",
          "type": "uint256"
        },
        {
          "name": "",
          "type": "address"
        },
        {
          "name": "",
          "type": "uint256"
        },
        {
          "name": "",
          "type": "address"
        },
        {
          "name": "",
          "type": "bool"
        }
      ],
      "payable": false,
      "stateMutability": "view",
      "type": "function"
    },
    {
      "constant": true,
      "inputs": [
        {
          "name": "colonyIndex",
          "type": "uint256"
        }
      ],
      "name": "getBidColony",
      "outputs": [
        {
          "name": "",
          "type": "uint256"
        },
        {
          "name": "",
          "type": "address"
        },
        {
          "name": "",
          "type": "uint256"
        }
      ],
      "payable": false,
      "stateMutability": "view",
      "type": "function"
    }
  ],
  "bytecode": "0x6060604052341561000f57600080fd5b336000806101000a81548173ffffffffffffffffffffffffffffffffffffffff021916908373ffffffffffffffffffffffffffffffffffffffff1602179055506142bc8061005e6000396000f300606060405260043610610149576000357c0100000000000000000000000000000000000000000000000000000000900463ffffffff16806318b4d25c1461014e5780632494df6e146101875780633b3b5dd614610236578063481b7475146102e55780634917f11c1461035657806356e2ffc61461038f5780635bb5cbaa146103a7578063638b7641146104185780636633edd0146104c7578063732f2197146104ea5780637de71e081461055b57806387a6de25146105735780638da5cb5b146105965780639ed3fac7146105eb578063a24e3fba1461060e578063a443c3281461067f578063abb1b7f9146106ab578063aefc87c91461075a578063c83889761461077d578063df32754b146107a9578063e327ab6d146107be578063e7d108fd14610809578063edea0ff21461082c578063f2fde38b14610877578063fcc28313146108b0575b600080fd5b341561015957600080fd5b610185600480803573ffffffffffffffffffffffffffffffffffffffff169060200190919050506108c8565b005b341561019257600080fd5b6101a8600480803590602001909190505061098c565b604051808681526020018573ffffffffffffffffffffffffffffffffffffffff1673ffffffffffffffffffffffffffffffffffffffff1681526020018481526020018373ffffffffffffffffffffffffffffffffffffffff1673ffffffffffffffffffffffffffffffffffffffff168152602001821515151581526020019550505050505060405180910390f35b341561024157600080fd5b6102576004808035906020019091905050610a0f565b604051808681526020018573ffffffffffffffffffffffffffffffffffffffff1673ffffffffffffffffffffffffffffffffffffffff1681526020018481526020018373ffffffffffffffffffffffffffffffffffffffff1673ffffffffffffffffffffffffffffffffffffffff168152602001821515151581526020019550505050505060405180910390f35b34156102f057600080fd5b6103066004808035906020019091905050610aea565b604051808481526020018373ffffffffffffffffffffffffffffffffffffffff1673ffffffffffffffffffffffffffffffffffffffff168152602001828152602001935050505060405180910390f35b341561036157600080fd5b61038d600480803573ffffffffffffffffffffffffffffffffffffffff16906020019091905050610b34565b005b6103a56004808035906020019091905050610bf8565b005b34156103b257600080fd5b6103c860048080359060200190919050506114dd565b604051808481526020018373ffffffffffffffffffffffffffffffffffffffff1673ffffffffffffffffffffffffffffffffffffffff168152602001828152602001935050505060405180910390f35b341561042357600080fd5b6104396004808035906020019091905050611554565b604051808681526020018573ffffffffffffffffffffffffffffffffffffffff1673ffffffffffffffffffffffffffffffffffffffff1681526020018481526020018373ffffffffffffffffffffffffffffffffffffffff1673ffffffffffffffffffffffffffffffffffffffff168152602001821515151581526020019550505050505060405180910390f35b34156104d257600080fd5b6104e860048080359060200190919050506115d7565b005b34156104f557600080fd5b61050b60048080359060200190919050506118ce565b604051808481526020018373ffffffffffffffffffffffffffffffffffffffff1673ffffffffffffffffffffffffffffffffffffffff168152602001828152602001935050505060405180910390f35b6105716004808035906020019091905050611945565b005b341561057e57600080fd5b6105946004808035906020019091905050611d8b565b005b34156105a157600080fd5b6105a9612082565b604051808273ffffffffffffffffffffffffffffffffffffffff1673ffffffffffffffffffffffffffffffffffffffff16815260200191505060405180910390f35b34156105f657600080fd5b61060c60048080359060200190919050506120a7565b005b341561061957600080fd5b61062f60048080359060200190919050506123cd565b604051808481526020018373ffffffffffffffffffffffffffffffffffffffff1673ffffffffffffffffffffffffffffffffffffffff168152602001828152602001935050505060405180910390f35b341561068a57600080fd5b6106a96004808035906020019091908035906020019091905050612417565b005b34156106b657600080fd5b6106cc6004808035906020019091905050612830565b604051808681526020018573ffffffffffffffffffffffffffffffffffffffff1673ffffffffffffffffffffffffffffffffffffffff1681526020018481526020018373ffffffffffffffffffffffffffffffffffffffff1673ffffffffffffffffffffffffffffffffffffffff168152602001821515151581526020019550505050505060405180910390f35b341561076557600080fd5b61077b600480803590602001909190505061290b565b005b341561078857600080fd5b6107a76004808035906020019091908035906020019091905050612e72565b005b34156107b457600080fd5b6107bc6131b9565b005b34156107c957600080fd5b610807600480803590602001909190803590602001909190803573ffffffffffffffffffffffffffffffffffffffff169060200190919050506131fb565b005b341561081457600080fd5b61082a6004808035906020019091905050613566565b005b341561083757600080fd5b610875600480803590602001909190803590602001909190803573ffffffffffffffffffffffffffffffffffffffff1690602001909190505061388c565b005b341561088257600080fd5b6108ae600480803573ffffffffffffffffffffffffffffffffffffffff16906020019091905050613cde565b005b6108c66004808035906020019091905050613d7c565b005b6000809054906101000a900473ffffffffffffffffffffffffffffffffffffffff1673ffffffffffffffffffffffffffffffffffffffff163373ffffffffffffffffffffffffffffffffffffffff1614151561092357600080fd5b60008173ffffffffffffffffffffffffffffffffffffffff16141561094757610989565b80600260006101000a81548173ffffffffffffffffffffffffffffffffffffffff021916908373ffffffffffffffffffffffffffffffffffffffff1602179055505b50565b60056020528060005260406000206000915090508060000154908060010160009054906101000a900473ffffffffffffffffffffffffffffffffffffffff16908060020154908060030160009054906101000a900473ffffffffffffffffffffffffffffffffffffffff16908060030160149054906101000a900460ff16905085565b600080600080600060036000878152602001908152602001600020600001546003600088815260200190815260200160002060010160009054906101000a900473ffffffffffffffffffffffffffffffffffffffff166003600089815260200190815260200160002060020154600360008a815260200190815260200160002060030160009054906101000a900473ffffffffffffffffffffffffffffffffffffffff16600360008b815260200190815260200160002060030160149054906101000a900460ff169450945094509450945091939590929450565b60046020528060005260406000206000915090508060000154908060010160009054906101000a900473ffffffffffffffffffffffffffffffffffffffff16908060020154905083565b6000809054906101000a900473ffffffffffffffffffffffffffffffffffffffff1673ffffffffffffffffffffffffffffffffffffffff163373ffffffffffffffffffffffffffffffffffffffff16141515610b8f57600080fd5b60008173ffffffffffffffffffffffffffffffffffffffff161415610bb357610bf5565b80600160006101000a81548173ffffffffffffffffffffffffffffffffffffffff021916908373ffffffffffffffffffffffffffffffffffffffff1602179055505b50565b610c006141c2565b610c08614220565b600160009054906101000a900473ffffffffffffffffffffffffffffffffffffffff1673ffffffffffffffffffffffffffffffffffffffff1663892d0f6e336040518263ffffffff167c0100000000000000000000000000000000000000000000000000000000028152600401808273ffffffffffffffffffffffffffffffffffffffff1673ffffffffffffffffffffffffffffffffffffffff168152602001915050602060405180830381600087803b1515610cc457600080fd5b5af11515610cd157600080fd5b505050604051805190501515610ce6576114d8565b600260009054906101000a900473ffffffffffffffffffffffffffffffffffffffff1673ffffffffffffffffffffffffffffffffffffffff16630826693b33856040518363ffffffff167c0100000000000000000000000000000000000000000000000000000000028152600401808373ffffffffffffffffffffffffffffffffffffffff1673ffffffffffffffffffffffffffffffffffffffff16815260200182815260200192505050602060405180830381600087803b1515610daa57600080fd5b5af11515610db757600080fd5b5050506040518051905015610dcb576114d8565b6003600084815260200190815260200160002060a06040519081016040529081600082015481526020016001820160009054906101000a900473ffffffffffffffffffffffffffffffffffffffff1673ffffffffffffffffffffffffffffffffffffffff1673ffffffffffffffffffffffffffffffffffffffff168152602001600282015481526020016003820160009054906101000a900473ffffffffffffffffffffffffffffffffffffffff1673ffffffffffffffffffffffffffffffffffffffff1673ffffffffffffffffffffffffffffffffffffffff1681526020016003820160149054906101000a900460ff161515151581525050915081608001511515610ed7576114d8565b8160400151341015610ee8576114d8565b6000826060015173ffffffffffffffffffffffffffffffffffffffff1614158015610f4357503373ffffffffffffffffffffffffffffffffffffffff16826060015173ffffffffffffffffffffffffffffffffffffffff1614155b15610f4d576114d8565b600260009054906101000a900473ffffffffffffffffffffffffffffffffffffffff1673ffffffffffffffffffffffffffffffffffffffff16633df34d9a836020015133866040518463ffffffff167c0100000000000000000000000000000000000000000000000000000000028152600401808473ffffffffffffffffffffffffffffffffffffffff1673ffffffffffffffffffffffffffffffffffffffff1681526020018373ffffffffffffffffffffffffffffffffffffffff1673ffffffffffffffffffffffffffffffffffffffff1681526020018281526020019350505050602060405180830381600087803b151561104957600080fd5b5af1151561105657600080fd5b50505060405180519050151561106b576114d8565b60a060405190810160405280848152602001600073ffffffffffffffffffffffffffffffffffffffff16815260200160008152602001600073ffffffffffffffffffffffffffffffffffffffff16815260200160001515815250600360008581526020019081526020016000206000820151816000015560208201518160010160006101000a81548173ffffffffffffffffffffffffffffffffffffffff021916908373ffffffffffffffffffffffffffffffffffffffff1602179055506040820151816002015560608201518160030160006101000a81548173ffffffffffffffffffffffffffffffffffffffff021916908373ffffffffffffffffffffffffffffffffffffffff16021790555060808201518160030160146101000a81548160ff021916908315150217905550905050600160009054906101000a900473ffffffffffffffffffffffffffffffffffffffff1673ffffffffffffffffffffffffffffffffffffffff1663b9c8c4498360400151336040518363ffffffff167c0100000000000000000000000000000000000000000000000000000000028152600401808273ffffffffffffffffffffffffffffffffffffffff1673ffffffffffffffffffffffffffffffffffffffff1681526020019150506020604051808303818588803b151561125d57600080fd5b5af1151561126a57600080fd5b5050505060405180519050503373ffffffffffffffffffffffffffffffffffffffff167f5e11c9b59cc4a8284f13a82855531372c42b6ee7157d5fe4694400d67e0d81f9848460400151604051808381526020018281526020019250505060405180910390a26004600084815260200190815260200160002060606040519081016040529081600082015481526020016001820160009054906101000a900473ffffffffffffffffffffffffffffffffffffffff1673ffffffffffffffffffffffffffffffffffffffff1673ffffffffffffffffffffffffffffffffffffffff16815260200160028201548152505090503373ffffffffffffffffffffffffffffffffffffffff16816020015173ffffffffffffffffffffffffffffffffffffffff1614156114d7573373ffffffffffffffffffffffffffffffffffffffff167f8c439c7356c857db54cfb4218682dc847dffa026b77750cfc967699835c30849848360400151604051808381526020018281526020019250505060405180910390a23373ffffffffffffffffffffffffffffffffffffffff166108fc82604001519081150290604051600060405180830381858888f19350505050151561143157600080fd5b606060405190810160405280848152602001600073ffffffffffffffffffffffffffffffffffffffff1681526020016000815250600460008581526020019081526020016000206000820151816000015560208201518160010160006101000a81548173ffffffffffffffffffffffffffffffffffffffff021916908373ffffffffffffffffffffffffffffffffffffffff160217905550604082015181600201559050505b5b505050565b600080600060066000858152602001908152602001600020600001546006600086815260200190815260200160002060010160009054906101000a900473ffffffffffffffffffffffffffffffffffffffff1660066000878152602001908152602001600020600201549250925092509193909250565b60036020528060005260406000206000915090508060000154908060010160009054906101000a900473ffffffffffffffffffffffffffffffffffffffff16908060020154908060030160009054906101000a900473ffffffffffffffffffffffffffffffffffffffff16908060030160149054906101000a900460ff16905085565b6115df614220565b600160009054906101000a900473ffffffffffffffffffffffffffffffffffffffff1673ffffffffffffffffffffffffffffffffffffffff1663892d0f6e336040518263ffffffff167c0100000000000000000000000000000000000000000000000000000000028152600401808273ffffffffffffffffffffffffffffffffffffffff1673ffffffffffffffffffffffffffffffffffffffff168152602001915050602060405180830381600087803b151561169b57600080fd5b5af115156116a857600080fd5b5050506040518051905015156116bd576118ca565b6004600083815260200190815260200160002060606040519081016040529081600082015481526020016001820160009054906101000a900473ffffffffffffffffffffffffffffffffffffffff1673ffffffffffffffffffffffffffffffffffffffff1673ffffffffffffffffffffffffffffffffffffffff16815260200160028201548152505090503373ffffffffffffffffffffffffffffffffffffffff16816020015173ffffffffffffffffffffffffffffffffffffffff16141515611786576118ca565b3373ffffffffffffffffffffffffffffffffffffffff167f8c439c7356c857db54cfb4218682dc847dffa026b77750cfc967699835c30849838360400151604051808381526020018281526020019250505060405180910390a23373ffffffffffffffffffffffffffffffffffffffff166108fc82604001519081150290604051600060405180830381858888f19350505050151561182457600080fd5b606060405190810160405280838152602001600073ffffffffffffffffffffffffffffffffffffffff1681526020016000815250600460008481526020019081526020016000206000820151816000015560208201518160010160006101000a81548173ffffffffffffffffffffffffffffffffffffffff021916908373ffffffffffffffffffffffffffffffffffffffff160217905550604082015181600201559050505b5050565b600080600060046000858152602001908152602001600020600001546004600086815260200190815260200160002060010160009054906101000a900473ffffffffffffffffffffffffffffffffffffffff1660046000878152602001908152602001600020600201549250925092509193909250565b61194d614220565b600160009054906101000a900473ffffffffffffffffffffffffffffffffffffffff1673ffffffffffffffffffffffffffffffffffffffff1663892d0f6e336040518263ffffffff167c0100000000000000000000000000000000000000000000000000000000028152600401808273ffffffffffffffffffffffffffffffffffffffff1673ffffffffffffffffffffffffffffffffffffffff168152602001915050602060405180830381600087803b1515611a0957600080fd5b5af11515611a1657600080fd5b505050604051805190501515611a2b57611d87565b600260009054906101000a900473ffffffffffffffffffffffffffffffffffffffff1673ffffffffffffffffffffffffffffffffffffffff16636010375b33846040518363ffffffff167c0100000000000000000000000000000000000000000000000000000000028152600401808373ffffffffffffffffffffffffffffffffffffffff1673ffffffffffffffffffffffffffffffffffffffff16815260200182815260200192505050602060405180830381600087803b1515611aef57600080fd5b5af11515611afc57600080fd5b505050604051805190501515611b1157611d87565b6004600083815260200190815260200160002060606040519081016040529081600082015481526020016001820160009054906101000a900473ffffffffffffffffffffffffffffffffffffffff1673ffffffffffffffffffffffffffffffffffffffff1673ffffffffffffffffffffffffffffffffffffffff1681526020016002820154815250509050600034111515611bab57611d87565b8060400151341115611d8657600160009054906101000a900473ffffffffffffffffffffffffffffffffffffffff1673ffffffffffffffffffffffffffffffffffffffff1663b9c8c44934336040518363ffffffff167c0100000000000000000000000000000000000000000000000000000000028152600401808273ffffffffffffffffffffffffffffffffffffffff1673ffffffffffffffffffffffffffffffffffffffff1681526020019150506020604051808303818588803b1515611c7357600080fd5b5af11515611c8057600080fd5b5050505060405180519050506060604051908101604052808381526020013373ffffffffffffffffffffffffffffffffffffffff16815260200134815250600460008481526020019081526020016000206000820151816000015560208201518160010160006101000a81548173ffffffffffffffffffffffffffffffffffffffff021916908373ffffffffffffffffffffffffffffffffffffffff160217905550604082015181600201559050503373ffffffffffffffffffffffffffffffffffffffff167fdd4abc173fa3d1eeaa48a51daaabb78cb5a59ac07f6b01eecec7a239d875db208334604051808381526020018281526020019250505060405180910390a25b5b5050565b611d93614258565b600160009054906101000a900473ffffffffffffffffffffffffffffffffffffffff1673ffffffffffffffffffffffffffffffffffffffff1663892d0f6e336040518263ffffffff167c0100000000000000000000000000000000000000000000000000000000028152600401808273ffffffffffffffffffffffffffffffffffffffff1673ffffffffffffffffffffffffffffffffffffffff168152602001915050602060405180830381600087803b1515611e4f57600080fd5b5af11515611e5c57600080fd5b505050604051805190501515611e715761207e565b6006600083815260200190815260200160002060606040519081016040529081600082015481526020016001820160009054906101000a900473ffffffffffffffffffffffffffffffffffffffff1673ffffffffffffffffffffffffffffffffffffffff1673ffffffffffffffffffffffffffffffffffffffff16815260200160028201548152505090503373ffffffffffffffffffffffffffffffffffffffff16816020015173ffffffffffffffffffffffffffffffffffffffff16141515611f3a5761207e565b3373ffffffffffffffffffffffffffffffffffffffff167f3bc333ecb1f7fbd425c1cb01a22905d40beb2cb022035d93950fb169c6050758838360400151604051808381526020018281526020019250505060405180910390a23373ffffffffffffffffffffffffffffffffffffffff166108fc82604001519081150290604051600060405180830381858888f193505050501515611fd857600080fd5b606060405190810160405280838152602001600073ffffffffffffffffffffffffffffffffffffffff1681526020016000815250600660008481526020019081526020016000206000820151816000015560208201518160010160006101000a81548173ffffffffffffffffffffffffffffffffffffffff021916908373ffffffffffffffffffffffffffffffffffffffff160217905550604082015181600201559050505b5050565b6000809054906101000a900473ffffffffffffffffffffffffffffffffffffffff1681565b600160009054906101000a900473ffffffffffffffffffffffffffffffffffffffff1673ffffffffffffffffffffffffffffffffffffffff1663892d0f6e336040518263ffffffff167c0100000000000000000000000000000000000000000000000000000000028152600401808273ffffffffffffffffffffffffffffffffffffffff1673ffffffffffffffffffffffffffffffffffffffff168152602001915050602060405180830381600087803b151561216357600080fd5b5af1151561217057600080fd5b505050604051805190501515612185576123ca565b600260009054906101000a900473ffffffffffffffffffffffffffffffffffffffff1673ffffffffffffffffffffffffffffffffffffffff16635c683f4333836040518363ffffffff167c0100000000000000000000000000000000000000000000000000000000028152600401808373ffffffffffffffffffffffffffffffffffffffff1673ffffffffffffffffffffffffffffffffffffffff16815260200182815260200192505050602060405180830381600087803b151561224957600080fd5b5af1151561225657600080fd5b50505060405180519050151561226b576123ca565b60a0604051908101604052808281526020013373ffffffffffffffffffffffffffffffffffffffff16815260200160008152602001600073ffffffffffffffffffffffffffffffffffffffff16815260200160001515815250600560008381526020019081526020016000206000820151816000015560208201518160010160006101000a81548173ffffffffffffffffffffffffffffffffffffffff021916908373ffffffffffffffffffffffffffffffffffffffff1602179055506040820151816002015560608201518160030160006101000a81548173ffffffffffffffffffffffffffffffffffffffff021916908373ffffffffffffffffffffffffffffffffffffffff16021790555060808201518160030160146101000a81548160ff021916908315150217905550905050807f541d0d1ac89f5158ec5f733b9b93a1e1f3c0f09e26b61002864c7e1ad45ecbcd60405160405180910390a25b50565b60066020528060005260406000206000915090508060000154908060010160009054906101000a900473ffffffffffffffffffffffffffffffffffffffff16908060020154905083565b600160009054906101000a900473ffffffffffffffffffffffffffffffffffffffff1673ffffffffffffffffffffffffffffffffffffffff1663892d0f6e336040518263ffffffff167c0100000000000000000000000000000000000000000000000000000000028152600401808273ffffffffffffffffffffffffffffffffffffffff1673ffffffffffffffffffffffffffffffffffffffff168152602001915050602060405180830381600087803b15156124d357600080fd5b5af115156124e057600080fd5b5050506040518051905015156124f55761282c565b600260009054906101000a900473ffffffffffffffffffffffffffffffffffffffff1673ffffffffffffffffffffffffffffffffffffffff16636010375b6000846040518363ffffffff167c0100000000000000000000000000000000000000000000000000000000028152600401808373ffffffffffffffffffffffffffffffffffffffff16815260200182815260200192505050602060405180830381600087803b15156125a457600080fd5b5af115156125b157600080fd5b5050506040518051905015156125c65761282c565b600260009054906101000a900473ffffffffffffffffffffffffffffffffffffffff1673ffffffffffffffffffffffffffffffffffffffff16630826693b33846040518363ffffffff167c0100000000000000000000000000000000000000000000000000000000028152600401808373ffffffffffffffffffffffffffffffffffffffff1673ffffffffffffffffffffffffffffffffffffffff16815260200182815260200192505050602060405180830381600087803b151561268a57600080fd5b5af1151561269757600080fd5b5050506040518051905015156126ac5761282c565b60008114156126ba5761282c565b60a0604051908101604052808381526020013373ffffffffffffffffffffffffffffffffffffffff168152602001828152602001600073ffffffffffffffffffffffffffffffffffffffff16815260200160011515815250600360008481526020019081526020016000206000820151816000015560208201518160010160006101000a81548173ffffffffffffffffffffffffffffffffffffffff021916908373ffffffffffffffffffffffffffffffffffffffff1602179055506040820151816002015560608201518160030160006101000a81548173ffffffffffffffffffffffffffffffffffffffff021916908373ffffffffffffffffffffffffffffffffffffffff16021790555060808201518160030160146101000a81548160ff02191690831515021790555090505060007f32cc12e4d24877d9f4819567e8843f44291647bd09ba5154f379aeb80b79ad1a8383604051808381526020018281526020019250505060405180910390a25b5050565b600080600080600060056000878152602001908152602001600020600001546005600088815260200190815260200160002060010160009054906101000a900473ffffffffffffffffffffffffffffffffffffffff166005600089815260200190815260200160002060020154600560008a815260200190815260200160002060030160009054906101000a900473ffffffffffffffffffffffffffffffffffffffff16600560008b815260200190815260200160002060030160149054906101000a900460ff169450945094509450945091939590929450565b612913614220565b600160009054906101000a900473ffffffffffffffffffffffffffffffffffffffff1673ffffffffffffffffffffffffffffffffffffffff1663892d0f6e336040518263ffffffff167c0100000000000000000000000000000000000000000000000000000000028152600401808273ffffffffffffffffffffffffffffffffffffffff1673ffffffffffffffffffffffffffffffffffffffff168152602001915050602060405180830381600087803b15156129cf57600080fd5b5af115156129dc57600080fd5b5050506040518051905015156129f157612e6e565b600260009054906101000a900473ffffffffffffffffffffffffffffffffffffffff1673ffffffffffffffffffffffffffffffffffffffff16630826693b33846040518363ffffffff167c0100000000000000000000000000000000000000000000000000000000028152600401808373ffffffffffffffffffffffffffffffffffffffff1673ffffffffffffffffffffffffffffffffffffffff16815260200182815260200192505050602060405180830381600087803b1515612ab557600080fd5b5af11515612ac257600080fd5b5050506040518051905015612ad657612e6e565b6004600083815260200190815260200160002060606040519081016040529081600082015481526020016001820160009054906101000a900473ffffffffffffffffffffffffffffffffffffffff1673ffffffffffffffffffffffffffffffffffffffff1673ffffffffffffffffffffffffffffffffffffffff1681526020016002820154815250509050600081604001511415612b7357612e6e565b600260009054906101000a900473ffffffffffffffffffffffffffffffffffffffff1673ffffffffffffffffffffffffffffffffffffffff16633df34d9a338360200151856040518463ffffffff167c0100000000000000000000000000000000000000000000000000000000028152600401808473ffffffffffffffffffffffffffffffffffffffff1673ffffffffffffffffffffffffffffffffffffffff1681526020018373ffffffffffffffffffffffffffffffffffffffff1673ffffffffffffffffffffffffffffffffffffffff1681526020018281526020019350505050602060405180830381600087803b1515612c6f57600080fd5b5af11515612c7c57600080fd5b505050604051805190501515612c9157612e6e565b606060405190810160405280838152602001600073ffffffffffffffffffffffffffffffffffffffff1681526020016000815250600460008481526020019081526020016000206000820151816000015560208201518160010160006101000a81548173ffffffffffffffffffffffffffffffffffffffff021916908373ffffffffffffffffffffffffffffffffffffffff16021790555060408201518160020155905050600160009054906101000a900473ffffffffffffffffffffffffffffffffffffffff1673ffffffffffffffffffffffffffffffffffffffff1663b9c8c4498260400151336040518363ffffffff167c0100000000000000000000000000000000000000000000000000000000028152600401808273ffffffffffffffffffffffffffffffffffffffff1673ffffffffffffffffffffffffffffffffffffffff1681526020019150506020604051808303818588803b1515612df657600080fd5b5af11515612e0357600080fd5b505050506040518051905050806020015173ffffffffffffffffffffffffffffffffffffffff167f41b9f89713aea1e85716f6ca4d334ea53274f423e5144d7d49fc078490202eb1838360400151604051808381526020018281526020019250505060405180910390a25b5050565b600160009054906101000a900473ffffffffffffffffffffffffffffffffffffffff1673ffffffffffffffffffffffffffffffffffffffff1663892d0f6e336040518263ffffffff167c0100000000000000000000000000000000000000000000000000000000028152600401808273ffffffffffffffffffffffffffffffffffffffff1673ffffffffffffffffffffffffffffffffffffffff168152602001915050602060405180830381600087803b1515612f2e57600080fd5b5af11515612f3b57600080fd5b505050604051805190501515612f50576131b5565b600260009054906101000a900473ffffffffffffffffffffffffffffffffffffffff1673ffffffffffffffffffffffffffffffffffffffff16635c683f4333846040518363ffffffff167c0100000000000000000000000000000000000000000000000000000000028152600401808373ffffffffffffffffffffffffffffffffffffffff1673ffffffffffffffffffffffffffffffffffffffff16815260200182815260200192505050602060405180830381600087803b151561301457600080fd5b5af1151561302157600080fd5b5050506040518051905015613035576131b5565b6000811415613043576131b5565b60a0604051908101604052808381526020013373ffffffffffffffffffffffffffffffffffffffff168152602001828152602001600073ffffffffffffffffffffffffffffffffffffffff16815260200160011515815250600560008481526020019081526020016000206000820151816000015560208201518160010160006101000a81548173ffffffffffffffffffffffffffffffffffffffff021916908373ffffffffffffffffffffffffffffffffffffffff1602179055506040820151816002015560608201518160030160006101000a81548173ffffffffffffffffffffffffffffffffffffffff021916908373ffffffffffffffffffffffffffffffffffffffff16021790555060808201518160030160146101000a81548160ff02191690831515021790555090505060007f0c55a24b8a698eb650e4bea3d646a175d7c332bedaa715aca04cf306ee65648d8383604051808381526020018281526020019250505060405180910390a25b5050565b336000806101000a81548173ffffffffffffffffffffffffffffffffffffffff021916908373ffffffffffffffffffffffffffffffffffffffff160217905550565b600160009054906101000a900473ffffffffffffffffffffffffffffffffffffffff1673ffffffffffffffffffffffffffffffffffffffff1663892d0f6e336040518263ffffffff167c0100000000000000000000000000000000000000000000000000000000028152600401808273ffffffffffffffffffffffffffffffffffffffff1673ffffffffffffffffffffffffffffffffffffffff168152602001915050602060405180830381600087803b15156132b757600080fd5b5af115156132c457600080fd5b5050506040518051905015156132d957613561565b600260009054906101000a900473ffffffffffffffffffffffffffffffffffffffff1673ffffffffffffffffffffffffffffffffffffffff16635c683f4333856040518363ffffffff167c0100000000000000000000000000000000000000000000000000000000028152600401808373ffffffffffffffffffffffffffffffffffffffff1673ffffffffffffffffffffffffffffffffffffffff16815260200182815260200192505050602060405180830381600087803b151561339d57600080fd5b5af115156133aa57600080fd5b50505060405180519050156133be57613561565b60008214156133cc57613561565b60008173ffffffffffffffffffffffffffffffffffffffff1614156133f057613561565b60a0604051908101604052808481526020013373ffffffffffffffffffffffffffffffffffffffff1681526020018381526020018273ffffffffffffffffffffffffffffffffffffffff16815260200160011515815250600560008581526020019081526020016000206000820151816000015560208201518160010160006101000a81548173ffffffffffffffffffffffffffffffffffffffff021916908373ffffffffffffffffffffffffffffffffffffffff1602179055506040820151816002015560608201518160030160006101000a81548173ffffffffffffffffffffffffffffffffffffffff021916908373ffffffffffffffffffffffffffffffffffffffff16021790555060808201518160030160146101000a81548160ff02191690831515021790555090505060007f0c55a24b8a698eb650e4bea3d646a175d7c332bedaa715aca04cf306ee65648d8484604051808381526020018281526020019250505060405180910390a25b505050565b600160009054906101000a900473ffffffffffffffffffffffffffffffffffffffff1673ffffffffffffffffffffffffffffffffffffffff1663892d0f6e336040518263ffffffff167c0100000000000000000000000000000000000000000000000000000000028152600401808273ffffffffffffffffffffffffffffffffffffffff1673ffffffffffffffffffffffffffffffffffffffff168152602001915050602060405180830381600087803b151561362257600080fd5b5af1151561362f57600080fd5b50505060405180519050151561364457613889565b600260009054906101000a900473ffffffffffffffffffffffffffffffffffffffff1673ffffffffffffffffffffffffffffffffffffffff16630826693b33836040518363ffffffff167c0100000000000000000000000000000000000000000000000000000000028152600401808373ffffffffffffffffffffffffffffffffffffffff1673ffffffffffffffffffffffffffffffffffffffff16815260200182815260200192505050602060405180830381600087803b151561370857600080fd5b5af1151561371557600080fd5b50505060405180519050151561372a57613889565b60a0604051908101604052808281526020013373ffffffffffffffffffffffffffffffffffffffff16815260200160008152602001600073ffffffffffffffffffffffffffffffffffffffff16815260200160001515815250600360008381526020019081526020016000206000820151816000015560208201518160010160006101000a81548173ffffffffffffffffffffffffffffffffffffffff021916908373ffffffffffffffffffffffffffffffffffffffff1602179055506040820151816002015560608201518160030160006101000a81548173ffffffffffffffffffffffffffffffffffffffff021916908373ffffffffffffffffffffffffffffffffffffffff16021790555060808201518160030160146101000a81548160ff021916908315150217905550905050807fdb616caa501c64f8c602af84df0f72cefe883aa4d1b5f821e4827fc245160a4b60405160405180910390a25b50565b600160009054906101000a900473ffffffffffffffffffffffffffffffffffffffff1673ffffffffffffffffffffffffffffffffffffffff1663892d0f6e336040518263ffffffff167c0100000000000000000000000000000000000000000000000000000000028152600401808273ffffffffffffffffffffffffffffffffffffffff1673ffffffffffffffffffffffffffffffffffffffff168152602001915050602060405180830381600087803b151561394857600080fd5b5af1151561395557600080fd5b50505060405180519050151561396a57613cd9565b600260009054906101000a900473ffffffffffffffffffffffffffffffffffffffff1673ffffffffffffffffffffffffffffffffffffffff16636010375b6000856040518363ffffffff167c0100000000000000000000000000000000000000000000000000000000028152600401808373ffffffffffffffffffffffffffffffffffffffff16815260200182815260200192505050602060405180830381600087803b1515613a1957600080fd5b5af11515613a2657600080fd5b505050604051805190501515613a3b57613cd9565b600260009054906101000a900473ffffffffffffffffffffffffffffffffffffffff1673ffffffffffffffffffffffffffffffffffffffff16630826693b33856040518363ffffffff167c0100000000000000000000000000000000000000000000000000000000028152600401808373ffffffffffffffffffffffffffffffffffffffff1673ffffffffffffffffffffffffffffffffffffffff16815260200182815260200192505050602060405180830381600087803b1515613aff57600080fd5b5af11515613b0c57600080fd5b505050604051805190501515613b2157613cd9565b6000821415613b2f57613cd9565b60008173ffffffffffffffffffffffffffffffffffffffff161415613b5357613cd9565b60a0604051908101604052808481526020013373ffffffffffffffffffffffffffffffffffffffff1681526020018381526020018273ffffffffffffffffffffffffffffffffffffffff16815260200160011515815250600360008581526020019081526020016000206000820151816000015560208201518160010160006101000a81548173ffffffffffffffffffffffffffffffffffffffff021916908373ffffffffffffffffffffffffffffffffffffffff1602179055506040820151816002015560608201518160030160006101000a81548173ffffffffffffffffffffffffffffffffffffffff021916908373ffffffffffffffffffffffffffffffffffffffff16021790555060808201518160030160146101000a81548160ff0219169083151502179055509050508073ffffffffffffffffffffffffffffffffffffffff167f32cc12e4d24877d9f4819567e8843f44291647bd09ba5154f379aeb80b79ad1a8484604051808381526020018281526020019250505060405180910390a25b505050565b6000809054906101000a900473ffffffffffffffffffffffffffffffffffffffff1673ffffffffffffffffffffffffffffffffffffffff163373ffffffffffffffffffffffffffffffffffffffff16141515613d3957600080fd5b806000806101000a81548173ffffffffffffffffffffffffffffffffffffffff021916908373ffffffffffffffffffffffffffffffffffffffff16021790555050565b613d84614258565b600160009054906101000a900473ffffffffffffffffffffffffffffffffffffffff1673ffffffffffffffffffffffffffffffffffffffff1663892d0f6e336040518263ffffffff167c0100000000000000000000000000000000000000000000000000000000028152600401808273ffffffffffffffffffffffffffffffffffffffff1673ffffffffffffffffffffffffffffffffffffffff168152602001915050602060405180830381600087803b1515613e4057600080fd5b5af11515613e4d57600080fd5b505050604051805190501515613e62576141be565b600260009054906101000a900473ffffffffffffffffffffffffffffffffffffffff1673ffffffffffffffffffffffffffffffffffffffff1663ec522a1433846040518363ffffffff167c0100000000000000000000000000000000000000000000000000000000028152600401808373ffffffffffffffffffffffffffffffffffffffff1673ffffffffffffffffffffffffffffffffffffffff16815260200182815260200192505050602060405180830381600087803b1515613f2657600080fd5b5af11515613f3357600080fd5b505050604051805190501515613f48576141be565b6006600083815260200190815260200160002060606040519081016040529081600082015481526020016001820160009054906101000a900473ffffffffffffffffffffffffffffffffffffffff1673ffffffffffffffffffffffffffffffffffffffff1673ffffffffffffffffffffffffffffffffffffffff1681526020016002820154815250509050600034111515613fe2576141be565b80604001513411156141bd57600160009054906101000a900473ffffffffffffffffffffffffffffffffffffffff1673ffffffffffffffffffffffffffffffffffffffff1663b9c8c44934336040518363ffffffff167c0100000000000000000000000000000000000000000000000000000000028152600401808273ffffffffffffffffffffffffffffffffffffffff1673ffffffffffffffffffffffffffffffffffffffff1681526020019150506020604051808303818588803b15156140aa57600080fd5b5af115156140b757600080fd5b5050505060405180519050506060604051908101604052808381526020013373ffffffffffffffffffffffffffffffffffffffff16815260200134815250600660008481526020019081526020016000206000820151816000015560208201518160010160006101000a81548173ffffffffffffffffffffffffffffffffffffffff021916908373ffffffffffffffffffffffffffffffffffffffff160217905550604082015181600201559050503373ffffffffffffffffffffffffffffffffffffffff167fe15e5811acefdf064a6e579e5e161d1f2b90c3c5d198175cf1e1bb80c56ad43f8334604051808381526020018281526020019250505060405180910390a25b5b5050565b60a06040519081016040528060008152602001600073ffffffffffffffffffffffffffffffffffffffff16815260200160008152602001600073ffffffffffffffffffffffffffffffffffffffff1681526020016000151581525090565b60606040519081016040528060008152602001600073ffffffffffffffffffffffffffffffffffffffff168152602001600081525090565b60606040519081016040528060008152602001600073ffffffffffffffffffffffffffffffffffffffff1681526020016000815250905600a165627a7a7230582036a5a2fbb6b0985fa6b2c2914eed31386548368baaf1f2bdac320ac1c30ff2830029",
  "source": "pragma solidity ^0.4.21;\r\n\r\nimport \"./Owned.sol\";\r\n\r\ncontract CKColonyMarketPlace is Owned {\r\n    /*\r\n        \r\n    */\r\n    CandyKillerAccount ckAccount;\r\n    CandyKillerColony ckColony;\r\n    /*\r\n         \r\n    */\r\n    /*\r\n          \r\n    */\r\n    struct OfferEarthCell {\r\n        // \r\n        uint index;\r\n        //  \r\n        address owner;\r\n        // \r\n        uint price;\r\n        //   \r\n        address specialCustomer;\r\n        //   \r\n        bool isForSale;\r\n    }\r\n    /*\r\n          \r\n    */\r\n    struct BidEarthCell {\r\n        // \r\n        uint index;\r\n        // \r\n        address customer;\r\n        // \r\n        uint price;\r\n    }\r\n    /*\r\n         \r\n    */\r\n    /*\r\n          \r\n    */\r\n    struct OfferColony {\r\n        // \r\n        uint index;\r\n        //  \r\n        address owner;\r\n        // \r\n        uint price;\r\n        //   \r\n        address specialCustomer;\r\n        //   \r\n        bool isForSale;\r\n    }\r\n    /*\r\n          \r\n    */\r\n    struct BidColony {\r\n        // \r\n        uint index;\r\n        // \r\n        address customer;\r\n        // \r\n        uint price;\r\n    }\r\n    //    \r\n    mapping(uint => OfferEarthCell) public earthCellOffer;\r\n    //     \r\n    mapping(uint => BidEarthCell) public earthCellBids;\r\n    //     \r\n    mapping(uint => OfferColony) public colonyOffers;\r\n    //     \r\n    mapping(uint => BidColony) public colonyBids;\r\n    /*\r\n        \r\n    */\r\n    event EarthCellBidEntered(uint cellIndex, uint price, address indexed customerAddress);\r\n    event EarthCellBidWithdrawn(uint cellIndex, uint price, address indexed customerAddress);\r\n    event EarthCellBidAccepted(uint charactecellIndexrIndex, uint price, address indexed tenantAddress);\r\n    event EarthCellOffered(uint cellIndex, uint price, address indexed toAddress);\r\n    event EarthCellBidBuy(uint cellIndex, uint price, address indexed toAddress);\r\n    event WithdrawOfferForEarthCell(uint indexed cellIndex);\r\n\r\n    event ColonyBidEntered(uint colonyIndex, uint price, address indexed customerAddress);\r\n    event ColonyBidWithdrawn(uint colonyIndex, uint price, address indexed customerAddress);\r\n    event ColonyOffered(uint colonyIndex, uint price, address indexed toAddress);\r\n    event WithdrawOfferForColony(uint indexed colonyIndex);\r\n\r\n    function CKColonyMarketPlace() public {\r\n        owner = msg.sender;\r\n    }\r\n\r\n    /*\r\n          CandyKillerAccount\r\n    */\r\n    function initCandyKillerAccount(address accountContract) public onlyOwner {\r\n        if (accountContract == 0x0) return;\r\n        ckAccount = CandyKillerAccount(accountContract);\r\n    }\r\n    /*\r\n          CandyKillerColony\r\n    */\r\n    function initCandyKillerColony(address colonyContract) public onlyOwner {\r\n        if (colonyContract == 0x0) return;\r\n        ckColony = CandyKillerColony(colonyContract);\r\n    }\r\n    /*\r\n             \r\n    */\r\n    function enterBidEarthCell(uint cellIndex) public payable {\r\n        //    \r\n        if (!ckAccount.isCreateAndActive(msg.sender)) return;\r\n        //      \r\n        if (!ckColony.isExistAndForSaleCell(msg.sender, cellIndex)) return;\r\n        BidEarthCell memory existBidEarthCell = earthCellBids[cellIndex];\r\n        if (msg.value <= 0) return;\r\n        //       \r\n        if (msg.value > existBidEarthCell.price) {\r\n            //  \r\n            ckAccount.addPendingWithdrawals.value(msg.value)(msg.sender);\r\n            //   \r\n            earthCellBids[cellIndex] = BidEarthCell(cellIndex, msg.sender, msg.value);\r\n            emit EarthCellBidEntered(cellIndex, msg.value, msg.sender);\r\n        }\r\n    }\r\n    /*\r\n          \r\n    */\r\n    function acceptBidEarthCell(uint cellIndex) public {\r\n        //    \r\n        if (!ckAccount.isCreateAndActive(msg.sender)) return;\r\n        //      \r\n        if (ckColony.isOwnerEarthCell(msg.sender, cellIndex)) return;\r\n        BidEarthCell memory existBid = earthCellBids[cellIndex];\r\n        if (existBid.price == 0) return;\r\n        //    \r\n        if (!ckColony.transferEarthCell(msg.sender, existBid.customer, cellIndex)) return;\r\n        earthCellBids[cellIndex] = BidEarthCell(cellIndex, 0x0, 0);\r\n        //   \r\n        ckAccount.addPendingWithdrawals.value(existBid.price)(msg.sender);\r\n        emit EarthCellBidAccepted(cellIndex, existBid.price, existBid.customer);\r\n    }\r\n    /*\r\n             \r\n    */\r\n    function withdrawBidEarthCell(uint cellIndex) public {\r\n        //    \r\n        if (!ckAccount.isCreateAndActive(msg.sender)) return;\r\n        BidEarthCell memory existBidEarthCell = earthCellBids[cellIndex];\r\n        //  \r\n        if (existBidEarthCell.customer != msg.sender) return;\r\n        //    \r\n        emit EarthCellBidWithdrawn(cellIndex, existBidEarthCell.price, msg.sender);\r\n        //    \r\n        msg.sender.transfer(existBidEarthCell.price);\r\n        earthCellBids[cellIndex] = BidEarthCell(cellIndex, 0x0, 0);\r\n    }\r\n    /*\r\n             \r\n    */\r\n    function offerEarthCell(uint cellIndex, uint price) public {\r\n        //    \r\n        if (!ckAccount.isCreateAndActive(msg.sender)) return;\r\n        //      \r\n        if (!ckColony.isExistAndForSaleCell(0x0, cellIndex)) return;\r\n        //  \r\n        if (!ckColony.isOwnerEarthCell(msg.sender, cellIndex)) return;\r\n        if (price == 0) return;\r\n        earthCellOffer[cellIndex] = OfferEarthCell(cellIndex, msg.sender, price, 0x0, true);\r\n        emit EarthCellOffered(cellIndex, price, 0x0);\r\n    }\r\n    /*\r\n             ,  \r\n    */\r\n    function offerEarthCellToAddress(uint cellIndex, uint price, address toAddress) public {\r\n        //    \r\n        if (!ckAccount.isCreateAndActive(msg.sender)) return;\r\n        //      \r\n        if (!ckColony.isExistAndForSaleCell(0x0, cellIndex)) return;\r\n        //  \r\n        if (!ckColony.isOwnerEarthCell(msg.sender, cellIndex)) return;\r\n        if (price == 0) return;\r\n        if (toAddress == 0x0) return;\r\n        earthCellOffer[cellIndex] = OfferEarthCell(cellIndex, msg.sender, price, toAddress, true);\r\n        emit EarthCellOffered(cellIndex, price, toAddress);\r\n    }\r\n    /*\r\n          \r\n    */\r\n    function buyEarthCell(uint cellIndex) public payable {\r\n        //    \r\n        if (!ckAccount.isCreateAndActive(msg.sender)) return;\r\n        //     \r\n        if (ckColony.isOwnerEarthCell(msg.sender, cellIndex)) return;\r\n        OfferEarthCell memory existOffer = earthCellOffer[cellIndex];\r\n        if (!existOffer.isForSale) return;\r\n        //    \r\n        if (msg.value < existOffer.price) return;\r\n        //    \r\n        if (existOffer.specialCustomer != 0x0 && existOffer.specialCustomer != msg.sender) return;\r\n        //    \r\n        if (!ckColony.transferEarthCell(existOffer.owner, msg.sender, cellIndex)) return;\r\n        earthCellOffer[cellIndex] = OfferEarthCell(cellIndex, 0x0, 0, 0x0, false);\r\n        //   \r\n        ckAccount.addPendingWithdrawals.value(existOffer.price)(msg.sender);\r\n        emit EarthCellBidBuy(cellIndex, existOffer.price, msg.sender);\r\n        //      \r\n        BidEarthCell memory existBidEarthCell = earthCellBids[cellIndex];\r\n        //  \r\n        if (existBidEarthCell.customer == msg.sender) {\r\n            //    \r\n            emit EarthCellBidWithdrawn(cellIndex, existBidEarthCell.price, msg.sender);\r\n            //    \r\n            msg.sender.transfer(existBidEarthCell.price);\r\n            earthCellBids[cellIndex] = BidEarthCell(cellIndex, 0x0, 0);\r\n        }\r\n    }\r\n    /*\r\n             \r\n    */\r\n    function withdrawOfferEarthCell(uint cellIndex) public {\r\n        //    \r\n        if (!ckAccount.isCreateAndActive(msg.sender)) return;\r\n        //      \r\n        if (!ckColony.isOwnerEarthCell(msg.sender, cellIndex)) return;\r\n        earthCellOffer[cellIndex] = OfferEarthCell(cellIndex, msg.sender, 0, 0x0, false);\r\n        emit WithdrawOfferForEarthCell(cellIndex);\r\n    }\r\n    /*\r\n              \r\n    */\r\n    function getOfferEarthCell(uint cellIndex) public view returns (uint, address, uint, address, bool) {\r\n        return (\r\n        earthCellOffer[cellIndex].index,\r\n        earthCellOffer[cellIndex].owner,\r\n        earthCellOffer[cellIndex].price,\r\n        earthCellOffer[cellIndex].specialCustomer,\r\n        earthCellOffer[cellIndex].isForSale\r\n        );\r\n    }\r\n    /*\r\n              \r\n    */\r\n    function getBidEarthCell(uint cellIndex) public view returns (uint, address, uint) {\r\n        return (\r\n        earthCellBids[cellIndex].index,\r\n        earthCellBids[cellIndex].customer,\r\n        earthCellBids[cellIndex].price\r\n        );\r\n    }\r\n    /*\r\n            \r\n    */\r\n    function enterBidColony(uint colonyIndex) public payable {\r\n        //    \r\n        if (!ckAccount.isCreateAndActive(msg.sender)) return;\r\n        //  \r\n        if (!ckColony.isExistColony(msg.sender, colonyIndex)) return;\r\n        BidColony memory existBidColony = colonyBids[colonyIndex];\r\n        if (msg.value <= 0) return;\r\n        //       \r\n        if (msg.value > existBidColony.price) {\r\n            //  \r\n            ckAccount.addPendingWithdrawals.value(msg.value)(msg.sender);\r\n            //   \r\n            colonyBids[colonyIndex] = BidColony(colonyIndex, msg.sender, msg.value);\r\n            emit ColonyBidEntered(colonyIndex, msg.value, msg.sender);\r\n        }\r\n    }\r\n    /*\r\n         \r\n    */\r\n\r\n    /*\r\n            \r\n    */\r\n    function withdrawBidColony(uint colonyIndex) public {\r\n        //    \r\n        if (!ckAccount.isCreateAndActive(msg.sender)) return;\r\n        BidColony memory existBidColony = colonyBids[colonyIndex];\r\n        //  \r\n        if (existBidColony.customer != msg.sender) return;\r\n        //    \r\n        emit ColonyBidWithdrawn(colonyIndex, existBidColony.price, msg.sender);\r\n        //    \r\n        msg.sender.transfer(existBidColony.price);\r\n        colonyBids[colonyIndex] = BidColony(colonyIndex, 0x0, 0);\r\n    }\r\n    /*\r\n            \r\n    */\r\n    function offerColony(uint colonyIndex, uint price) public {\r\n        //    \r\n        if (!ckAccount.isCreateAndActive(msg.sender)) return;\r\n        //   \r\n        if (ckColony.isOwnerColony(msg.sender, colonyIndex)) return;\r\n        if (price == 0) return;\r\n        colonyOffers[colonyIndex] = OfferColony(colonyIndex, msg.sender, price, 0x0, true);\r\n        emit ColonyOffered(colonyIndex, price, 0x0);\r\n    }\r\n    /*\r\n               \r\n    */\r\n    function offerColony(uint colonyIndex, uint price, address toAddress) public {\r\n        //    \r\n        if (!ckAccount.isCreateAndActive(msg.sender)) return;\r\n        //   \r\n        if (ckColony.isOwnerColony(msg.sender, colonyIndex)) return;\r\n        if (price == 0) return;\r\n        if (toAddress == 0x0) return;\r\n        colonyOffers[colonyIndex] = OfferColony(colonyIndex, msg.sender, price, toAddress, true);\r\n        emit ColonyOffered(colonyIndex, price, 0x0);\r\n    }\r\n\r\n    /*\r\n            \r\n    */\r\n    function withdrawOfferColony(uint colonyIndex) public {\r\n        //    \r\n        if (!ckAccount.isCreateAndActive(msg.sender)) return;\r\n        //      \r\n        if (!ckColony.isOwnerColony(msg.sender, colonyIndex)) return;\r\n        colonyOffers[colonyIndex] = OfferColony(colonyIndex, msg.sender, 0, 0x0, false);\r\n        emit WithdrawOfferForColony(colonyIndex);\r\n    }\r\n    /*\r\n             \r\n    */\r\n    function getOfferColony(uint colonyIndex) public view returns (uint, address, uint, address, bool) {\r\n        return (\r\n        colonyOffers[colonyIndex].index,\r\n        colonyOffers[colonyIndex].owner,\r\n        colonyOffers[colonyIndex].price,\r\n        colonyOffers[colonyIndex].specialCustomer,\r\n        colonyOffers[colonyIndex].isForSale\r\n        );\r\n    }\r\n    /*\r\n             \r\n    */\r\n    function getBidColony(uint colonyIndex) public view returns (uint, address, uint) {\r\n        return (\r\n        colonyBids[colonyIndex].index,\r\n        colonyBids[colonyIndex].customer,\r\n        colonyBids[colonyIndex].price\r\n        );\r\n    }\r\n}\r\n\r\ncontract CandyKillerAccount {\r\n    function isCreateAndActive(address userAddress) public view returns (bool);\r\n\r\n    function addPendingWithdrawals(address userAddress) public payable returns (bool);\r\n}\r\n\r\ncontract CandyKillerColony {\r\n    function isExistAndForSaleCell(address customer, uint cellIndex) public view returns (bool);\r\n\r\n    function isOwnerEarthCell(address possibleOwner, uint cellIndex) public view returns (bool);\r\n\r\n    function transferEarthCell(address from, address to, uint cellIndex) public returns (bool);\r\n\r\n    function isExistColony(address customer, uint colonyIndex) public view returns (bool);\r\n\r\n    function isOwnerColony(address possibleOwner, uint colonyIndex) public view returns (bool);\r\n}",
  "sourcePath": "F:\\Blockchain\\Projects\\Smarts\\Lottery\\contracts\\CKColonyMarketPlace.sol",
  "compiler": {
    "name": "solc",
    "version": "0.4.21+commit.dfe3193c.Emscripten.clang"
  },
  "schemaVersion": "2.0.0",
  "updatedAt": "2018-03-24T14:17:15.056Z"
}