{
  "contractName": "LotteryPowerball",
  "abi": [
    {
      "constant": false,
      "inputs": [
        {
          "name": "newSellPrice",
          "type": "uint256"
        },
        {
          "name": "newBuyPrice",
          "type": "uint256"
        }
      ],
      "name": "setPrices",
      "outputs": [],
      "payable": false,
      "stateMutability": "nonpayable",
      "type": "function"
    },
    {
      "constant": true,
      "inputs": [],
      "name": "name",
      "outputs": [
        {
          "name": "",
          "type": "string"
        }
      ],
      "payable": false,
      "stateMutability": "view",
      "type": "function"
    },
    {
      "constant": false,
      "inputs": [
        {
          "name": "_spender",
          "type": "address"
        },
        {
          "name": "_value",
          "type": "uint256"
        }
      ],
      "name": "approve",
      "outputs": [
        {
          "name": "success",
          "type": "bool"
        }
      ],
      "payable": false,
      "stateMutability": "nonpayable",
      "type": "function"
    },
    {
      "constant": true,
      "inputs": [],
      "name": "ticketPrice",
      "outputs": [
        {
          "name": "",
          "type": "uint256"
        }
      ],
      "payable": false,
      "stateMutability": "view",
      "type": "function"
    },
    {
      "constant": true,
      "inputs": [],
      "name": "totalSupply",
      "outputs": [
        {
          "name": "",
          "type": "uint256"
        }
      ],
      "payable": false,
      "stateMutability": "view",
      "type": "function"
    },
    {
      "constant": false,
      "inputs": [
        {
          "name": "_from",
          "type": "address"
        },
        {
          "name": "_to",
          "type": "address"
        },
        {
          "name": "_value",
          "type": "uint256"
        }
      ],
      "name": "transferFrom",
      "outputs": [
        {
          "name": "success",
          "type": "bool"
        }
      ],
      "payable": false,
      "stateMutability": "nonpayable",
      "type": "function"
    },
    {
      "constant": true,
      "inputs": [],
      "name": "maxRedBallNumberInTicket",
      "outputs": [
        {
          "name": "",
          "type": "uint8"
        }
      ],
      "payable": false,
      "stateMutability": "view",
      "type": "function"
    },
    {
      "constant": true,
      "inputs": [],
      "name": "decimals",
      "outputs": [
        {
          "name": "",
          "type": "uint8"
        }
      ],
      "payable": false,
      "stateMutability": "view",
      "type": "function"
    },
    {
      "constant": true,
      "inputs": [],
      "name": "regularPrizeAssignment",
      "outputs": [
        {
          "name": "",
          "type": "uint256"
        }
      ],
      "payable": false,
      "stateMutability": "view",
      "type": "function"
    },
    {
      "constant": false,
      "inputs": [
        {
          "name": "_value",
          "type": "uint256"
        }
      ],
      "name": "burn",
      "outputs": [
        {
          "name": "success",
          "type": "bool"
        }
      ],
      "payable": false,
      "stateMutability": "nonpayable",
      "type": "function"
    },
    {
      "constant": true,
      "inputs": [
        {
          "name": "",
          "type": "uint256"
        }
      ],
      "name": "historyPowerballLotteries",
      "outputs": [
        {
          "name": "date",
          "type": "string"
        },
        {
          "name": "ticketsCount",
          "type": "uint256"
        }
      ],
      "payable": false,
      "stateMutability": "view",
      "type": "function"
    },
    {
      "constant": true,
      "inputs": [],
      "name": "jackPot",
      "outputs": [
        {
          "name": "",
          "type": "uint256"
        }
      ],
      "payable": false,
      "stateMutability": "view",
      "type": "function"
    },
    {
      "constant": true,
      "inputs": [],
      "name": "sellPrice",
      "outputs": [
        {
          "name": "",
          "type": "uint256"
        }
      ],
      "payable": false,
      "stateMutability": "view",
      "type": "function"
    },
    {
      "constant": true,
      "inputs": [],
      "name": "lastLotteryId",
      "outputs": [
        {
          "name": "",
          "type": "uint32"
        }
      ],
      "payable": false,
      "stateMutability": "view",
      "type": "function"
    },
    {
      "constant": false,
      "inputs": [],
      "name": "isRunningLottery",
      "outputs": [
        {
          "name": "res",
          "type": "bool"
        }
      ],
      "payable": false,
      "stateMutability": "nonpayable",
      "type": "function"
    },
    {
      "constant": true,
      "inputs": [],
      "name": "regularPrize",
      "outputs": [
        {
          "name": "",
          "type": "uint256"
        }
      ],
      "payable": false,
      "stateMutability": "view",
      "type": "function"
    },
    {
      "constant": false,
      "inputs": [
        {
          "name": "firstWhiteBall",
          "type": "uint8"
        },
        {
          "name": "secondWhiteBall",
          "type": "uint8"
        },
        {
          "name": "thirdWhiteBall",
          "type": "uint8"
        },
        {
          "name": "fourWhiteBall",
          "type": "uint8"
        },
        {
          "name": "fiveWhiteBall",
          "type": "uint8"
        },
        {
          "name": "redBall",
          "type": "uint8"
        }
      ],
      "name": "BuyTicket",
      "outputs": [
        {
          "name": "res",
          "type": "bool"
        }
      ],
      "payable": false,
      "stateMutability": "nonpayable",
      "type": "function"
    },
    {
      "constant": true,
      "inputs": [
        {
          "name": "",
          "type": "address"
        }
      ],
      "name": "balanceOf",
      "outputs": [
        {
          "name": "",
          "type": "uint256"
        }
      ],
      "payable": false,
      "stateMutability": "view",
      "type": "function"
    },
    {
      "constant": true,
      "inputs": [],
      "name": "prizeCombinationSize",
      "outputs": [
        {
          "name": "",
          "type": "uint8"
        }
      ],
      "payable": false,
      "stateMutability": "view",
      "type": "function"
    },
    {
      "constant": false,
      "inputs": [
        {
          "name": "target",
          "type": "address"
        },
        {
          "name": "mintedAmount",
          "type": "uint256"
        }
      ],
      "name": "mintToken",
      "outputs": [],
      "payable": false,
      "stateMutability": "nonpayable",
      "type": "function"
    },
    {
      "constant": false,
      "inputs": [
        {
          "name": "_from",
          "type": "address"
        },
        {
          "name": "_value",
          "type": "uint256"
        }
      ],
      "name": "burnFrom",
      "outputs": [
        {
          "name": "success",
          "type": "bool"
        }
      ],
      "payable": false,
      "stateMutability": "nonpayable",
      "type": "function"
    },
    {
      "constant": true,
      "inputs": [],
      "name": "buyPrice",
      "outputs": [
        {
          "name": "",
          "type": "uint256"
        }
      ],
      "payable": false,
      "stateMutability": "view",
      "type": "function"
    },
    {
      "constant": true,
      "inputs": [],
      "name": "owner",
      "outputs": [
        {
          "name": "",
          "type": "address"
        }
      ],
      "payable": false,
      "stateMutability": "view",
      "type": "function"
    },
    {
      "constant": true,
      "inputs": [],
      "name": "symbol",
      "outputs": [
        {
          "name": "",
          "type": "string"
        }
      ],
      "payable": false,
      "stateMutability": "view",
      "type": "function"
    },
    {
      "constant": false,
      "inputs": [],
      "name": "buy",
      "outputs": [],
      "payable": true,
      "stateMutability": "payable",
      "type": "function"
    },
    {
      "constant": false,
      "inputs": [
        {
          "name": "_to",
          "type": "address"
        },
        {
          "name": "_value",
          "type": "uint256"
        }
      ],
      "name": "transfer",
      "outputs": [],
      "payable": false,
      "stateMutability": "nonpayable",
      "type": "function"
    },
    {
      "constant": true,
      "inputs": [
        {
          "name": "",
          "type": "address"
        }
      ],
      "name": "frozenAccount",
      "outputs": [
        {
          "name": "",
          "type": "bool"
        }
      ],
      "payable": false,
      "stateMutability": "view",
      "type": "function"
    },
    {
      "constant": true,
      "inputs": [],
      "name": "maxWhiteBallNumberInTicket",
      "outputs": [
        {
          "name": "",
          "type": "uint8"
        }
      ],
      "payable": false,
      "stateMutability": "view",
      "type": "function"
    },
    {
      "constant": true,
      "inputs": [],
      "name": "maxBallsInTicket",
      "outputs": [
        {
          "name": "",
          "type": "uint8"
        }
      ],
      "payable": false,
      "stateMutability": "view",
      "type": "function"
    },
    {
      "constant": false,
      "inputs": [
        {
          "name": "_spender",
          "type": "address"
        },
        {
          "name": "_value",
          "type": "uint256"
        },
        {
          "name": "_extraData",
          "type": "bytes"
        }
      ],
      "name": "approveAndCall",
      "outputs": [
        {
          "name": "success",
          "type": "bool"
        }
      ],
      "payable": false,
      "stateMutability": "nonpayable",
      "type": "function"
    },
    {
      "constant": true,
      "inputs": [
        {
          "name": "",
          "type": "address"
        },
        {
          "name": "",
          "type": "address"
        }
      ],
      "name": "allowance",
      "outputs": [
        {
          "name": "",
          "type": "uint256"
        }
      ],
      "payable": false,
      "stateMutability": "view",
      "type": "function"
    },
    {
      "constant": false,
      "inputs": [
        {
          "name": "amount",
          "type": "uint256"
        }
      ],
      "name": "sell",
      "outputs": [],
      "payable": false,
      "stateMutability": "nonpayable",
      "type": "function"
    },
    {
      "constant": false,
      "inputs": [
        {
          "name": "target",
          "type": "address"
        },
        {
          "name": "freeze",
          "type": "bool"
        }
      ],
      "name": "freezeAccount",
      "outputs": [],
      "payable": false,
      "stateMutability": "nonpayable",
      "type": "function"
    },
    {
      "constant": false,
      "inputs": [
        {
          "name": "newOwner",
          "type": "address"
        }
      ],
      "name": "transferOwnership",
      "outputs": [],
      "payable": false,
      "stateMutability": "nonpayable",
      "type": "function"
    },
    {
      "constant": true,
      "inputs": [],
      "name": "jackPotAssignment",
      "outputs": [
        {
          "name": "",
          "type": "uint256"
        }
      ],
      "payable": false,
      "stateMutability": "view",
      "type": "function"
    },
    {
      "inputs": [],
      "payable": false,
      "stateMutability": "nonpayable",
      "type": "constructor"
    },
    {
      "anonymous": false,
      "inputs": [
        {
          "indexed": false,
          "name": "target",
          "type": "address"
        },
        {
          "indexed": false,
          "name": "frozen",
          "type": "bool"
        }
      ],
      "name": "FrozenFunds",
      "type": "event"
    },
    {
      "anonymous": false,
      "inputs": [
        {
          "indexed": true,
          "name": "from",
          "type": "address"
        },
        {
          "indexed": true,
          "name": "to",
          "type": "address"
        },
        {
          "indexed": false,
          "name": "value",
          "type": "uint256"
        }
      ],
      "name": "Transfer",
      "type": "event"
    },
    {
      "anonymous": false,
      "inputs": [
        {
          "indexed": true,
          "name": "from",
          "type": "address"
        },
        {
          "indexed": false,
          "name": "value",
          "type": "uint256"
        }
      ],
      "name": "Burn",
      "type": "event"
    }
  ],
  "bytecode": "0x60606040526012600360006101000a81548160ff021916908360ff1602179055506000600a60006101000a81548160ff0219169083151502179055506000600b556000600c556028600d556028600e556028600f556045601060006101000a81548160ff021916908360ff160217905550601a601060016101000a81548160ff021916908360ff1602179055506006601060026101000a81548160ff021916908360ff1602179055506006601060036101000a81548160ff021916908360ff1602179055506000601060046101000a81548163ffffffff021916908363ffffffff1602179055503415620000f257600080fd5b6127106040805190810160405280601181526020017f4c6f747465727920506f77657262616c6c0000000000000000000000000000008152506040805190810160405280600281526020017f4c50000000000000000000000000000000000000000000000000000000000000815250828282336000806101000a81548173ffffffffffffffffffffffffffffffffffffffff021916908373ffffffffffffffffffffffffffffffffffffffff160217905550600360009054906101000a900460ff1660ff16600a0a8302600481905550600454600560003373ffffffffffffffffffffffffffffffffffffffff1673ffffffffffffffffffffffffffffffffffffffff1681526020019081526020016000208190555081600190805190602001906200022092919062000246565b5080600290805190602001906200023992919062000246565b50505050505050620002f5565b828054600181600116156101000203166002900490600052602060002090601f016020900481019282601f106200028957805160ff1916838001178555620002ba565b82800160010185558215620002ba579182015b82811115620002b95782518255916020019190600101906200029c565b5b509050620002c99190620002cd565b5090565b620002f291905b80821115620002ee576000816000905550600101620002d4565b5090565b90565b611ba480620003056000396000f3006060604052600436106101b7576000357c0100000000000000000000000000000000000000000000000000000000900463ffffffff16806305fefda7146101bc57806306fdde03146101e8578063095ea7b3146102765780631209b1f6146102d057806318160ddd146102f957806323b872dd1461032257806327b2ab051461039b578063313ce567146103ca578063343679c4146103f957806342966c681461042257806348b1f1fb1461045d5780634a78cdba1461051d5780634b750334146105465780634e3fb85d1461056f5780635ba92403146105a45780635be01e45146105d157806362021d1b146105fa57806370a08231146106745780637815eafa146106c157806379c65068146106f057806379cc6790146107325780638620410b1461078c5780638da5cb5b146107b557806395d89b411461080a578063a6f2ae3a14610898578063a9059cbb146108a2578063b414d4b6146108e4578063b64e0ebd14610935578063c54bb40714610964578063cae9ca5114610993578063dd62ed3e14610a30578063e4849b3214610a9c578063e724529c14610abf578063f2fde38b14610b03578063f77400e514610b3c575b600080fd5b34156101c757600080fd5b6101e66004808035906020019091908035906020019091905050610b65565b005b34156101f357600080fd5b6101fb610bd2565b6040518080602001828103825283818151815260200191508051906020019080838360005b8381101561023b578082015181840152602081019050610220565b50505050905090810190601f1680156102685780820380516001836020036101000a031916815260200191505b509250505060405180910390f35b341561028157600080fd5b6102b6600480803573ffffffffffffffffffffffffffffffffffffffff16906020019091908035906020019091905050610c70565b604051808215151515815260200191505060405180910390f35b34156102db57600080fd5b6102e3610cfd565b6040518082815260200191505060405180910390f35b341561030457600080fd5b61030c610d03565b6040518082815260200191505060405180910390f35b341561032d57600080fd5b610381600480803573ffffffffffffffffffffffffffffffffffffffff1690602001909190803573ffffffffffffffffffffffffffffffffffffffff16906020019091908035906020019091905050610d09565b604051808215151515815260200191505060405180910390f35b34156103a657600080fd5b6103ae610e36565b604051808260ff1660ff16815260200191505060405180910390f35b34156103d557600080fd5b6103dd610e49565b604051808260ff1660ff16815260200191505060405180910390f35b341561040457600080fd5b61040c610e5c565b6040518082815260200191505060405180910390f35b341561042d57600080fd5b6104436004808035906020019091905050610e62565b604051808215151515815260200191505060405180910390f35b341561046857600080fd5b61047e6004808035906020019091905050610f66565b604051808060200183815260200182810382528481815460018160011615610100020316600290048152602001915080546001816001161561010002031660029004801561050d5780601f106104e25761010080835404028352916020019161050d565b820191906000526020600020905b8154815290600101906020018083116104f057829003601f168201915b5050935050505060405180910390f35b341561052857600080fd5b610530610f89565b6040518082815260200191505060405180910390f35b341561055157600080fd5b610559610f8f565b6040518082815260200191505060405180910390f35b341561057a57600080fd5b610582610f95565b604051808263ffffffff1663ffffffff16815260200191505060405180910390f35b34156105af57600080fd5b6105b7610fab565b604051808215151515815260200191505060405180910390f35b34156105dc57600080fd5b6105e4610fcf565b6040518082815260200191505060405180910390f35b341561060557600080fd5b61065a600480803560ff1690602001909190803560ff1690602001909190803560ff1690602001909190803560ff1690602001909190803560ff1690602001909190803560ff16906020019091905050610fd5565b604051808215151515815260200191505060405180910390f35b341561067f57600080fd5b6106ab600480803573ffffffffffffffffffffffffffffffffffffffff16906020019091905050610fe5565b6040518082815260200191505060405180910390f35b34156106cc57600080fd5b6106d4610ffd565b604051808260ff1660ff16815260200191505060405180910390f35b34156106fb57600080fd5b610730600480803573ffffffffffffffffffffffffffffffffffffffff16906020019091908035906020019091905050611010565b005b341561073d57600080fd5b610772600480803573ffffffffffffffffffffffffffffffffffffffff16906020019091908035906020019091905050611181565b604051808215151515815260200191505060405180910390f35b341561079757600080fd5b61079f61139b565b6040518082815260200191505060405180910390f35b34156107c057600080fd5b6107c86113a1565b604051808273ffffffffffffffffffffffffffffffffffffffff1673ffffffffffffffffffffffffffffffffffffffff16815260200191505060405180910390f35b341561081557600080fd5b61081d6113c6565b6040518080602001828103825283818151815260200191508051906020019080838360005b8381101561085d578082015181840152602081019050610842565b50505050905090810190601f16801561088a5780820380516001836020036101000a031916815260200191505b509250505060405180910390f35b6108a0611464565b005b34156108ad57600080fd5b6108e2600480803573ffffffffffffffffffffffffffffffffffffffff16906020019091908035906020019091905050611484565b005b34156108ef57600080fd5b61091b600480803573ffffffffffffffffffffffffffffffffffffffff16906020019091905050611493565b604051808215151515815260200191505060405180910390f35b341561094057600080fd5b6109486114b3565b604051808260ff1660ff16815260200191505060405180910390f35b341561096f57600080fd5b6109776114c6565b604051808260ff1660ff16815260200191505060405180910390f35b341561099e57600080fd5b610a16600480803573ffffffffffffffffffffffffffffffffffffffff1690602001909190803590602001909190803590602001908201803590602001908080601f016020809104026020016040519081016040528093929190818152602001838380828437820191505050505050919050506114d9565b604051808215151515815260200191505060405180910390f35b3415610a3b57600080fd5b610a86600480803573ffffffffffffffffffffffffffffffffffffffff1690602001909190803573ffffffffffffffffffffffffffffffffffffffff16906020019091905050611657565b6040518082815260200191505060405180910390f35b3415610aa757600080fd5b610abd600480803590602001909190505061167c565b005b3415610aca57600080fd5b610b01600480803573ffffffffffffffffffffffffffffffffffffffff1690602001909190803515159060200190919050506116f8565b005b3415610b0e57600080fd5b610b3a600480803573ffffffffffffffffffffffffffffffffffffffff1690602001909190505061181d565b005b3415610b4757600080fd5b610b4f6118bb565b6040518082815260200191505060405180910390f35b6000809054906101000a900473ffffffffffffffffffffffffffffffffffffffff1673ffffffffffffffffffffffffffffffffffffffff163373ffffffffffffffffffffffffffffffffffffffff16141515610bc057600080fd5b81600781905550806008819055505050565b60018054600181600116156101000203166002900480601f016020809104026020016040519081016040528092919081815260200182805460018160011615610100020316600290048015610c685780601f10610c3d57610100808354040283529160200191610c68565b820191906000526020600020905b815481529060010190602001808311610c4b57829003601f168201915b505050505081565b600081600660003373ffffffffffffffffffffffffffffffffffffffff1673ffffffffffffffffffffffffffffffffffffffff16815260200190815260200160002060008573ffffffffffffffffffffffffffffffffffffffff1673ffffffffffffffffffffffffffffffffffffffff168152602001908152602001600020819055506001905092915050565b600d5481565b60045481565b6000600660008573ffffffffffffffffffffffffffffffffffffffff1673ffffffffffffffffffffffffffffffffffffffff16815260200190815260200160002060003373ffffffffffffffffffffffffffffffffffffffff1673ffffffffffffffffffffffffffffffffffffffff168152602001908152602001600020548211151515610d9657600080fd5b81600660008673ffffffffffffffffffffffffffffffffffffffff1673ffffffffffffffffffffffffffffffffffffffff16815260200190815260200160002060003373ffffffffffffffffffffffffffffffffffffffff1673ffffffffffffffffffffffffffffffffffffffff16815260200190815260200160002060008282540392505081905550610e2b8484846118c1565b600190509392505050565b601060019054906101000a900460ff1681565b600360009054906101000a900460ff1681565b600f5481565b600081600560003373ffffffffffffffffffffffffffffffffffffffff1673ffffffffffffffffffffffffffffffffffffffff1681526020019081526020016000205410151515610eb257600080fd5b81600560003373ffffffffffffffffffffffffffffffffffffffff1673ffffffffffffffffffffffffffffffffffffffff16815260200190815260200160002060008282540392505081905550816004600082825403925050819055503373ffffffffffffffffffffffffffffffffffffffff167fcc16f5dbb4873280815c1ee09dbd06736cffcc184412cf7a71a0fdb75d397ca5836040518082815260200191505060405180910390a260019050919050565b601160205280600052604060002060009150905080600001908060020154905082565b600b5481565b60075481565b601060049054906101000a900463ffffffff1681565b6000600a60009054906101000a900460ff161515610fc857600080fd5b6001905090565b600c5481565b6000600190509695505050505050565b60056020528060005260406000206000915090505481565b601060029054906101000a900460ff1681565b6000809054906101000a900473ffffffffffffffffffffffffffffffffffffffff1673ffffffffffffffffffffffffffffffffffffffff163373ffffffffffffffffffffffffffffffffffffffff1614151561106b57600080fd5b80600560008473ffffffffffffffffffffffffffffffffffffffff1673ffffffffffffffffffffffffffffffffffffffff16815260200190815260200160002060008282540192505081905550806004600082825401925050819055503073ffffffffffffffffffffffffffffffffffffffff1660007fddf252ad1be2c89b69c2b068fc378daa952ba7f163c4a11628f55a4df523b3ef836040518082815260200191505060405180910390a38173ffffffffffffffffffffffffffffffffffffffff163073ffffffffffffffffffffffffffffffffffffffff167fddf252ad1be2c89b69c2b068fc378daa952ba7f163c4a11628f55a4df523b3ef836040518082815260200191505060405180910390a35050565b600081600560008573ffffffffffffffffffffffffffffffffffffffff1673ffffffffffffffffffffffffffffffffffffffff16815260200190815260200160002054101515156111d157600080fd5b600660008473ffffffffffffffffffffffffffffffffffffffff1673ffffffffffffffffffffffffffffffffffffffff16815260200190815260200160002060003373ffffffffffffffffffffffffffffffffffffffff1673ffffffffffffffffffffffffffffffffffffffff16815260200190815260200160002054821115151561125c57600080fd5b81600560008573ffffffffffffffffffffffffffffffffffffffff1673ffffffffffffffffffffffffffffffffffffffff1681526020019081526020016000206000828254039250508190555081600660008573ffffffffffffffffffffffffffffffffffffffff1673ffffffffffffffffffffffffffffffffffffffff16815260200190815260200160002060003373ffffffffffffffffffffffffffffffffffffffff1673ffffffffffffffffffffffffffffffffffffffff16815260200190815260200160002060008282540392505081905550816004600082825403925050819055508273ffffffffffffffffffffffffffffffffffffffff167fcc16f5dbb4873280815c1ee09dbd06736cffcc184412cf7a71a0fdb75d397ca5836040518082815260200191505060405180910390a26001905092915050565b60085481565b6000809054906101000a900473ffffffffffffffffffffffffffffffffffffffff1681565b60028054600181600116156101000203166002900480601f01602080910402602001604051908101604052809291908181526020018280546001816001161561010002031660029004801561145c5780601f106114315761010080835404028352916020019161145c565b820191906000526020600020905b81548152906001019060200180831161143f57829003601f168201915b505050505081565b60006008543481151561147357fe5b0490506114813033836118c1565b50565b61148f3383836118c1565b5050565b60096020528060005260406000206000915054906101000a900460ff1681565b601060009054906101000a900460ff1681565b601060039054906101000a900460ff1681565b6000808490506114e98585610c70565b1561164e578073ffffffffffffffffffffffffffffffffffffffff16638f4ffcb1338630876040518563ffffffff167c0100000000000000000000000000000000000000000000000000000000028152600401808573ffffffffffffffffffffffffffffffffffffffff1673ffffffffffffffffffffffffffffffffffffffff1681526020018481526020018373ffffffffffffffffffffffffffffffffffffffff1673ffffffffffffffffffffffffffffffffffffffff16815260200180602001828103825283818151815260200191508051906020019080838360005b838110156115e35780820151818401526020810190506115c8565b50505050905090810190601f1680156116105780820380516001836020036101000a031916815260200191505b5095505050505050600060405180830381600087803b151561163157600080fd5b6102c65a03f1151561164257600080fd5b5050506001915061164f565b5b509392505050565b6006602052816000526040600020602052806000526040600020600091509150505481565b60075481023073ffffffffffffffffffffffffffffffffffffffff1631101515156116a657600080fd5b6116b13330836118c1565b3373ffffffffffffffffffffffffffffffffffffffff166108fc60075483029081150290604051600060405180830381858888f1935050505015156116f557600080fd5b50565b6000809054906101000a900473ffffffffffffffffffffffffffffffffffffffff1673ffffffffffffffffffffffffffffffffffffffff163373ffffffffffffffffffffffffffffffffffffffff1614151561175357600080fd5b80600960008473ffffffffffffffffffffffffffffffffffffffff1673ffffffffffffffffffffffffffffffffffffffff16815260200190815260200160002060006101000a81548160ff0219169083151502179055507f48335238b4855f35377ed80f164e8c6f3c366e54ac00b96a6402d4a9814a03a58282604051808373ffffffffffffffffffffffffffffffffffffffff1673ffffffffffffffffffffffffffffffffffffffff168152602001821515151581526020019250505060405180910390a15050565b6000809054906101000a900473ffffffffffffffffffffffffffffffffffffffff1673ffffffffffffffffffffffffffffffffffffffff163373ffffffffffffffffffffffffffffffffffffffff1614151561187857600080fd5b806000806101000a81548173ffffffffffffffffffffffffffffffffffffffff021916908373ffffffffffffffffffffffffffffffffffffffff16021790555050565b600e5481565b60008273ffffffffffffffffffffffffffffffffffffffff16141515156118e757600080fd5b80600560008573ffffffffffffffffffffffffffffffffffffffff1673ffffffffffffffffffffffffffffffffffffffff1681526020019081526020016000205411151561193457600080fd5b600560008373ffffffffffffffffffffffffffffffffffffffff1673ffffffffffffffffffffffffffffffffffffffff1681526020019081526020016000205481600560008573ffffffffffffffffffffffffffffffffffffffff1673ffffffffffffffffffffffffffffffffffffffff16815260200190815260200160002054011115156119c257600080fd5b600960008473ffffffffffffffffffffffffffffffffffffffff1673ffffffffffffffffffffffffffffffffffffffff16815260200190815260200160002060009054906101000a900460ff16151515611a1b57600080fd5b600960008373ffffffffffffffffffffffffffffffffffffffff1673ffffffffffffffffffffffffffffffffffffffff16815260200190815260200160002060009054906101000a900460ff16151515611a7457600080fd5b80600560008573ffffffffffffffffffffffffffffffffffffffff1673ffffffffffffffffffffffffffffffffffffffff1681526020019081526020016000206000828254039250508190555080600560008473ffffffffffffffffffffffffffffffffffffffff1673ffffffffffffffffffffffffffffffffffffffff168152602001908152602001600020600082825401925050819055508173ffffffffffffffffffffffffffffffffffffffff168373ffffffffffffffffffffffffffffffffffffffff167fddf252ad1be2c89b69c2b068fc378daa952ba7f163c4a11628f55a4df523b3ef836040518082815260200191505060405180910390a35050505600a165627a7a723058203939003c7b3fa927db05dd3d94c9f1a3d8443debf4428318da62dbedcf4e6a740029",
  "source": "pragma solidity ^0.4.11;\r\n    \r\nimport \"./DHFBaseCurrency.sol\";\r\n\r\ncontract LotteryPowerball is DHFBaseCurrency {\r\n    \r\n    bool isRunning = false;\r\n    \r\n    uint public jackPot = 0; //  \r\n    uint public regularPrize = 0; //   \r\n    uint public ticketPrice = 40; //  \r\n    uint public jackPotAssignment = 40; //    -   \r\n    uint public regularPrizeAssignment = 40; //     \r\n    uint8 public maxWhiteBallNumberInTicket = 69; //  ,     \r\n    uint8 public maxRedBallNumberInTicket = 26; //  ,     \r\n    uint8 public prizeCombinationSize = 6;//    \r\n    uint8 public maxBallsInTicket = 6;//    \r\n    \r\n    uint32 public lastLotteryId = 0; //   \r\n    //  \r\n    struct PowerballTicket {\r\n        address owner; // \r\n        string time; //    \r\n        uint8[6] balls; //   5  , 6   \r\n        uint8[2] complianceLevel; //     ,  -   \r\n        uint money;//   \r\n    }\r\n    \r\n    struct PowerballLottery {\r\n        string date; //   \r\n        mapping(uint => PowerballTicket) tickets; //   .\r\n        uint ticketsCount; //    \r\n        uint[6] prizeCombination; //     \r\n    }\r\n    //  \r\n    mapping (uint => PowerballLottery) public historyPowerballLotteries;\r\n    //   \r\n    PowerballLottery currentPowerballLottery;\r\n    //  \r\n    function LotteryPowerball() DHFBaseCurrency (10000, \"Lottery Powerball\", \"LP\") public { \r\n        \r\n    }\r\n    //  \r\n    function startLottery() private onlyOwner {\r\n        isRunning = true;\r\n    }\r\n    //  \r\n    function stopLottery() private onlyOwner {\r\n        isRunning = false;\r\n    }\r\n    //     \r\n    function isRunningLottery() public returns (bool res) {\r\n        require(isRunning);\r\n        return true;\r\n    }\r\n    \r\n    function BuyTicket(uint8 firstWhiteBall, uint8 secondWhiteBall, uint8 thirdWhiteBall, uint8 fourWhiteBall, uint8 fiveWhiteBall, uint8 redBall) public returns (bool res) {\r\n        return true;\r\n    }\r\n}",
  "sourcePath": "D:\\Digital Heritage Fund\\\\    \\Lottery\\contracts\\LotteryPowerball.sol",
  "compiler": {
    "name": "solc",
    "version": "0.4.18+commit.9cf6e910.Emscripten.clang"
  },
  "schemaVersion": "1.0.1",
  "updatedAt": "2017-11-17T13:03:49.470Z"
}