{
  "contractName": "LotteryPowerball",
  "abi": [
    {
      "constant": false,
      "inputs": [
        {
          "name": "newSellPrice",
          "type": "uint256"
        },
        {
          "name": "newBuyPrice",
          "type": "uint256"
        }
      ],
      "name": "setPrices",
      "outputs": [],
      "payable": false,
      "stateMutability": "nonpayable",
      "type": "function"
    },
    {
      "constant": true,
      "inputs": [],
      "name": "name",
      "outputs": [
        {
          "name": "",
          "type": "string"
        }
      ],
      "payable": false,
      "stateMutability": "view",
      "type": "function"
    },
    {
      "constant": false,
      "inputs": [
        {
          "name": "_spender",
          "type": "address"
        },
        {
          "name": "_value",
          "type": "uint256"
        }
      ],
      "name": "approve",
      "outputs": [
        {
          "name": "success",
          "type": "bool"
        }
      ],
      "payable": false,
      "stateMutability": "nonpayable",
      "type": "function"
    },
    {
      "constant": true,
      "inputs": [],
      "name": "ticketPrice",
      "outputs": [
        {
          "name": "",
          "type": "uint256"
        }
      ],
      "payable": false,
      "stateMutability": "view",
      "type": "function"
    },
    {
      "constant": false,
      "inputs": [],
      "name": "startLottery",
      "outputs": [
        {
          "name": "",
          "type": "uint256"
        }
      ],
      "payable": false,
      "stateMutability": "nonpayable",
      "type": "function"
    },
    {
      "constant": true,
      "inputs": [
        {
          "name": "_from",
          "type": "address"
        },
        {
          "name": "_to",
          "type": "address"
        },
        {
          "name": "_value",
          "type": "uint256"
        }
      ],
      "name": "totalSupply",
      "outputs": [
        {
          "name": "",
          "type": "uint256"
        }
      ],
      "payable": false,
      "stateMutability": "view",
      "type": "function"
    },
    {
      "constant": true,
      "inputs": [
        {
          "name": "_from",
          "type": "address"
        },
        {
          "name": "_to",
          "type": "address"
        },
        {
          "name": "_value",
          "type": "uint256"
        }
      ],
      "name": "countRedBallsInTicket",
      "outputs": [
        {
          "name": "",
          "type": "uint256"
        }
      ],
      "payable": false,
      "stateMutability": "view",
      "type": "function"
    },
    {
      "constant": false,
      "inputs": [
        {
          "name": "_from",
          "type": "address"
        },
        {
          "name": "_to",
          "type": "address"
        },
        {
          "name": "_value",
          "type": "uint256"
        }
      ],
      "name": "transferFrom",
      "outputs": [
        {
          "name": "success",
          "type": "bool"
        }
      ],
      "payable": false,
      "stateMutability": "nonpayable",
      "type": "function"
    },
    {
      "constant": true,
      "inputs": [
        {
          "name": "firstWhiteBall",
          "type": "uint256"
        },
        {
          "name": "secondWhiteBall",
          "type": "uint256"
        },
        {
          "name": "thirdWhiteBall",
          "type": "uint256"
        },
        {
          "name": "fourthWhiteBall",
          "type": "uint256"
        },
        {
          "name": "fiveWhiteBall",
          "type": "uint256"
        },
        {
          "name": "redBall",
          "type": "uint256"
        }
      ],
      "name": "maxRedBallNumberInTicket",
      "outputs": [
        {
          "name": "",
          "type": "uint256"
        }
      ],
      "payable": false,
      "stateMutability": "view",
      "type": "function"
    },
    {
      "constant": false,
      "inputs": [
        {
          "name": "firstWhiteBall",
          "type": "uint256"
        },
        {
          "name": "secondWhiteBall",
          "type": "uint256"
        },
        {
          "name": "thirdWhiteBall",
          "type": "uint256"
        },
        {
          "name": "fourthWhiteBall",
          "type": "uint256"
        },
        {
          "name": "fiveWhiteBall",
          "type": "uint256"
        },
        {
          "name": "redBall",
          "type": "uint256"
        }
      ],
      "name": "buyTicket",
      "outputs": [
        {
          "name": "res",
          "type": "bool"
        }
      ],
      "payable": false,
      "stateMutability": "nonpayable",
      "type": "function"
    },
    {
      "constant": true,
      "inputs": [
        {
          "name": "",
          "type": "uint256"
        }
      ],
      "name": "decimals",
      "outputs": [
        {
          "name": "",
          "type": "uint8"
        },
        {
          "name": "ticketsCount",
          "type": "uint256"
        }
      ],
      "payable": false,
      "stateMutability": "view",
      "type": "function"
    },
    {
      "constant": true,
      "inputs": [
        {
          "name": "_value",
          "type": "uint256"
        }
      ],
      "name": "regularPrizeAssignment",
      "outputs": [
        {
          "name": "",
          "type": "uint256"
        }
      ],
      "payable": false,
      "stateMutability": "view",
      "type": "function"
    },
    {
      "constant": false,
      "inputs": [
        {
          "name": "_value",
          "type": "uint256"
        }
      ],
      "name": "burn",
      "outputs": [
        {
          "name": "success",
          "type": "bool"
        },
        {
          "name": "ticketsCount",
          "type": "uint256"
        }
      ],
      "payable": false,
      "stateMutability": "nonpayable",
      "type": "function"
    },
    {
      "constant": true,
      "inputs": [
        {
          "name": "",
          "type": "uint256"
        }
      ],
      "name": "historyPowerballLotteries",
      "outputs": [
        {
          "name": "date",
          "type": "string"
        },
        {
          "name": "ticketsCount",
          "type": "uint256"
        }
      ],
      "payable": false,
      "stateMutability": "view",
      "type": "function"
    },
    {
      "constant": true,
      "inputs": [],
      "name": "jackPot",
      "outputs": [
        {
          "name": "",
          "type": "uint256"
        }
      ],
      "payable": false,
      "stateMutability": "view",
      "type": "function"
    },
    {
      "constant": true,
      "inputs": [],
      "name": "sellPrice",
      "outputs": [
        {
          "name": "",
          "type": "uint256"
        }
      ],
      "payable": false,
      "stateMutability": "view",
      "type": "function"
    },
    {
      "constant": true,
      "inputs": [
        {
          "name": "ballsInTicket",
          "type": "uint256[6]"
        },
        {
          "name": "secondWhiteBall",
          "type": "uint8"
        },
        {
          "name": "thirdWhiteBall",
          "type": "uint8"
        },
        {
          "name": "fourWhiteBall",
          "type": "uint8"
        },
        {
          "name": "fiveWhiteBall",
          "type": "uint8"
        },
        {
          "name": "redBall",
          "type": "uint8"
        }
      ],
      "name": "lastLotteryId",
      "outputs": [
        {
          "name": "",
          "type": "uint32"
        }
      ],
      "payable": false,
      "stateMutability": "view",
      "type": "function"
    },
    {
      "constant": true,
      "inputs": [
        {
          "name": "ballsInTicket",
          "type": "uint256[6]"
        }
      ],
      "name": "validationBallsInTicket",
      "outputs": [
        {
          "name": "",
          "type": "bool"
        }
      ],
      "payable": false,
      "stateMutability": "view",
      "type": "function"
    },
    {
      "constant": true,
      "inputs": [],
      "name": "isRunningLottery",
      "outputs": [
        {
          "name": "res",
          "type": "bool"
        }
      ],
      "payable": false,
      "stateMutability": "view",
      "type": "function"
    },
    {
      "constant": true,
      "inputs": [
        {
          "name": "",
          "type": "address"
        },
        {
          "name": "mintedAmount",
          "type": "uint256"
        }
      ],
      "name": "regularPrize",
      "outputs": [
        {
          "name": "",
          "type": "uint256"
        }
      ],
      "payable": false,
      "stateMutability": "view",
      "type": "function"
    },
    {
      "constant": true,
      "inputs": [
        {
          "name": "",
          "type": "address"
        },
        {
          "name": "_value",
          "type": "uint256"
        }
      ],
      "name": "balanceOf",
      "outputs": [
        {
          "name": "",
          "type": "uint256"
        }
      ],
      "payable": false,
      "stateMutability": "view",
      "type": "function"
    },
    {
      "constant": true,
      "inputs": [
        {
          "name": "target",
          "type": "address"
        },
        {
          "name": "mintedAmount",
          "type": "uint256"
        }
      ],
      "name": "prizeCombinationSize",
      "outputs": [
        {
          "name": "",
          "type": "uint256"
        }
      ],
      "payable": false,
      "stateMutability": "view",
      "type": "function"
    },
    {
      "constant": false,
      "inputs": [
        {
          "name": "target",
          "type": "address"
        },
        {
          "name": "mintedAmount",
          "type": "uint256"
        }
      ],
      "name": "mintToken",
      "outputs": [
        {
          "name": "success",
          "type": "bool"
        }
      ],
      "payable": false,
      "stateMutability": "nonpayable",
      "type": "function"
    },
    {
      "constant": false,
      "inputs": [
        {
          "name": "_from",
          "type": "address"
        },
        {
          "name": "_value",
          "type": "uint256"
        }
      ],
      "name": "burnFrom",
      "outputs": [
        {
          "name": "success",
          "type": "bool"
        }
      ],
      "payable": false,
      "stateMutability": "nonpayable",
      "type": "function"
    },
    {
      "constant": true,
      "inputs": [],
      "name": "buyPrice",
      "outputs": [
        {
          "name": "",
          "type": "uint256"
        }
      ],
      "payable": false,
      "stateMutability": "view",
      "type": "function"
    },
    {
      "constant": true,
      "inputs": [
        {
          "name": "_to",
          "type": "address"
        },
        {
          "name": "_value",
          "type": "uint256"
        }
      ],
      "name": "owner",
      "outputs": [
        {
          "name": "",
          "type": "address"
        }
      ],
      "payable": false,
      "stateMutability": "view",
      "type": "function"
    },
    {
      "constant": false,
      "inputs": [
        {
          "name": "",
          "type": "address"
        }
      ],
      "name": "calculatePrizes",
      "outputs": [
        {
          "name": "",
          "type": "bool"
        }
      ],
      "payable": false,
      "stateMutability": "nonpayable",
      "type": "function"
    },
    {
      "constant": true,
      "inputs": [],
      "name": "symbol",
      "outputs": [
        {
          "name": "",
          "type": "string"
        }
      ],
      "payable": false,
      "stateMutability": "view",
      "type": "function"
    },
    {
      "constant": true,
      "inputs": [
        {
          "name": "_to",
          "type": "address"
        },
        {
          "name": "_value",
          "type": "uint256"
        }
      ],
      "name": "countWhiteBallsInTicket",
      "outputs": [
        {
          "name": "",
          "type": "uint256"
        }
      ],
      "payable": false,
      "stateMutability": "view",
      "type": "function"
    },
    {
      "constant": false,
      "inputs": [
        {
          "name": "",
          "type": "address"
        },
        {
          "name": "_value",
          "type": "uint256"
        },
        {
          "name": "_extraData",
          "type": "bytes"
        }
      ],
      "name": "buy",
      "outputs": [
        {
          "name": "",
          "type": "bool"
        }
      ],
      "payable": true,
      "stateMutability": "payable",
      "type": "function"
    },
    {
      "constant": false,
      "inputs": [
        {
          "name": "_to",
          "type": "address"
        },
        {
          "name": "_value",
          "type": "uint256"
        }
      ],
      "name": "transfer",
      "outputs": [
        {
          "name": "",
          "type": "uint256"
        }
      ],
      "payable": false,
      "stateMutability": "nonpayable",
      "type": "function"
    },
    {
      "constant": true,
      "inputs": [
        {
          "name": "",
          "type": "address"
        }
      ],
      "name": "frozenAccount",
      "outputs": [
        {
          "name": "",
          "type": "bool"
        }
      ],
      "payable": false,
      "stateMutability": "view",
      "type": "function"
    },
    {
      "constant": true,
      "inputs": [
        {
          "name": "_spender",
          "type": "address"
        },
        {
          "name": "_value",
          "type": "uint256"
        },
        {
          "name": "_extraData",
          "type": "bytes"
        }
      ],
      "name": "maxWhiteBallNumberInTicket",
      "outputs": [
        {
          "name": "",
          "type": "uint256"
        }
      ],
      "payable": false,
      "stateMutability": "view",
      "type": "function"
    },
    {
      "constant": true,
      "inputs": [
        {
          "name": "",
          "type": "address"
        },
        {
          "name": "",
          "type": "address"
        }
      ],
      "name": "maxBallsInTicket",
      "outputs": [
        {
          "name": "",
          "type": "uint256"
        }
      ],
      "payable": false,
      "stateMutability": "view",
      "type": "function"
    },
    {
      "constant": true,
      "inputs": [
        {
          "name": "",
          "type": "uint256"
        }
      ],
      "name": "won_percent",
      "outputs": [
        {
          "name": "",
          "type": "uint8"
        }
      ],
      "payable": false,
      "stateMutability": "view",
      "type": "function"
    },
    {
      "inputs": [
        {
          "name": "_spender",
          "type": "address"
        },
        {
          "name": "_value",
          "type": "uint256"
        },
        {
          "name": "_extraData",
          "type": "bytes"
        }
      ],
      "payable": false,
      "stateMutability": "nonpayable",
      "type": "function",
      "constant": false,
      "name": "approveAndCall",
      "outputs": [
        {
          "name": "success",
          "type": "bool"
        }
      ]
    },
    {
      "anonymous": false,
      "inputs": [
        {
          "indexed": false,
          "name": "newOwner",
          "type": "address"
        },
        {
          "indexed": false,
          "name": "frozen",
          "type": "bool"
        }
      ],
      "name": "stopLottery",
      "type": "function",
      "constant": false,
      "outputs": [],
      "payable": false,
      "stateMutability": "nonpayable"
    },
    {
      "anonymous": false,
      "inputs": [
        {
          "indexed": true,
          "name": "",
          "type": "address"
        },
        {
          "indexed": true,
          "name": "",
          "type": "address"
        },
        {
          "indexed": false,
          "name": "value",
          "type": "uint256"
        }
      ],
      "name": "allowance",
      "type": "function",
      "constant": true,
      "outputs": [
        {
          "name": "",
          "type": "uint256"
        }
      ],
      "payable": false,
      "stateMutability": "view"
    },
    {
      "anonymous": false,
      "inputs": [
        {
          "indexed": true,
          "name": "amount",
          "type": "uint256"
        },
        {
          "indexed": false,
          "name": "value",
          "type": "uint256"
        }
      ],
      "name": "sell",
      "type": "function",
      "payable": false,
      "stateMutability": "nonpayable",
      "constant": false,
      "outputs": []
    },
    {
      "anonymous": false,
      "inputs": [
        {
          "indexed": false,
          "name": "target",
          "type": "address"
        },
        {
          "indexed": false,
          "name": "freeze",
          "type": "bool"
        }
      ],
      "name": "freezeAccount",
      "type": "function",
      "constant": false,
      "outputs": [],
      "payable": false,
      "stateMutability": "nonpayable"
    },
    {
      "anonymous": false,
      "inputs": [
        {
          "indexed": true,
          "name": "newOwner",
          "type": "address"
        },
        {
          "indexed": true,
          "name": "to",
          "type": "address"
        },
        {
          "indexed": false,
          "name": "value",
          "type": "uint256"
        }
      ],
      "name": "transferOwnership",
      "type": "function",
      "constant": false,
      "outputs": [],
      "payable": false,
      "stateMutability": "nonpayable"
    },
    {
      "anonymous": false,
      "inputs": [
        {
          "indexed": true,
          "name": "from",
          "type": "address"
        },
        {
          "indexed": false,
          "name": "value",
          "type": "uint256"
        }
      ],
      "name": "jackPotAssignment",
      "type": "function",
      "constant": true,
      "outputs": [
        {
          "name": "",
          "type": "uint256"
        }
      ],
      "payable": false,
      "stateMutability": "view"
    },
    {
      "inputs": [],
      "payable": false,
      "stateMutability": "nonpayable",
      "type": "constructor"
    },
    {
      "anonymous": false,
      "inputs": [
        {
          "indexed": false,
          "name": "target",
          "type": "address"
        },
        {
          "indexed": false,
          "name": "frozen",
          "type": "bool"
        }
      ],
      "name": "FrozenFunds",
      "type": "event"
    },
    {
      "anonymous": false,
      "inputs": [
        {
          "indexed": true,
          "name": "from",
          "type": "address"
        },
        {
          "indexed": true,
          "name": "to",
          "type": "address"
        },
        {
          "indexed": false,
          "name": "value",
          "type": "uint256"
        }
      ],
      "name": "Transfer",
      "type": "event"
    },
    {
      "anonymous": false,
      "inputs": [
        {
          "indexed": true,
          "name": "from",
          "type": "address"
        },
        {
          "indexed": false,
          "name": "value",
          "type": "uint256"
        }
      ],
      "name": "Burn",
      "type": "event"
    }
  ],
  "bytecode": "0x60606040526012600360006101000a81548160ff021916908360ff1602179055506000600a60006101000a81548160ff0219169083151502179055506000600b556000600c556028600d556028600e556028600f556045601055601a6011556006601255600660135560a060405190810160405280600260ff168152602001600360ff168152602001600560ff168152602001600f60ff168152602001604b60ff168152506014906005620000b6929190620003c8565b50600560155560016016556000601760006101000a81548163ffffffff021916908363ffffffff1602179055503415620000ef57600080fd5b6127106040805190810160405280601181526020017f4c6f747465727920506f77657262616c6c0000000000000000000000000000008152506040805190810160405280600281526020017f4c50000000000000000000000000000000000000000000000000000000000000815250828282336000806101000a81548173ffffffffffffffffffffffffffffffffffffffff021916908373ffffffffffffffffffffffffffffffffffffffff160217905550600360009054906101000a900460ff1660ff16600a0a8302600481905550600454600560003373ffffffffffffffffffffffffffffffffffffffff1673ffffffffffffffffffffffffffffffffffffffff1681526020019081526020016000208190555081600190805190602001906200021d92919062000469565b5080600290805190602001906200023692919062000469565b505050505050506200025b620002616401000000000262000e6a176401000000009004565b62000595565b6000809054906101000a900473ffffffffffffffffffffffffffffffffffffffff1673ffffffffffffffffffffffffffffffffffffffff163373ffffffffffffffffffffffffffffffffffffffff16141515620002bd57600080fd5b6001600a60006101000a81548160ff0219169083151502179055506017600081819054906101000a900463ffffffff1660010191906101000a81548163ffffffff021916908363ffffffff1602179055506040805190810160405280600a81526020017f31362e31312e3230313700000000000000000000000000000000000000000000815250601960000190805190602001906200035e92919062000469565b50600060196002018190555060c060405190810160405280600160ff168152602001601660ff168152602001602260ff168152602001602f60ff168152602001603a60ff168152602001600160ff168152506019600301906006620003c5929190620004f0565b50565b826005601f01602090048101928215620004565791602002820160005b838211156200042557835183826101000a81548160ff021916908360ff1602179055509260200192600101602081600001049283019260010302620003e5565b8015620004545782816101000a81549060ff021916905560010160208160000104928301926001030262000425565b505b5090506200046591906200053a565b5090565b828054600181600116156101000203166002900490600052602060002090601f016020900481019282601f10620004ac57805160ff1916838001178555620004dd565b82800160010185558215620004dd579182015b82811115620004dc578251825591602001919060010190620004bf565b5b509050620004ec91906200056d565b5090565b826006810192821562000527579160200282015b8281111562000526578251829060ff1690559160200191906001019062000504565b5b5090506200053691906200056d565b5090565b6200056a91905b808211156200056657600081816101000a81549060ff02191690555060010162000541565b5090565b90565b6200059291905b808211156200058e57600081600090555060010162000574565b5090565b90565b612fd080620005a56000396000f300606060405260043610610204576000357c0100000000000000000000000000000000000000000000000000000000900463ffffffff16806305fefda71461020957806306fdde0314610235578063095ea7b3146102c35780631209b1f61461031d578063160344e21461034657806318160ddd1461035b5780631f5bfd091461038457806323b872dd146103ad57806327b2ab051461042657806330cf699b1461044f578063313ce567146104b7578063343679c4146104e657806342966c681461050f57806348b1f1fb1461054a5780634a78cdba1461060a5780634b750334146106335780634e3fb85d1461065c5780635a0ab294146106915780635ba92403146106ef5780635be01e451461071c57806370a08231146107455780637815eafa1461079257806379c65068146107bb57806379cc6790146107fd5780638620410b146108575780638da5cb5b146108805780638e7e9a3c146108d557806395d89b41146109025780639c9a31aa14610990578063a6f2ae3a146109b9578063a9059cbb146109c3578063b414d4b614610a05578063b64e0ebd14610a56578063c54bb40714610a7f578063c61694f714610aa8578063cae9ca5114610ae5578063d5c6249814610b82578063dd62ed3e14610b97578063e4849b3214610c03578063e724529c14610c26578063f2fde38b14610c6a578063f77400e514610ca3575b600080fd5b341561021457600080fd5b6102336004808035906020019091908035906020019091905050610ccc565b005b341561024057600080fd5b610248610d39565b6040518080602001828103825283818151815260200191508051906020019080838360005b8381101561028857808201518184015260208101905061026d565b50505050905090810190601f1680156102b55780820380516001836020036101000a031916815260200191505b509250505060405180910390f35b34156102ce57600080fd5b610303600480803573ffffffffffffffffffffffffffffffffffffffff16906020019091908035906020019091905050610dd7565b604051808215151515815260200191505060405180910390f35b341561032857600080fd5b610330610e64565b6040518082815260200191505060405180910390f35b341561035157600080fd5b610359610e6a565b005b341561036657600080fd5b61036e610fcc565b6040518082815260200191505060405180910390f35b341561038f57600080fd5b610397610fd2565b6040518082815260200191505060405180910390f35b34156103b857600080fd5b61040c600480803573ffffffffffffffffffffffffffffffffffffffff1690602001909190803573ffffffffffffffffffffffffffffffffffffffff16906020019091908035906020019091905050610fd8565b604051808215151515815260200191505060405180910390f35b341561043157600080fd5b610439611105565b6040518082815260200191505060405180910390f35b341561045a57600080fd5b61049d600480803590602001909190803590602001909190803590602001909190803590602001909190803590602001909190803590602001909190505061110b565b604051808215151515815260200191505060405180910390f35b34156104c257600080fd5b6104ca6111c1565b604051808260ff1660ff16815260200191505060405180910390f35b34156104f157600080fd5b6104f96111d4565b6040518082815260200191505060405180910390f35b341561051a57600080fd5b61053060048080359060200190919050506111da565b604051808215151515815260200191505060405180910390f35b341561055557600080fd5b61056b60048080359060200190919050506112de565b60405180806020018381526020018281038252848181546001816001161561010002031660029004815260200191508054600181600116156101000203166002900480156105fa5780601f106105cf576101008083540402835291602001916105fa565b820191906000526020600020905b8154815290600101906020018083116105dd57829003601f168201915b5050935050505060405180910390f35b341561061557600080fd5b61061d611301565b6040518082815260200191505060405180910390f35b341561063e57600080fd5b610646611307565b6040518082815260200191505060405180910390f35b341561066757600080fd5b61066f61130d565b604051808263ffffffff1663ffffffff16815260200191505060405180910390f35b341561069c57600080fd5b6106d56004808060c001906006806020026040519081016040528092919082600660200280828437820191505050505091905050611323565b604051808215151515815260200191505060405180910390f35b34156106fa57600080fd5b6107026113d3565b604051808215151515815260200191505060405180910390f35b341561072757600080fd5b61072f6113f7565b6040518082815260200191505060405180910390f35b341561075057600080fd5b61077c600480803573ffffffffffffffffffffffffffffffffffffffff169060200190919050506113fd565b6040518082815260200191505060405180910390f35b341561079d57600080fd5b6107a5611415565b6040518082815260200191505060405180910390f35b34156107c657600080fd5b6107fb600480803573ffffffffffffffffffffffffffffffffffffffff1690602001909190803590602001909190505061141b565b005b341561080857600080fd5b61083d600480803573ffffffffffffffffffffffffffffffffffffffff1690602001909190803590602001909190505061158c565b604051808215151515815260200191505060405180910390f35b341561086257600080fd5b61086a6117a6565b6040518082815260200191505060405180910390f35b341561088b57600080fd5b6108936117ac565b604051808273ffffffffffffffffffffffffffffffffffffffff1673ffffffffffffffffffffffffffffffffffffffff16815260200191505060405180910390f35b34156108e057600080fd5b6108e86117d1565b604051808215151515815260200191505060405180910390f35b341561090d57600080fd5b610915611f85565b6040518080602001828103825283818151815260200191508051906020019080838360005b8381101561095557808201518184015260208101905061093a565b50505050905090810190601f1680156109825780820380516001836020036101000a031916815260200191505b509250505060405180910390f35b341561099b57600080fd5b6109a3612023565b6040518082815260200191505060405180910390f35b6109c1612029565b005b34156109ce57600080fd5b610a03600480803573ffffffffffffffffffffffffffffffffffffffff16906020019091908035906020019091905050612049565b005b3415610a1057600080fd5b610a3c600480803573ffffffffffffffffffffffffffffffffffffffff16906020019091905050612058565b604051808215151515815260200191505060405180910390f35b3415610a6157600080fd5b610a69612078565b6040518082815260200191505060405180910390f35b3415610a8a57600080fd5b610a9261207e565b6040518082815260200191505060405180910390f35b3415610ab357600080fd5b610ac96004808035906020019091905050612084565b604051808260ff1660ff16815260200191505060405180910390f35b3415610af057600080fd5b610b68600480803573ffffffffffffffffffffffffffffffffffffffff1690602001909190803590602001909190803590602001908201803590602001908080601f016020809104026020016040519081016040528093929190818152602001838380828437820191505050505050919050506120ad565b604051808215151515815260200191505060405180910390f35b3415610b8d57600080fd5b610b9561222b565b005b3415610ba257600080fd5b610bed600480803573ffffffffffffffffffffffffffffffffffffffff1690602001909190803573ffffffffffffffffffffffffffffffffffffffff1690602001909190505061232f565b6040518082815260200191505060405180910390f35b3415610c0e57600080fd5b610c246004808035906020019091905050612354565b005b3415610c3157600080fd5b610c68600480803573ffffffffffffffffffffffffffffffffffffffff1690602001909190803515159060200190919050506123d0565b005b3415610c7557600080fd5b610ca1600480803573ffffffffffffffffffffffffffffffffffffffff169060200190919050506124f5565b005b3415610cae57600080fd5b610cb6612593565b6040518082815260200191505060405180910390f35b6000809054906101000a900473ffffffffffffffffffffffffffffffffffffffff1673ffffffffffffffffffffffffffffffffffffffff163373ffffffffffffffffffffffffffffffffffffffff16141515610d2757600080fd5b81600781905550806008819055505050565b60018054600181600116156101000203166002900480601f016020809104026020016040519081016040528092919081815260200182805460018160011615610100020316600290048015610dcf5780601f10610da457610100808354040283529160200191610dcf565b820191906000526020600020905b815481529060010190602001808311610db257829003601f168201915b505050505081565b600081600660003373ffffffffffffffffffffffffffffffffffffffff1673ffffffffffffffffffffffffffffffffffffffff16815260200190815260200160002060008573ffffffffffffffffffffffffffffffffffffffff1673ffffffffffffffffffffffffffffffffffffffff168152602001908152602001600020819055506001905092915050565b600d5481565b6000809054906101000a900473ffffffffffffffffffffffffffffffffffffffff1673ffffffffffffffffffffffffffffffffffffffff163373ffffffffffffffffffffffffffffffffffffffff16141515610ec557600080fd5b6001600a60006101000a81548160ff0219169083151502179055506017600081819054906101000a900463ffffffff1660010191906101000a81548163ffffffff021916908363ffffffff1602179055506040805190810160405280600a81526020017f31362e31312e323031370000000000000000000000000000000000000000000081525060196000019080519060200190610f64929190612bab565b50600060196002018190555060c060405190810160405280600160ff168152602001601660ff168152602001602260ff168152602001602f60ff168152602001603a60ff168152602001600160ff168152506019600301906006610fc9929190612c2b565b50565b60045481565b60165481565b6000600660008573ffffffffffffffffffffffffffffffffffffffff1673ffffffffffffffffffffffffffffffffffffffff16815260200190815260200160002060003373ffffffffffffffffffffffffffffffffffffffff1673ffffffffffffffffffffffffffffffffffffffff16815260200190815260200160002054821115151561106557600080fd5b81600660008673ffffffffffffffffffffffffffffffffffffffff1673ffffffffffffffffffffffffffffffffffffffff16815260200190815260200160002060003373ffffffffffffffffffffffffffffffffffffffff1673ffffffffffffffffffffffffffffffffffffffff168152602001908152602001600020600082825403925050819055506110fa848484612599565b600190509392505050565b60115481565b6000611115612c70565b8781600060068110151561112557fe5b6020020181815250508681600160068110151561113e57fe5b6020020181815250508581600260068110151561115757fe5b6020020181815250508481600360068110151561117057fe5b6020020181815250508381600460068110151561118957fe5b602002018181525050828160056006811015156111a257fe5b6020020181815250506111b481612850565b9150509695505050505050565b600360009054906101000a900460ff1681565b600f5481565b600081600560003373ffffffffffffffffffffffffffffffffffffffff1673ffffffffffffffffffffffffffffffffffffffff168152602001908152602001600020541015151561122a57600080fd5b81600560003373ffffffffffffffffffffffffffffffffffffffff1673ffffffffffffffffffffffffffffffffffffffff16815260200190815260200160002060008282540392505081905550816004600082825403925050819055503373ffffffffffffffffffffffffffffffffffffffff167fcc16f5dbb4873280815c1ee09dbd06736cffcc184412cf7a71a0fdb75d397ca5836040518082815260200191505060405180910390a260019050919050565b601860205280600052604060002060009150905080600001908060020154905082565b600b5481565b60075481565b601760009054906101000a900463ffffffff1681565b600080600090505b60155481101561138457601054838260068110151561134657fe5b6020020151118061136957506000838260068110151561136257fe5b6020020151145b1561137757600091506113cd565b808060010191505061132b565b60115483600560068110151561139657fe5b602002015111806113ba575060008360056006811015156113b357fe5b6020020151145b156113c857600091506113cd565b600191505b50919050565b6000600a60009054906101000a900460ff1615156113f057600080fd5b6001905090565b600c5481565b60056020528060005260406000206000915090505481565b60125481565b6000809054906101000a900473ffffffffffffffffffffffffffffffffffffffff1673ffffffffffffffffffffffffffffffffffffffff163373ffffffffffffffffffffffffffffffffffffffff1614151561147657600080fd5b80600560008473ffffffffffffffffffffffffffffffffffffffff1673ffffffffffffffffffffffffffffffffffffffff16815260200190815260200160002060008282540192505081905550806004600082825401925050819055503073ffffffffffffffffffffffffffffffffffffffff1660007fddf252ad1be2c89b69c2b068fc378daa952ba7f163c4a11628f55a4df523b3ef836040518082815260200191505060405180910390a38173ffffffffffffffffffffffffffffffffffffffff163073ffffffffffffffffffffffffffffffffffffffff167fddf252ad1be2c89b69c2b068fc378daa952ba7f163c4a11628f55a4df523b3ef836040518082815260200191505060405180910390a35050565b600081600560008573ffffffffffffffffffffffffffffffffffffffff1673ffffffffffffffffffffffffffffffffffffffff16815260200190815260200160002054101515156115dc57600080fd5b600660008473ffffffffffffffffffffffffffffffffffffffff1673ffffffffffffffffffffffffffffffffffffffff16815260200190815260200160002060003373ffffffffffffffffffffffffffffffffffffffff1673ffffffffffffffffffffffffffffffffffffffff16815260200190815260200160002054821115151561166757600080fd5b81600560008573ffffffffffffffffffffffffffffffffffffffff1673ffffffffffffffffffffffffffffffffffffffff1681526020019081526020016000206000828254039250508190555081600660008573ffffffffffffffffffffffffffffffffffffffff1673ffffffffffffffffffffffffffffffffffffffff16815260200190815260200160002060003373ffffffffffffffffffffffffffffffffffffffff1673ffffffffffffffffffffffffffffffffffffffff16815260200190815260200160002060008282540392505081905550816004600082825403925050819055508273ffffffffffffffffffffffffffffffffffffffff167fcc16f5dbb4873280815c1ee09dbd06736cffcc184412cf7a71a0fdb75d397ca5836040518082815260200191505060405180910390a26001905092915050565b60085481565b6000809054906101000a900473ffffffffffffffffffffffffffffffffffffffff1681565b60008060008060008060008060006117e7612c98565b60008060009054906101000a900473ffffffffffffffffffffffffffffffffffffffff1673ffffffffffffffffffffffffffffffffffffffff163373ffffffffffffffffffffffffffffffffffffffff1614151561184457600080fd5b61184c6113d3565b15151561185857600080fd5b600090505b601960020154811015611aa1576118c7601960010160008381526020019081526020016000206002016006806020026040519081016040528092919082600680156118bd576020028201915b8154815260200190600101908083116118a9575b5050505050612ac2565b915081601960010160008381526020019081526020016000206008019060026118f1929190612cbf565b50600182600160028110151561190357fe5b60200201511480156119465750600082600060028110151561192157fe5b602002015114806119455750600182600060028110151561193e57fe5b6020020151145b5b156119545789806001019a50505b600382600160028110151561196557fe5b602002015183600060028110151561197957fe5b602002015101141561198e5788806001019950505b600482600160028110151561199f57fe5b60200201518360006002811015156119b357fe5b60200201510114156119c85787806001019850505b60018260016002811015156119d957fe5b60200201511480156119fe575060048260006002811015156119f757fe5b6020020151145b15611a0c5786806001019750505b6000826001600281101515611a1d57fe5b6020020151148015611a4257506005826000600281101515611a3b57fe5b6020020151145b15611a505785806001019650505b6001826001600281101515611a6157fe5b6020020151148015611a8657506005826000600281101515611a7f57fe5b6020020151145b15611a945784806001019550505b808060010191505061185d565b600090505b601960020154811015611f54576001826001600281101515611ac457fe5b6020020151148015611b0757506000826000600281101515611ae257fe5b60200201511480611b0657506001826000600281101515611aff57fe5b6020020151145b5b15611b655760648a0260146000600581101515611b2057fe5b602091828204019190069054906101000a900460ff1660ff16600c5402811515611b4657fe5b0460196001016000838152602001908152602001600020600a01819055505b6003826001600281101515611b7657fe5b6020020151836000600281101515611b8a57fe5b6020020151011415611bef576064890260146001600581101515611baa57fe5b602091828204019190069054906101000a900460ff1660ff16600c5402811515611bd057fe5b0460196001016000838152602001908152602001600020600a01819055505b6004826001600281101515611c0057fe5b6020020151836000600281101515611c1457fe5b6020020151011415611c79576064880260146002600581101515611c3457fe5b602091828204019190069054906101000a900460ff1660ff16600c5402811515611c5a57fe5b0460196001016000838152602001908152602001600020600a01819055505b6001826001600281101515611c8a57fe5b6020020151148015611caf57506004826000600281101515611ca857fe5b6020020151145b15611d0d576064870260146003600581101515611cc857fe5b602091828204019190069054906101000a900460ff1660ff16600c5402811515611cee57fe5b0460196001016000838152602001908152602001600020600a01819055505b6000826001600281101515611d1e57fe5b6020020151148015611d4357506005826000600281101515611d3c57fe5b6020020151145b15611da1576064860260146004600581101515611d5c57fe5b602091828204019190069054906101000a900460ff1660ff16600c5402811515611d8257fe5b0460196001016000838152602001908152602001600020600a01819055505b6001826001600281101515611db257fe5b6020020151148015611dd757506005826000600281101515611dd057fe5b6020020151145b15611e085784600b54811515611de957fe5b0460196001016000838152602001908152602001600020600a01819055505b6006826001600281101515611e1957fe5b6020020151836000600281101515611e2d57fe5b6020020151011015611e585760196001016000828152602001908152602001600020600a0154840193505b6006826001600281101515611e6957fe5b6020020151836000600281101515611e7d57fe5b6020020151011415611ea85760196001016000828152602001908152602001600020600a0154830192505b60196001016000828152602001908152602001600020600a0154600560006019600101600085815260200190815260200160002060000160009054906101000a900473ffffffffffffffffffffffffffffffffffffffff1673ffffffffffffffffffffffffffffffffffffffff1673ffffffffffffffffffffffffffffffffffffffff168152602001908152602001600020600082825401925050819055508080600101915050611aa6565b83600c6000828254039250508190555082600b6000828254039250508190555060019a505050505050505050505090565b60028054600181600116156101000203166002900480601f01602080910402602001604051908101604052809291908181526020018280546001816001161561010002031660029004801561201b5780601f10611ff05761010080835404028352916020019161201b565b820191906000526020600020905b815481529060010190602001808311611ffe57829003601f168201915b505050505081565b60155481565b60006008543481151561203857fe5b049050612046303383612599565b50565b612054338383612599565b5050565b60096020528060005260406000206000915054906101000a900460ff1681565b60105481565b60135481565b60148160058110151561209357fe5b60209182820401919006915054906101000a900460ff1681565b6000808490506120bd8585610dd7565b15612222578073ffffffffffffffffffffffffffffffffffffffff16638f4ffcb1338630876040518563ffffffff167c0100000000000000000000000000000000000000000000000000000000028152600401808573ffffffffffffffffffffffffffffffffffffffff1673ffffffffffffffffffffffffffffffffffffffff1681526020018481526020018373ffffffffffffffffffffffffffffffffffffffff1673ffffffffffffffffffffffffffffffffffffffff16815260200180602001828103825283818151815260200191508051906020019080838360005b838110156121b757808201518184015260208101905061219c565b50505050905090810190601f1680156121e45780820380516001836020036101000a031916815260200191505b5095505050505050600060405180830381600087803b151561220557600080fd5b6102c65a03f1151561221657600080fd5b50505060019150612223565b5b509392505050565b6000809054906101000a900473ffffffffffffffffffffffffffffffffffffffff1673ffffffffffffffffffffffffffffffffffffffff163373ffffffffffffffffffffffffffffffffffffffff1614151561228657600080fd5b6000600a60006101000a81548160ff0219169083151502179055506122a96117d1565b15156122b457600080fd5b601960186000601760009054906101000a900463ffffffff1663ffffffff16815260200190815260200160002060008201816000019080546001816001161561010002031660029004612308929190612cff565b50600282015481600201556003820181600301906006612329929190612d86565b50905050565b6006602052816000526040600020602052806000526040600020600091509150505481565b60075481023073ffffffffffffffffffffffffffffffffffffffff16311015151561237e57600080fd5b612389333083612599565b3373ffffffffffffffffffffffffffffffffffffffff166108fc60075483029081150290604051600060405180830381858888f1935050505015156123cd57600080fd5b50565b6000809054906101000a900473ffffffffffffffffffffffffffffffffffffffff1673ffffffffffffffffffffffffffffffffffffffff163373ffffffffffffffffffffffffffffffffffffffff1614151561242b57600080fd5b80600960008473ffffffffffffffffffffffffffffffffffffffff1673ffffffffffffffffffffffffffffffffffffffff16815260200190815260200160002060006101000a81548160ff0219169083151502179055507f48335238b4855f35377ed80f164e8c6f3c366e54ac00b96a6402d4a9814a03a58282604051808373ffffffffffffffffffffffffffffffffffffffff1673ffffffffffffffffffffffffffffffffffffffff168152602001821515151581526020019250505060405180910390a15050565b6000809054906101000a900473ffffffffffffffffffffffffffffffffffffffff1673ffffffffffffffffffffffffffffffffffffffff163373ffffffffffffffffffffffffffffffffffffffff1614151561255057600080fd5b806000806101000a81548173ffffffffffffffffffffffffffffffffffffffff021916908373ffffffffffffffffffffffffffffffffffffffff16021790555050565b600e5481565b60008273ffffffffffffffffffffffffffffffffffffffff16141515156125bf57600080fd5b80600560008573ffffffffffffffffffffffffffffffffffffffff1673ffffffffffffffffffffffffffffffffffffffff1681526020019081526020016000205411151561260c57600080fd5b600560008373ffffffffffffffffffffffffffffffffffffffff1673ffffffffffffffffffffffffffffffffffffffff1681526020019081526020016000205481600560008573ffffffffffffffffffffffffffffffffffffffff1673ffffffffffffffffffffffffffffffffffffffff168152602001908152602001600020540111151561269a57600080fd5b600960008473ffffffffffffffffffffffffffffffffffffffff1673ffffffffffffffffffffffffffffffffffffffff16815260200190815260200160002060009054906101000a900460ff161515156126f357600080fd5b600960008373ffffffffffffffffffffffffffffffffffffffff1673ffffffffffffffffffffffffffffffffffffffff16815260200190815260200160002060009054906101000a900460ff1615151561274c57600080fd5b80600560008573ffffffffffffffffffffffffffffffffffffffff1673ffffffffffffffffffffffffffffffffffffffff1681526020019081526020016000206000828254039250508190555080600560008473ffffffffffffffffffffffffffffffffffffffff1673ffffffffffffffffffffffffffffffffffffffff168152602001908152602001600020600082825401925050819055508173ffffffffffffffffffffffffffffffffffffffff168373ffffffffffffffffffffffffffffffffffffffff167fddf252ad1be2c89b69c2b068fc378daa952ba7f163c4a11628f55a4df523b3ef836040518082815260200191505060405180910390a3505050565b600061285a612dc3565b6128626113d3565b151561286d57600080fd5b61287683611323565b151561288157600080fd5b33816000019073ffffffffffffffffffffffffffffffffffffffff16908173ffffffffffffffffffffffffffffffffffffffff16815250506040805190810160405280600a81526020017f30362e31312e32303137000000000000000000000000000000000000000000008152508160200181905250828160400181905250600d54600560003373ffffffffffffffffffffffffffffffffffffffff1673ffffffffffffffffffffffffffffffffffffffff1681526020019081526020016000205410156129525760009150612abc565b600d54600560003373ffffffffffffffffffffffffffffffffffffffff1673ffffffffffffffffffffffffffffffffffffffff168152602001908152602001600020600082825403925050819055506064600e54600d54028115156129b357fe5b04600b600082825401925050819055506064600f54600d54028115156129d557fe5b04600c600082825401925050819055508060196001016000601960020154815260200190815260200160002060008201518160000160006101000a81548173ffffffffffffffffffffffffffffffffffffffff021916908373ffffffffffffffffffffffffffffffffffffffff1602179055506020820151816001019080519060200190612a64929190612e1c565b50604082015181600201906006612a7c929190612e9c565b50606082015181600801906002612a94929190612edc565b50608082015181600a0155905050601960020160008154809291906001019190505550600191505b50919050565b612aca612c98565b600080600091505b601554821015612b5257600090505b601554811015612b4557601960030181600681101515612afd57fe5b01548483600681101515612b0d57fe5b60200201511415612b3857826000600281101515612b2757fe5b602002018051809190600101815250505b8080600101915050612ae1565b8180600101925050612ad2565b60196003016005600681101515612b6557fe5b0154846005600681101515612b7657fe5b60200201511415612ba157826001600281101515612b9057fe5b602002018051809190600101815250505b8292505050919050565b828054600181600116156101000203166002900490600052602060002090601f016020900481019282601f10612bec57805160ff1916838001178555612c1a565b82800160010185558215612c1a579182015b82811115612c19578251825591602001919060010190612bfe565b5b509050612c279190612f1c565b5090565b8260068101928215612c5f579160200282015b82811115612c5e578251829060ff16905591602001919060010190612c3e565b5b509050612c6c9190612f1c565b5090565b60c0604051908101604052806006905b6000815260200190600190039081612c805790505090565b60408051908101604052806002905b6000815260200190600190039081612ca75790505090565b8260028101928215612cee579160200282015b82811115612ced578251825591602001919060010190612cd2565b5b509050612cfb9190612f1c565b5090565b828054600181600116156101000203166002900490600052602060002090601f016020900481019282601f10612d385780548555612d75565b82800160010185558215612d7557600052602060002091601f016020900482015b82811115612d74578254825591600101919060010190612d59565b5b509050612d829190612f1c565b5090565b8260068101928215612db2579182015b82811115612db1578254825591600101919060010190612d96565b5b509050612dbf9190612f1c565b5090565b61016060405190810160405280600073ffffffffffffffffffffffffffffffffffffffff168152602001612df5612f41565b8152602001612e02612f55565b8152602001612e0f612f7d565b8152602001600081525090565b828054600181600116156101000203166002900490600052602060002090601f016020900481019282601f10612e5d57805160ff1916838001178555612e8b565b82800160010185558215612e8b579182015b82811115612e8a578251825591602001919060010190612e6f565b5b509050612e989190612f1c565b5090565b8260068101928215612ecb579160200282015b82811115612eca578251825591602001919060010190612eaf565b5b509050612ed89190612f1c565b5090565b8260028101928215612f0b579160200282015b82811115612f0a578251825591602001919060010190612eef565b5b509050612f189190612f1c565b5090565b612f3e91905b80821115612f3a576000816000905550600101612f22565b5090565b90565b602060405190810160405280600081525090565b60c0604051908101604052806006905b6000815260200190600190039081612f655790505090565b60408051908101604052806002905b6000815260200190600190039081612f8c57905050905600a165627a7a72305820171debdb09471cfc5a0191c7895d42ad3b8b6951d895fc2288f80c7b14d3122a0029",
  "source": "pragma solidity ^0.4.17;\r\n\r\nimport \"./DHFBaseCurrency.sol\";\r\n\r\ncontract LotteryPowerball is DHFBaseCurrency {\r\n\r\n    bool isRunning = false;\r\n\r\n    uint public jackPot = 0; //  \r\n    uint public regularPrize = 0; //   \r\n    uint public ticketPrice = 40; //  \r\n    uint public jackPotAssignment = 40; //    -   \r\n    uint public regularPrizeAssignment = 40; //     \r\n    uint public maxWhiteBallNumberInTicket = 69; //  ,     \r\n    uint public maxRedBallNumberInTicket = 26; //  ,     \r\n    uint public prizeCombinationSize = 6;//    \r\n    uint public maxBallsInTicket = 6;//    \r\n\r\n    uint8[5] public won_percent = [2, 3, 5, 15, 75];//      3, 4  5     \r\n\r\n    uint public countWhiteBallsInTicket = 5;\r\n\r\n    uint public countRedBallsInTicket = 1;\r\n\r\n    uint32 public lastLotteryId = 0; //   \r\n    //  \r\n    struct PowerballTicket {\r\n    address owner; // \r\n    string time; //    \r\n    uint[6] balls; //   5  , 6   \r\n    uint[2] complianceLevel; //     ,  -   \r\n    uint money;//   \r\n    }\r\n\r\n    struct PowerballLottery {\r\n    string date; //   \r\n    mapping (uint => PowerballTicket) tickets; //   .\r\n    uint ticketsCount; //    \r\n    uint[6] prizeCombination; //     \r\n    }\r\n    //  \r\n    mapping (uint => PowerballLottery) public historyPowerballLotteries;\r\n    //   \r\n    PowerballLottery currentPowerballLottery;\r\n    //  \r\n    function LotteryPowerball() DHFBaseCurrency(10000, \"Lottery Powerball\", \"LP\") public {\r\n        startLottery();\r\n    }\r\n    //  \r\n    function startLottery() public onlyOwner {\r\n        isRunning = true;\r\n        ++lastLotteryId;\r\n        currentPowerballLottery.date = \"16.11.2017\";\r\n        currentPowerballLottery.ticketsCount = 0;\r\n        currentPowerballLottery.prizeCombination = [1, 22, 34, 47, 58, 1];\r\n\r\n    }\r\n    //  \r\n    function stopLottery() public onlyOwner {\r\n        isRunning = false;\r\n        require(calculatePrizes());\r\n        historyPowerballLotteries[lastLotteryId] = currentPowerballLottery;\r\n    }\r\n    //     \r\n    function isRunningLottery() public view returns (bool res) {\r\n        require(isRunning);\r\n        return true;\r\n    }\r\n\r\n    //  ( )\r\n    function buyTicket(uint firstWhiteBall, uint secondWhiteBall, uint thirdWhiteBall, uint fourthWhiteBall, uint fiveWhiteBall, uint redBall) public returns (bool res) {\r\n        uint[6] memory balls;\r\n        balls[0] = firstWhiteBall;\r\n        balls[1] = secondWhiteBall;\r\n        balls[2] = thirdWhiteBall;\r\n        balls[3] = fourthWhiteBall;\r\n        balls[4] = fiveWhiteBall;\r\n        balls[5] = redBall;\r\n        return buyTicket(balls);\r\n    }\r\n\r\n    //  \r\n    function buyTicket(uint[6] ballsInTicket) private returns (bool res) {\r\n        require(isRunningLottery());\r\n        require(validationBallsInTicket(ballsInTicket));\r\n\r\n        PowerballTicket memory newTicket;\r\n        newTicket.owner = msg.sender;\r\n        newTicket.time = \"06.11.2017\";\r\n        newTicket.balls = ballsInTicket;\r\n\r\n        if (balanceOf[msg.sender] < ticketPrice) return false;\r\n        balanceOf[msg.sender] -= ticketPrice;\r\n        jackPot += (ticketPrice * jackPotAssignment) / 100;\r\n        regularPrize += (ticketPrice * regularPrizeAssignment) / 100;\r\n\r\n        currentPowerballLottery.tickets[currentPowerballLottery.ticketsCount] = newTicket;\r\n        currentPowerballLottery.ticketsCount++;\r\n\r\n        return true;\r\n    }\r\n\r\n    //    \r\n    function validationBallsInTicket(uint[6] ballsInTicket) public view returns (bool) {\r\n\r\n        for (uint i = 0; i < countWhiteBallsInTicket; i++) {\r\n            if (ballsInTicket[i] > maxWhiteBallNumberInTicket || ballsInTicket[i] == 0) return false;\r\n        }\r\n        if (ballsInTicket[5] > maxRedBallNumberInTicket || ballsInTicket[5] == 0) return false;\r\n        return true;\r\n    }\r\n\r\n    //       \r\n    function getTicketComplianceLevel(uint[6] ballsInTicket) internal constant returns (uint[2] complianceLevel)\r\n    {\r\n        for (uint i = 0; i < countWhiteBallsInTicket; i++)\r\n        {\r\n            for (uint j = 0; j < countWhiteBallsInTicket; j++)\r\n            {\r\n                if (ballsInTicket[i] == currentPowerballLottery.prizeCombination[j]) complianceLevel[0]++;\r\n            }\r\n        }\r\n        if (ballsInTicket[5] == currentPowerballLottery.prizeCombination[5]) complianceLevel[1]++;\r\n        return complianceLevel;\r\n    }\r\n\r\n    //  \r\n    function calculatePrizes() public onlyOwner returns (bool)\r\n    {\r\n        require(!isRunningLottery());\r\n        //   \r\n\r\n        uint redOrRedPlusWhite; //     + \r\n        uint anyThreeBalls; //  3 \r\n        uint anyFourBalls; //  4 \r\n        uint fourWhiteAndRed; // 4  + \r\n        uint onlyWhiteBalls; // 5 \r\n        uint jackPotBalls; // 5 + 1\r\n\r\n        uint regularLotteryCountedPrize;//    \r\n        uint jackPotCountedPrize;//   -\r\n\r\n        uint[2] memory ticketComplianceLevel;\r\n\r\n        for (uint i = 0; i < currentPowerballLottery.ticketsCount; i++)\r\n        {\r\n            ticketComplianceLevel = getTicketComplianceLevel(currentPowerballLottery.tickets[i].balls);\r\n            currentPowerballLottery.tickets[i].complianceLevel = ticketComplianceLevel;\r\n\r\n            if (ticketComplianceLevel[1] == 1 && (ticketComplianceLevel[0] == 0 || ticketComplianceLevel[0] == 1)) redOrRedPlusWhite++;\r\n            if (ticketComplianceLevel[0] + ticketComplianceLevel[1] == 3) anyThreeBalls++;\r\n            if (ticketComplianceLevel[0] + ticketComplianceLevel[1] == 4) anyFourBalls++;\r\n            if (ticketComplianceLevel[1] == 1 && ticketComplianceLevel[0] == 4) fourWhiteAndRed++;\r\n            if (ticketComplianceLevel[1] == 0 && ticketComplianceLevel[0] == 5) onlyWhiteBalls++;\r\n            if (ticketComplianceLevel[1] == 1 && ticketComplianceLevel[0] == 5) jackPotBalls++;\r\n        }\r\n\r\n        for (i = 0; i < currentPowerballLottery.ticketsCount; i++)\r\n        {\r\n            if (ticketComplianceLevel[1] == 1 && (ticketComplianceLevel[0] == 0 || ticketComplianceLevel[0] == 1))\r\n            currentPowerballLottery.tickets[i].money = regularPrize * (won_percent[0]) / (redOrRedPlusWhite * 100);\r\n            if (ticketComplianceLevel[0] + ticketComplianceLevel[1] == 3)\r\n            currentPowerballLottery.tickets[i].money = regularPrize * (won_percent[1]) / (anyThreeBalls * 100);\r\n            if (ticketComplianceLevel[0] + ticketComplianceLevel[1] == 4)\r\n            currentPowerballLottery.tickets[i].money = regularPrize * (won_percent[2]) / (anyFourBalls * 100);\r\n            if (ticketComplianceLevel[1] == 1 && ticketComplianceLevel[0] == 4)\r\n            currentPowerballLottery.tickets[i].money = regularPrize * (won_percent[3]) / (fourWhiteAndRed * 100);\r\n            if (ticketComplianceLevel[1] == 0 && ticketComplianceLevel[0] == 5)\r\n            currentPowerballLottery.tickets[i].money = regularPrize * (won_percent[4]) / (onlyWhiteBalls * 100);\r\n            if (ticketComplianceLevel[1] == 1 && ticketComplianceLevel[0] == 5)\r\n            currentPowerballLottery.tickets[i].money = jackPot / jackPotBalls;\r\n\r\n            if(ticketComplianceLevel[0] + ticketComplianceLevel[1] < 6) regularLotteryCountedPrize += currentPowerballLottery.tickets[i].money; //   ,       \r\n            if(ticketComplianceLevel[0] + ticketComplianceLevel[1] == 6) jackPotCountedPrize += currentPowerballLottery.tickets[i].money; //   ,       \r\n            balanceOf[currentPowerballLottery.tickets[i].owner] += currentPowerballLottery.tickets[i].money;//      \r\n        }\r\n\r\n        regularPrize -= regularLotteryCountedPrize;//    \r\n        jackPot -= jackPotCountedPrize;//    \r\n        return true;\r\n    }\r\n}",
  "sourcePath": "D:\\Digital Heritage Fund\\\\    \\Lottery\\contracts\\LotteryPowerball.sol",
  "compiler": {
    "name": "solc",
    "version": "0.4.18+commit.9cf6e910.Emscripten.clang"
  },
  "schemaVersion": "1.0.1",
  "updatedAt": "2017-11-21T14:08:09.059Z"
}