{
  "contractName": "LotteryPowerball",
  "abi": [
    {
      "constant": false,
      "inputs": [
        {
          "name": "newSellPrice",
          "type": "uint256"
        },
        {
          "name": "newBuyPrice",
          "type": "uint256"
        }
      ],
      "name": "setPrices",
      "outputs": [],
      "payable": false,
      "stateMutability": "nonpayable",
      "type": "function"
    },
    {
      "constant": true,
      "inputs": [],
      "name": "name",
      "outputs": [
        {
          "name": "",
          "type": "string"
        }
      ],
      "payable": false,
      "stateMutability": "view",
      "type": "function"
    },
    {
      "constant": false,
      "inputs": [
        {
          "name": "_spender",
          "type": "address"
        },
        {
          "name": "_value",
          "type": "uint256"
        }
      ],
      "name": "approve",
      "outputs": [
        {
          "name": "success",
          "type": "bool"
        }
      ],
      "payable": false,
      "stateMutability": "nonpayable",
      "type": "function"
    },
    {
      "constant": true,
      "inputs": [],
      "name": "ticketPrice",
      "outputs": [
        {
          "name": "",
          "type": "uint256"
        }
      ],
      "payable": false,
      "stateMutability": "view",
      "type": "function"
    },
    {
      "constant": false,
      "inputs": [],
      "name": "startLottery",
      "outputs": [
        {
          "name": "",
          "type": "uint256"
        }
      ],
      "payable": false,
      "stateMutability": "nonpayable",
      "type": "function"
    },
    {
      "constant": true,
      "inputs": [
        {
          "name": "_from",
          "type": "address"
        },
        {
          "name": "_to",
          "type": "address"
        },
        {
          "name": "_value",
          "type": "uint256"
        }
      ],
      "name": "totalSupply",
      "outputs": [
        {
          "name": "",
          "type": "uint256"
        }
      ],
      "payable": false,
      "stateMutability": "view",
      "type": "function"
    },
    {
      "constant": true,
      "inputs": [
        {
          "name": "_from",
          "type": "address"
        },
        {
          "name": "_to",
          "type": "address"
        },
        {
          "name": "_value",
          "type": "uint256"
        }
      ],
      "name": "countRedBallsInTicket",
      "outputs": [
        {
          "name": "",
          "type": "uint256"
        }
      ],
      "payable": false,
      "stateMutability": "view",
      "type": "function"
    },
    {
      "constant": false,
      "inputs": [
        {
          "name": "_from",
          "type": "address"
        },
        {
          "name": "_to",
          "type": "address"
        },
        {
          "name": "_value",
          "type": "uint256"
        }
      ],
      "name": "transferFrom",
      "outputs": [
        {
          "name": "success",
          "type": "bool"
        }
      ],
      "payable": false,
      "stateMutability": "nonpayable",
      "type": "function"
    },
    {
      "constant": true,
      "inputs": [
        {
          "name": "firstWhiteBall",
          "type": "uint256"
        },
        {
          "name": "secondWhiteBall",
          "type": "uint256"
        },
        {
          "name": "thirdWhiteBall",
          "type": "uint256"
        },
        {
          "name": "fourthWhiteBall",
          "type": "uint256"
        },
        {
          "name": "fiveWhiteBall",
          "type": "uint256"
        },
        {
          "name": "redBall",
          "type": "uint256"
        }
      ],
      "name": "maxRedBallNumberInTicket",
      "outputs": [
        {
          "name": "",
          "type": "uint256"
        }
      ],
      "payable": false,
      "stateMutability": "view",
      "type": "function"
    },
    {
      "constant": false,
      "inputs": [
        {
          "name": "firstWhiteBall",
          "type": "uint256"
        },
        {
          "name": "secondWhiteBall",
          "type": "uint256"
        },
        {
          "name": "thirdWhiteBall",
          "type": "uint256"
        },
        {
          "name": "fourthWhiteBall",
          "type": "uint256"
        },
        {
          "name": "fiveWhiteBall",
          "type": "uint256"
        },
        {
          "name": "redBall",
          "type": "uint256"
        }
      ],
      "name": "buyTicket",
      "outputs": [
        {
          "name": "res",
          "type": "bool"
        }
      ],
      "payable": false,
      "stateMutability": "nonpayable",
      "type": "function"
    },
    {
      "constant": true,
      "inputs": [
        {
          "name": "",
          "type": "uint256"
        }
      ],
      "name": "decimals",
      "outputs": [
        {
          "name": "",
          "type": "uint8"
        },
        {
          "name": "ticketsCount",
          "type": "uint256"
        }
      ],
      "payable": false,
      "stateMutability": "view",
      "type": "function"
    },
    {
      "constant": true,
      "inputs": [
        {
          "name": "_value",
          "type": "uint256"
        }
      ],
      "name": "regularPrizeAssignment",
      "outputs": [
        {
          "name": "",
          "type": "uint256"
        }
      ],
      "payable": false,
      "stateMutability": "view",
      "type": "function"
    },
    {
      "constant": false,
      "inputs": [
        {
          "name": "_value",
          "type": "uint256"
        }
      ],
      "name": "burn",
      "outputs": [
        {
          "name": "success",
          "type": "bool"
        },
        {
          "name": "ticketsCount",
          "type": "uint256"
        }
      ],
      "payable": false,
      "stateMutability": "nonpayable",
      "type": "function"
    },
    {
      "constant": true,
      "inputs": [
        {
          "name": "",
          "type": "uint256"
        }
      ],
      "name": "historyPowerballLotteries",
      "outputs": [
        {
          "name": "date",
          "type": "string"
        },
        {
          "name": "ticketsCount",
          "type": "uint256"
        },
        {
          "name": "active",
          "type": "bool"
        },
        {
          "name": "played",
          "type": "bool"
        }
      ],
      "payable": false,
      "stateMutability": "view",
      "type": "function"
    },
    {
      "constant": true,
      "inputs": [],
      "name": "jackPot",
      "outputs": [
        {
          "name": "",
          "type": "uint256"
        }
      ],
      "payable": false,
      "stateMutability": "view",
      "type": "function"
    },
    {
      "constant": true,
      "inputs": [],
      "name": "sellPrice",
      "outputs": [
        {
          "name": "",
          "type": "uint256"
        }
      ],
      "payable": false,
      "stateMutability": "view",
      "type": "function"
    },
    {
      "constant": true,
      "inputs": [
        {
          "name": "ballsInTicket",
          "type": "uint256[6]"
        },
        {
          "name": "secondWhiteBall",
          "type": "uint8"
        },
        {
          "name": "thirdWhiteBall",
          "type": "uint8"
        },
        {
          "name": "fourWhiteBall",
          "type": "uint8"
        },
        {
          "name": "fiveWhiteBall",
          "type": "uint8"
        },
        {
          "name": "redBall",
          "type": "uint8"
        }
      ],
      "name": "lastLotteryId",
      "outputs": [
        {
          "name": "",
          "type": "uint32"
        }
      ],
      "payable": false,
      "stateMutability": "view",
      "type": "function"
    },
    {
      "constant": true,
      "inputs": [
        {
          "name": "ballsInTicket",
          "type": "uint256[6]"
        }
      ],
      "name": "validationBallsInTicket",
      "outputs": [
        {
          "name": "",
          "type": "bool"
        }
      ],
      "payable": false,
      "stateMutability": "view",
      "type": "function"
    },
    {
      "constant": true,
      "inputs": [],
      "name": "isRunningLottery",
      "outputs": [
        {
          "name": "res",
          "type": "bool"
        }
      ],
      "payable": false,
      "stateMutability": "view",
      "type": "function"
    },
    {
      "constant": true,
      "inputs": [
        {
          "name": "",
          "type": "address"
        },
        {
          "name": "mintedAmount",
          "type": "uint256"
        }
      ],
      "name": "regularPrize",
      "outputs": [
        {
          "name": "",
          "type": "uint256"
        }
      ],
      "payable": false,
      "stateMutability": "view",
      "type": "function"
    },
    {
      "constant": true,
      "inputs": [
        {
          "name": "",
          "type": "address"
        },
        {
          "name": "_value",
          "type": "uint256"
        }
      ],
      "name": "balanceOf",
      "outputs": [
        {
          "name": "",
          "type": "uint256"
        }
      ],
      "payable": false,
      "stateMutability": "view",
      "type": "function"
    },
    {
      "constant": true,
      "inputs": [
        {
          "name": "target",
          "type": "address"
        },
        {
          "name": "mintedAmount",
          "type": "uint256"
        }
      ],
      "name": "prizeCombinationSize",
      "outputs": [
        {
          "name": "",
          "type": "uint256"
        }
      ],
      "payable": false,
      "stateMutability": "view",
      "type": "function"
    },
    {
      "constant": false,
      "inputs": [
        {
          "name": "target",
          "type": "address"
        },
        {
          "name": "mintedAmount",
          "type": "uint256"
        }
      ],
      "name": "mintToken",
      "outputs": [
        {
          "name": "success",
          "type": "bool"
        }
      ],
      "payable": false,
      "stateMutability": "nonpayable",
      "type": "function"
    },
    {
      "constant": false,
      "inputs": [
        {
          "name": "_from",
          "type": "address"
        },
        {
          "name": "_value",
          "type": "uint256"
        }
      ],
      "name": "burnFrom",
      "outputs": [
        {
          "name": "success",
          "type": "bool"
        }
      ],
      "payable": false,
      "stateMutability": "nonpayable",
      "type": "function"
    },
    {
      "constant": true,
      "inputs": [],
      "name": "buyPrice",
      "outputs": [
        {
          "name": "",
          "type": "uint256"
        }
      ],
      "payable": false,
      "stateMutability": "view",
      "type": "function"
    },
    {
      "constant": true,
      "inputs": [
        {
          "name": "_to",
          "type": "address"
        },
        {
          "name": "_value",
          "type": "uint256"
        }
      ],
      "name": "owner",
      "outputs": [
        {
          "name": "",
          "type": "address"
        }
      ],
      "payable": false,
      "stateMutability": "view",
      "type": "function"
    },
    {
      "constant": false,
      "inputs": [
        {
          "name": "",
          "type": "address"
        }
      ],
      "name": "calculatePrizes",
      "outputs": [
        {
          "name": "",
          "type": "bool"
        }
      ],
      "payable": false,
      "stateMutability": "nonpayable",
      "type": "function"
    },
    {
      "constant": true,
      "inputs": [
        {
          "name": "lotteryId",
          "type": "uint256"
        }
      ],
      "name": "getLottery",
      "outputs": [
        {
          "name": "date",
          "type": "string"
        },
        {
          "name": "ticketsCount",
          "type": "uint256"
        },
        {
          "name": "prizeCombination",
          "type": "uint256[6]"
        }
      ],
      "payable": false,
      "stateMutability": "view",
      "type": "function"
    },
    {
      "constant": true,
      "inputs": [
        {
          "name": "_to",
          "type": "address"
        },
        {
          "name": "_value",
          "type": "uint256"
        }
      ],
      "name": "symbol",
      "outputs": [
        {
          "name": "",
          "type": "string"
        }
      ],
      "payable": false,
      "stateMutability": "view",
      "type": "function"
    },
    {
      "constant": true,
      "inputs": [
        {
          "name": "",
          "type": "address"
        },
        {
          "name": "_value",
          "type": "uint256"
        },
        {
          "name": "_extraData",
          "type": "bytes"
        }
      ],
      "name": "countWhiteBallsInTicket",
      "outputs": [
        {
          "name": "",
          "type": "uint256"
        }
      ],
      "payable": false,
      "stateMutability": "view",
      "type": "function"
    },
    {
      "constant": true,
      "inputs": [
        {
          "name": "lotteryId",
          "type": "uint256"
        },
        {
          "name": "ticketId",
          "type": "uint256"
        }
      ],
      "name": "getTicket",
      "outputs": [
        {
          "name": "owner",
          "type": "address"
        },
        {
          "name": "time",
          "type": "string"
        },
        {
          "name": "balls",
          "type": "uint256[6]"
        },
        {
          "name": "money",
          "type": "uint256"
        }
      ],
      "payable": false,
      "stateMutability": "view",
      "type": "function"
    },
    {
      "constant": false,
      "inputs": [
        {
          "name": "",
          "type": "address"
        }
      ],
      "name": "buy",
      "outputs": [
        {
          "name": "",
          "type": "bool"
        }
      ],
      "payable": true,
      "stateMutability": "payable",
      "type": "function"
    },
    {
      "constant": false,
      "inputs": [
        {
          "name": "_to",
          "type": "address"
        },
        {
          "name": "_value",
          "type": "uint256"
        },
        {
          "name": "_extraData",
          "type": "bytes"
        }
      ],
      "name": "transfer",
      "outputs": [
        {
          "name": "",
          "type": "uint256"
        }
      ],
      "payable": false,
      "stateMutability": "nonpayable",
      "type": "function"
    },
    {
      "constant": true,
      "inputs": [
        {
          "name": "",
          "type": "address"
        },
        {
          "name": "",
          "type": "address"
        }
      ],
      "name": "frozenAccount",
      "outputs": [
        {
          "name": "",
          "type": "bool"
        }
      ],
      "payable": false,
      "stateMutability": "view",
      "type": "function"
    },
    {
      "constant": true,
      "inputs": [
        {
          "name": "_spender",
          "type": "address"
        },
        {
          "name": "_value",
          "type": "uint256"
        },
        {
          "name": "_extraData",
          "type": "bytes"
        }
      ],
      "name": "maxWhiteBallNumberInTicket",
      "outputs": [
        {
          "name": "",
          "type": "uint256"
        }
      ],
      "payable": false,
      "stateMutability": "view",
      "type": "function"
    },
    {
      "inputs": [
        {
          "name": "_spender",
          "type": "address"
        },
        {
          "name": "_value",
          "type": "uint256"
        },
        {
          "name": "_extraData",
          "type": "bytes"
        }
      ],
      "payable": false,
      "stateMutability": "view",
      "type": "function",
      "constant": true,
      "name": "maxBallsInTicket",
      "outputs": [
        {
          "name": "",
          "type": "uint256"
        }
      ]
    },
    {
      "anonymous": false,
      "inputs": [
        {
          "indexed": false,
          "name": "_spender",
          "type": "address"
        },
        {
          "indexed": false,
          "name": "_value",
          "type": "uint256"
        },
        {
          "name": "_extraData",
          "type": "bytes"
        }
      ],
      "name": "approveAndCall",
      "type": "function",
      "constant": false,
      "outputs": [
        {
          "name": "success",
          "type": "bool"
        }
      ],
      "payable": false,
      "stateMutability": "nonpayable"
    },
    {
      "anonymous": false,
      "inputs": [
        {
          "indexed": true,
          "name": "amount",
          "type": "uint256"
        },
        {
          "indexed": true,
          "name": "",
          "type": "address"
        },
        {
          "indexed": false,
          "name": "value",
          "type": "uint256"
        }
      ],
      "name": "stopLottery",
      "type": "function",
      "constant": false,
      "outputs": [
        {
          "name": "",
          "type": "uint256"
        }
      ],
      "payable": false,
      "stateMutability": "nonpayable"
    },
    {
      "anonymous": false,
      "inputs": [
        {
          "indexed": true,
          "name": "",
          "type": "address"
        },
        {
          "indexed": false,
          "name": "",
          "type": "address"
        }
      ],
      "name": "allowance",
      "type": "function",
      "payable": false,
      "stateMutability": "view",
      "constant": true,
      "outputs": [
        {
          "name": "",
          "type": "uint256"
        }
      ]
    },
    {
      "anonymous": false,
      "inputs": [
        {
          "indexed": false,
          "name": "amount",
          "type": "uint256"
        },
        {
          "indexed": false,
          "name": "freeze",
          "type": "bool"
        }
      ],
      "name": "sell",
      "type": "function",
      "constant": false,
      "outputs": [
        {
          "name": "",
          "type": "uint8"
        }
      ],
      "payable": false,
      "stateMutability": "nonpayable"
    },
    {
      "anonymous": false,
      "inputs": [
        {
          "indexed": true,
          "name": "target",
          "type": "address"
        },
        {
          "indexed": true,
          "name": "freeze",
          "type": "bool"
        },
        {
          "indexed": false,
          "name": "value",
          "type": "uint256"
        }
      ],
      "name": "freezeAccount",
      "type": "function",
      "constant": false,
      "outputs": [],
      "payable": false,
      "stateMutability": "nonpayable"
    },
    {
      "anonymous": false,
      "inputs": [
        {
          "indexed": true,
          "name": "",
          "type": "uint256"
        },
        {
          "indexed": false,
          "name": "value",
          "type": "uint256"
        }
      ],
      "name": "wonPercents",
      "type": "function",
      "constant": true,
      "outputs": [
        {
          "name": "",
          "type": "uint8"
        }
      ],
      "payable": false,
      "stateMutability": "view"
    },
    {
      "inputs": [
        {
          "name": "newOwner",
          "type": "address"
        }
      ],
      "payable": false,
      "stateMutability": "nonpayable",
      "type": "function",
      "constant": false,
      "name": "transferOwnership",
      "outputs": []
    },
    {
      "anonymous": false,
      "inputs": [
        {
          "indexed": false,
          "name": "target",
          "type": "address"
        },
        {
          "indexed": false,
          "name": "frozen",
          "type": "bool"
        }
      ],
      "name": "jackPotAssignment",
      "type": "function",
      "constant": true,
      "outputs": [
        {
          "name": "",
          "type": "uint256"
        }
      ],
      "payable": false,
      "stateMutability": "view"
    },
    {
      "anonymous": false,
      "inputs": [
        {
          "indexed": true,
          "name": "from",
          "type": "address"
        },
        {
          "indexed": true,
          "name": "to",
          "type": "address"
        },
        {
          "indexed": false,
          "name": "value",
          "type": "uint256"
        }
      ],
      "name": "Transfer",
      "type": "constructor",
      "payable": false,
      "stateMutability": "nonpayable"
    },
    {
      "anonymous": false,
      "inputs": [
        {
          "indexed": false,
          "name": "target",
          "type": "address"
        },
        {
          "indexed": false,
          "name": "frozen",
          "type": "bool"
        }
      ],
      "name": "FrozenFunds",
      "type": "event"
    },
    {
      "anonymous": false,
      "inputs": [
        {
          "indexed": true,
          "name": "from",
          "type": "address"
        },
        {
          "indexed": true,
          "name": "to",
          "type": "address"
        },
        {
          "indexed": false,
          "name": "value",
          "type": "uint256"
        }
      ],
      "name": "Transfer",
      "type": "event"
    },
    {
      "anonymous": false,
      "inputs": [
        {
          "indexed": true,
          "name": "from",
          "type": "address"
        },
        {
          "indexed": false,
          "name": "value",
          "type": "uint256"
        }
      ],
      "name": "Burn",
      "type": "event"
    }
  ],
  "bytecode": "0x60606040526012600360006101000a81548160ff021916908360ff1602179055506000600a556000600b556028600c556028600d556028600e556045600f55601a6010556006601155600660125560a060405190810160405280600260ff168152602001600360ff168152602001600560ff168152602001600f60ff168152602001604b60ff1681525060139060056200009b929190620003ce565b50600560145560016015556000601660006101000a81548163ffffffff021916908363ffffffff1602179055503415620000d457600080fd5b6127106040805190810160405280601181526020017f4c6f747465727920506f77657262616c6c0000000000000000000000000000008152506040805190810160405280600281526020017f4c50000000000000000000000000000000000000000000000000000000000000815250828282336000806101000a81548173ffffffffffffffffffffffffffffffffffffffff021916908373ffffffffffffffffffffffffffffffffffffffff160217905550600360009054906101000a900460ff1660ff16600a0a8302600481905550600454600560003373ffffffffffffffffffffffffffffffffffffffff1673ffffffffffffffffffffffffffffffffffffffff168152602001908152602001600020819055508160019080519060200190620002029291906200046f565b5080600290805190602001906200021b9291906200046f565b5050505050505062000240620002466401000000000262001076176401000000009004565b6200059b565b6000809054906101000a900473ffffffffffffffffffffffffffffffffffffffff1673ffffffffffffffffffffffffffffffffffffffff163373ffffffffffffffffffffffffffffffffffffffff16141515620002a257600080fd5b6016600081819054906101000a900463ffffffff1660010191906101000a81548163ffffffff021916908363ffffffff1602179055506040805190810160405280600a81526020017f31362e31312e323031370000000000000000000000000000000000000000000081525060186000019080519060200190620003289291906200046f565b50600060186002018190555060c060405190810160405280600160ff168152602001601660ff168152602001602260ff168152602001602f60ff168152602001603a60ff168152602001600160ff1681525060186003019060066200038f929190620004f6565b506001601860090160006101000a81548160ff0219169083151502179055506000601860090160016101000a81548160ff021916908315150217905550565b826005601f016020900481019282156200045c5791602002820160005b838211156200042b57835183826101000a81548160ff021916908360ff1602179055509260200192600101602081600001049283019260010302620003eb565b80156200045a5782816101000a81549060ff02191690556001016020816000010492830192600103026200042b565b505b5090506200046b919062000540565b5090565b828054600181600116156101000203166002900490600052602060002090601f016020900481019282601f10620004b257805160ff1916838001178555620004e3565b82800160010185558215620004e3579182015b82811115620004e2578251825591602001919060010190620004c5565b5b509050620004f2919062000573565b5090565b82600681019282156200052d579160200282015b828111156200052c578251829060ff169055916020019190600101906200050a565b5b5090506200053c919062000573565b5090565b6200057091905b808211156200056c57600081816101000a81549060ff02191690555060010162000547565b5090565b90565b6200059891905b80821115620005945760008160009055506001016200057a565b5090565b90565b6139e380620005ab6000396000f30060606040526004361061021a576000357c0100000000000000000000000000000000000000000000000000000000900463ffffffff16806305fefda71461021f57806306fdde031461024b578063095ea7b3146102d95780631209b1f614610333578063160344e21461035c57806318160ddd146103715780631f5bfd091461039a57806323b872dd146103c357806327b2ab051461043c57806330cf699b14610465578063313ce567146104cd578063343679c4146104fc57806342966c681461052557806348b1f1fb146105605780634a78cdba146106365780634b7503341461065f5780634e3fb85d146106885780635a0ab294146106bd5780635ba924031461071b5780635be01e451461074857806370a08231146107715780637815eafa146107be57806379c65068146107e757806379cc6790146108295780638620410b146108835780638da5cb5b146108ac5780638e7e9a3c1461090157806392e845f61461092e57806395d89b4114610a005780639c9a31aa14610a8e578063a426e4c814610ab7578063a6f2ae3a14610bc5578063a9059cbb14610bcf578063b414d4b614610c11578063b64e0ebd14610c62578063c54bb40714610c8b578063cae9ca5114610cb4578063d5c6249814610d51578063dd62ed3e14610d66578063e4849b3214610dd2578063e724529c14610df5578063eeb51da014610e39578063f2fde38b14610e76578063f77400e514610eaf575b600080fd5b341561022a57600080fd5b6102496004808035906020019091908035906020019091905050610ed8565b005b341561025657600080fd5b61025e610f45565b6040518080602001828103825283818151815260200191508051906020019080838360005b8381101561029e578082015181840152602081019050610283565b50505050905090810190601f1680156102cb5780820380516001836020036101000a031916815260200191505b509250505060405180910390f35b34156102e457600080fd5b610319600480803573ffffffffffffffffffffffffffffffffffffffff16906020019091908035906020019091905050610fe3565b604051808215151515815260200191505060405180910390f35b341561033e57600080fd5b610346611070565b6040518082815260200191505060405180910390f35b341561036757600080fd5b61036f611076565b005b341561037c57600080fd5b6103846111f9565b6040518082815260200191505060405180910390f35b34156103a557600080fd5b6103ad6111ff565b6040518082815260200191505060405180910390f35b34156103ce57600080fd5b610422600480803573ffffffffffffffffffffffffffffffffffffffff1690602001909190803573ffffffffffffffffffffffffffffffffffffffff16906020019091908035906020019091905050611205565b604051808215151515815260200191505060405180910390f35b341561044757600080fd5b61044f611332565b6040518082815260200191505060405180910390f35b341561047057600080fd5b6104b36004808035906020019091908035906020019091908035906020019091908035906020019091908035906020019091908035906020019091905050611338565b604051808215151515815260200191505060405180910390f35b34156104d857600080fd5b6104e06113ee565b604051808260ff1660ff16815260200191505060405180910390f35b341561050757600080fd5b61050f611401565b6040518082815260200191505060405180910390f35b341561053057600080fd5b6105466004808035906020019091905050611407565b604051808215151515815260200191505060405180910390f35b341561056b57600080fd5b610581600480803590602001909190505061150b565b604051808060200185815260200184151515158152602001831515151581526020018281038252868181546001816001161561010002031660029004815260200191508054600181600116156101000203166002900480156106245780601f106105f957610100808354040283529160200191610624565b820191906000526020600020905b81548152906001019060200180831161060757829003601f168201915b50509550505050505060405180910390f35b341561064157600080fd5b610649611554565b6040518082815260200191505060405180910390f35b341561066a57600080fd5b61067261155a565b6040518082815260200191505060405180910390f35b341561069357600080fd5b61069b611560565b604051808263ffffffff1663ffffffff16815260200191505060405180910390f35b34156106c857600080fd5b6107016004808060c001906006806020026040519081016040528092919082600660200280828437820191505050505091905050611576565b604051808215151515815260200191505060405180910390f35b341561072657600080fd5b61072e611626565b604051808215151515815260200191505060405180910390f35b341561075357600080fd5b61075b61166d565b6040518082815260200191505060405180910390f35b341561077c57600080fd5b6107a8600480803573ffffffffffffffffffffffffffffffffffffffff16906020019091905050611673565b6040518082815260200191505060405180910390f35b34156107c957600080fd5b6107d161168b565b6040518082815260200191505060405180910390f35b34156107f257600080fd5b610827600480803573ffffffffffffffffffffffffffffffffffffffff16906020019091908035906020019091905050611691565b005b341561083457600080fd5b610869600480803573ffffffffffffffffffffffffffffffffffffffff16906020019091908035906020019091905050611802565b604051808215151515815260200191505060405180910390f35b341561088e57600080fd5b610896611a1c565b6040518082815260200191505060405180910390f35b34156108b757600080fd5b6108bf611a22565b604051808273ffffffffffffffffffffffffffffffffffffffff1673ffffffffffffffffffffffffffffffffffffffff16815260200191505060405180910390f35b341561090c57600080fd5b610914611a47565b604051808215151515815260200191505060405180910390f35b341561093957600080fd5b61094f60048080359060200190919050506121fe565b604051808060200184815260200183600660200280838360005b83811015610984578082015181840152602081019050610969565b50505050905001828103825285818151815260200191508051906020019080838360005b838110156109c35780820151818401526020810190506109a8565b50505050905090810190601f1680156109f05780820380516001836020036101000a031916815260200191505b5094505050505060405180910390f35b3415610a0b57600080fd5b610a136124e0565b6040518080602001828103825283818151815260200191508051906020019080838360005b83811015610a53578082015181840152602081019050610a38565b50505050905090810190601f168015610a805780820380516001836020036101000a031916815260200191505b509250505060405180910390f35b3415610a9957600080fd5b610aa161257e565b6040518082815260200191505060405180910390f35b3415610ac257600080fd5b610ae16004808035906020019091908035906020019091905050612584565b604051808573ffffffffffffffffffffffffffffffffffffffff1673ffffffffffffffffffffffffffffffffffffffff1681526020018060200184600660200280838360005b83811015610b42578082015181840152602081019050610b27565b50505050905001838152602001828103825285818151815260200191508051906020019080838360005b83811015610b87578082015181840152602081019050610b6c565b50505050905090810190601f168015610bb45780820380516001836020036101000a031916815260200191505b509550505050505060405180910390f35b610bcd612963565b005b3415610bda57600080fd5b610c0f600480803573ffffffffffffffffffffffffffffffffffffffff16906020019091908035906020019091905050612983565b005b3415610c1c57600080fd5b610c48600480803573ffffffffffffffffffffffffffffffffffffffff16906020019091905050612992565b604051808215151515815260200191505060405180910390f35b3415610c6d57600080fd5b610c756129b2565b6040518082815260200191505060405180910390f35b3415610c9657600080fd5b610c9e6129b8565b6040518082815260200191505060405180910390f35b3415610cbf57600080fd5b610d37600480803573ffffffffffffffffffffffffffffffffffffffff1690602001909190803590602001909190803590602001908201803590602001908080601f016020809104026020016040519081016040528093929190818152602001838380828437820191505050505050919050506129be565b604051808215151515815260200191505060405180910390f35b3415610d5c57600080fd5b610d64612b3c565b005b3415610d7157600080fd5b610dbc600480803573ffffffffffffffffffffffffffffffffffffffff1690602001909190803573ffffffffffffffffffffffffffffffffffffffff16906020019091905050612cbc565b6040518082815260200191505060405180910390f35b3415610ddd57600080fd5b610df36004808035906020019091905050612ce1565b005b3415610e0057600080fd5b610e37600480803573ffffffffffffffffffffffffffffffffffffffff169060200190919080351515906020019091905050612d5d565b005b3415610e4457600080fd5b610e5a6004808035906020019091905050612e82565b604051808260ff1660ff16815260200191505060405180910390f35b3415610e8157600080fd5b610ead600480803573ffffffffffffffffffffffffffffffffffffffff16906020019091905050612eab565b005b3415610eba57600080fd5b610ec2612f49565b6040518082815260200191505060405180910390f35b6000809054906101000a900473ffffffffffffffffffffffffffffffffffffffff1673ffffffffffffffffffffffffffffffffffffffff163373ffffffffffffffffffffffffffffffffffffffff16141515610f3357600080fd5b81600781905550806008819055505050565b60018054600181600116156101000203166002900480601f016020809104026020016040519081016040528092919081815260200182805460018160011615610100020316600290048015610fdb5780601f10610fb057610100808354040283529160200191610fdb565b820191906000526020600020905b815481529060010190602001808311610fbe57829003601f168201915b505050505081565b600081600660003373ffffffffffffffffffffffffffffffffffffffff1673ffffffffffffffffffffffffffffffffffffffff16815260200190815260200160002060008573ffffffffffffffffffffffffffffffffffffffff1673ffffffffffffffffffffffffffffffffffffffff168152602001908152602001600020819055506001905092915050565b600c5481565b6000809054906101000a900473ffffffffffffffffffffffffffffffffffffffff1673ffffffffffffffffffffffffffffffffffffffff163373ffffffffffffffffffffffffffffffffffffffff161415156110d157600080fd5b6016600081819054906101000a900463ffffffff1660010191906101000a81548163ffffffff021916908363ffffffff1602179055506040805190810160405280600a81526020017f31362e31312e323031370000000000000000000000000000000000000000000081525060186000019080519060200190611155929190613569565b50600060186002018190555060c060405190810160405280600160ff168152602001601660ff168152602001602260ff168152602001602f60ff168152602001603a60ff168152602001600160ff1681525060186003019060066111ba9291906135e9565b506001601860090160006101000a81548160ff0219169083151502179055506000601860090160016101000a81548160ff021916908315150217905550565b60045481565b60155481565b6000600660008573ffffffffffffffffffffffffffffffffffffffff1673ffffffffffffffffffffffffffffffffffffffff16815260200190815260200160002060003373ffffffffffffffffffffffffffffffffffffffff1673ffffffffffffffffffffffffffffffffffffffff16815260200190815260200160002054821115151561129257600080fd5b81600660008673ffffffffffffffffffffffffffffffffffffffff1673ffffffffffffffffffffffffffffffffffffffff16815260200190815260200160002060003373ffffffffffffffffffffffffffffffffffffffff1673ffffffffffffffffffffffffffffffffffffffff16815260200190815260200160002060008282540392505081905550611327848484612f4f565b600190509392505050565b60105481565b600061134261362e565b8781600060068110151561135257fe5b6020020181815250508681600160068110151561136b57fe5b6020020181815250508581600260068110151561138457fe5b6020020181815250508481600360068110151561139d57fe5b602002018181525050838160046006811015156113b657fe5b602002018181525050828160056006811015156113cf57fe5b6020020181815250506113e181613206565b9150509695505050505050565b600360009054906101000a900460ff1681565b600e5481565b600081600560003373ffffffffffffffffffffffffffffffffffffffff1673ffffffffffffffffffffffffffffffffffffffff168152602001908152602001600020541015151561145757600080fd5b81600560003373ffffffffffffffffffffffffffffffffffffffff1673ffffffffffffffffffffffffffffffffffffffff16815260200190815260200160002060008282540392505081905550816004600082825403925050819055503373ffffffffffffffffffffffffffffffffffffffff167fcc16f5dbb4873280815c1ee09dbd06736cffcc184412cf7a71a0fdb75d397ca5836040518082815260200191505060405180910390a260019050919050565b601760205280600052604060002060009150905080600001908060020154908060090160009054906101000a900460ff16908060090160019054906101000a900460ff16905084565b600a5481565b60075481565b601660009054906101000a900463ffffffff1681565b600080600090505b6014548110156115d757600f54838260068110151561159957fe5b602002015111806115bc5750600083826006811015156115b557fe5b6020020151145b156115ca5760009150611620565b808060010191505061157e565b6010548360056006811015156115e957fe5b6020020151118061160d5750600083600560068110151561160657fe5b6020020151145b1561161b5760009150611620565b600191505b50919050565b6000601860090160009054906101000a900460ff1680156116575750601860090160019054906101000a900460ff16155b15611665576001905061166a565b600090505b90565b600b5481565b60056020528060005260406000206000915090505481565b60115481565b6000809054906101000a900473ffffffffffffffffffffffffffffffffffffffff1673ffffffffffffffffffffffffffffffffffffffff163373ffffffffffffffffffffffffffffffffffffffff161415156116ec57600080fd5b80600560008473ffffffffffffffffffffffffffffffffffffffff1673ffffffffffffffffffffffffffffffffffffffff16815260200190815260200160002060008282540192505081905550806004600082825401925050819055503073ffffffffffffffffffffffffffffffffffffffff1660007fddf252ad1be2c89b69c2b068fc378daa952ba7f163c4a11628f55a4df523b3ef836040518082815260200191505060405180910390a38173ffffffffffffffffffffffffffffffffffffffff163073ffffffffffffffffffffffffffffffffffffffff167fddf252ad1be2c89b69c2b068fc378daa952ba7f163c4a11628f55a4df523b3ef836040518082815260200191505060405180910390a35050565b600081600560008573ffffffffffffffffffffffffffffffffffffffff1673ffffffffffffffffffffffffffffffffffffffff168152602001908152602001600020541015151561185257600080fd5b600660008473ffffffffffffffffffffffffffffffffffffffff1673ffffffffffffffffffffffffffffffffffffffff16815260200190815260200160002060003373ffffffffffffffffffffffffffffffffffffffff1673ffffffffffffffffffffffffffffffffffffffff1681526020019081526020016000205482111515156118dd57600080fd5b81600560008573ffffffffffffffffffffffffffffffffffffffff1673ffffffffffffffffffffffffffffffffffffffff1681526020019081526020016000206000828254039250508190555081600660008573ffffffffffffffffffffffffffffffffffffffff1673ffffffffffffffffffffffffffffffffffffffff16815260200190815260200160002060003373ffffffffffffffffffffffffffffffffffffffff1673ffffffffffffffffffffffffffffffffffffffff16815260200190815260200160002060008282540392505081905550816004600082825403925050819055508273ffffffffffffffffffffffffffffffffffffffff167fcc16f5dbb4873280815c1ee09dbd06736cffcc184412cf7a71a0fdb75d397ca5836040518082815260200191505060405180910390a26001905092915050565b60085481565b6000809054906101000a900473ffffffffffffffffffffffffffffffffffffffff1681565b6000806000806000806000806000611a5d613656565b60008060009054906101000a900473ffffffffffffffffffffffffffffffffffffffff1673ffffffffffffffffffffffffffffffffffffffff163373ffffffffffffffffffffffffffffffffffffffff16141515611aba57600080fd5b611ac2611626565b15611ad05760009a506121f1565b600090505b601860020154811015611d1957611b3f60186001016000838152602001908152602001600020600201600680602002604051908101604052809291908260068015611b35576020028201915b815481526020019060010190808311611b21575b5050505050613480565b91508160186001016000838152602001908152602001600020600801906002611b6992919061367d565b506001826001600281101515611b7b57fe5b6020020151148015611bbe57506000826000600281101515611b9957fe5b60200201511480611bbd57506001826000600281101515611bb657fe5b6020020151145b5b15611bcc5789806001019a50505b6003826001600281101515611bdd57fe5b6020020151836000600281101515611bf157fe5b6020020151011415611c065788806001019950505b6004826001600281101515611c1757fe5b6020020151836000600281101515611c2b57fe5b6020020151011415611c405787806001019850505b6001826001600281101515611c5157fe5b6020020151148015611c7657506004826000600281101515611c6f57fe5b6020020151145b15611c845786806001019750505b6000826001600281101515611c9557fe5b6020020151148015611cba57506005826000600281101515611cb357fe5b6020020151145b15611cc85785806001019650505b6001826001600281101515611cd957fe5b6020020151148015611cfe57506005826000600281101515611cf757fe5b6020020151145b15611d0c5784806001019550505b8080600101915050611ad5565b600090505b6018600201548110156121cc576001826001600281101515611d3c57fe5b6020020151148015611d7f57506000826000600281101515611d5a57fe5b60200201511480611d7e57506001826000600281101515611d7757fe5b6020020151145b5b15611ddd5760648a0260136000600581101515611d9857fe5b602091828204019190069054906101000a900460ff1660ff16600b5402811515611dbe57fe5b0460186001016000838152602001908152602001600020600a01819055505b6003826001600281101515611dee57fe5b6020020151836000600281101515611e0257fe5b6020020151011415611e67576064890260136001600581101515611e2257fe5b602091828204019190069054906101000a900460ff1660ff16600b5402811515611e4857fe5b0460186001016000838152602001908152602001600020600a01819055505b6004826001600281101515611e7857fe5b6020020151836000600281101515611e8c57fe5b6020020151011415611ef1576064880260136002600581101515611eac57fe5b602091828204019190069054906101000a900460ff1660ff16600b5402811515611ed257fe5b0460186001016000838152602001908152602001600020600a01819055505b6001826001600281101515611f0257fe5b6020020151148015611f2757506004826000600281101515611f2057fe5b6020020151145b15611f85576064870260136003600581101515611f4057fe5b602091828204019190069054906101000a900460ff1660ff16600b5402811515611f6657fe5b0460186001016000838152602001908152602001600020600a01819055505b6000826001600281101515611f9657fe5b6020020151148015611fbb57506005826000600281101515611fb457fe5b6020020151145b15612019576064860260136004600581101515611fd457fe5b602091828204019190069054906101000a900460ff1660ff16600b5402811515611ffa57fe5b0460186001016000838152602001908152602001600020600a01819055505b600182600160028110151561202a57fe5b602002015114801561204f5750600582600060028110151561204857fe5b6020020151145b156120805784600a5481151561206157fe5b0460186001016000838152602001908152602001600020600a01819055505b600682600160028110151561209157fe5b60200201518360006002811015156120a557fe5b60200201510110156120d05760186001016000828152602001908152602001600020600a0154840193505b60068260016002811015156120e157fe5b60200201518360006002811015156120f557fe5b60200201510114156121205760186001016000828152602001908152602001600020600a0154830192505b60186001016000828152602001908152602001600020600a0154600560006018600101600085815260200190815260200160002060000160009054906101000a900473ffffffffffffffffffffffffffffffffffffffff1673ffffffffffffffffffffffffffffffffffffffff1673ffffffffffffffffffffffffffffffffffffffff168152602001908152602001600020600082825401925050819055508080600101915050611d1e565b83600b6000828254039250508190555082600a6000828254039250508190555060019a505b5050505050505050505090565b6122066136bd565b600061221061362e565b6122186136d1565b601660009054906101000a900463ffffffff1663ffffffff1685141561237457601860a06040519081016040529081600082018054600181600116156101000203166002900480601f0160208091040260200160405190810160405280929190818152602001828054600181600116156101000203166002900480156122df5780601f106122b4576101008083540402835291602001916122df565b820191906000526020600020905b8154815290600101906020018083116122c257829003601f168201915b50505050508152602001600282015481526020016003820160068060200260405190810160405280929190826006801561232e576020028201915b81548152602001906001019080831161231a575b505050505081526020016009820160009054906101000a900460ff161515151581526020016009820160019054906101000a900460ff16151515158152505090506124bd565b6017600086815260200190815260200160002060a06040519081016040529081600082018054600181600116156101000203166002900480601f01602080910402602001604051908101604052809291908181526020018280546001816001161561010002031660029004801561242c5780601f106124015761010080835404028352916020019161242c565b820191906000526020600020905b81548152906001019060200180831161240f57829003601f168201915b50505050508152602001600282015481526020016003820160068060200260405190810160405280929190826006801561247b576020028201915b815481526020019060010190808311612467575b505050505081526020016009820160009054906101000a900460ff161515151581526020016009820160019054906101000a900460ff16151515158152505090505b806000015181602001518260400151829250809050935093509350509193909250565b60028054600181600116156101000203166002900480601f0160208091040260200160405190810160405280929190818152602001828054600181600116156101000203166002900480156125765780601f1061254b57610100808354040283529160200191612576565b820191906000526020600020905b81548152906001019060200180831161255957829003601f168201915b505050505081565b60145481565b600061258e6136bd565b61259661362e565b60006125a0613712565b601660009054906101000a900463ffffffff1663ffffffff16871415612775576018600101600087815260200190815260200160002060a060405190810160405290816000820160009054906101000a900473ffffffffffffffffffffffffffffffffffffffff1673ffffffffffffffffffffffffffffffffffffffff1673ffffffffffffffffffffffffffffffffffffffff168152602001600182018054600181600116156101000203166002900480601f0160208091040260200160405190810160405280929190818152602001828054600181600116156101000203166002900480156126d15780601f106126a6576101008083540402835291602001916126d1565b820191906000526020600020905b8154815290600101906020018083116126b457829003601f168201915b5050505050815260200160028201600680602002604051908101604052809291908260068015612716576020028201915b815481526020019060010190808311612702575b505050505081526020016008820160028060200260405190810160405280929190826002801561275b576020028201915b815481526020019060010190808311612747575b50505050508152602001600a820154815250509050612937565b60176000888152602001908152602001600020600101600087815260200190815260200160002060a060405190810160405290816000820160009054906101000a900473ffffffffffffffffffffffffffffffffffffffff1673ffffffffffffffffffffffffffffffffffffffff1673ffffffffffffffffffffffffffffffffffffffff168152602001600182018054600181600116156101000203166002900480601f0160208091040260200160405190810160405280929190818152602001828054600181600116156101000203166002900480156128975780601f1061286c57610100808354040283529160200191612897565b820191906000526020600020905b81548152906001019060200180831161287a57829003601f168201915b50505050508152602001600282016006806020026040519081016040528092919082600680156128dc576020028201915b8154815260200190600101908083116128c8575b5050505050815260200160088201600280602002604051908101604052809291908260028015612921576020028201915b81548152602001906001019080831161290d575b50505050508152602001600a8201548152505090505b806000015181602001518260400151836080015182925081915094509450945094505092959194509250565b60006008543481151561297257fe5b049050612980303383612f4f565b50565b61298e338383612f4f565b5050565b60096020528060005260406000206000915054906101000a900460ff1681565b600f5481565b60125481565b6000808490506129ce8585610fe3565b15612b33578073ffffffffffffffffffffffffffffffffffffffff16638f4ffcb1338630876040518563ffffffff167c0100000000000000000000000000000000000000000000000000000000028152600401808573ffffffffffffffffffffffffffffffffffffffff1673ffffffffffffffffffffffffffffffffffffffff1681526020018481526020018373ffffffffffffffffffffffffffffffffffffffff1673ffffffffffffffffffffffffffffffffffffffff16815260200180602001828103825283818151815260200191508051906020019080838360005b83811015612ac8578082015181840152602081019050612aad565b50505050905090810190601f168015612af55780820380516001836020036101000a031916815260200191505b5095505050505050600060405180830381600087803b1515612b1657600080fd5b6102c65a03f11515612b2757600080fd5b50505060019150612b34565b5b509392505050565b6000809054906101000a900473ffffffffffffffffffffffffffffffffffffffff1673ffffffffffffffffffffffffffffffffffffffff163373ffffffffffffffffffffffffffffffffffffffff16141515612b9757600080fd5b6000601860090160006101000a81548160ff021916908315150217905550612bbd611a47565b1515612bc857612cba565b6001601860090160016101000a81548160ff021916908315150217905550601860176000601660009054906101000a900463ffffffff1663ffffffff16815260200190815260200160002060008201816000019080546001816001161561010002031660029004612c3a92919061376b565b50600282015481600201556003820181600301906006612c5b9291906137f2565b506009820160009054906101000a900460ff168160090160006101000a81548160ff0219169083151502179055506009820160019054906101000a900460ff168160090160016101000a81548160ff0219169083151502179055509050505b565b6006602052816000526040600020602052806000526040600020600091509150505481565b60075481023073ffffffffffffffffffffffffffffffffffffffff163110151515612d0b57600080fd5b612d16333083612f4f565b3373ffffffffffffffffffffffffffffffffffffffff166108fc60075483029081150290604051600060405180830381858888f193505050501515612d5a57600080fd5b50565b6000809054906101000a900473ffffffffffffffffffffffffffffffffffffffff1673ffffffffffffffffffffffffffffffffffffffff163373ffffffffffffffffffffffffffffffffffffffff16141515612db857600080fd5b80600960008473ffffffffffffffffffffffffffffffffffffffff1673ffffffffffffffffffffffffffffffffffffffff16815260200190815260200160002060006101000a81548160ff0219169083151502179055507f48335238b4855f35377ed80f164e8c6f3c366e54ac00b96a6402d4a9814a03a58282604051808373ffffffffffffffffffffffffffffffffffffffff1673ffffffffffffffffffffffffffffffffffffffff168152602001821515151581526020019250505060405180910390a15050565b601381600581101515612e9157fe5b60209182820401919006915054906101000a900460ff1681565b6000809054906101000a900473ffffffffffffffffffffffffffffffffffffffff1673ffffffffffffffffffffffffffffffffffffffff163373ffffffffffffffffffffffffffffffffffffffff16141515612f0657600080fd5b806000806101000a81548173ffffffffffffffffffffffffffffffffffffffff021916908373ffffffffffffffffffffffffffffffffffffffff16021790555050565b600d5481565b60008273ffffffffffffffffffffffffffffffffffffffff1614151515612f7557600080fd5b80600560008573ffffffffffffffffffffffffffffffffffffffff1673ffffffffffffffffffffffffffffffffffffffff16815260200190815260200160002054111515612fc257600080fd5b600560008373ffffffffffffffffffffffffffffffffffffffff1673ffffffffffffffffffffffffffffffffffffffff1681526020019081526020016000205481600560008573ffffffffffffffffffffffffffffffffffffffff1673ffffffffffffffffffffffffffffffffffffffff168152602001908152602001600020540111151561305057600080fd5b600960008473ffffffffffffffffffffffffffffffffffffffff1673ffffffffffffffffffffffffffffffffffffffff16815260200190815260200160002060009054906101000a900460ff161515156130a957600080fd5b600960008373ffffffffffffffffffffffffffffffffffffffff1673ffffffffffffffffffffffffffffffffffffffff16815260200190815260200160002060009054906101000a900460ff1615151561310257600080fd5b80600560008573ffffffffffffffffffffffffffffffffffffffff1673ffffffffffffffffffffffffffffffffffffffff1681526020019081526020016000206000828254039250508190555080600560008473ffffffffffffffffffffffffffffffffffffffff1673ffffffffffffffffffffffffffffffffffffffff168152602001908152602001600020600082825401925050819055508173ffffffffffffffffffffffffffffffffffffffff168373ffffffffffffffffffffffffffffffffffffffff167fddf252ad1be2c89b69c2b068fc378daa952ba7f163c4a11628f55a4df523b3ef836040518082815260200191505060405180910390a3505050565b6000613210613712565b613218611626565b1515613227576000915061347a565b61323083611576565b151561323f576000915061347a565b33816000019073ffffffffffffffffffffffffffffffffffffffff16908173ffffffffffffffffffffffffffffffffffffffff16815250506040805190810160405280600a81526020017f30362e31312e32303137000000000000000000000000000000000000000000008152508160200181905250828160400181905250600c54600560003373ffffffffffffffffffffffffffffffffffffffff1673ffffffffffffffffffffffffffffffffffffffff168152602001908152602001600020541015613310576000915061347a565b600c54600560003373ffffffffffffffffffffffffffffffffffffffff1673ffffffffffffffffffffffffffffffffffffffff168152602001908152602001600020600082825403925050819055506064600d54600c540281151561337157fe5b04600a600082825401925050819055506064600e54600c540281151561339357fe5b04600b600082825401925050819055508060186001016000601860020154815260200190815260200160002060008201518160000160006101000a81548173ffffffffffffffffffffffffffffffffffffffff021916908373ffffffffffffffffffffffffffffffffffffffff160217905550602082015181600101908051906020019061342292919061382f565b5060408201518160020190600661343a9291906138af565b506060820151816008019060026134529291906138ef565b50608082015181600a0155905050601860020160008154809291906001019190505550600191505b50919050565b613488613656565b600080600091505b60145482101561351057600090505b601454811015613503576018600301816006811015156134bb57fe5b015484836006811015156134cb57fe5b602002015114156134f6578260006002811015156134e557fe5b602002018051809190600101815250505b808060010191505061349f565b8180600101925050613490565b6018600301600560068110151561352357fe5b015484600560068110151561353457fe5b6020020151141561355f5782600160028110151561354e57fe5b602002018051809190600101815250505b8292505050919050565b828054600181600116156101000203166002900490600052602060002090601f016020900481019282601f106135aa57805160ff19168380011785556135d8565b828001600101855582156135d8579182015b828111156135d75782518255916020019190600101906135bc565b5b5090506135e5919061392f565b5090565b826006810192821561361d579160200282015b8281111561361c578251829060ff169055916020019190600101906135fc565b5b50905061362a919061392f565b5090565b60c0604051908101604052806006905b600081526020019060019003908161363e5790505090565b60408051908101604052806002905b60008152602001906001900390816136655790505090565b82600281019282156136ac579160200282015b828111156136ab578251825591602001919060010190613690565b5b5090506136b9919061392f565b5090565b602060405190810160405280600081525090565b610140604051908101604052806136e6613954565b8152602001600081526020016136fa613968565b81526020016000151581526020016000151581525090565b61016060405190810160405280600073ffffffffffffffffffffffffffffffffffffffff168152602001613744613954565b8152602001613751613968565b815260200161375e613990565b8152602001600081525090565b828054600181600116156101000203166002900490600052602060002090601f016020900481019282601f106137a457805485556137e1565b828001600101855582156137e157600052602060002091601f016020900482015b828111156137e05782548255916001019190600101906137c5565b5b5090506137ee919061392f565b5090565b826006810192821561381e579182015b8281111561381d578254825591600101919060010190613802565b5b50905061382b919061392f565b5090565b828054600181600116156101000203166002900490600052602060002090601f016020900481019282601f1061387057805160ff191683800117855561389e565b8280016001018555821561389e579182015b8281111561389d578251825591602001919060010190613882565b5b5090506138ab919061392f565b5090565b82600681019282156138de579160200282015b828111156138dd5782518255916020019190600101906138c2565b5b5090506138eb919061392f565b5090565b826002810192821561391e579160200282015b8281111561391d578251825591602001919060010190613902565b5b50905061392b919061392f565b5090565b61395191905b8082111561394d576000816000905550600101613935565b5090565b90565b602060405190810160405280600081525090565b60c0604051908101604052806006905b60008152602001906001900390816139785790505090565b60408051908101604052806002905b600081526020019060019003908161399f57905050905600a165627a7a72305820a7a855f0be212c58a6011a0066602daf72c374a95bc0fb8f1e2c5e7e3966750c0029",
  "source": "pragma solidity ^0.4.17;\r\n\r\nimport \"./DHFBaseCurrency.sol\";\r\n\r\ncontract LotteryPowerball is DHFBaseCurrency {\r\n\r\n    uint public jackPot = 0; //  \r\n    uint public regularPrize = 0; //   \r\n    uint public ticketPrice = 40; //  \r\n    uint public jackPotAssignment = 40; //    -   \r\n    uint public regularPrizeAssignment = 40; //     \r\n    uint public maxWhiteBallNumberInTicket = 69; //  ,     \r\n    uint public maxRedBallNumberInTicket = 26; //  ,     \r\n    uint public prizeCombinationSize = 6;//    \r\n    uint public maxBallsInTicket = 6;//    \r\n\r\n    uint8[5] public wonPercents = [2, 3, 5, 15, 75];//      3, 4  5     \r\n\r\n    uint public countWhiteBallsInTicket = 5;\r\n\r\n    uint public countRedBallsInTicket = 1;\r\n\r\n    uint32 public lastLotteryId = 0; //   \r\n    //  \r\n    struct PowerballTicket {\r\n    address owner; // \r\n    string time; //    \r\n    uint[6] balls; //   5  , 6   \r\n    uint[2] complianceLevel; //     ,  -   \r\n    uint money;//   \r\n    }\r\n\r\n    struct PowerballLottery {\r\n    string date; //   \r\n    mapping (uint => PowerballTicket) tickets; //   .\r\n    uint ticketsCount; //    \r\n    uint[6] prizeCombination; //     \r\n    bool active; //     \r\n    bool played; //  \r\n    }\r\n    //  \r\n    mapping (uint => PowerballLottery) public historyPowerballLotteries;\r\n    //  \r\n    PowerballLottery currentPowerballLottery;\r\n    //  \r\n    function LotteryPowerball() DHFBaseCurrency(10000, \"Lottery Powerball\", \"LP\") public {\r\n        startLottery();\r\n    }\r\n    //  \r\n    function startLottery() public onlyOwner {\r\n        ++lastLotteryId;\r\n        currentPowerballLottery.date = \"16.11.2017\";\r\n        currentPowerballLottery.ticketsCount = 0;\r\n        currentPowerballLottery.prizeCombination = [1, 22, 34, 47, 58, 1];\r\n        currentPowerballLottery.active = true;\r\n        currentPowerballLottery.played = false;\r\n    }\r\n    //  \r\n    function stopLottery() public onlyOwner {\r\n        currentPowerballLottery.active = false;\r\n        if (!calculatePrizes()) return;\r\n        currentPowerballLottery.played = true;\r\n        historyPowerballLotteries[lastLotteryId] = currentPowerballLottery;\r\n    }\r\n    //     \r\n    function isRunningLottery() public view returns (bool res) {\r\n        if(currentPowerballLottery.active && !currentPowerballLottery.played) {\r\n            return true;\r\n        }\r\n        return false;\r\n    }\r\n\r\n    //  ( )\r\n    function buyTicket(uint firstWhiteBall, uint secondWhiteBall, uint thirdWhiteBall, uint fourthWhiteBall, uint fiveWhiteBall, uint redBall) public returns (bool res) {\r\n        uint[6] memory balls;\r\n        balls[0] = firstWhiteBall;\r\n        balls[1] = secondWhiteBall;\r\n        balls[2] = thirdWhiteBall;\r\n        balls[3] = fourthWhiteBall;\r\n        balls[4] = fiveWhiteBall;\r\n        balls[5] = redBall;\r\n        return buyTicket(balls);\r\n    }\r\n\r\n    //  \r\n    function buyTicket(uint[6] ballsInTicket) private returns (bool res) {\r\n        if (!isRunningLottery()) return false;\r\n        if (!validationBallsInTicket(ballsInTicket)) return false;\r\n\r\n        PowerballTicket memory newTicket;\r\n        newTicket.owner = msg.sender;\r\n        newTicket.time = \"06.11.2017\";\r\n        newTicket.balls = ballsInTicket;\r\n\r\n        if (balanceOf[msg.sender] < ticketPrice) return false;\r\n        balanceOf[msg.sender] -= ticketPrice;\r\n        jackPot += (ticketPrice * jackPotAssignment) / 100;\r\n        regularPrize += (ticketPrice * regularPrizeAssignment) / 100;\r\n\r\n        currentPowerballLottery.tickets[currentPowerballLottery.ticketsCount] = newTicket;\r\n        currentPowerballLottery.ticketsCount++;\r\n\r\n        return true;\r\n    }\r\n\r\n    //    \r\n    function validationBallsInTicket(uint[6] ballsInTicket) public view returns (bool) {\r\n\r\n        for (uint i = 0; i < countWhiteBallsInTicket; i++) {\r\n            if (ballsInTicket[i] > maxWhiteBallNumberInTicket || ballsInTicket[i] == 0) return false;\r\n        }\r\n        if (ballsInTicket[5] > maxRedBallNumberInTicket || ballsInTicket[5] == 0) return false;\r\n        return true;\r\n    }\r\n\r\n    //       \r\n    function getTicketComplianceLevel(uint[6] ballsInTicket) internal constant returns (uint[2] complianceLevel)\r\n    {\r\n        for (uint i = 0; i < countWhiteBallsInTicket; i++)\r\n        {\r\n            for (uint j = 0; j < countWhiteBallsInTicket; j++)\r\n            {\r\n                if (ballsInTicket[i] == currentPowerballLottery.prizeCombination[j]) complianceLevel[0]++;\r\n            }\r\n        }\r\n        if (ballsInTicket[5] == currentPowerballLottery.prizeCombination[5]) complianceLevel[1]++;\r\n        return complianceLevel;\r\n    }\r\n\r\n    //  \r\n    function calculatePrizes() public onlyOwner returns (bool)\r\n    {\r\n        if (isRunningLottery()) return false;\r\n        //   \r\n\r\n        uint redOrRedPlusWhite; //     + \r\n        uint anyThreeBalls; //  3 \r\n        uint anyFourBalls; //  4 \r\n        uint fourWhiteAndRed; // 4  + \r\n        uint onlyWhiteBalls; // 5 \r\n        uint jackPotBalls; // 5 + 1\r\n\r\n        uint regularLotteryCountedPrize;//    \r\n        uint jackPotCountedPrize;//   -\r\n\r\n        uint[2] memory ticketComplianceLevel;\r\n\r\n        for (uint i = 0; i < currentPowerballLottery.ticketsCount; i++)\r\n        {\r\n            ticketComplianceLevel = getTicketComplianceLevel(currentPowerballLottery.tickets[i].balls);\r\n            currentPowerballLottery.tickets[i].complianceLevel = ticketComplianceLevel;\r\n\r\n            if (ticketComplianceLevel[1] == 1 && (ticketComplianceLevel[0] == 0 || ticketComplianceLevel[0] == 1)) redOrRedPlusWhite++;\r\n            if (ticketComplianceLevel[0] + ticketComplianceLevel[1] == 3) anyThreeBalls++;\r\n            if (ticketComplianceLevel[0] + ticketComplianceLevel[1] == 4) anyFourBalls++;\r\n            if (ticketComplianceLevel[1] == 1 && ticketComplianceLevel[0] == 4) fourWhiteAndRed++;\r\n            if (ticketComplianceLevel[1] == 0 && ticketComplianceLevel[0] == 5) onlyWhiteBalls++;\r\n            if (ticketComplianceLevel[1] == 1 && ticketComplianceLevel[0] == 5) jackPotBalls++;\r\n        }\r\n\r\n        for (i = 0; i < currentPowerballLottery.ticketsCount; i++)\r\n        {\r\n            if (ticketComplianceLevel[1] == 1 && (ticketComplianceLevel[0] == 0 || ticketComplianceLevel[0] == 1))\r\n            currentPowerballLottery.tickets[i].money = regularPrize * (wonPercents[0]) / (redOrRedPlusWhite * 100);\r\n            if (ticketComplianceLevel[0] + ticketComplianceLevel[1] == 3)\r\n            currentPowerballLottery.tickets[i].money = regularPrize * (wonPercents[1]) / (anyThreeBalls * 100);\r\n            if (ticketComplianceLevel[0] + ticketComplianceLevel[1] == 4)\r\n            currentPowerballLottery.tickets[i].money = regularPrize * (wonPercents[2]) / (anyFourBalls * 100);\r\n            if (ticketComplianceLevel[1] == 1 && ticketComplianceLevel[0] == 4)\r\n            currentPowerballLottery.tickets[i].money = regularPrize * (wonPercents[3]) / (fourWhiteAndRed * 100);\r\n            if (ticketComplianceLevel[1] == 0 && ticketComplianceLevel[0] == 5)\r\n            currentPowerballLottery.tickets[i].money = regularPrize * (wonPercents[4]) / (onlyWhiteBalls * 100);\r\n            if (ticketComplianceLevel[1] == 1 && ticketComplianceLevel[0] == 5)\r\n            currentPowerballLottery.tickets[i].money = jackPot / jackPotBalls;\r\n\r\n            if(ticketComplianceLevel[0] + ticketComplianceLevel[1] < 6) regularLotteryCountedPrize += currentPowerballLottery.tickets[i].money; //   ,       \r\n            if(ticketComplianceLevel[0] + ticketComplianceLevel[1] == 6) jackPotCountedPrize += currentPowerballLottery.tickets[i].money; //   ,       \r\n            balanceOf[currentPowerballLottery.tickets[i].owner] += currentPowerballLottery.tickets[i].money;//      \r\n        }\r\n\r\n        regularPrize -= regularLotteryCountedPrize;//    \r\n        jackPot -= jackPotCountedPrize;//    \r\n        return true;\r\n    }\r\n\r\n    //    \r\n    function getTicket(uint lotteryId, uint ticketId) public view returns (address owner, string time, uint[6] balls, uint money) {\r\n        PowerballTicket memory ticket;\r\n        if (lotteryId == lastLotteryId){\r\n            ticket = currentPowerballLottery.tickets[ticketId];\r\n        } else {\r\n            ticket = historyPowerballLotteries[lotteryId].tickets[ticketId];\r\n        }\r\n        return (ticket.owner, ticket.time, ticket.balls, ticket.money);\r\n    }\r\n\r\n    //    \r\n    function getLottery(uint lotteryId) public view returns (string date, uint ticketsCount, uint[6] prizeCombination ) {\r\n        PowerballLottery memory lottery;\r\n        if (lotteryId == lastLotteryId){\r\n            lottery = currentPowerballLottery;\r\n        } else {\r\n            lottery = historyPowerballLotteries[lotteryId];\r\n        }\r\n        return (lottery.date, lottery.ticketsCount, lottery.prizeCombination);\r\n    }\r\n}",
  "sourcePath": "D:\\Digital Heritage Fund\\\\    \\Lottery\\contracts\\LotteryPowerball.sol",
  "compiler": {
    "name": "solc",
    "version": "0.4.18+commit.9cf6e910.Emscripten.clang"
  },
  "schemaVersion": "1.0.1",
  "updatedAt": "2017-11-23T14:31:04.426Z"
}