{
  "contractName": "LotteryPowerball",
  "abi": [
    {
      "constant": false,
      "inputs": [
        {
          "name": "newSellPrice",
          "type": "uint256"
        },
        {
          "name": "newBuyPrice",
          "type": "uint256"
        }
      ],
      "name": "setPrices",
      "outputs": [],
      "payable": false,
      "stateMutability": "nonpayable",
      "type": "function"
    },
    {
      "constant": true,
      "inputs": [],
      "name": "name",
      "outputs": [
        {
          "name": "",
          "type": "string"
        }
      ],
      "payable": false,
      "stateMutability": "view",
      "type": "function"
    },
    {
      "constant": false,
      "inputs": [
        {
          "name": "_spender",
          "type": "address"
        },
        {
          "name": "_value",
          "type": "uint256"
        }
      ],
      "name": "approve",
      "outputs": [
        {
          "name": "success",
          "type": "bool"
        }
      ],
      "payable": false,
      "stateMutability": "nonpayable",
      "type": "function"
    },
    {
      "constant": true,
      "inputs": [],
      "name": "ticketPrice",
      "outputs": [
        {
          "name": "",
          "type": "uint256"
        }
      ],
      "payable": false,
      "stateMutability": "view",
      "type": "function"
    },
    {
      "constant": true,
      "inputs": [],
      "name": "totalSupply",
      "outputs": [
        {
          "name": "",
          "type": "uint256"
        }
      ],
      "payable": false,
      "stateMutability": "view",
      "type": "function"
    },
    {
      "constant": true,
      "inputs": [
        {
          "name": "_from",
          "type": "address"
        },
        {
          "name": "_to",
          "type": "address"
        },
        {
          "name": "_value",
          "type": "uint256"
        }
      ],
      "name": "countRedBallsInTicket",
      "outputs": [
        {
          "name": "",
          "type": "uint256"
        }
      ],
      "payable": false,
      "stateMutability": "view",
      "type": "function"
    },
    {
      "constant": false,
      "inputs": [
        {
          "name": "_from",
          "type": "address"
        },
        {
          "name": "_to",
          "type": "address"
        },
        {
          "name": "_value",
          "type": "uint256"
        }
      ],
      "name": "transferFrom",
      "outputs": [
        {
          "name": "success",
          "type": "bool"
        }
      ],
      "payable": false,
      "stateMutability": "nonpayable",
      "type": "function"
    },
    {
      "constant": true,
      "inputs": [],
      "name": "maxRedBallNumberInTicket",
      "outputs": [
        {
          "name": "",
          "type": "uint256"
        }
      ],
      "payable": false,
      "stateMutability": "view",
      "type": "function"
    },
    {
      "constant": false,
      "inputs": [
        {
          "name": "firstWhiteBall",
          "type": "uint256"
        },
        {
          "name": "secondWhiteBall",
          "type": "uint256"
        },
        {
          "name": "thirdWhiteBall",
          "type": "uint256"
        },
        {
          "name": "fourthWhiteBall",
          "type": "uint256"
        },
        {
          "name": "fiveWhiteBall",
          "type": "uint256"
        },
        {
          "name": "redBall",
          "type": "uint256"
        }
      ],
      "name": "buyTicket",
      "outputs": [
        {
          "name": "res",
          "type": "bool"
        }
      ],
      "payable": false,
      "stateMutability": "nonpayable",
      "type": "function"
    },
    {
      "constant": true,
      "inputs": [
        {
          "name": "_value",
          "type": "uint256"
        }
      ],
      "name": "decimals",
      "outputs": [
        {
          "name": "",
          "type": "uint8"
        }
      ],
      "payable": false,
      "stateMutability": "view",
      "type": "function"
    },
    {
      "constant": true,
      "inputs": [
        {
          "name": "",
          "type": "uint256"
        }
      ],
      "name": "regularPrizeAssignment",
      "outputs": [
        {
          "name": "",
          "type": "uint256"
        },
        {
          "name": "ticketsCount",
          "type": "uint256"
        }
      ],
      "payable": false,
      "stateMutability": "view",
      "type": "function"
    },
    {
      "constant": false,
      "inputs": [
        {
          "name": "_value",
          "type": "uint256"
        }
      ],
      "name": "burn",
      "outputs": [
        {
          "name": "success",
          "type": "bool"
        }
      ],
      "payable": false,
      "stateMutability": "nonpayable",
      "type": "function"
    },
    {
      "constant": true,
      "inputs": [
        {
          "name": "",
          "type": "uint256"
        }
      ],
      "name": "historyPowerballLotteries",
      "outputs": [
        {
          "name": "date",
          "type": "string"
        },
        {
          "name": "ticketsCount",
          "type": "uint256"
        }
      ],
      "payable": false,
      "stateMutability": "view",
      "type": "function"
    },
    {
      "constant": true,
      "inputs": [],
      "name": "jackPot",
      "outputs": [
        {
          "name": "",
          "type": "uint256"
        }
      ],
      "payable": false,
      "stateMutability": "view",
      "type": "function"
    },
    {
      "constant": true,
      "inputs": [],
      "name": "sellPrice",
      "outputs": [
        {
          "name": "",
          "type": "uint256"
        }
      ],
      "payable": false,
      "stateMutability": "view",
      "type": "function"
    },
    {
      "constant": true,
      "inputs": [],
      "name": "lastLotteryId",
      "outputs": [
        {
          "name": "",
          "type": "uint32"
        }
      ],
      "payable": false,
      "stateMutability": "view",
      "type": "function"
    },
    {
      "constant": true,
      "inputs": [
        {
          "name": "ballsInTicket",
          "type": "uint256[6]"
        },
        {
          "name": "secondWhiteBall",
          "type": "uint8"
        },
        {
          "name": "thirdWhiteBall",
          "type": "uint8"
        },
        {
          "name": "fourWhiteBall",
          "type": "uint8"
        },
        {
          "name": "fiveWhiteBall",
          "type": "uint8"
        },
        {
          "name": "redBall",
          "type": "uint8"
        }
      ],
      "name": "validationBallsInTicket",
      "outputs": [
        {
          "name": "",
          "type": "bool"
        }
      ],
      "payable": false,
      "stateMutability": "view",
      "type": "function"
    },
    {
      "constant": true,
      "inputs": [
        {
          "name": "",
          "type": "address"
        }
      ],
      "name": "isRunningLottery",
      "outputs": [
        {
          "name": "res",
          "type": "bool"
        }
      ],
      "payable": false,
      "stateMutability": "view",
      "type": "function"
    },
    {
      "constant": true,
      "inputs": [],
      "name": "regularPrize",
      "outputs": [
        {
          "name": "",
          "type": "uint256"
        }
      ],
      "payable": false,
      "stateMutability": "view",
      "type": "function"
    },
    {
      "constant": true,
      "inputs": [
        {
          "name": "",
          "type": "address"
        },
        {
          "name": "mintedAmount",
          "type": "uint256"
        }
      ],
      "name": "balanceOf",
      "outputs": [
        {
          "name": "",
          "type": "uint256"
        }
      ],
      "payable": false,
      "stateMutability": "view",
      "type": "function"
    },
    {
      "constant": true,
      "inputs": [
        {
          "name": "_from",
          "type": "address"
        },
        {
          "name": "_value",
          "type": "uint256"
        }
      ],
      "name": "prizeCombinationSize",
      "outputs": [
        {
          "name": "",
          "type": "uint256"
        }
      ],
      "payable": false,
      "stateMutability": "view",
      "type": "function"
    },
    {
      "constant": false,
      "inputs": [
        {
          "name": "target",
          "type": "address"
        },
        {
          "name": "mintedAmount",
          "type": "uint256"
        }
      ],
      "name": "mintToken",
      "outputs": [
        {
          "name": "",
          "type": "uint256"
        }
      ],
      "payable": false,
      "stateMutability": "nonpayable",
      "type": "function"
    },
    {
      "constant": false,
      "inputs": [
        {
          "name": "_from",
          "type": "address"
        },
        {
          "name": "_value",
          "type": "uint256"
        }
      ],
      "name": "burnFrom",
      "outputs": [
        {
          "name": "success",
          "type": "bool"
        }
      ],
      "payable": false,
      "stateMutability": "nonpayable",
      "type": "function"
    },
    {
      "constant": true,
      "inputs": [],
      "name": "buyPrice",
      "outputs": [
        {
          "name": "",
          "type": "uint256"
        }
      ],
      "payable": false,
      "stateMutability": "view",
      "type": "function"
    },
    {
      "constant": true,
      "inputs": [],
      "name": "owner",
      "outputs": [
        {
          "name": "",
          "type": "address"
        }
      ],
      "payable": false,
      "stateMutability": "view",
      "type": "function"
    },
    {
      "constant": true,
      "inputs": [
        {
          "name": "_to",
          "type": "address"
        },
        {
          "name": "_value",
          "type": "uint256"
        }
      ],
      "name": "symbol",
      "outputs": [
        {
          "name": "",
          "type": "string"
        }
      ],
      "payable": false,
      "stateMutability": "view",
      "type": "function"
    },
    {
      "constant": true,
      "inputs": [
        {
          "name": "",
          "type": "address"
        }
      ],
      "name": "countWhiteBallsInTicket",
      "outputs": [
        {
          "name": "",
          "type": "uint256"
        }
      ],
      "payable": false,
      "stateMutability": "view",
      "type": "function"
    },
    {
      "constant": false,
      "inputs": [],
      "name": "buy",
      "outputs": [
        {
          "name": "",
          "type": "uint8"
        }
      ],
      "payable": true,
      "stateMutability": "payable",
      "type": "function"
    },
    {
      "constant": false,
      "inputs": [
        {
          "name": "_to",
          "type": "address"
        },
        {
          "name": "_value",
          "type": "uint256"
        }
      ],
      "name": "transfer",
      "outputs": [
        {
          "name": "",
          "type": "uint8"
        }
      ],
      "payable": false,
      "stateMutability": "nonpayable",
      "type": "function"
    },
    {
      "constant": true,
      "inputs": [
        {
          "name": "",
          "type": "address"
        },
        {
          "name": "_value",
          "type": "uint256"
        },
        {
          "name": "_extraData",
          "type": "bytes"
        }
      ],
      "name": "frozenAccount",
      "outputs": [
        {
          "name": "",
          "type": "bool"
        }
      ],
      "payable": false,
      "stateMutability": "view",
      "type": "function"
    },
    {
      "constant": true,
      "inputs": [
        {
          "name": "",
          "type": "address"
        },
        {
          "name": "",
          "type": "address"
        }
      ],
      "name": "maxWhiteBallNumberInTicket",
      "outputs": [
        {
          "name": "",
          "type": "uint256"
        }
      ],
      "payable": false,
      "stateMutability": "view",
      "type": "function"
    },
    {
      "constant": true,
      "inputs": [
        {
          "name": "amount",
          "type": "uint256"
        }
      ],
      "name": "maxBallsInTicket",
      "outputs": [
        {
          "name": "",
          "type": "uint256"
        }
      ],
      "payable": false,
      "stateMutability": "view",
      "type": "function"
    },
    {
      "constant": false,
      "inputs": [
        {
          "name": "_spender",
          "type": "address"
        },
        {
          "name": "_value",
          "type": "uint256"
        },
        {
          "name": "_extraData",
          "type": "bytes"
        }
      ],
      "name": "approveAndCall",
      "outputs": [
        {
          "name": "success",
          "type": "bool"
        }
      ],
      "payable": false,
      "stateMutability": "nonpayable",
      "type": "function"
    },
    {
      "constant": true,
      "inputs": [
        {
          "name": "",
          "type": "address"
        },
        {
          "name": "",
          "type": "address"
        }
      ],
      "name": "allowance",
      "outputs": [
        {
          "name": "",
          "type": "uint256"
        }
      ],
      "payable": false,
      "stateMutability": "view",
      "type": "function"
    },
    {
      "constant": false,
      "inputs": [
        {
          "name": "amount",
          "type": "uint256"
        }
      ],
      "name": "sell",
      "outputs": [
        {
          "name": "",
          "type": "uint256"
        }
      ],
      "payable": false,
      "stateMutability": "nonpayable",
      "type": "function"
    },
    {
      "inputs": [
        {
          "name": "target",
          "type": "address"
        },
        {
          "name": "freeze",
          "type": "bool"
        }
      ],
      "payable": false,
      "stateMutability": "nonpayable",
      "type": "function",
      "constant": false,
      "name": "freezeAccount",
      "outputs": []
    },
    {
      "anonymous": false,
      "inputs": [
        {
          "indexed": false,
          "name": "newOwner",
          "type": "address"
        },
        {
          "indexed": false,
          "name": "frozen",
          "type": "bool"
        }
      ],
      "name": "transferOwnership",
      "type": "function",
      "constant": false,
      "outputs": [],
      "payable": false,
      "stateMutability": "nonpayable"
    },
    {
      "anonymous": false,
      "inputs": [
        {
          "indexed": true,
          "name": "from",
          "type": "address"
        },
        {
          "indexed": true,
          "name": "to",
          "type": "address"
        },
        {
          "indexed": false,
          "name": "value",
          "type": "uint256"
        }
      ],
      "name": "jackPotAssignment",
      "type": "function",
      "constant": true,
      "outputs": [
        {
          "name": "",
          "type": "uint256"
        }
      ],
      "payable": false,
      "stateMutability": "view"
    },
    {
      "anonymous": false,
      "inputs": [
        {
          "indexed": true,
          "name": "from",
          "type": "address"
        },
        {
          "indexed": false,
          "name": "value",
          "type": "uint256"
        }
      ],
      "name": "Burn",
      "type": "constructor",
      "payable": false,
      "stateMutability": "nonpayable"
    },
    {
      "anonymous": false,
      "inputs": [
        {
          "indexed": false,
          "name": "target",
          "type": "address"
        },
        {
          "indexed": false,
          "name": "frozen",
          "type": "bool"
        }
      ],
      "name": "FrozenFunds",
      "type": "event"
    },
    {
      "anonymous": false,
      "inputs": [
        {
          "indexed": true,
          "name": "from",
          "type": "address"
        },
        {
          "indexed": true,
          "name": "to",
          "type": "address"
        },
        {
          "indexed": false,
          "name": "value",
          "type": "uint256"
        }
      ],
      "name": "Transfer",
      "type": "event"
    },
    {
      "anonymous": false,
      "inputs": [
        {
          "indexed": true,
          "name": "from",
          "type": "address"
        },
        {
          "indexed": false,
          "name": "value",
          "type": "uint256"
        }
      ],
      "name": "Burn",
      "type": "event"
    }
  ],
  "bytecode": "0x60606040526012600360006101000a81548160ff021916908360ff1602179055506000600a60006101000a81548160ff0219169083151502179055506000600b556000600c556028600d556028600e556028600f556045601055601a60115560066012556006601355600560145560016015556000601660006101000a81548163ffffffff021916908363ffffffff1602179055503415620000a057600080fd5b6127106040805190810160405280601181526020017f4c6f747465727920506f77657262616c6c0000000000000000000000000000008152506040805190810160405280600281526020017f4c50000000000000000000000000000000000000000000000000000000000000815250828282336000806101000a81548173ffffffffffffffffffffffffffffffffffffffff021916908373ffffffffffffffffffffffffffffffffffffffff160217905550600360009054906101000a900460ff1660ff16600a0a8302600481905550600454600560003373ffffffffffffffffffffffffffffffffffffffff1673ffffffffffffffffffffffffffffffffffffffff168152602001908152602001600020819055508160019080519060200190620001ce92919062000379565b508060029080519060200190620001e792919062000379565b505050505050506200020c6200021264010000000002620021c8176401000000009004565b62000472565b6000809054906101000a900473ffffffffffffffffffffffffffffffffffffffff1673ffffffffffffffffffffffffffffffffffffffff163373ffffffffffffffffffffffffffffffffffffffff161415156200026e57600080fd5b6001600a60006101000a81548160ff0219169083151502179055506016600081819054906101000a900463ffffffff1660010191906101000a81548163ffffffff021916908363ffffffff1602179055506040805190810160405280600a81526020017f31362e31312e3230313700000000000000000000000000000000000000000000815250601860000190805190602001906200030f92919062000379565b50600060186002018190555060c060405190810160405280600160ff168152602001601660ff168152602001602260ff168152602001602f60ff168152602001603a60ff168152602001600160ff1681525060186003019060066200037692919062000400565b50565b828054600181600116156101000203166002900490600052602060002090601f016020900481019282601f10620003bc57805160ff1916838001178555620003ed565b82800160010185558215620003ed579182015b82811115620003ec578251825591602001919060010190620003cf565b5b509050620003fc91906200044a565b5090565b826006810192821562000437579160200282015b8281111562000436578251829060ff1690559160200191906001019062000414565b5b5090506200044691906200044a565b5090565b6200046f91905b808211156200046b57600081600090555060010162000451565b5090565b90565b61241b80620004826000396000f3006060604052600436106101d8576000357c0100000000000000000000000000000000000000000000000000000000900463ffffffff16806305fefda7146101dd57806306fdde0314610209578063095ea7b3146102975780631209b1f6146102f157806318160ddd1461031a5780631f5bfd091461034357806323b872dd1461036c57806327b2ab05146103e557806330cf699b1461040e578063313ce56714610476578063343679c4146104a557806342966c68146104ce57806348b1f1fb146105095780634a78cdba146105c95780634b750334146105f25780634e3fb85d1461061b5780635a0ab294146106505780635ba92403146106ae5780635be01e45146106db57806370a08231146107045780637815eafa1461075157806379c650681461077a57806379cc6790146107bc5780638620410b146108165780638da5cb5b1461083f57806395d89b41146108945780639c9a31aa14610922578063a6f2ae3a1461094b578063a9059cbb14610955578063b414d4b614610997578063b64e0ebd146109e8578063c54bb40714610a11578063cae9ca5114610a3a578063dd62ed3e14610ad7578063e4849b3214610b43578063e724529c14610b66578063f2fde38b14610baa578063f77400e514610be3575b600080fd5b34156101e857600080fd5b6102076004808035906020019091908035906020019091905050610c0c565b005b341561021457600080fd5b61021c610c79565b6040518080602001828103825283818151815260200191508051906020019080838360005b8381101561025c578082015181840152602081019050610241565b50505050905090810190601f1680156102895780820380516001836020036101000a031916815260200191505b509250505060405180910390f35b34156102a257600080fd5b6102d7600480803573ffffffffffffffffffffffffffffffffffffffff16906020019091908035906020019091905050610d17565b604051808215151515815260200191505060405180910390f35b34156102fc57600080fd5b610304610da4565b6040518082815260200191505060405180910390f35b341561032557600080fd5b61032d610daa565b6040518082815260200191505060405180910390f35b341561034e57600080fd5b610356610db0565b6040518082815260200191505060405180910390f35b341561037757600080fd5b6103cb600480803573ffffffffffffffffffffffffffffffffffffffff1690602001909190803573ffffffffffffffffffffffffffffffffffffffff16906020019091908035906020019091905050610db6565b604051808215151515815260200191505060405180910390f35b34156103f057600080fd5b6103f8610ee3565b6040518082815260200191505060405180910390f35b341561041957600080fd5b61045c6004808035906020019091908035906020019091908035906020019091908035906020019091908035906020019091908035906020019091905050610ee9565b604051808215151515815260200191505060405180910390f35b341561048157600080fd5b610489610f9f565b604051808260ff1660ff16815260200191505060405180910390f35b34156104b057600080fd5b6104b8610fb2565b6040518082815260200191505060405180910390f35b34156104d957600080fd5b6104ef6004808035906020019091905050610fb8565b604051808215151515815260200191505060405180910390f35b341561051457600080fd5b61052a60048080359060200190919050506110bc565b60405180806020018381526020018281038252848181546001816001161561010002031660029004815260200191508054600181600116156101000203166002900480156105b95780601f1061058e576101008083540402835291602001916105b9565b820191906000526020600020905b81548152906001019060200180831161059c57829003601f168201915b5050935050505060405180910390f35b34156105d457600080fd5b6105dc6110df565b6040518082815260200191505060405180910390f35b34156105fd57600080fd5b6106056110e5565b6040518082815260200191505060405180910390f35b341561062657600080fd5b61062e6110eb565b604051808263ffffffff1663ffffffff16815260200191505060405180910390f35b341561065b57600080fd5b6106946004808060c001906006806020026040519081016040528092919082600660200280828437820191505050505091905050611101565b604051808215151515815260200191505060405180910390f35b34156106b957600080fd5b6106c16111b1565b604051808215151515815260200191505060405180910390f35b34156106e657600080fd5b6106ee6111d5565b6040518082815260200191505060405180910390f35b341561070f57600080fd5b61073b600480803573ffffffffffffffffffffffffffffffffffffffff169060200190919050506111db565b6040518082815260200191505060405180910390f35b341561075c57600080fd5b6107646111f3565b6040518082815260200191505060405180910390f35b341561078557600080fd5b6107ba600480803573ffffffffffffffffffffffffffffffffffffffff169060200190919080359060200190919050506111f9565b005b34156107c757600080fd5b6107fc600480803573ffffffffffffffffffffffffffffffffffffffff1690602001909190803590602001909190505061136a565b604051808215151515815260200191505060405180910390f35b341561082157600080fd5b610829611584565b6040518082815260200191505060405180910390f35b341561084a57600080fd5b61085261158a565b604051808273ffffffffffffffffffffffffffffffffffffffff1673ffffffffffffffffffffffffffffffffffffffff16815260200191505060405180910390f35b341561089f57600080fd5b6108a76115af565b6040518080602001828103825283818151815260200191508051906020019080838360005b838110156108e75780820151818401526020810190506108cc565b50505050905090810190601f1680156109145780820380516001836020036101000a031916815260200191505b509250505060405180910390f35b341561092d57600080fd5b61093561164d565b6040518082815260200191505060405180910390f35b610953611653565b005b341561096057600080fd5b610995600480803573ffffffffffffffffffffffffffffffffffffffff16906020019091908035906020019091905050611673565b005b34156109a257600080fd5b6109ce600480803573ffffffffffffffffffffffffffffffffffffffff16906020019091905050611682565b604051808215151515815260200191505060405180910390f35b34156109f357600080fd5b6109fb6116a2565b6040518082815260200191505060405180910390f35b3415610a1c57600080fd5b610a246116a8565b6040518082815260200191505060405180910390f35b3415610a4557600080fd5b610abd600480803573ffffffffffffffffffffffffffffffffffffffff1690602001909190803590602001909190803590602001908201803590602001908080601f016020809104026020016040519081016040528093929190818152602001838380828437820191505050505050919050506116ae565b604051808215151515815260200191505060405180910390f35b3415610ae257600080fd5b610b2d600480803573ffffffffffffffffffffffffffffffffffffffff1690602001909190803573ffffffffffffffffffffffffffffffffffffffff1690602001909190505061182c565b6040518082815260200191505060405180910390f35b3415610b4e57600080fd5b610b646004808035906020019091905050611851565b005b3415610b7157600080fd5b610ba8600480803573ffffffffffffffffffffffffffffffffffffffff1690602001909190803515159060200190919050506118cd565b005b3415610bb557600080fd5b610be1600480803573ffffffffffffffffffffffffffffffffffffffff169060200190919050506119f2565b005b3415610bee57600080fd5b610bf6611a90565b6040518082815260200191505060405180910390f35b6000809054906101000a900473ffffffffffffffffffffffffffffffffffffffff1673ffffffffffffffffffffffffffffffffffffffff163373ffffffffffffffffffffffffffffffffffffffff16141515610c6757600080fd5b81600781905550806008819055505050565b60018054600181600116156101000203166002900480601f016020809104026020016040519081016040528092919081815260200182805460018160011615610100020316600290048015610d0f5780601f10610ce457610100808354040283529160200191610d0f565b820191906000526020600020905b815481529060010190602001808311610cf257829003601f168201915b505050505081565b600081600660003373ffffffffffffffffffffffffffffffffffffffff1673ffffffffffffffffffffffffffffffffffffffff16815260200190815260200160002060008573ffffffffffffffffffffffffffffffffffffffff1673ffffffffffffffffffffffffffffffffffffffff168152602001908152602001600020819055506001905092915050565b600d5481565b60045481565b60155481565b6000600660008573ffffffffffffffffffffffffffffffffffffffff1673ffffffffffffffffffffffffffffffffffffffff16815260200190815260200160002060003373ffffffffffffffffffffffffffffffffffffffff1673ffffffffffffffffffffffffffffffffffffffff168152602001908152602001600020548211151515610e4357600080fd5b81600660008673ffffffffffffffffffffffffffffffffffffffff1673ffffffffffffffffffffffffffffffffffffffff16815260200190815260200160002060003373ffffffffffffffffffffffffffffffffffffffff1673ffffffffffffffffffffffffffffffffffffffff16815260200190815260200160002060008282540392505081905550610ed8848484611a96565b600190509392505050565b60115481565b6000610ef3611fbf565b87816000600681101515610f0357fe5b60200201818152505086816001600681101515610f1c57fe5b60200201818152505085816002600681101515610f3557fe5b60200201818152505084816003600681101515610f4e57fe5b60200201818152505083816004600681101515610f6757fe5b60200201818152505082816005600681101515610f8057fe5b602002018181525050610f9281611d4d565b9150509695505050505050565b600360009054906101000a900460ff1681565b600f5481565b600081600560003373ffffffffffffffffffffffffffffffffffffffff1673ffffffffffffffffffffffffffffffffffffffff168152602001908152602001600020541015151561100857600080fd5b81600560003373ffffffffffffffffffffffffffffffffffffffff1673ffffffffffffffffffffffffffffffffffffffff16815260200190815260200160002060008282540392505081905550816004600082825403925050819055503373ffffffffffffffffffffffffffffffffffffffff167fcc16f5dbb4873280815c1ee09dbd06736cffcc184412cf7a71a0fdb75d397ca5836040518082815260200191505060405180910390a260019050919050565b601760205280600052604060002060009150905080600001908060020154905082565b600b5481565b60075481565b601660009054906101000a900463ffffffff1681565b600080600090505b60145481101561116257601054838260068110151561112457fe5b6020020151118061114757506000838260068110151561114057fe5b6020020151145b1561115557600091506111ab565b8080600101915050611109565b60115483600560068110151561117457fe5b602002015111806111985750600083600560068110151561119157fe5b6020020151145b156111a657600091506111ab565b600191505b50919050565b6000600a60009054906101000a900460ff1615156111ce57600080fd5b6001905090565b600c5481565b60056020528060005260406000206000915090505481565b60125481565b6000809054906101000a900473ffffffffffffffffffffffffffffffffffffffff1673ffffffffffffffffffffffffffffffffffffffff163373ffffffffffffffffffffffffffffffffffffffff1614151561125457600080fd5b80600560008473ffffffffffffffffffffffffffffffffffffffff1673ffffffffffffffffffffffffffffffffffffffff16815260200190815260200160002060008282540192505081905550806004600082825401925050819055503073ffffffffffffffffffffffffffffffffffffffff1660007fddf252ad1be2c89b69c2b068fc378daa952ba7f163c4a11628f55a4df523b3ef836040518082815260200191505060405180910390a38173ffffffffffffffffffffffffffffffffffffffff163073ffffffffffffffffffffffffffffffffffffffff167fddf252ad1be2c89b69c2b068fc378daa952ba7f163c4a11628f55a4df523b3ef836040518082815260200191505060405180910390a35050565b600081600560008573ffffffffffffffffffffffffffffffffffffffff1673ffffffffffffffffffffffffffffffffffffffff16815260200190815260200160002054101515156113ba57600080fd5b600660008473ffffffffffffffffffffffffffffffffffffffff1673ffffffffffffffffffffffffffffffffffffffff16815260200190815260200160002060003373ffffffffffffffffffffffffffffffffffffffff1673ffffffffffffffffffffffffffffffffffffffff16815260200190815260200160002054821115151561144557600080fd5b81600560008573ffffffffffffffffffffffffffffffffffffffff1673ffffffffffffffffffffffffffffffffffffffff1681526020019081526020016000206000828254039250508190555081600660008573ffffffffffffffffffffffffffffffffffffffff1673ffffffffffffffffffffffffffffffffffffffff16815260200190815260200160002060003373ffffffffffffffffffffffffffffffffffffffff1673ffffffffffffffffffffffffffffffffffffffff16815260200190815260200160002060008282540392505081905550816004600082825403925050819055508273ffffffffffffffffffffffffffffffffffffffff167fcc16f5dbb4873280815c1ee09dbd06736cffcc184412cf7a71a0fdb75d397ca5836040518082815260200191505060405180910390a26001905092915050565b60085481565b6000809054906101000a900473ffffffffffffffffffffffffffffffffffffffff1681565b60028054600181600116156101000203166002900480601f0160208091040260200160405190810160405280929190818152602001828054600181600116156101000203166002900480156116455780601f1061161a57610100808354040283529160200191611645565b820191906000526020600020905b81548152906001019060200180831161162857829003601f168201915b505050505081565b60145481565b60006008543481151561166257fe5b049050611670303383611a96565b50565b61167e338383611a96565b5050565b60096020528060005260406000206000915054906101000a900460ff1681565b60105481565b60135481565b6000808490506116be8585610d17565b15611823578073ffffffffffffffffffffffffffffffffffffffff16638f4ffcb1338630876040518563ffffffff167c0100000000000000000000000000000000000000000000000000000000028152600401808573ffffffffffffffffffffffffffffffffffffffff1673ffffffffffffffffffffffffffffffffffffffff1681526020018481526020018373ffffffffffffffffffffffffffffffffffffffff1673ffffffffffffffffffffffffffffffffffffffff16815260200180602001828103825283818151815260200191508051906020019080838360005b838110156117b857808201518184015260208101905061179d565b50505050905090810190601f1680156117e55780820380516001836020036101000a031916815260200191505b5095505050505050600060405180830381600087803b151561180657600080fd5b6102c65a03f1151561181757600080fd5b50505060019150611824565b5b509392505050565b6006602052816000526040600020602052806000526040600020600091509150505481565b60075481023073ffffffffffffffffffffffffffffffffffffffff16311015151561187b57600080fd5b611886333083611a96565b3373ffffffffffffffffffffffffffffffffffffffff166108fc60075483029081150290604051600060405180830381858888f1935050505015156118ca57600080fd5b50565b6000809054906101000a900473ffffffffffffffffffffffffffffffffffffffff1673ffffffffffffffffffffffffffffffffffffffff163373ffffffffffffffffffffffffffffffffffffffff1614151561192857600080fd5b80600960008473ffffffffffffffffffffffffffffffffffffffff1673ffffffffffffffffffffffffffffffffffffffff16815260200190815260200160002060006101000a81548160ff0219169083151502179055507f48335238b4855f35377ed80f164e8c6f3c366e54ac00b96a6402d4a9814a03a58282604051808373ffffffffffffffffffffffffffffffffffffffff1673ffffffffffffffffffffffffffffffffffffffff168152602001821515151581526020019250505060405180910390a15050565b6000809054906101000a900473ffffffffffffffffffffffffffffffffffffffff1673ffffffffffffffffffffffffffffffffffffffff163373ffffffffffffffffffffffffffffffffffffffff16141515611a4d57600080fd5b806000806101000a81548173ffffffffffffffffffffffffffffffffffffffff021916908373ffffffffffffffffffffffffffffffffffffffff16021790555050565b600e5481565b60008273ffffffffffffffffffffffffffffffffffffffff1614151515611abc57600080fd5b80600560008573ffffffffffffffffffffffffffffffffffffffff1673ffffffffffffffffffffffffffffffffffffffff16815260200190815260200160002054111515611b0957600080fd5b600560008373ffffffffffffffffffffffffffffffffffffffff1673ffffffffffffffffffffffffffffffffffffffff1681526020019081526020016000205481600560008573ffffffffffffffffffffffffffffffffffffffff1673ffffffffffffffffffffffffffffffffffffffff1681526020019081526020016000205401111515611b9757600080fd5b600960008473ffffffffffffffffffffffffffffffffffffffff1673ffffffffffffffffffffffffffffffffffffffff16815260200190815260200160002060009054906101000a900460ff16151515611bf057600080fd5b600960008373ffffffffffffffffffffffffffffffffffffffff1673ffffffffffffffffffffffffffffffffffffffff16815260200190815260200160002060009054906101000a900460ff16151515611c4957600080fd5b80600560008573ffffffffffffffffffffffffffffffffffffffff1673ffffffffffffffffffffffffffffffffffffffff1681526020019081526020016000206000828254039250508190555080600560008473ffffffffffffffffffffffffffffffffffffffff1673ffffffffffffffffffffffffffffffffffffffff168152602001908152602001600020600082825401925050819055508173ffffffffffffffffffffffffffffffffffffffff168373ffffffffffffffffffffffffffffffffffffffff167fddf252ad1be2c89b69c2b068fc378daa952ba7f163c4a11628f55a4df523b3ef836040518082815260200191505060405180910390a3505050565b6000611d57611fe7565b611d5f6111b1565b1515611d6a57600080fd5b611d7383611101565b1515611d7e57600080fd5b33816000019073ffffffffffffffffffffffffffffffffffffffff16908173ffffffffffffffffffffffffffffffffffffffff16815250506040805190810160405280600a81526020017f30362e31312e32303137000000000000000000000000000000000000000000008152508160200181905250828160400181905250600d54600560003373ffffffffffffffffffffffffffffffffffffffff1673ffffffffffffffffffffffffffffffffffffffff168152602001908152602001600020541015611e4f5760009150611fb9565b600d54600560003373ffffffffffffffffffffffffffffffffffffffff1673ffffffffffffffffffffffffffffffffffffffff168152602001908152602001600020600082825403925050819055506064600e54600d5402811515611eb057fe5b04600b600082825401925050819055506064600f54600d5402811515611ed257fe5b04600c600082825401925050819055508060186001016000601860020154815260200190815260200160002060008201518160000160006101000a81548173ffffffffffffffffffffffffffffffffffffffff021916908373ffffffffffffffffffffffffffffffffffffffff1602179055506020820151816001019080519060200190611f61929190612040565b50604082015181600201906006611f799291906120c0565b50606082015181600801906002611f91929190612100565b50608082015181600a0155905050601860020160008154809291906001019190505550600191505b50919050565b60c0604051908101604052806006905b6000815260200190600190039081611fcf5790505090565b61016060405190810160405280600073ffffffffffffffffffffffffffffffffffffffff168152602001612019612140565b8152602001612026612154565b815260200161203361217c565b8152602001600081525090565b828054600181600116156101000203166002900490600052602060002090601f016020900481019282601f1061208157805160ff19168380011785556120af565b828001600101855582156120af579182015b828111156120ae578251825591602001919060010190612093565b5b5090506120bc91906121a3565b5090565b82600681019282156120ef579160200282015b828111156120ee5782518255916020019190600101906120d3565b5b5090506120fc91906121a3565b5090565b826002810192821561212f579160200282015b8281111561212e578251825591602001919060010190612113565b5b50905061213c91906121a3565b5090565b602060405190810160405280600081525090565b60c0604051908101604052806006905b60008152602001906001900390816121645790505090565b60408051908101604052806002905b600081526020019060019003908161218b5790505090565b6121c591905b808211156121c15760008160009055506001016121a9565b5090565b90565b6000809054906101000a900473ffffffffffffffffffffffffffffffffffffffff1673ffffffffffffffffffffffffffffffffffffffff163373ffffffffffffffffffffffffffffffffffffffff1614151561222357600080fd5b6001600a60006101000a81548160ff0219169083151502179055506016600081819054906101000a900463ffffffff1660010191906101000a81548163ffffffff021916908363ffffffff1602179055506040805190810160405280600a81526020017f31362e31312e3230313700000000000000000000000000000000000000000000815250601860000190805190602001906122c292919061232a565b50600060186002018190555060c060405190810160405280600160ff168152602001601660ff168152602001602260ff168152602001602f60ff168152602001603a60ff168152602001600160ff1681525060186003019060066123279291906123aa565b50565b828054600181600116156101000203166002900490600052602060002090601f016020900481019282601f1061236b57805160ff1916838001178555612399565b82800160010185558215612399579182015b8281111561239857825182559160200191906001019061237d565b5b5090506123a691906121a3565b5090565b82600681019282156123de579160200282015b828111156123dd578251829060ff169055916020019190600101906123bd565b5b5090506123eb91906121a3565b50905600a165627a7a723058200ee901f9c60280290fadfb66247bdc2d952471ca5330210f8494bdfdc44a35430029",
  "source": "pragma solidity ^0.4.11;\r\n    \r\nimport \"./DHFBaseCurrency.sol\";\r\n\r\ncontract LotteryPowerball is DHFBaseCurrency {\r\n    \r\n    bool isRunning = false;\r\n    \r\n    uint public jackPot = 0; //  \r\n    uint public regularPrize = 0; //   \r\n    uint public ticketPrice = 40; //  \r\n    uint public jackPotAssignment = 40; //    -   \r\n    uint public regularPrizeAssignment = 40; //     \r\n    uint public maxWhiteBallNumberInTicket = 69; //  ,     \r\n    uint public maxRedBallNumberInTicket = 26; //  ,     \r\n    uint public prizeCombinationSize = 6;//    \r\n    uint public maxBallsInTicket = 6;//    \r\n    \r\n    uint public countWhiteBallsInTicket = 5;\r\n    uint public countRedBallsInTicket = 1;\r\n    \r\n    uint32 public lastLotteryId = 0; //   \r\n    //  \r\n    struct PowerballTicket {\r\n        address owner; // \r\n        string time; //    \r\n        uint[6] balls; //   5  , 6   \r\n        uint[2] complianceLevel; //     ,  -   \r\n        uint money;//   \r\n    }\r\n    \r\n    struct PowerballLottery {\r\n        string date; //   \r\n        mapping(uint => PowerballTicket) tickets; //   .\r\n        uint ticketsCount; //    \r\n        uint[6] prizeCombination; //     \r\n    }\r\n    //  \r\n    mapping (uint => PowerballLottery) public historyPowerballLotteries;\r\n    //   \r\n    PowerballLottery currentPowerballLottery;\r\n    //  \r\n    function LotteryPowerball() DHFBaseCurrency (10000, \"Lottery Powerball\", \"LP\") public { \r\n        startLottery();\r\n    }\r\n    //  \r\n    function startLottery() private onlyOwner {\r\n        isRunning = true;\r\n        ++lastLotteryId;\r\n        currentPowerballLottery.date = \"16.11.2017\";\r\n        currentPowerballLottery.ticketsCount = 0;\r\n        currentPowerballLottery.prizeCombination = [1,22,34,47,58,1];\r\n        \r\n    }\r\n    //  \r\n    function stopLottery() private onlyOwner {\r\n        isRunning = false;\r\n        require(calculatePrizes());\r\n        historyPowerballLotteries[lastLotteryId] = currentPowerballLottery;\r\n    }\r\n    //     \r\n    function isRunningLottery() public view returns (bool res) {\r\n        require(isRunning);\r\n        return true;\r\n    }\r\n    \r\n    //  ( )\r\n    function buyTicket(uint firstWhiteBall, uint secondWhiteBall, uint thirdWhiteBall, uint fourthWhiteBall, uint fiveWhiteBall, uint redBall) public returns (bool res) {\r\n        uint[6] memory balls;\r\n        balls[0] = firstWhiteBall;\r\n        balls[1] = secondWhiteBall;\r\n        balls[2] = thirdWhiteBall;\r\n        balls[3] = fourthWhiteBall;\r\n        balls[4] = fiveWhiteBall;\r\n        balls[5] = redBall;\r\n        return buyTicket(balls);\r\n    }\r\n    \r\n    //  \r\n    function buyTicket(uint[6] ballsInTicket) private returns (bool res) {\r\n        require(isRunningLottery());\r\n        require(validationBallsInTicket(ballsInTicket));\r\n        \r\n        PowerballTicket memory newTicket;\r\n        newTicket.owner = msg.sender;\r\n        newTicket.time = \"06.11.2017\";\r\n        newTicket.balls = ballsInTicket;\r\n        \r\n\r\n        \r\n        if (balanceOf[msg.sender] < ticketPrice) return false;\r\n        balanceOf[msg.sender] -= ticketPrice;\r\n        jackPot += (ticketPrice * jackPotAssignment) / 100;\r\n        regularPrize += (ticketPrice * regularPrizeAssignment) / 100;\r\n        \r\n        currentPowerballLottery.tickets[currentPowerballLottery.ticketsCount] = newTicket;\r\n        currentPowerballLottery.ticketsCount++;\r\n        \r\n        return true;\r\n    }\r\n    \r\n    //    \r\n    function validationBallsInTicket(uint[6] ballsInTicket) public view returns (bool) {\r\n        \r\n        for (uint i = 0; i < countWhiteBallsInTicket; i++){\r\n            if (ballsInTicket[i] > maxWhiteBallNumberInTicket || ballsInTicket[i] == 0) return false;\r\n        }\r\n        if (ballsInTicket[5] > maxRedBallNumberInTicket || ballsInTicket[5] == 0) return false; \r\n        return true;\r\n    }\r\n    \r\n    //       \r\n    function getTicketComplianceLevel(uint[6] ballsInTicket) internal constant returns (uint[2] complianceLevel)\r\n    {\r\n        for(uint i = 0; i < countWhiteBallsInTicket; i++)\r\n        {\r\n            for(uint j = 0; j < countWhiteBallsInTicket; j++)\r\n            {\r\n                if(ballsInTicket[i] == currentPowerballLottery.prizeCombination[j]) complianceLevel[0]++;\r\n            }\r\n        }\r\n        if(ballsInTicket[5] == currentPowerballLottery.prizeCombination[5]) complianceLevel[1]++; \r\n        return complianceLevel;\r\n    }\r\n    \r\n    //  \r\n    function calculatePrizes() private view onlyOwner returns (bool)\r\n    {\r\n        require(!isRunningLottery());\r\n        //   \r\n        return true;\r\n    }\r\n}",
  "sourcePath": "D:\\Digital Heritage Fund\\\\    \\Lottery\\contracts\\LotteryPowerball.sol",
  "compiler": {
    "name": "solc",
    "version": "0.4.18+commit.9cf6e910.Emscripten.clang"
  },
  "schemaVersion": "1.0.1",
  "updatedAt": "2017-11-20T12:38:06.932Z"
}