{
  "contractName": "lottery_6_45",
  "abi": [
    {
      "constant": false,
      "inputs": [
        {
          "name": "newSellPrice",
          "type": "uint256"
        },
        {
          "name": "newBuyPrice",
          "type": "uint256"
        }
      ],
      "name": "setPrices",
      "outputs": [],
      "payable": false,
      "stateMutability": "nonpayable",
      "type": "function"
    },
    {
      "constant": true,
      "inputs": [
        {
          "name": "",
          "type": "uint256"
        }
      ],
      "name": "redistributionPercent",
      "outputs": [
        {
          "name": "",
          "type": "uint256"
        }
      ],
      "payable": false,
      "stateMutability": "view",
      "type": "function"
    },
    {
      "constant": true,
      "inputs": [
        {
          "name": "_spender",
          "type": "address"
        },
        {
          "name": "_value",
          "type": "uint256"
        }
      ],
      "name": "name",
      "outputs": [
        {
          "name": "",
          "type": "string"
        }
      ],
      "payable": false,
      "stateMutability": "view",
      "type": "function"
    },
    {
      "constant": false,
      "inputs": [
        {
          "name": "_spender",
          "type": "address"
        },
        {
          "name": "_value",
          "type": "uint256"
        }
      ],
      "name": "approve",
      "outputs": [
        {
          "name": "success",
          "type": "bool"
        }
      ],
      "payable": false,
      "stateMutability": "nonpayable",
      "type": "function"
    },
    {
      "constant": true,
      "inputs": [],
      "name": "JackPot",
      "outputs": [
        {
          "name": "",
          "type": "uint256"
        }
      ],
      "payable": false,
      "stateMutability": "view",
      "type": "function"
    },
    {
      "constant": true,
      "inputs": [
        {
          "name": "",
          "type": "uint256"
        }
      ],
      "name": "ticketPrice",
      "outputs": [
        {
          "name": "",
          "type": "uint256"
        },
        {
          "name": "tickets_count",
          "type": "uint256"
        },
        {
          "name": "active",
          "type": "bool"
        }
      ],
      "payable": false,
      "stateMutability": "view",
      "type": "function"
    },
    {
      "constant": true,
      "inputs": [
        {
          "name": "",
          "type": "uint256"
        }
      ],
      "name": "lotteries",
      "outputs": [
        {
          "name": "date",
          "type": "string"
        },
        {
          "name": "tickets_count",
          "type": "uint256"
        },
        {
          "name": "active",
          "type": "bool"
        },
        {
          "name": "played",
          "type": "bool"
        }
      ],
      "payable": false,
      "stateMutability": "view",
      "type": "function"
    },
    {
      "constant": true,
      "inputs": [
        {
          "name": "_from",
          "type": "address"
        },
        {
          "name": "_to",
          "type": "address"
        },
        {
          "name": "_value",
          "type": "uint256"
        }
      ],
      "name": "totalSupply",
      "outputs": [
        {
          "name": "",
          "type": "uint256"
        }
      ],
      "payable": false,
      "stateMutability": "view",
      "type": "function"
    },
    {
      "constant": false,
      "inputs": [
        {
          "name": "_from",
          "type": "address"
        },
        {
          "name": "_to",
          "type": "address"
        },
        {
          "name": "_value",
          "type": "uint256"
        },
        {
          "name": "number_4",
          "type": "uint8"
        },
        {
          "name": "number_5",
          "type": "uint8"
        },
        {
          "name": "number_6",
          "type": "uint8"
        },
        {
          "name": "number_7",
          "type": "uint8"
        },
        {
          "name": "number_8",
          "type": "uint8"
        },
        {
          "name": "number_9",
          "type": "uint8"
        },
        {
          "name": "number_10",
          "type": "uint8"
        },
        {
          "name": "number_11",
          "type": "uint8"
        },
        {
          "name": "number_12",
          "type": "uint8"
        },
        {
          "name": "number_13",
          "type": "uint8"
        }
      ],
      "name": "transferFrom",
      "outputs": [
        {
          "name": "success",
          "type": "bool"
        }
      ],
      "payable": false,
      "stateMutability": "nonpayable",
      "type": "function"
    },
    {
      "constant": false,
      "inputs": [],
      "name": "finishLottery",
      "outputs": [
        {
          "name": "success",
          "type": "bool"
        }
      ],
      "payable": false,
      "stateMutability": "nonpayable",
      "type": "function"
    },
    {
      "constant": true,
      "inputs": [
        {
          "name": "_value",
          "type": "uint256"
        }
      ],
      "name": "decimals",
      "outputs": [
        {
          "name": "",
          "type": "uint8"
        }
      ],
      "payable": false,
      "stateMutability": "view",
      "type": "function"
    },
    {
      "constant": false,
      "inputs": [
        {
          "name": "_value",
          "type": "uint256"
        }
      ],
      "name": "burn",
      "outputs": [
        {
          "name": "success",
          "type": "bool"
        }
      ],
      "payable": false,
      "stateMutability": "nonpayable",
      "type": "function"
    },
    {
      "constant": false,
      "inputs": [
        {
          "name": "number_1",
          "type": "uint8"
        },
        {
          "name": "number_2",
          "type": "uint8"
        },
        {
          "name": "number_3",
          "type": "uint8"
        },
        {
          "name": "number_4",
          "type": "uint8"
        },
        {
          "name": "number_5",
          "type": "uint8"
        },
        {
          "name": "number_6",
          "type": "uint8"
        },
        {
          "name": "number_7",
          "type": "uint8"
        },
        {
          "name": "number_8",
          "type": "uint8"
        },
        {
          "name": "number_9",
          "type": "uint8"
        },
        {
          "name": "number_10",
          "type": "uint8"
        },
        {
          "name": "number_11",
          "type": "uint8"
        },
        {
          "name": "number_12",
          "type": "uint8"
        },
        {
          "name": "number_13",
          "type": "uint8"
        }
      ],
      "name": "buyTicket",
      "outputs": [
        {
          "name": "success",
          "type": "bool"
        }
      ],
      "payable": false,
      "stateMutability": "nonpayable",
      "type": "function"
    },
    {
      "constant": true,
      "inputs": [],
      "name": "prize_combination_size",
      "outputs": [
        {
          "name": "",
          "type": "uint8"
        }
      ],
      "payable": false,
      "stateMutability": "view",
      "type": "function"
    },
    {
      "constant": true,
      "inputs": [
        {
          "name": "",
          "type": "address"
        }
      ],
      "name": "sellPrice",
      "outputs": [
        {
          "name": "",
          "type": "uint256"
        }
      ],
      "payable": false,
      "stateMutability": "view",
      "type": "function"
    },
    {
      "constant": true,
      "inputs": [
        {
          "name": "target",
          "type": "address"
        },
        {
          "name": "mintedAmount",
          "type": "uint256"
        }
      ],
      "name": "regularPrize",
      "outputs": [
        {
          "name": "",
          "type": "uint256"
        }
      ],
      "payable": false,
      "stateMutability": "view",
      "type": "function"
    },
    {
      "constant": true,
      "inputs": [
        {
          "name": "",
          "type": "address"
        },
        {
          "name": "_value",
          "type": "uint256"
        }
      ],
      "name": "balanceOf",
      "outputs": [
        {
          "name": "",
          "type": "uint256"
        }
      ],
      "payable": false,
      "stateMutability": "view",
      "type": "function"
    },
    {
      "constant": false,
      "inputs": [
        {
          "name": "target",
          "type": "address"
        },
        {
          "name": "mintedAmount",
          "type": "uint256"
        }
      ],
      "name": "mintToken",
      "outputs": [
        {
          "name": "",
          "type": "uint8"
        }
      ],
      "payable": false,
      "stateMutability": "nonpayable",
      "type": "function"
    },
    {
      "constant": false,
      "inputs": [
        {
          "name": "_from",
          "type": "address"
        },
        {
          "name": "_value",
          "type": "uint256"
        }
      ],
      "name": "burnFrom",
      "outputs": [
        {
          "name": "success",
          "type": "bool"
        }
      ],
      "payable": false,
      "stateMutability": "nonpayable",
      "type": "function"
    },
    {
      "constant": true,
      "inputs": [],
      "name": "max_Number",
      "outputs": [
        {
          "name": "",
          "type": "uint8"
        }
      ],
      "payable": false,
      "stateMutability": "view",
      "type": "function"
    },
    {
      "constant": true,
      "inputs": [
        {
          "name": "number",
          "type": "uint256"
        }
      ],
      "name": "factorial",
      "outputs": [
        {
          "name": "fact",
          "type": "uint256"
        }
      ],
      "payable": false,
      "stateMutability": "pure",
      "type": "function"
    },
    {
      "constant": true,
      "inputs": [
        {
          "name": "number_count",
          "type": "uint8"
        }
      ],
      "name": "buyPrice",
      "outputs": [
        {
          "name": "",
          "type": "uint256"
        }
      ],
      "payable": false,
      "stateMutability": "view",
      "type": "function"
    },
    {
      "constant": true,
      "inputs": [
        {
          "name": "lottery_id",
          "type": "uint256"
        },
        {
          "name": "ticket_Id",
          "type": "uint256"
        }
      ],
      "name": "owner",
      "outputs": [
        {
          "name": "",
          "type": "address"
        },
        {
          "name": "ticket_prize_level",
          "type": "uint8"
        },
        {
          "name": "numbers_in_ticket",
          "type": "uint8"
        },
        {
          "name": "money",
          "type": "uint256"
        }
      ],
      "payable": false,
      "stateMutability": "view",
      "type": "function"
    },
    {
      "constant": true,
      "inputs": [
        {
          "name": "number_count",
          "type": "uint8"
        }
      ],
      "name": "getTicketPrice",
      "outputs": [
        {
          "name": "price",
          "type": "uint256"
        }
      ],
      "payable": false,
      "stateMutability": "view",
      "type": "function"
    },
    {
      "constant": true,
      "inputs": [
        {
          "name": "lottery_id",
          "type": "uint256"
        },
        {
          "name": "ticket_Id",
          "type": "uint256"
        }
      ],
      "name": "getLottery",
      "outputs": [
        {
          "name": "date",
          "type": "string"
        },
        {
          "name": "tickets_count",
          "type": "uint256"
        },
        {
          "name": "prize_combination",
          "type": "uint256[6]"
        },
        {
          "name": "active",
          "type": "bool"
        }
      ],
      "payable": false,
      "stateMutability": "view",
      "type": "function"
    },
    {
      "constant": true,
      "inputs": [
        {
          "name": "",
          "type": "address"
        }
      ],
      "name": "symbol",
      "outputs": [
        {
          "name": "",
          "type": "string"
        }
      ],
      "payable": false,
      "stateMutability": "view",
      "type": "function"
    },
    {
      "constant": true,
      "inputs": [
        {
          "name": "_to",
          "type": "address"
        },
        {
          "name": "_value",
          "type": "uint256"
        }
      ],
      "name": "max_numbers_in_ticket",
      "outputs": [
        {
          "name": "",
          "type": "uint8"
        }
      ],
      "payable": false,
      "stateMutability": "view",
      "type": "function"
    },
    {
      "constant": false,
      "inputs": [
        {
          "name": "lottery_activity",
          "type": "bool"
        }
      ],
      "name": "changeStatus",
      "outputs": [
        {
          "name": "success",
          "type": "bool"
        }
      ],
      "payable": false,
      "stateMutability": "nonpayable",
      "type": "function"
    },
    {
      "constant": true,
      "inputs": [
        {
          "name": "lottery_id",
          "type": "uint256"
        },
        {
          "name": "ticket_Id",
          "type": "uint256"
        }
      ],
      "name": "getTicket",
      "outputs": [
        {
          "name": "ticket_numbers",
          "type": "uint8[13]"
        },
        {
          "name": "ticket_prize_level",
          "type": "uint8"
        },
        {
          "name": "numbers_in_ticket",
          "type": "uint8"
        },
        {
          "name": "money",
          "type": "uint256"
        }
      ],
      "payable": false,
      "stateMutability": "view",
      "type": "function"
    },
    {
      "constant": false,
      "inputs": [
        {
          "name": "",
          "type": "uint256"
        },
        {
          "name": "_value",
          "type": "uint256"
        },
        {
          "name": "_extraData",
          "type": "bytes"
        }
      ],
      "name": "buy",
      "outputs": [
        {
          "name": "",
          "type": "uint8"
        }
      ],
      "payable": true,
      "stateMutability": "payable",
      "type": "function"
    },
    {
      "constant": false,
      "inputs": [
        {
          "name": "_to",
          "type": "address"
        },
        {
          "name": "_value",
          "type": "uint256"
        },
        {
          "name": "_extraData",
          "type": "bytes"
        }
      ],
      "name": "transfer",
      "outputs": [
        {
          "name": "success",
          "type": "bool"
        }
      ],
      "payable": false,
      "stateMutability": "nonpayable",
      "type": "function"
    },
    {
      "constant": false,
      "inputs": [],
      "name": "newLottery",
      "outputs": [
        {
          "name": "result",
          "type": "bool"
        }
      ],
      "payable": false,
      "stateMutability": "nonpayable",
      "type": "function"
    },
    {
      "constant": true,
      "inputs": [
        {
          "name": "",
          "type": "address"
        }
      ],
      "name": "frozenAccount",
      "outputs": [
        {
          "name": "",
          "type": "bool"
        },
        {
          "name": "numbers_in_ticket",
          "type": "uint8"
        }
      ],
      "payable": false,
      "stateMutability": "view",
      "type": "function"
    },
    {
      "constant": true,
      "inputs": [
        {
          "name": "",
          "type": "uint256"
        },
        {
          "name": "",
          "type": "address"
        }
      ],
      "name": "won_percent",
      "outputs": [
        {
          "name": "",
          "type": "uint8"
        }
      ],
      "payable": false,
      "stateMutability": "view",
      "type": "function"
    },
    {
      "constant": false,
      "inputs": [
        {
          "name": "_spender",
          "type": "address"
        },
        {
          "name": "_value",
          "type": "uint256"
        },
        {
          "name": "_extraData",
          "type": "bytes"
        }
      ],
      "name": "approveAndCall",
      "outputs": [
        {
          "name": "success",
          "type": "bool"
        }
      ],
      "payable": false,
      "stateMutability": "nonpayable",
      "type": "function"
    },
    {
      "constant": true,
      "inputs": [
        {
          "name": "",
          "type": "address"
        },
        {
          "name": "",
          "type": "address"
        }
      ],
      "name": "JackPot_assignment",
      "outputs": [
        {
          "name": "",
          "type": "uint256"
        }
      ],
      "payable": false,
      "stateMutability": "view",
      "type": "function"
    },
    {
      "constant": true,
      "inputs": [
        {
          "name": "ticket_numbers",
          "type": "uint8[13]"
        },
        {
          "name": "freeze",
          "type": "bool"
        }
      ],
      "name": "isAllowableBigTicket",
      "outputs": [
        {
          "name": "",
          "type": "bool"
        },
        {
          "name": "numbers_in_ticket",
          "type": "uint8"
        }
      ],
      "payable": false,
      "stateMutability": "view",
      "type": "function"
    },
    {
      "constant": true,
      "inputs": [
        {
          "name": "target",
          "type": "address"
        },
        {
          "name": "freeze",
          "type": "bool"
        }
      ],
      "name": "last_lottery_id",
      "outputs": [
        {
          "name": "",
          "type": "uint32"
        }
      ],
      "payable": false,
      "stateMutability": "view",
      "type": "function"
    },
    {
      "inputs": [
        {
          "name": "",
          "type": "address"
        },
        {
          "name": "",
          "type": "address"
        }
      ],
      "payable": false,
      "stateMutability": "view",
      "type": "function",
      "constant": true,
      "name": "allowance",
      "outputs": [
        {
          "name": "",
          "type": "uint256"
        }
      ]
    },
    {
      "anonymous": false,
      "inputs": [
        {
          "indexed": false,
          "name": "amount",
          "type": "uint256"
        },
        {
          "indexed": false,
          "name": "ticket_price",
          "type": "uint256"
        },
        {
          "indexed": false,
          "name": "ticket_owner",
          "type": "address"
        },
        {
          "indexed": false,
          "name": "buy_time",
          "type": "uint256"
        },
        {
          "indexed": false,
          "name": "lottery_number",
          "type": "uint256"
        },
        {
          "indexed": false,
          "name": "lottery_type",
          "type": "string"
        },
        {
          "indexed": false,
          "name": "ticket_numbers",
          "type": "uint8[]"
        }
      ],
      "name": "sell",
      "type": "function",
      "payable": false,
      "stateMutability": "nonpayable",
      "constant": false,
      "outputs": []
    },
    {
      "anonymous": false,
      "inputs": [
        {
          "indexed": false,
          "name": "target",
          "type": "address"
        },
        {
          "indexed": false,
          "name": "freeze",
          "type": "bool"
        },
        {
          "indexed": false,
          "name": "ticket_owner",
          "type": "address"
        },
        {
          "indexed": false,
          "name": "buy_time",
          "type": "uint256"
        },
        {
          "indexed": false,
          "name": "lottery_number",
          "type": "uint256"
        },
        {
          "indexed": false,
          "name": "lottery_type",
          "type": "string"
        },
        {
          "indexed": false,
          "name": "ticket_numbers",
          "type": "uint8[]"
        }
      ],
      "name": "freezeAccount",
      "type": "function",
      "payable": false,
      "stateMutability": "nonpayable",
      "constant": false,
      "outputs": []
    },
    {
      "anonymous": false,
      "inputs": [
        {
          "indexed": false,
          "name": "ticket_number",
          "type": "uint256"
        },
        {
          "indexed": false,
          "name": "ticket_price",
          "type": "uint256"
        },
        {
          "indexed": false,
          "name": "ticket_owner",
          "type": "address"
        },
        {
          "indexed": false,
          "name": "buy_time",
          "type": "uint256"
        },
        {
          "indexed": false,
          "name": "lottery_number",
          "type": "uint256"
        },
        {
          "indexed": false,
          "name": "lottery_type",
          "type": "string"
        },
        {
          "indexed": false,
          "name": "ticket_numbers",
          "type": "uint8[]"
        }
      ],
      "name": "regularPrize_assignment",
      "type": "function",
      "constant": true,
      "outputs": [
        {
          "name": "",
          "type": "uint256"
        }
      ],
      "payable": false,
      "stateMutability": "view"
    },
    {
      "anonymous": false,
      "inputs": [
        {
          "indexed": false,
          "name": "newOwner",
          "type": "address"
        },
        {
          "indexed": false,
          "name": "frozen",
          "type": "bool"
        },
        {
          "indexed": false,
          "name": "value",
          "type": "uint256"
        }
      ],
      "name": "transferOwnership",
      "type": "function",
      "constant": false,
      "outputs": [],
      "payable": false,
      "stateMutability": "nonpayable"
    },
    {
      "anonymous": false,
      "inputs": [
        {
          "indexed": true,
          "name": "from",
          "type": "address"
        },
        {
          "indexed": true,
          "name": "to",
          "type": "address"
        },
        {
          "indexed": false,
          "name": "value",
          "type": "uint256"
        }
      ],
      "name": "Transfer",
      "type": "constructor",
      "payable": false,
      "stateMutability": "nonpayable"
    },
    {
      "anonymous": false,
      "inputs": [
        {
          "indexed": false,
          "name": "ticket_number",
          "type": "uint256"
        },
        {
          "indexed": false,
          "name": "ticket_price",
          "type": "uint256"
        },
        {
          "indexed": false,
          "name": "ticket_owner",
          "type": "address"
        },
        {
          "indexed": false,
          "name": "buy_time",
          "type": "uint256"
        },
        {
          "indexed": false,
          "name": "lottery_number",
          "type": "uint256"
        },
        {
          "indexed": false,
          "name": "lottery_type",
          "type": "string"
        },
        {
          "indexed": false,
          "name": "ticket_numbers",
          "type": "uint8[]"
        }
      ],
      "name": "BuyTicket",
      "type": "event"
    },
    {
      "anonymous": false,
      "inputs": [
        {
          "indexed": false,
          "name": "target",
          "type": "address"
        },
        {
          "indexed": false,
          "name": "frozen",
          "type": "bool"
        }
      ],
      "name": "FrozenFunds",
      "type": "event"
    },
    {
      "anonymous": false,
      "inputs": [
        {
          "indexed": true,
          "name": "from",
          "type": "address"
        },
        {
          "indexed": true,
          "name": "to",
          "type": "address"
        },
        {
          "indexed": false,
          "name": "value",
          "type": "uint256"
        }
      ],
      "name": "Transfer",
      "type": "event"
    },
    {
      "anonymous": false,
      "inputs": [
        {
          "indexed": true,
          "name": "from",
          "type": "address"
        },
        {
          "indexed": false,
          "name": "value",
          "type": "uint256"
        }
      ],
      "name": "Burn",
      "type": "event"
    }
  ],
  "bytecode": "0x60606040526012600360006101000a81548160ff021916908360ff1602179055506000600a556000600b55600a600c556028600d556028600e55602d600f60006101000a81548160ff021916908360ff1602179055506000600f60016101000a81548163ffffffff021916908363ffffffff1602179055506006600f60056101000a81548160ff021916908360ff160217905550600d600f60066101000a81548160ff021916908360ff160217905550606060405190810160405280600a60ff168152602001601e60ff168152602001603c60ff168152506010906003620000e9929190620003ce565b50606060405190810160405280602d60ff168152602001602d60ff168152602001600a60ff168152506011906003620001249291906200046f565b5034156200013157600080fd5b6127106040805190810160405280600f81526020017f4c6f74746572792036206f6620343500000000000000000000000000000000008152506040805190810160405280600581526020017f4c36783435000000000000000000000000000000000000000000000000000000815250828282336000806101000a81548173ffffffffffffffffffffffffffffffffffffffff021916908373ffffffffffffffffffffffffffffffffffffffff160217905550600360009054906101000a900460ff1660ff16600a0a8302600481905550600454600560003373ffffffffffffffffffffffffffffffffffffffff1673ffffffffffffffffffffffffffffffffffffffff1681526020019081526020016000208190555081600190805190602001906200025f929190620004b9565b50806002908051906020019062000278929190620004b9565b505050505050506040805190810160405280600a81526020017f30362e31312e3230313700000000000000000000000000000000000000000000815250601460008081526020019081526020016000206000019080519060200190620002e0929190620004b9565b506000601460008081526020019081526020016000206002018190555060c060405190810160405280600160ff168152602001600260ff168152602001600360ff168152602001600460ff168152602001600560ff168152602001600660ff16815250601460008081526020019081526020016000206003019060066200036992919062000540565b5060016014600080815260200190815260200160002060090160006101000a81548160ff02191690831515021790555060006014600080815260200190815260200160002060090160016101000a81548160ff021916908315150217905550620005e5565b826003601f016020900481019282156200045c5791602002820160005b838211156200042b57835183826101000a81548160ff021916908360ff1602179055509260200192600101602081600001049283019260010302620003eb565b80156200045a5782816101000a81549060ff02191690556001016020816000010492830192600103026200042b565b505b5090506200046b91906200058a565b5090565b8260038101928215620004a6579160200282015b82811115620004a5578251829060ff1690559160200191906001019062000483565b5b509050620004b59190620005bd565b5090565b828054600181600116156101000203166002900490600052602060002090601f016020900481019282601f10620004fc57805160ff19168380011785556200052d565b828001600101855582156200052d579182015b828111156200052c5782518255916020019190600101906200050f565b5b5090506200053c9190620005bd565b5090565b826006810192821562000577579160200282015b8281111562000576578251829060ff1690559160200191906001019062000554565b5b509050620005869190620005bd565b5090565b620005ba91905b80821115620005b657600081816101000a81549060ff02191690555060010162000591565b5090565b90565b620005e291905b80821115620005de576000816000905550600101620005c4565b5090565b90565b61398c80620005f56000396000f30060606040526004361061020f576000357c0100000000000000000000000000000000000000000000000000000000900463ffffffff16806305fefda7146102145780630652a9d31461024057806306fdde0314610277578063095ea7b3146103055780630a2282ae1461035f5780631209b1f6146103885780631398e076146103b157806318160ddd1461048757806323b872dd146104b05780632c906ba214610529578063313ce5671461055657806342966c681461058557806343bfdb00146105c0578063452b6feb1461068e5780634b750334146106bd5780635be01e45146106e657806370a082311461070f57806379c650681461075c57806379cc67901461079e5780637d5bf6f3146107f857806383714834146108275780638620410b1461085e5780638da5cb5b146108875780638ef7c649146108dc57806392e845f61461091657806395d89b41146109f3578063999fd09b14610a815780639b3de49b14610ab0578063a426e4c814610aed578063a6f2ae3a14610b76578063a9059cbb14610b80578063b1e2cb0314610bc2578063b414d4b614610bef578063c61694f714610c40578063cae9ca5114610c7d578063cc911d7914610d1a578063d03fc5e814610d43578063d583c5fb14610daf578063dd62ed3e14610de4578063e4849b3214610e50578063e724529c14610e73578063ea0a23e314610eb7578063f2fde38b14610ee0575b600080fd5b341561021f57600080fd5b61023e6004808035906020019091908035906020019091905050610f19565b005b341561024b57600080fd5b6102616004808035906020019091905050610f86565b6040518082815260200191505060405180910390f35b341561028257600080fd5b61028a610fa0565b6040518080602001828103825283818151815260200191508051906020019080838360005b838110156102ca5780820151818401526020810190506102af565b50505050905090810190601f1680156102f75780820380516001836020036101000a031916815260200191505b509250505060405180910390f35b341561031057600080fd5b610345600480803573ffffffffffffffffffffffffffffffffffffffff1690602001909190803590602001909190505061103e565b604051808215151515815260200191505060405180910390f35b341561036a57600080fd5b6103726110cb565b6040518082815260200191505060405180910390f35b341561039357600080fd5b61039b6110d1565b6040518082815260200191505060405180910390f35b34156103bc57600080fd5b6103d260048080359060200190919050506110d7565b604051808060200185815260200184151515158152602001831515151581526020018281038252868181546001816001161561010002031660029004815260200191508054600181600116156101000203166002900480156104755780601f1061044a57610100808354040283529160200191610475565b820191906000526020600020905b81548152906001019060200180831161045857829003601f168201915b50509550505050505060405180910390f35b341561049257600080fd5b61049a611120565b6040518082815260200191505060405180910390f35b34156104bb57600080fd5b61050f600480803573ffffffffffffffffffffffffffffffffffffffff1690602001909190803573ffffffffffffffffffffffffffffffffffffffff16906020019091908035906020019091905050611126565b604051808215151515815260200191505060405180910390f35b341561053457600080fd5b61053c611253565b604051808215151515815260200191505060405180910390f35b341561056157600080fd5b6105696113a5565b604051808260ff1660ff16815260200191505060405180910390f35b341561059057600080fd5b6105a660048080359060200190919050506113b8565b604051808215151515815260200191505060405180910390f35b34156105cb57600080fd5b610674600480803560ff1690602001909190803560ff1690602001909190803560ff1690602001909190803560ff1690602001909190803560ff1690602001909190803560ff1690602001909190803560ff1690602001909190803560ff1690602001909190803560ff1690602001909190803560ff1690602001909190803560ff1690602001909190803560ff1690602001909190803560ff169060200190919050506114bc565b604051808215151515815260200191505060405180910390f35b341561069957600080fd5b6106a16116c4565b604051808260ff1660ff16815260200191505060405180910390f35b34156106c857600080fd5b6106d06116d7565b6040518082815260200191505060405180910390f35b34156106f157600080fd5b6106f96116dd565b6040518082815260200191505060405180910390f35b341561071a57600080fd5b610746600480803573ffffffffffffffffffffffffffffffffffffffff169060200190919050506116e3565b6040518082815260200191505060405180910390f35b341561076757600080fd5b61079c600480803573ffffffffffffffffffffffffffffffffffffffff169060200190919080359060200190919050506116fb565b005b34156107a957600080fd5b6107de600480803573ffffffffffffffffffffffffffffffffffffffff1690602001909190803590602001909190505061186c565b604051808215151515815260200191505060405180910390f35b341561080357600080fd5b61080b611a86565b604051808260ff1660ff16815260200191505060405180910390f35b341561083257600080fd5b6108486004808035906020019091905050611a99565b6040518082815260200191505060405180910390f35b341561086957600080fd5b610871611adc565b6040518082815260200191505060405180910390f35b341561089257600080fd5b61089a611ae2565b604051808273ffffffffffffffffffffffffffffffffffffffff1673ffffffffffffffffffffffffffffffffffffffff16815260200191505060405180910390f35b34156108e757600080fd5b610900600480803560ff16906020019091905050611b07565b6040518082815260200191505060405180910390f35b341561092157600080fd5b6109376004808035906020019091905050611b63565b604051808060200185815260200184600660200280838360005b8381101561096c578082015181840152602081019050610951565b5050505090500183151515158152602001828103825286818151815260200191508051906020019080838360005b838110156109b557808201518184015260208101905061099a565b50505050905090810190601f1680156109e25780820380516001836020036101000a031916815260200191505b509550505050505060405180910390f35b34156109fe57600080fd5b610a06611cc8565b6040518080602001828103825283818151815260200191508051906020019080838360005b83811015610a46578082015181840152602081019050610a2b565b50505050905090810190601f168015610a735780820380516001836020036101000a031916815260200191505b509250505060405180910390f35b3415610a8c57600080fd5b610a94611d66565b604051808260ff1660ff16815260200191505060405180910390f35b3415610abb57600080fd5b610ad360048080351515906020019091905050611d79565b604051808215151515815260200191505060405180910390f35b3415610af857600080fd5b610b176004808035906020019091908035906020019091905050611e70565b6040518085600d60200280838360005b83811015610b42578082015181840152602081019050610b27565b505050509050018460ff1660ff1681526020018360ff1660ff16815260200182815260200194505050505060405180910390f35b610b7e611fb8565b005b3415610b8b57600080fd5b610bc0600480803573ffffffffffffffffffffffffffffffffffffffff16906020019091908035906020019091905050611fd8565b005b3415610bcd57600080fd5b610bd5611fe7565b604051808215151515815260200191505060405180910390f35b3415610bfa57600080fd5b610c26600480803573ffffffffffffffffffffffffffffffffffffffff1690602001909190505061228e565b604051808215151515815260200191505060405180910390f35b3415610c4b57600080fd5b610c6160048080359060200190919050506122ae565b604051808260ff1660ff16815260200191505060405180910390f35b3415610c8857600080fd5b610d00600480803573ffffffffffffffffffffffffffffffffffffffff1690602001909190803590602001909190803590602001908201803590602001908080601f016020809104026020016040519081016040528093929190818152602001838380828437820191505050505050919050506122d7565b604051808215151515815260200191505060405180910390f35b3415610d2557600080fd5b610d2d612455565b6040518082815260200191505060405180910390f35b3415610d4e57600080fd5b610d88600480806101a00190600d806020026040519081016040528092919082600d6020028082843782019150505050509190505061245b565b60405180831515151581526020018260ff1660ff1681526020019250505060405180910390f35b3415610dba57600080fd5b610dc26125d8565b604051808263ffffffff1663ffffffff16815260200191505060405180910390f35b3415610def57600080fd5b610e3a600480803573ffffffffffffffffffffffffffffffffffffffff1690602001909190803573ffffffffffffffffffffffffffffffffffffffff169060200190919050506125ee565b6040518082815260200191505060405180910390f35b3415610e5b57600080fd5b610e716004808035906020019091905050612613565b005b3415610e7e57600080fd5b610eb5600480803573ffffffffffffffffffffffffffffffffffffffff16906020019091908035151590602001909190505061268f565b005b3415610ec257600080fd5b610eca6127b4565b6040518082815260200191505060405180910390f35b3415610eeb57600080fd5b610f17600480803573ffffffffffffffffffffffffffffffffffffffff169060200190919050506127ba565b005b6000809054906101000a900473ffffffffffffffffffffffffffffffffffffffff1673ffffffffffffffffffffffffffffffffffffffff163373ffffffffffffffffffffffffffffffffffffffff16141515610f7457600080fd5b81600781905550806008819055505050565b601181600381101515610f9557fe5b016000915090505481565b60018054600181600116156101000203166002900480601f0160208091040260200160405190810160405280929190818152602001828054600181600116156101000203166002900480156110365780601f1061100b57610100808354040283529160200191611036565b820191906000526020600020905b81548152906001019060200180831161101957829003601f168201915b505050505081565b600081600660003373ffffffffffffffffffffffffffffffffffffffff1673ffffffffffffffffffffffffffffffffffffffff16815260200190815260200160002060008573ffffffffffffffffffffffffffffffffffffffff1673ffffffffffffffffffffffffffffffffffffffff168152602001908152602001600020819055506001905092915050565b600a5481565b600c5481565b601460205280600052604060002060009150905080600001908060020154908060090160009054906101000a900460ff16908060090160019054906101000a900460ff16905084565b60045481565b6000600660008573ffffffffffffffffffffffffffffffffffffffff1673ffffffffffffffffffffffffffffffffffffffff16815260200190815260200160002060003373ffffffffffffffffffffffffffffffffffffffff1673ffffffffffffffffffffffffffffffffffffffff1681526020019081526020016000205482111515156111b357600080fd5b81600660008673ffffffffffffffffffffffffffffffffffffffff1673ffffffffffffffffffffffffffffffffffffffff16815260200190815260200160002060003373ffffffffffffffffffffffffffffffffffffffff1673ffffffffffffffffffffffffffffffffffffffff16815260200190815260200160002060008282540392505081905550611248848484612858565b600190509392505050565b60008060009054906101000a900473ffffffffffffffffffffffffffffffffffffffff1673ffffffffffffffffffffffffffffffffffffffff163373ffffffffffffffffffffffffffffffffffffffff161415156112b057600080fd5b60146000600f60019054906101000a900463ffffffff1663ffffffff16815260200190815260200160002060090160009054906101000a900460ff16156112fa57600090506113a2565b60146000600f60019054906101000a900463ffffffff1663ffffffff16815260200190815260200160002060090160019054906101000a900460ff161561134457600090506113a2565b61134c612b0f565b5061135561312e565b50600160146000600f60019054906101000a900463ffffffff1663ffffffff16815260200190815260200160002060090160016101000a81548160ff021916908315150217905550600190505b90565b600360009054906101000a900460ff1681565b600081600560003373ffffffffffffffffffffffffffffffffffffffff1673ffffffffffffffffffffffffffffffffffffffff168152602001908152602001600020541015151561140857600080fd5b81600560003373ffffffffffffffffffffffffffffffffffffffff1673ffffffffffffffffffffffffffffffffffffffff16815260200190815260200160002060008282540392505081905550816004600082825403925050819055503373ffffffffffffffffffffffffffffffffffffffff167fcc16f5dbb4873280815c1ee09dbd06736cffcc184412cf7a71a0fdb75d397ca5836040518082815260200191505060405180910390a260019050919050565b60006114c6613624565b8e81604001516000600d811015156114da57fe5b602002019060ff16908160ff16815250508d81604001516001600d811015156114ff57fe5b602002019060ff16908160ff16815250508c81604001516002600d8110151561152457fe5b602002019060ff16908160ff16815250508b81604001516003600d8110151561154957fe5b602002019060ff16908160ff16815250508a81604001516004600d8110151561156e57fe5b602002019060ff16908160ff16815250508981604001516005600d8110151561159357fe5b602002019060ff16908160ff16815250508881604001516006600d811015156115b857fe5b602002019060ff16908160ff16815250508781604001516007600d811015156115dd57fe5b602002019060ff16908160ff16815250508681604001516008600d8110151561160257fe5b602002019060ff16908160ff16815250508581604001516009600d8110151561162757fe5b602002019060ff16908160ff1681525050848160400151600a600d8110151561164c57fe5b602002019060ff16908160ff1681525050838160400151600b600d8110151561167157fe5b602002019060ff16908160ff1681525050828160400151600c600d8110151561169657fe5b602002019060ff16908160ff16815250506116b081613214565b9150509d9c50505050505050505050505050565b600f60059054906101000a900460ff1681565b60075481565b600b5481565b60056020528060005260406000206000915090505481565b6000809054906101000a900473ffffffffffffffffffffffffffffffffffffffff1673ffffffffffffffffffffffffffffffffffffffff163373ffffffffffffffffffffffffffffffffffffffff1614151561175657600080fd5b80600560008473ffffffffffffffffffffffffffffffffffffffff1673ffffffffffffffffffffffffffffffffffffffff16815260200190815260200160002060008282540192505081905550806004600082825401925050819055503073ffffffffffffffffffffffffffffffffffffffff1660007fddf252ad1be2c89b69c2b068fc378daa952ba7f163c4a11628f55a4df523b3ef836040518082815260200191505060405180910390a38173ffffffffffffffffffffffffffffffffffffffff163073ffffffffffffffffffffffffffffffffffffffff167fddf252ad1be2c89b69c2b068fc378daa952ba7f163c4a11628f55a4df523b3ef836040518082815260200191505060405180910390a35050565b600081600560008573ffffffffffffffffffffffffffffffffffffffff1673ffffffffffffffffffffffffffffffffffffffff16815260200190815260200160002054101515156118bc57600080fd5b600660008473ffffffffffffffffffffffffffffffffffffffff1673ffffffffffffffffffffffffffffffffffffffff16815260200190815260200160002060003373ffffffffffffffffffffffffffffffffffffffff1673ffffffffffffffffffffffffffffffffffffffff16815260200190815260200160002054821115151561194757600080fd5b81600560008573ffffffffffffffffffffffffffffffffffffffff1673ffffffffffffffffffffffffffffffffffffffff1681526020019081526020016000206000828254039250508190555081600660008573ffffffffffffffffffffffffffffffffffffffff1673ffffffffffffffffffffffffffffffffffffffff16815260200190815260200160002060003373ffffffffffffffffffffffffffffffffffffffff1673ffffffffffffffffffffffffffffffffffffffff16815260200190815260200160002060008282540392505081905550816004600082825403925050819055508273ffffffffffffffffffffffffffffffffffffffff167fcc16f5dbb4873280815c1ee09dbd06736cffcc184412cf7a71a0fdb75d397ca5836040518082815260200191505060405180910390a26001905092915050565b600f60009054906101000a900460ff1681565b600080600191506000831415611ab25760019150611ad6565b600190505b8281111515611ad25780820291508080600101915050611ab7565b8191505b50919050565b60085481565b6000809054906101000a900473ffffffffffffffffffffffffffffffffffffffff1681565b6000611b24600f60059054906101000a900460ff1660ff16611a99565b611b41600f60059054906101000a900460ff16840360ff16611a99565b02600c54611b518460ff16611a99565b02811515611b5b57fe5b049050919050565b611b6b613684565b6000611b75613698565b6000601460008681526020019081526020016000206000016014600087815260200190815260200160002060020154601460008881526020019081526020016000206003016014600089815260200190815260200160002060090160009054906101000a900460ff16838054600181600116156101000203166002900480601f016020809104026020016040519081016040528092919081815260200182805460018160011615610100020316600290048015611c735780601f10611c4857610100808354040283529160200191611c73565b820191906000526020600020905b815481529060010190602001808311611c5657829003601f168201915b5050505050935081600680602002604051908101604052809291908260068015611cb2576020028201915b815481526020019060010190808311611c9e575b5050505050915093509350935093509193509193565b60028054600181600116156101000203166002900480601f016020809104026020016040519081016040528092919081815260200182805460018160011615610100020316600290048015611d5e5780601f10611d3357610100808354040283529160200191611d5e565b820191906000526020600020905b815481529060010190602001808311611d4157829003601f168201915b505050505081565b600f60069054906101000a900460ff1681565b60008060009054906101000a900473ffffffffffffffffffffffffffffffffffffffff1673ffffffffffffffffffffffffffffffffffffffff163373ffffffffffffffffffffffffffffffffffffffff16141515611dd657600080fd5b60146000600f60019054906101000a900463ffffffff1663ffffffff16815260200190815260200160002060090160019054906101000a900460ff1615611e205760009050611e6b565b8160146000600f60019054906101000a900463ffffffff1663ffffffff16815260200190815260200160002060090160006101000a81548160ff021916908315150217905550600190505b919050565b611e786136c0565b600080600060146000878152602001908152602001600020600101600086815260200190815260200160002060020160146000888152602001908152602001600020600101600087815260200190815260200160002060030160009054906101000a900460ff1660146000898152602001908152602001600020600101600088815260200190815260200160002060030160019054906101000a900460ff16601460008a815260200190815260200160002060010160008981526020019081526020016000206004015483600d806020026040519081016040528092919082600d8015611fa0576020028201916000905b82829054906101000a900460ff1660ff1681526020019060010190602082600001049283019260010382029150808411611f695790505b50505050509350935093509350935092959194509250565b600060085434811515611fc757fe5b049050611fd5303383612858565b50565b611fe3338383612858565b5050565b60008060009054906101000a900473ffffffffffffffffffffffffffffffffffffffff1673ffffffffffffffffffffffffffffffffffffffff163373ffffffffffffffffffffffffffffffffffffffff1614151561204457600080fd5b60146000600f60019054906101000a900463ffffffff1663ffffffff16815260200190815260200160002060090160009054906101000a900460ff161561208e576000905061228b565b600f600181819054906101000a900463ffffffff168092919060010191906101000a81548163ffffffff021916908363ffffffff160217905550506040805190810160405280600a81526020017f32312e31312e323031370000000000000000000000000000000000000000000081525060146000600f60019054906101000a900463ffffffff1663ffffffff16815260200190815260200160002060000190805190602001906121409291906136ec565b50600060146000600f60019054906101000a900463ffffffff1663ffffffff1681526020019081526020016000206002018190555060c060405190810160405280600060ff168152602001600060ff168152602001600060ff168152602001600060ff168152602001600060ff168152602001600060ff1681525060146000600f60019054906101000a900463ffffffff1663ffffffff1681526020019081526020016000206003019060066121f792919061376c565b50600160146000600f60019054906101000a900463ffffffff1663ffffffff16815260200190815260200160002060090160006101000a81548160ff021916908315150217905550600060146000600f60019054906101000a900463ffffffff1663ffffffff16815260200190815260200160002060090160016101000a81548160ff021916908315150217905550600190505b90565b60096020528060005260406000206000915054906101000a900460ff1681565b6010816003811015156122bd57fe5b60209182820401919006915054906101000a900460ff1681565b6000808490506122e7858561103e565b1561244c578073ffffffffffffffffffffffffffffffffffffffff16638f4ffcb1338630876040518563ffffffff167c0100000000000000000000000000000000000000000000000000000000028152600401808573ffffffffffffffffffffffffffffffffffffffff1673ffffffffffffffffffffffffffffffffffffffff1681526020018481526020018373ffffffffffffffffffffffffffffffffffffffff1673ffffffffffffffffffffffffffffffffffffffff16815260200180602001828103825283818151815260200191508051906020019080838360005b838110156123e15780820151818401526020810190506123c6565b50505050905090810190601f16801561240e5780820380516001836020036101000a031916815260200191505b5095505050505050600060405180830381600087803b151561242f57600080fd5b6102c65a03f1151561244057600080fd5b5050506001915061244d565b5b509392505050565b600d5481565b600080600080600d9250600085600c600d8110151561247657fe5b602002015160ff16141561248e578280600190039350505b600091505b600c8210156125c957600f60009054906101000a900460ff1660ff168583600d811015156124bd57fe5b602002015160ff1611806124f85750600f60009054906101000a900460ff1660ff1685600c600d811015156124ee57fe5b602002015160ff16115b80612506575060068360ff16105b1561251757600083935093506125d1565b60008583600d8110151561252757fe5b602002015160ff16141561253f578280600190039350505b6001820190505b600d8110156125bc578481600d8110151561255d57fe5b602002015160ff168583600d8110151561257357fe5b602002015160ff1614801561259e575060008583600d8110151561259357fe5b602002015160ff1614155b156125af57600083935093506125d1565b8080600101915050612546565b8180600101925050612493565b600183935093505b5050915091565b600f60019054906101000a900463ffffffff1681565b6006602052816000526040600020602052806000526040600020600091509150505481565b60075481023073ffffffffffffffffffffffffffffffffffffffff16311015151561263d57600080fd5b612648333083612858565b3373ffffffffffffffffffffffffffffffffffffffff166108fc60075483029081150290604051600060405180830381858888f19350505050151561268c57600080fd5b50565b6000809054906101000a900473ffffffffffffffffffffffffffffffffffffffff1673ffffffffffffffffffffffffffffffffffffffff163373ffffffffffffffffffffffffffffffffffffffff161415156126ea57600080fd5b80600960008473ffffffffffffffffffffffffffffffffffffffff1673ffffffffffffffffffffffffffffffffffffffff16815260200190815260200160002060006101000a81548160ff0219169083151502179055507f48335238b4855f35377ed80f164e8c6f3c366e54ac00b96a6402d4a9814a03a58282604051808373ffffffffffffffffffffffffffffffffffffffff1673ffffffffffffffffffffffffffffffffffffffff168152602001821515151581526020019250505060405180910390a15050565b600e5481565b6000809054906101000a900473ffffffffffffffffffffffffffffffffffffffff1673ffffffffffffffffffffffffffffffffffffffff163373ffffffffffffffffffffffffffffffffffffffff1614151561281557600080fd5b806000806101000a81548173ffffffffffffffffffffffffffffffffffffffff021916908373ffffffffffffffffffffffffffffffffffffffff16021790555050565b60008273ffffffffffffffffffffffffffffffffffffffff161415151561287e57600080fd5b80600560008573ffffffffffffffffffffffffffffffffffffffff1673ffffffffffffffffffffffffffffffffffffffff168152602001908152602001600020541115156128cb57600080fd5b600560008373ffffffffffffffffffffffffffffffffffffffff1673ffffffffffffffffffffffffffffffffffffffff1681526020019081526020016000205481600560008573ffffffffffffffffffffffffffffffffffffffff1673ffffffffffffffffffffffffffffffffffffffff168152602001908152602001600020540111151561295957600080fd5b600960008473ffffffffffffffffffffffffffffffffffffffff1673ffffffffffffffffffffffffffffffffffffffff16815260200190815260200160002060009054906101000a900460ff161515156129b257600080fd5b600960008373ffffffffffffffffffffffffffffffffffffffff1673ffffffffffffffffffffffffffffffffffffffff16815260200190815260200160002060009054906101000a900460ff16151515612a0b57600080fd5b80600560008573ffffffffffffffffffffffffffffffffffffffff1673ffffffffffffffffffffffffffffffffffffffff1681526020019081526020016000206000828254039250508190555080600560008473ffffffffffffffffffffffffffffffffffffffff1673ffffffffffffffffffffffffffffffffffffffff168152602001908152602001600020600082825401925050819055508173ffffffffffffffffffffffffffffffffffffffff168373ffffffffffffffffffffffffffffffffffffffff167fddf252ad1be2c89b69c2b068fc378daa952ba7f163c4a11628f55a4df523b3ef836040518082815260200191505060405180910390a3505050565b60008060008060008060008060008090505b60146000600f60019054906101000a900463ffffffff1663ffffffff16815260200190815260200160002060020154811015612cc157612c0360146000600f60019054906101000a900463ffffffff1663ffffffff1681526020019081526020016000206001016000838152602001908152602001600020600201600d806020026040519081016040528092919082600d8015612bf9576020028201916000905b82829054906101000a900460ff1660ff1681526020019060010190602082600001049283019260010382029150808411612bc25790505b505050505061357a565b91508160146000600f60019054906101000a900463ffffffff1663ffffffff168152602001908152602001600020600101600083815260200190815260200160002060030160006101000a81548160ff021916908360ff16021790555060038260ff161415612c755784806001019550505b60048260ff161415612c8a5785806001019650505b60058260ff161415612c9f5786806001019750505b60068260ff161415612cb45787806001019850505b8080600101915050612b21565b600090505b60146000600f60019054906101000a900463ffffffff1663ffffffff168152602001908152602001600020600201548110156130ff5760146000600f60019054906101000a900463ffffffff1663ffffffff168152602001908152602001600020600101600082815260200190815260200160002060030160009054906101000a900460ff16915060038260ff161415612ddc576064850260106000600381101515612d6e57fe5b602091828204019190069054906101000a900460ff1660ff16600b5402811515612d9457fe5b0460146000600f60019054906101000a900463ffffffff1663ffffffff1681526020019081526020016000206001016000838152602001908152602001600020600401819055505b60048260ff161415612e6a576064860260106001600381101515612dfc57fe5b602091828204019190069054906101000a900460ff1660ff16600b5402811515612e2257fe5b0460146000600f60019054906101000a900463ffffffff1663ffffffff1681526020019081526020016000206001016000838152602001908152602001600020600401819055505b60058260ff161415612ef8576064870260106002600381101515612e8a57fe5b602091828204019190069054906101000a900460ff1660ff16600b5402811515612eb057fe5b0460146000600f60019054906101000a900463ffffffff1663ffffffff1681526020019081526020016000206001016000838152602001908152602001600020600401819055505b60068260ff161415612f595787600a54811515612f1157fe5b0460146000600f60019054906101000a900463ffffffff1663ffffffff1681526020019081526020016000206001016000838152602001908152602001600020600401819055505b60068260ff161015612fad5760146000600f60019054906101000a900463ffffffff1663ffffffff168152602001908152602001600020600101600082815260200190815260200160002060040154840193505b60068260ff1614156130015760146000600f60019054906101000a900463ffffffff1663ffffffff168152602001908152602001600020600101600082815260200190815260200160002060040154830192505b60146000600f60019054906101000a900463ffffffff1663ffffffff1681526020019081526020016000206001016000828152602001908152602001600020600401546005600060146000600f60019054906101000a900463ffffffff1663ffffffff168152602001908152602001600020600101600085815260200190815260200160002060000160009054906101000a900473ffffffffffffffffffffffffffffffffffffffff1673ffffffffffffffffffffffffffffffffffffffff1673ffffffffffffffffffffffffffffffffffffffff168152602001908152602001600020600082825401925050819055508080600101915050612cc6565b83600b6000828254039250508190555082600a6000828254039250508190555060019850505050505050505090565b600080600060646011600160038110151561314557fe5b0154600b540281151561315457fe5b04915060646011600260038110151561316957fe5b0154600b540281151561317857fe5b049050808201600b6000828254039250508190555081600a6000828254019250508190555080600560008060009054906101000a900473ffffffffffffffffffffffffffffffffffffffff1673ffffffffffffffffffffffffffffffffffffffff1673ffffffffffffffffffffffffffffffffffffffff1681526020019081526020016000206000828254019250508190555060019250505090565b60008060008060146000600f60019054906101000a900463ffffffff1663ffffffff16815260200190815260200160002060090160009054906101000a900460ff1615156132655760009350613572565b613272856040015161245b565b925092508215156132865760009350613572565b61328f82611b07565b905080600560003373ffffffffffffffffffffffffffffffffffffffff1673ffffffffffffffffffffffffffffffffffffffff1681526020019081526020016000205410156132e15760009350613572565b33856000019073ffffffffffffffffffffffffffffffffffffffff16908173ffffffffffffffffffffffffffffffffffffffff16815250506040805190810160405280600a81526020017f30362e31312e3230313700000000000000000000000000000000000000000000815250856020018190525081856080019060ff16908160ff16815250508460146000600f60019054906101000a900463ffffffff1663ffffffff168152602001908152602001600020600101600060146000600f60019054906101000a900463ffffffff1663ffffffff16815260200190815260200160002060020154815260200190815260200160002060008201518160000160006101000a81548173ffffffffffffffffffffffffffffffffffffffff021916908373ffffffffffffffffffffffffffffffffffffffff160217905550602082015181600101908051906020019061343a9291906137b1565b5060408201518160020190600d613452929190613831565b5060608201518160030160006101000a81548160ff021916908360ff16021790555060808201518160030160016101000a81548160ff021916908360ff16021790555060a0820151816004015590505060146000600f60019054906101000a900463ffffffff1663ffffffff1681526020019081526020016000206002016000815480929190600101919050555080600560003373ffffffffffffffffffffffffffffffffffffffff1673ffffffffffffffffffffffffffffffffffffffff168152602001908152602001600020600082825403925050819055506064600d54820281151561353d57fe5b04600a600082825401925050819055506064600e54820281151561355d57fe5b04600b60008282540192505081905550600193505b505050919050565b6000806000809250600091505b600d82101561361a57600090505b600681101561360d5760146000600f60019054906101000a900463ffffffff1663ffffffff168152602001908152602001600020600301816006811015156135d957fe5b01548483600d811015156135e957fe5b602002015160ff1614156136005782806001019350505b8080600101915050613595565b8180600101925050613587565b8292505050919050565b61024060405190810160405280600073ffffffffffffffffffffffffffffffffffffffff1681526020016136566138cb565b81526020016136636138df565b8152602001600060ff168152602001600060ff168152602001600081525090565b602060405190810160405280600081525090565b60c0604051908101604052806006905b60008152602001906001900390816136a85790505090565b6101a060405190810160405280600d905b600060ff168152602001906001900390816136d15790505090565b828054600181600116156101000203166002900490600052602060002090601f016020900481019282601f1061372d57805160ff191683800117855561375b565b8280016001018555821561375b579182015b8281111561375a57825182559160200191906001019061373f565b5b509050613768919061390b565b5090565b82600681019282156137a0579160200282015b8281111561379f578251829060ff1690559160200191906001019061377f565b5b5090506137ad919061390b565b5090565b828054600181600116156101000203166002900490600052602060002090601f016020900481019282601f106137f257805160ff1916838001178555613820565b82800160010185558215613820579182015b8281111561381f578251825591602001919060010190613804565b5b50905061382d919061390b565b5090565b82600d601f016020900481019282156138ba5791602002820160005b8382111561388b57835183826101000a81548160ff021916908360ff160217905550926020019260010160208160000104928301926001030261384d565b80156138b85782816101000a81549060ff021916905560010160208160000104928301926001030261388b565b505b5090506138c79190613930565b5090565b602060405190810160405280600081525090565b6101a060405190810160405280600d905b600060ff168152602001906001900390816138f05790505090565b61392d91905b80821115613929576000816000905550600101613911565b5090565b90565b61395d91905b8082111561395957600081816101000a81549060ff021916905550600101613936565b5090565b905600a165627a7a72305820126c5ad082c0a88f381a4401c344174ac47093a084629a6741369f60de6800510029",
  "source": "pragma solidity ^0.4.11;\r\n    \r\nimport \"./DHFBaseCurrency.sol\";\r\n    \r\n/*-  4  20\r\n *4    -, 4 -   , 2      \r\n *  .\r\n *3.11.2017\r\n */\r\ncontract lottery_6_45 is DHFBaseCurrency \r\n{\r\n    uint public JackPot = 0; //  \r\n    uint public regularPrize = 0; //   \r\n    uint public ticketPrice = 10; //  \r\n    uint public JackPot_assignment = 40; //    -   \r\n    uint public regularPrize_assignment = 40; //     \r\n    uint8 public max_Number = 45; //  ,     \r\n    uint32 public last_lottery_id = 0; //   \r\n    uint8 public prize_combination_size = 6;//    \r\n    uint8 public max_numbers_in_ticket = 13;//    \r\n    uint8[3] public won_percent = [10, 30, 60];//      3, 4  5     \r\n    uint[3] public redistributionPercent = [45, 45, 10];//     :  .    -.   \r\n    // \r\n    struct ticket{\r\n        address owner; // \r\n        string time; //    \r\n        uint8[13] numbers; //   -     -  4   \r\n        uint8 compliance_level; //      -  \r\n        uint8 valuable_numbers;//    - \r\n        uint money;//   \r\n    }\r\n    // 1  \r\n    struct lottery{\r\n        string date; //   \r\n        mapping(uint => ticket) tickets; //   .\r\n        uint tickets_count; //    \r\n        uint[6] prize_combination; //    \r\n        bool active; //     \r\n        bool played; //  \r\n    }\r\n    mapping (uint => lottery) public lotteries;\r\n\r\n    /* \r\n     *        \r\n     *  .\r\n     *3.11.2017\r\n     */\r\n    function lottery_6_45() DHFBaseCurrency (10000, \"Lottery 6 of 45\", \"L6x45\") public\r\n    { \r\n        lotteries[0].date = \"06.11.2017\";\r\n        lotteries[0].tickets_count = 0;\r\n        lotteries[0].prize_combination = [1,2,3,4,5,6];\r\n        lotteries[0].active = true;\r\n        lotteries[0].played = false;\r\n    }\r\n    //   \r\n    event BuyTicket(uint ticket_number, uint ticket_price, address ticket_owner, uint buy_time, uint lottery_number, string lottery_type, uint8[] ticket_numbers );\r\n    \r\n    /*  \r\n     *  .\r\n     *@lottery_id  \r\n     *@ticket_Id   \r\n     *6.11.2017\r\n     */\r\n    function getTicket(uint lottery_id,uint ticket_Id) public view returns (uint8[13] ticket_numbers, uint8 ticket_prize_level,uint8 numbers_in_ticket,uint money)\r\n    {\r\n        return (lotteries[lottery_id].tickets[ticket_Id].numbers, lotteries[lottery_id].tickets[ticket_Id].compliance_level, lotteries[lottery_id].tickets[ticket_Id].valuable_numbers, lotteries[lottery_id].tickets[ticket_Id].money);\r\n    }\r\n    \r\n    /*    \r\n     *  .\r\n     *return @count    \r\n     *21.11.2017\r\n     */\r\n    function newLottery() public onlyOwner returns (bool result)\r\n    {\r\n        if(lotteries[last_lottery_id].active) return false; //   ,    \r\n        last_lottery_id++;\r\n        lotteries[last_lottery_id].date = \"21.11.2017\";\r\n        lotteries[last_lottery_id].tickets_count = 0;\r\n        lotteries[last_lottery_id].prize_combination = [0,0,0,0,0,0];\r\n        lotteries[last_lottery_id].active = true;\r\n        lotteries[last_lottery_id].played = false;\r\n        return true;\r\n    }\r\n    \r\n    /*  \r\n     *  .\r\n     *@lottery_id  \r\n     *return @count    \r\n     *21.11.2017\r\n     */\r\n    function getLottery(uint lottery_id) public view returns (\r\n        string date, //   \r\n        uint tickets_count, //    \r\n        uint[6] prize_combination, //    \r\n        bool active\r\n        )\r\n    {\r\n        return (lotteries[lottery_id].date,lotteries[lottery_id].tickets_count,lotteries[lottery_id].prize_combination, lotteries[lottery_id].active);\r\n    }\r\n    \r\n    /*   \r\n     *       -     \r\n     *      \r\n     *       \r\n     *  .\r\n     *@array_to_search ,   \r\n     *return bool success -  \r\n     *8.11.2017\r\n     */ \r\n    function finishLottery() onlyOwner public returns (bool success)\r\n    {\r\n        if(lotteries[last_lottery_id].active) return false;\r\n        if(lotteries[last_lottery_id].played) return false;\r\n        calculatePrizes();\r\n        redistributionOfRegularPrize();\r\n        lotteries[last_lottery_id].played = true;\r\n        return true;\r\n    }\r\n    \r\n    /*     \r\n     *  .\r\n     *@lottery_activity bool    \r\n     *return bool success -  \r\n     *14.11.2017\r\n     */ \r\n    function changeStatus(bool lottery_activity) onlyOwner public returns (bool success)\r\n    {\r\n        if(lotteries[last_lottery_id].played) return false;//   ,   \r\n        lotteries[last_lottery_id].active = lottery_activity;\r\n        return true;\r\n    }\r\n    \r\n    /*    \r\n     *     \r\n     *  .\r\n     *@array_to_search ,   \r\n     *return uint compliance_level -     \r\n     *8.11.2017\r\n     */ \r\n    function getTicketComplianceLevel(uint8[13] ticket_numbers) internal constant returns (uint8 compliance_level)\r\n    {\r\n        compliance_level = 0;\r\n        for(uint i = 0; i < 13; i++)\r\n        {\r\n            for(uint k = 0; k < 6; k++)\r\n            {\r\n                if(ticket_numbers[i] == lotteries[last_lottery_id].prize_combination[k])\r\n                    compliance_level++;\r\n            }\r\n        }\r\n        return compliance_level;\r\n    }\r\n    \r\n    /*   \r\n     *            \r\n     *  .\r\n     *return bool success -    \r\n     *9.11.2017\r\n     */\r\n    function calculatePrizes() internal returns (bool)\r\n    {\r\n        uint jack_pot_numbers;//      \r\n        uint numbers_5_of_6;//      5  \r\n        uint numbers_4_of_6;//      4  \r\n        uint numbers_3_of_6;//      3  \r\n        uint regularLotteryCountedPrize;//    \r\n        uint JackPotCountedPrize;//   -\r\n        uint8 ticketComplianceLevel; \r\n        //      ,         \r\n        for (uint i = 0; i < lotteries[last_lottery_id].tickets_count; i++)\r\n        {\r\n            ticketComplianceLevel = getTicketComplianceLevel(lotteries[last_lottery_id].tickets[i].numbers);\r\n            lotteries[last_lottery_id].tickets[i].compliance_level = ticketComplianceLevel;\r\n            if(ticketComplianceLevel == 3) numbers_3_of_6++;\r\n            if(ticketComplianceLevel == 4) numbers_4_of_6++;\r\n            if(ticketComplianceLevel == 5) numbers_5_of_6++;\r\n            if(ticketComplianceLevel == 6) jack_pot_numbers++;\r\n        }\r\n        //         ,      \r\n        for (i = 0; i < lotteries[last_lottery_id].tickets_count; i++)\r\n        {\r\n            ticketComplianceLevel = lotteries[last_lottery_id].tickets[i].compliance_level;\r\n            if(ticketComplianceLevel == 3)\r\n                lotteries[last_lottery_id].tickets[i].money = regularPrize * (won_percent[0]) / (numbers_3_of_6 * 100);\r\n            if(ticketComplianceLevel == 4)\r\n                lotteries[last_lottery_id].tickets[i].money = regularPrize * (won_percent[1]) / (numbers_4_of_6 * 100);\r\n            if(ticketComplianceLevel == 5)\r\n                lotteries[last_lottery_id].tickets[i].money = regularPrize * (won_percent[2]) / (numbers_5_of_6 * 100);\r\n            if(ticketComplianceLevel == 6)\r\n                lotteries[last_lottery_id].tickets[i].money = JackPot / jack_pot_numbers;\r\n            if(ticketComplianceLevel < 6) regularLotteryCountedPrize += lotteries[last_lottery_id].tickets[i].money; //   ,       \r\n            if(ticketComplianceLevel == 6) JackPotCountedPrize += lotteries[last_lottery_id].tickets[i].money; //   ,       \r\n            balanceOf[lotteries[last_lottery_id].tickets[i].owner] += lotteries[last_lottery_id].tickets[i].money;//      \r\n        }\r\n        regularPrize -= regularLotteryCountedPrize;//    \r\n        JackPot -= JackPotCountedPrize;//    \r\n        return true;\r\n    }\r\n    \r\n    /*\r\n     *       \r\n     *45%      \r\n     *45%      -\r\n     *10%     -\r\n     *  .\r\n     *return bool success -   \r\n     *21.11.2017\r\n     */\r\n    function redistributionOfRegularPrize() internal returns (bool)\r\n    {\r\n        uint jackPotAdditional = regularPrize * redistributionPercent[1] / 100;//        \r\n        uint ownersAdditional = regularPrize * redistributionPercent[2] / 100;//        \r\n        regularPrize -= (jackPotAdditional + ownersAdditional);\r\n        JackPot += jackPotAdditional;\r\n        balanceOf[owner] += ownersAdditional;\r\n        return true;\r\n    }\r\n    \r\n    /*    6  13   \r\n     *  .\r\n     *@number_1-number_13 uint8    -  13\r\n     *return bool success -    \r\n     *9.11.2017\r\n     */\r\n    function buyTicket(\r\n            uint8 number_1,\r\n            uint8 number_2,\r\n            uint8 number_3,\r\n            uint8 number_4,\r\n            uint8 number_5,\r\n            uint8 number_6,\r\n            uint8 number_7,\r\n            uint8 number_8,\r\n            uint8 number_9,\r\n            uint8 number_10,\r\n            uint8 number_11,\r\n            uint8 number_12,\r\n            uint8 number_13)\r\n        public returns (bool success){\r\n        ticket memory new_ticket;\r\n        new_ticket.numbers[0] = number_1;\r\n        new_ticket.numbers[1] = number_2;\r\n        new_ticket.numbers[2] = number_3;\r\n        new_ticket.numbers[3] = number_4;\r\n        new_ticket.numbers[4] = number_5;\r\n        new_ticket.numbers[5] = number_6;\r\n        new_ticket.numbers[6] = number_7;\r\n        new_ticket.numbers[7] = number_8;\r\n        new_ticket.numbers[8] = number_9;\r\n        new_ticket.numbers[9] = number_10;\r\n        new_ticket.numbers[10] = number_11;\r\n        new_ticket.numbers[11] = number_12;\r\n        new_ticket.numbers[12] = number_13;\r\n        return checkTicketBuying(new_ticket);\r\n    }\r\n    \r\n    /*   \r\n     *   -       -  16!\r\n     *  .\r\n     *@ticked_for_checking  \r\n     *return bool success -    \r\n     *9.11.2017\r\n     */\r\n    function checkTicketBuying(ticket ticked_for_checking) internal returns (bool success)\r\n    {\r\n        if(!lotteries[last_lottery_id].active) return false;\r\n        var(allowability, valuable_numbers) = isAllowableBigTicket(ticked_for_checking.numbers);\r\n        if(!allowability) return false;\r\n        uint current_ticket_price = getTicketPrice(valuable_numbers);//          \r\n        if (balanceOf[msg.sender] < current_ticket_price) return false;\r\n        ticked_for_checking.owner = msg.sender;\r\n        ticked_for_checking.time = \"06.11.2017\";\r\n        ticked_for_checking.valuable_numbers = valuable_numbers;\r\n        lotteries[last_lottery_id].tickets[lotteries[last_lottery_id].tickets_count] = ticked_for_checking;\r\n        lotteries[last_lottery_id].tickets_count++;\r\n        balanceOf[msg.sender] -= current_ticket_price;\r\n        JackPot += (current_ticket_price * JackPot_assignment) / 100;//       ,      \r\n        regularPrize += (current_ticket_price * regularPrize_assignment) / 100;//         ,      \r\n        /*\r\n        uint8[] memory temp;\r\n        for (uint8 i = 0; i < 13; i++ ){\r\n            temp[i] = ticked_for_checking.numbers[i];\r\n        }*/\r\n        //BuyTicket(current_ticket_number, current_ticket_price, msg.sender, now, last_lottery_id , \"Lottery 6 45\", temp);\r\n        return true;\r\n    }\r\n    \r\n    \r\n    /*      6  13   \r\n     *   ,        7\r\n     *  .\r\n     **@ticket_numbers  \r\n     *return bool success -        \r\n     **return uint8 numbers_in_ticket      -     \r\n     *9.11.2017\r\n     */\r\n    function isAllowableBigTicket(uint8[13] ticket_numbers) public constant returns (bool, uint8 numbers_in_ticket)\r\n    {\r\n        numbers_in_ticket = 13;\r\n        if(ticket_numbers[12] == 0) numbers_in_ticket--;\r\n        for (uint i = 0; i < 12; i++)\r\n        {\r\n            if((ticket_numbers[i] > max_Number) || (ticket_numbers[12] > max_Number) || (numbers_in_ticket < 6)) return (false, numbers_in_ticket);\r\n            if(ticket_numbers[i] == 0) numbers_in_ticket--;\r\n            for(uint k = i + 1; k < 13; k++)\r\n            {\r\n                if ((ticket_numbers[i] == ticket_numbers[k]) && (ticket_numbers[i] != 0)) return (false, numbers_in_ticket);\r\n            }\r\n        }\r\n        return (true,numbers_in_ticket);\r\n    }\r\n    \r\n    \r\n    /*       \r\n     *  .\r\n     *@number_count uint8    \r\n     *return uint256 price -    -     ,      \r\n     *9.11.2017\r\n     */\r\n    function getTicketPrice(uint8 number_count) public constant returns (uint256 price)\r\n    {\r\n        return (factorial(number_count) * ticketPrice) / (factorial(number_count - prize_combination_size) * factorial(prize_combination_size));\r\n    }\r\n    \r\n    /*  \r\n     *  .\r\n     *@number uint256    \r\n     *return uint256 fact -   \r\n     *10.11.2017\r\n     */\r\n    function factorial(uint256 number) public pure returns(uint256 fact) \r\n    {\r\n        fact = 1;\r\n        if(number == 0) return 1;\r\n        for(uint256 i = 1;i<=number;i++)\r\n            fact = fact * i;\r\n        return fact;\r\n    }\r\n    \r\n    \r\n}",
  "sourcePath": "D:\\Digital Heritage Fund\\\\    \\Lottery\\contracts\\lottery_6_45.sol",
  "compiler": {
    "name": "solc",
    "version": "0.4.18+commit.9cf6e910.Emscripten.clang"
  },
  "schemaVersion": "1.0.1",
  "updatedAt": "2017-11-21T14:21:13.293Z"
}