{
  "contractName": "lottery_6_45",
  "abi": [
    {
      "constant": false,
      "inputs": [
        {
          "name": "newSellPrice",
          "type": "uint256"
        },
        {
          "name": "newBuyPrice",
          "type": "uint256"
        }
      ],
      "name": "setPrices",
      "outputs": [],
      "payable": false,
      "stateMutability": "nonpayable",
      "type": "function"
    },
    {
      "constant": true,
      "inputs": [],
      "name": "name",
      "outputs": [
        {
          "name": "",
          "type": "string"
        }
      ],
      "payable": false,
      "stateMutability": "view",
      "type": "function"
    },
    {
      "constant": false,
      "inputs": [
        {
          "name": "_spender",
          "type": "address"
        },
        {
          "name": "_value",
          "type": "uint256"
        }
      ],
      "name": "approve",
      "outputs": [
        {
          "name": "success",
          "type": "bool"
        }
      ],
      "payable": false,
      "stateMutability": "nonpayable",
      "type": "function"
    },
    {
      "constant": true,
      "inputs": [],
      "name": "JackPot",
      "outputs": [
        {
          "name": "",
          "type": "uint256"
        }
      ],
      "payable": false,
      "stateMutability": "view",
      "type": "function"
    },
    {
      "constant": true,
      "inputs": [],
      "name": "ticketPrice",
      "outputs": [
        {
          "name": "",
          "type": "uint256"
        }
      ],
      "payable": false,
      "stateMutability": "view",
      "type": "function"
    },
    {
      "constant": true,
      "inputs": [
        {
          "name": "",
          "type": "uint256"
        }
      ],
      "name": "lotteries",
      "outputs": [
        {
          "name": "date",
          "type": "string"
        },
        {
          "name": "tickets_count",
          "type": "uint256"
        },
        {
          "name": "active",
          "type": "bool"
        }
      ],
      "payable": false,
      "stateMutability": "view",
      "type": "function"
    },
    {
      "constant": true,
      "inputs": [],
      "name": "totalSupply",
      "outputs": [
        {
          "name": "",
          "type": "uint256"
        }
      ],
      "payable": false,
      "stateMutability": "view",
      "type": "function"
    },
    {
      "constant": false,
      "inputs": [
        {
          "name": "_from",
          "type": "address"
        },
        {
          "name": "_to",
          "type": "address"
        },
        {
          "name": "_value",
          "type": "uint256"
        }
      ],
      "name": "transferFrom",
      "outputs": [
        {
          "name": "success",
          "type": "bool"
        }
      ],
      "payable": false,
      "stateMutability": "nonpayable",
      "type": "function"
    },
    {
      "constant": false,
      "inputs": [
        {
          "name": "number_1",
          "type": "uint8"
        },
        {
          "name": "number_2",
          "type": "uint8"
        },
        {
          "name": "number_3",
          "type": "uint8"
        },
        {
          "name": "number_4",
          "type": "uint8"
        },
        {
          "name": "number_5",
          "type": "uint8"
        },
        {
          "name": "number_6",
          "type": "uint8"
        },
        {
          "name": "number_7",
          "type": "uint8"
        },
        {
          "name": "number_8",
          "type": "uint8"
        },
        {
          "name": "number_9",
          "type": "uint8"
        },
        {
          "name": "number_10",
          "type": "uint8"
        },
        {
          "name": "number_11",
          "type": "uint8"
        },
        {
          "name": "number_12",
          "type": "uint8"
        },
        {
          "name": "number_13",
          "type": "uint8"
        }
      ],
      "name": "buy_big_ticket",
      "outputs": [
        {
          "name": "success",
          "type": "bool"
        }
      ],
      "payable": false,
      "stateMutability": "nonpayable",
      "type": "function"
    },
    {
      "constant": true,
      "inputs": [],
      "name": "decimals",
      "outputs": [
        {
          "name": "",
          "type": "uint8"
        }
      ],
      "payable": false,
      "stateMutability": "view",
      "type": "function"
    },
    {
      "constant": false,
      "inputs": [
        {
          "name": "_value",
          "type": "uint256"
        }
      ],
      "name": "burn",
      "outputs": [
        {
          "name": "success",
          "type": "bool"
        }
      ],
      "payable": false,
      "stateMutability": "nonpayable",
      "type": "function"
    },
    {
      "constant": true,
      "inputs": [],
      "name": "prize_combination_size",
      "outputs": [
        {
          "name": "",
          "type": "uint8"
        }
      ],
      "payable": false,
      "stateMutability": "view",
      "type": "function"
    },
    {
      "constant": true,
      "inputs": [],
      "name": "sellPrice",
      "outputs": [
        {
          "name": "",
          "type": "uint256"
        }
      ],
      "payable": false,
      "stateMutability": "view",
      "type": "function"
    },
    {
      "constant": true,
      "inputs": [],
      "name": "regularPrize",
      "outputs": [
        {
          "name": "",
          "type": "uint256"
        }
      ],
      "payable": false,
      "stateMutability": "view",
      "type": "function"
    },
    {
      "constant": true,
      "inputs": [
        {
          "name": "",
          "type": "address"
        }
      ],
      "name": "balanceOf",
      "outputs": [
        {
          "name": "",
          "type": "uint256"
        }
      ],
      "payable": false,
      "stateMutability": "view",
      "type": "function"
    },
    {
      "constant": false,
      "inputs": [
        {
          "name": "target",
          "type": "address"
        },
        {
          "name": "mintedAmount",
          "type": "uint256"
        }
      ],
      "name": "mintToken",
      "outputs": [],
      "payable": false,
      "stateMutability": "nonpayable",
      "type": "function"
    },
    {
      "constant": false,
      "inputs": [
        {
          "name": "_from",
          "type": "address"
        },
        {
          "name": "_value",
          "type": "uint256"
        }
      ],
      "name": "burnFrom",
      "outputs": [
        {
          "name": "success",
          "type": "bool"
        }
      ],
      "payable": false,
      "stateMutability": "nonpayable",
      "type": "function"
    },
    {
      "constant": true,
      "inputs": [],
      "name": "max_Number",
      "outputs": [
        {
          "name": "",
          "type": "uint8"
        }
      ],
      "payable": false,
      "stateMutability": "view",
      "type": "function"
    },
    {
      "constant": true,
      "inputs": [
        {
          "name": "number",
          "type": "uint256"
        }
      ],
      "name": "factorial",
      "outputs": [
        {
          "name": "fact",
          "type": "uint256"
        }
      ],
      "payable": false,
      "stateMutability": "pure",
      "type": "function"
    },
    {
      "constant": true,
      "inputs": [],
      "name": "buyPrice",
      "outputs": [
        {
          "name": "",
          "type": "uint256"
        }
      ],
      "payable": false,
      "stateMutability": "view",
      "type": "function"
    },
    {
      "constant": true,
      "inputs": [],
      "name": "owner",
      "outputs": [
        {
          "name": "",
          "type": "address"
        }
      ],
      "payable": false,
      "stateMutability": "view",
      "type": "function"
    },
    {
      "constant": true,
      "inputs": [
        {
          "name": "number_count",
          "type": "uint8"
        }
      ],
      "name": "getTicketPrice",
      "outputs": [
        {
          "name": "price",
          "type": "uint256"
        }
      ],
      "payable": false,
      "stateMutability": "view",
      "type": "function"
    },
    {
      "constant": true,
      "inputs": [
        {
          "name": "lottery_id",
          "type": "uint256"
        },
        {
          "name": "ticket_Id",
          "type": "uint256"
        }
      ],
      "name": "symbol",
      "outputs": [
        {
          "name": "",
          "type": "string"
        },
        {
          "name": "ticket_prize_level",
          "type": "uint8"
        },
        {
          "name": "numbers_in_ticket",
          "type": "uint8"
        },
        {
          "name": "money",
          "type": "uint256"
        }
      ],
      "payable": false,
      "stateMutability": "view",
      "type": "function"
    },
    {
      "constant": true,
      "inputs": [],
      "name": "max_numbers_in_ticket",
      "outputs": [
        {
          "name": "",
          "type": "uint8"
        }
      ],
      "payable": false,
      "stateMutability": "view",
      "type": "function"
    },
    {
      "constant": true,
      "inputs": [
        {
          "name": "lottery_id",
          "type": "uint256"
        },
        {
          "name": "ticket_Id",
          "type": "uint256"
        }
      ],
      "name": "getTicket",
      "outputs": [
        {
          "name": "ticket_numbers",
          "type": "uint8[13]"
        },
        {
          "name": "ticket_prize_level",
          "type": "uint8"
        },
        {
          "name": "numbers_in_ticket",
          "type": "uint8"
        },
        {
          "name": "money",
          "type": "uint256"
        }
      ],
      "payable": false,
      "stateMutability": "view",
      "type": "function"
    },
    {
      "constant": false,
      "inputs": [
        {
          "name": "",
          "type": "address"
        }
      ],
      "name": "buy",
      "outputs": [
        {
          "name": "",
          "type": "bool"
        }
      ],
      "payable": true,
      "stateMutability": "payable",
      "type": "function"
    },
    {
      "constant": false,
      "inputs": [
        {
          "name": "_to",
          "type": "address"
        },
        {
          "name": "_value",
          "type": "uint256"
        }
      ],
      "name": "transfer",
      "outputs": [
        {
          "name": "success",
          "type": "bool"
        }
      ],
      "payable": false,
      "stateMutability": "nonpayable",
      "type": "function"
    },
    {
      "constant": true,
      "inputs": [
        {
          "name": "",
          "type": "address"
        }
      ],
      "name": "frozenAccount",
      "outputs": [
        {
          "name": "",
          "type": "bool"
        }
      ],
      "payable": false,
      "stateMutability": "view",
      "type": "function"
    },
    {
      "constant": false,
      "inputs": [
        {
          "name": "",
          "type": "uint256"
        }
      ],
      "name": "finish_lottery",
      "outputs": [
        {
          "name": "success",
          "type": "bool"
        }
      ],
      "payable": false,
      "stateMutability": "nonpayable",
      "type": "function"
    },
    {
      "constant": true,
      "inputs": [
        {
          "name": "",
          "type": "uint256"
        },
        {
          "name": "_value",
          "type": "uint256"
        },
        {
          "name": "_extraData",
          "type": "bytes"
        }
      ],
      "name": "won_percent",
      "outputs": [
        {
          "name": "",
          "type": "uint8"
        }
      ],
      "payable": false,
      "stateMutability": "view",
      "type": "function"
    },
    {
      "constant": false,
      "inputs": [
        {
          "name": "_spender",
          "type": "address"
        },
        {
          "name": "_value",
          "type": "uint256"
        },
        {
          "name": "_extraData",
          "type": "bytes"
        }
      ],
      "name": "approveAndCall",
      "outputs": [
        {
          "name": "success",
          "type": "bool"
        }
      ],
      "payable": false,
      "stateMutability": "nonpayable",
      "type": "function"
    },
    {
      "constant": true,
      "inputs": [],
      "name": "JackPot_assignment",
      "outputs": [
        {
          "name": "",
          "type": "uint256"
        }
      ],
      "payable": false,
      "stateMutability": "view",
      "type": "function"
    },
    {
      "constant": true,
      "inputs": [
        {
          "name": "ticket_numbers",
          "type": "uint8[13]"
        }
      ],
      "name": "isAllowableBigTicket",
      "outputs": [
        {
          "name": "",
          "type": "bool"
        },
        {
          "name": "numbers_in_ticket",
          "type": "uint8"
        }
      ],
      "payable": false,
      "stateMutability": "view",
      "type": "function"
    },
    {
      "constant": true,
      "inputs": [
        {
          "name": "lottery_activity",
          "type": "bool"
        },
        {
          "name": "",
          "type": "address"
        }
      ],
      "name": "last_lottery_id",
      "outputs": [
        {
          "name": "",
          "type": "uint32"
        }
      ],
      "payable": false,
      "stateMutability": "view",
      "type": "function"
    },
    {
      "constant": false,
      "inputs": [
        {
          "name": "lottery_activity",
          "type": "bool"
        },
        {
          "name": "",
          "type": "address"
        }
      ],
      "name": "change_status",
      "outputs": [
        {
          "name": "success",
          "type": "bool"
        }
      ],
      "payable": false,
      "stateMutability": "nonpayable",
      "type": "function"
    },
    {
      "constant": true,
      "inputs": [
        {
          "name": "",
          "type": "address"
        },
        {
          "name": "",
          "type": "address"
        }
      ],
      "name": "allowance",
      "outputs": [
        {
          "name": "",
          "type": "uint256"
        }
      ],
      "payable": false,
      "stateMutability": "view",
      "type": "function"
    },
    {
      "constant": false,
      "inputs": [
        {
          "name": "amount",
          "type": "uint256"
        },
        {
          "name": "freeze",
          "type": "bool"
        }
      ],
      "name": "sell",
      "outputs": [
        {
          "name": "",
          "type": "uint256"
        }
      ],
      "payable": false,
      "stateMutability": "nonpayable",
      "type": "function"
    },
    {
      "constant": false,
      "inputs": [
        {
          "name": "target",
          "type": "address"
        },
        {
          "name": "freeze",
          "type": "bool"
        }
      ],
      "name": "freezeAccount",
      "outputs": [
        {
          "name": "",
          "type": "uint256"
        }
      ],
      "payable": false,
      "stateMutability": "nonpayable",
      "type": "function"
    },
    {
      "inputs": [
        {
          "name": "newOwner",
          "type": "address"
        }
      ],
      "payable": false,
      "stateMutability": "view",
      "type": "function",
      "constant": true,
      "name": "regularPrize_assignment",
      "outputs": [
        {
          "name": "",
          "type": "uint256"
        }
      ]
    },
    {
      "anonymous": false,
      "inputs": [
        {
          "indexed": false,
          "name": "newOwner",
          "type": "address"
        },
        {
          "indexed": false,
          "name": "ticket_price",
          "type": "uint256"
        },
        {
          "indexed": false,
          "name": "ticket_owner",
          "type": "address"
        },
        {
          "indexed": false,
          "name": "buy_time",
          "type": "uint256"
        },
        {
          "indexed": false,
          "name": "lottery_number",
          "type": "uint256"
        },
        {
          "indexed": false,
          "name": "lottery_type",
          "type": "string"
        },
        {
          "indexed": false,
          "name": "ticket_numbers",
          "type": "uint8[]"
        }
      ],
      "name": "transferOwnership",
      "type": "function",
      "payable": false,
      "stateMutability": "nonpayable",
      "constant": false,
      "outputs": []
    },
    {
      "anonymous": false,
      "inputs": [
        {
          "indexed": false,
          "name": "ticket_number",
          "type": "uint256"
        },
        {
          "indexed": false,
          "name": "ticket_price",
          "type": "uint256"
        },
        {
          "indexed": false,
          "name": "ticket_owner",
          "type": "address"
        },
        {
          "indexed": false,
          "name": "buy_time",
          "type": "uint256"
        },
        {
          "indexed": false,
          "name": "lottery_number",
          "type": "uint256"
        },
        {
          "indexed": false,
          "name": "lottery_type",
          "type": "string"
        },
        {
          "indexed": false,
          "name": "ticket_numbers",
          "type": "uint8[]"
        }
      ],
      "name": "BuyTicket",
      "type": "constructor",
      "payable": false,
      "stateMutability": "nonpayable"
    },
    {
      "anonymous": false,
      "inputs": [
        {
          "indexed": false,
          "name": "ticket_number",
          "type": "uint256"
        },
        {
          "indexed": false,
          "name": "ticket_price",
          "type": "uint256"
        },
        {
          "indexed": false,
          "name": "ticket_owner",
          "type": "address"
        },
        {
          "indexed": false,
          "name": "buy_time",
          "type": "uint256"
        },
        {
          "indexed": false,
          "name": "lottery_number",
          "type": "uint256"
        },
        {
          "indexed": false,
          "name": "lottery_type",
          "type": "string"
        },
        {
          "indexed": false,
          "name": "ticket_numbers",
          "type": "uint8[]"
        }
      ],
      "name": "BuyTicket",
      "type": "event"
    },
    {
      "anonymous": false,
      "inputs": [
        {
          "indexed": false,
          "name": "target",
          "type": "address"
        },
        {
          "indexed": false,
          "name": "frozen",
          "type": "bool"
        },
        {
          "indexed": false,
          "name": "value",
          "type": "uint256"
        }
      ],
      "name": "FrozenFunds",
      "type": "event"
    },
    {
      "anonymous": false,
      "inputs": [
        {
          "indexed": true,
          "name": "from",
          "type": "address"
        },
        {
          "indexed": true,
          "name": "to",
          "type": "address"
        },
        {
          "indexed": false,
          "name": "value",
          "type": "uint256"
        }
      ],
      "name": "Transfer",
      "type": "event"
    },
    {
      "anonymous": false,
      "inputs": [
        {
          "indexed": true,
          "name": "from",
          "type": "address"
        },
        {
          "indexed": false,
          "name": "value",
          "type": "uint256"
        }
      ],
      "name": "Burn",
      "type": "event"
    }
  ],
  "bytecode": "0x60606040526012600360006101000a81548160ff021916908360ff1602179055506000600a556000600b55600a600c556028600d556028600e55602d600f60006101000a81548160ff021916908360ff1602179055506000600f60016101000a81548163ffffffff021916908363ffffffff1602179055506006600f60056101000a81548160ff021916908360ff160217905550600d600f60066101000a81548160ff021916908360ff160217905550606060405190810160405280600a60ff168152602001601e60ff168152602001603c60ff168152506010906003620000e992919062000364565b503415620000f657600080fd5b6127106040805190810160405280600f81526020017f4c6f74746572792036206f6620343500000000000000000000000000000000008152506040805190810160405280600581526020017f4c36783435000000000000000000000000000000000000000000000000000000815250828282336000806101000a81548173ffffffffffffffffffffffffffffffffffffffff021916908373ffffffffffffffffffffffffffffffffffffffff160217905550600360009054906101000a900460ff1660ff16600a0a8302600481905550600454600560003373ffffffffffffffffffffffffffffffffffffffff1673ffffffffffffffffffffffffffffffffffffffff1681526020019081526020016000208190555081600190805190602001906200022492919062000405565b5080600290805190602001906200023d92919062000405565b505050505050506040805190810160405280600a81526020017f30362e31312e3230313700000000000000000000000000000000000000000000815250601160008081526020019081526020016000206000019080519060200190620002a592919062000405565b506000601160008081526020019081526020016000206002018190555060c060405190810160405280600160ff168152602001600260ff168152602001600360ff168152602001600460ff168152602001600560ff168152602001600660ff16815250601160008081526020019081526020016000206003019060066200032e9291906200048c565b5060016011600080815260200190815260200160002060090160006101000a81548160ff02191690831515021790555062000531565b826003601f01602090048101928215620003f25791602002820160005b83821115620003c157835183826101000a81548160ff021916908360ff160217905550926020019260010160208160000104928301926001030262000381565b8015620003f05782816101000a81549060ff0219169055600101602081600001049283019260010302620003c1565b505b509050620004019190620004d6565b5090565b828054600181600116156101000203166002900490600052602060002090601f016020900481019282601f106200044857805160ff191683800117855562000479565b8280016001018555821562000479579182015b82811115620004785782518255916020019190600101906200045b565b5b50905062000488919062000509565b5090565b8260068101928215620004c3579160200282015b82811115620004c2578251829060ff16905591602001919060010190620004a0565b5b509050620004d2919062000509565b5090565b6200050691905b808211156200050257600081816101000a81549060ff021916905550600101620004dd565b5090565b90565b6200052e91905b808211156200052a57600081600090555060010162000510565b5090565b90565b61311780620005416000396000f3006060604052600436106101ee576000357c0100000000000000000000000000000000000000000000000000000000900463ffffffff16806305fefda7146101f357806306fdde031461021f578063095ea7b3146102ad5780630a2282ae146103075780631209b1f6146103305780631398e0761461035957806318160ddd1461042457806323b872dd1461044d57806329fbcbe7146104c6578063313ce5671461059457806342966c68146105c3578063452b6feb146105fe5780634b7503341461062d5780635be01e451461065657806370a082311461067f57806379c65068146106cc57806379cc67901461070e5780637d5bf6f31461076857806383714834146107975780638620410b146107ce5780638da5cb5b146107f75780638ef7c6491461084c57806395d89b4114610886578063999fd09b14610914578063a426e4c814610943578063a6f2ae3a146109cc578063a9059cbb146109d6578063b414d4b614610a18578063b6aede1614610a69578063c61694f714610a96578063cae9ca5114610ad3578063cc911d7914610b70578063d03fc5e814610b99578063d583c5fb14610c05578063da473f3014610c3a578063dd62ed3e14610c77578063e4849b3214610ce3578063e724529c14610d06578063ea0a23e314610d4a578063f2fde38b14610d73575b600080fd5b34156101fe57600080fd5b61021d6004808035906020019091908035906020019091905050610dac565b005b341561022a57600080fd5b610232610e19565b6040518080602001828103825283818151815260200191508051906020019080838360005b83811015610272578082015181840152602081019050610257565b50505050905090810190601f16801561029f5780820380516001836020036101000a031916815260200191505b509250505060405180910390f35b34156102b857600080fd5b6102ed600480803573ffffffffffffffffffffffffffffffffffffffff16906020019091908035906020019091905050610eb7565b604051808215151515815260200191505060405180910390f35b341561031257600080fd5b61031a610f44565b6040518082815260200191505060405180910390f35b341561033b57600080fd5b610343610f4a565b6040518082815260200191505060405180910390f35b341561036457600080fd5b61037a6004808035906020019091905050610f50565b6040518080602001848152602001831515151581526020018281038252858181546001816001161561010002031660029004815260200191508054600181600116156101000203166002900480156104135780601f106103e857610100808354040283529160200191610413565b820191906000526020600020905b8154815290600101906020018083116103f657829003601f168201915b505094505050505060405180910390f35b341561042f57600080fd5b610437610f86565b6040518082815260200191505060405180910390f35b341561045857600080fd5b6104ac600480803573ffffffffffffffffffffffffffffffffffffffff1690602001909190803573ffffffffffffffffffffffffffffffffffffffff16906020019091908035906020019091905050610f8c565b604051808215151515815260200191505060405180910390f35b34156104d157600080fd5b61057a600480803560ff1690602001909190803560ff1690602001909190803560ff1690602001909190803560ff1690602001909190803560ff1690602001909190803560ff1690602001909190803560ff1690602001909190803560ff1690602001909190803560ff1690602001909190803560ff1690602001909190803560ff1690602001909190803560ff1690602001909190803560ff169060200190919050506110b9565b604051808215151515815260200191505060405180910390f35b341561059f57600080fd5b6105a76112c1565b604051808260ff1660ff16815260200191505060405180910390f35b34156105ce57600080fd5b6105e460048080359060200190919050506112d4565b604051808215151515815260200191505060405180910390f35b341561060957600080fd5b6106116113d8565b604051808260ff1660ff16815260200191505060405180910390f35b341561063857600080fd5b6106406113eb565b6040518082815260200191505060405180910390f35b341561066157600080fd5b6106696113f1565b6040518082815260200191505060405180910390f35b341561068a57600080fd5b6106b6600480803573ffffffffffffffffffffffffffffffffffffffff169060200190919050506113f7565b6040518082815260200191505060405180910390f35b34156106d757600080fd5b61070c600480803573ffffffffffffffffffffffffffffffffffffffff1690602001909190803590602001909190505061140f565b005b341561071957600080fd5b61074e600480803573ffffffffffffffffffffffffffffffffffffffff16906020019091908035906020019091905050611580565b604051808215151515815260200191505060405180910390f35b341561077357600080fd5b61077b61179a565b604051808260ff1660ff16815260200191505060405180910390f35b34156107a257600080fd5b6107b860048080359060200190919050506117ad565b6040518082815260200191505060405180910390f35b34156107d957600080fd5b6107e16117f0565b6040518082815260200191505060405180910390f35b341561080257600080fd5b61080a6117f6565b604051808273ffffffffffffffffffffffffffffffffffffffff1673ffffffffffffffffffffffffffffffffffffffff16815260200191505060405180910390f35b341561085757600080fd5b610870600480803560ff1690602001909190505061181b565b6040518082815260200191505060405180910390f35b341561089157600080fd5b610899611877565b6040518080602001828103825283818151815260200191508051906020019080838360005b838110156108d95780820151818401526020810190506108be565b50505050905090810190601f1680156109065780820380516001836020036101000a031916815260200191505b509250505060405180910390f35b341561091f57600080fd5b610927611915565b604051808260ff1660ff16815260200191505060405180910390f35b341561094e57600080fd5b61096d6004808035906020019091908035906020019091905050611928565b6040518085600d60200280838360005b8381101561099857808201518184015260208101905061097d565b505050509050018460ff1660ff1681526020018360ff1660ff16815260200182815260200194505050505060405180910390f35b6109d4611a70565b005b34156109e157600080fd5b610a16600480803573ffffffffffffffffffffffffffffffffffffffff16906020019091908035906020019091905050611a90565b005b3415610a2357600080fd5b610a4f600480803573ffffffffffffffffffffffffffffffffffffffff16906020019091905050611a9f565b604051808215151515815260200191505060405180910390f35b3415610a7457600080fd5b610a7c611abf565b604051808215151515815260200191505060405180910390f35b3415610aa157600080fd5b610ab76004808035906020019091905050611b74565b604051808260ff1660ff16815260200191505060405180910390f35b3415610ade57600080fd5b610b56600480803573ffffffffffffffffffffffffffffffffffffffff1690602001909190803590602001909190803590602001908201803590602001908080601f01602080910402602001604051908101604052809392919081815260200183838082843782019150505050505091905050611b9d565b604051808215151515815260200191505060405180910390f35b3415610b7b57600080fd5b610b83611d1b565b6040518082815260200191505060405180910390f35b3415610ba457600080fd5b610bde600480806101a00190600d806020026040519081016040528092919082600d60200280828437820191505050505091905050611d21565b60405180831515151581526020018260ff1660ff1681526020019250505060405180910390f35b3415610c1057600080fd5b610c18611e9e565b604051808263ffffffff1663ffffffff16815260200191505060405180910390f35b3415610c4557600080fd5b610c5d60048080351515906020019091905050611eb4565b604051808215151515815260200191505060405180910390f35b3415610c8257600080fd5b610ccd600480803573ffffffffffffffffffffffffffffffffffffffff1690602001909190803573ffffffffffffffffffffffffffffffffffffffff16906020019091905050611f60565b6040518082815260200191505060405180910390f35b3415610cee57600080fd5b610d046004808035906020019091905050611f85565b005b3415610d1157600080fd5b610d48600480803573ffffffffffffffffffffffffffffffffffffffff169060200190919080351515906020019091905050612001565b005b3415610d5557600080fd5b610d5d612126565b6040518082815260200191505060405180910390f35b3415610d7e57600080fd5b610daa600480803573ffffffffffffffffffffffffffffffffffffffff1690602001909190505061212c565b005b6000809054906101000a900473ffffffffffffffffffffffffffffffffffffffff1673ffffffffffffffffffffffffffffffffffffffff163373ffffffffffffffffffffffffffffffffffffffff16141515610e0757600080fd5b81600781905550806008819055505050565b60018054600181600116156101000203166002900480601f016020809104026020016040519081016040528092919081815260200182805460018160011615610100020316600290048015610eaf5780601f10610e8457610100808354040283529160200191610eaf565b820191906000526020600020905b815481529060010190602001808311610e9257829003601f168201915b505050505081565b600081600660003373ffffffffffffffffffffffffffffffffffffffff1673ffffffffffffffffffffffffffffffffffffffff16815260200190815260200160002060008573ffffffffffffffffffffffffffffffffffffffff1673ffffffffffffffffffffffffffffffffffffffff168152602001908152602001600020819055506001905092915050565b600a5481565b600c5481565b601160205280600052604060002060009150905080600001908060020154908060090160009054906101000a900460ff16905083565b60045481565b6000600660008573ffffffffffffffffffffffffffffffffffffffff1673ffffffffffffffffffffffffffffffffffffffff16815260200190815260200160002060003373ffffffffffffffffffffffffffffffffffffffff1673ffffffffffffffffffffffffffffffffffffffff16815260200190815260200160002054821115151561101957600080fd5b81600660008673ffffffffffffffffffffffffffffffffffffffff1673ffffffffffffffffffffffffffffffffffffffff16815260200190815260200160002060003373ffffffffffffffffffffffffffffffffffffffff1673ffffffffffffffffffffffffffffffffffffffff168152602001908152602001600020600082825403925050819055506110ae8484846121ca565b600190509392505050565b60006110c3612eb0565b8e81604001516000600d811015156110d757fe5b602002019060ff16908160ff16815250508d81604001516001600d811015156110fc57fe5b602002019060ff16908160ff16815250508c81604001516002600d8110151561112157fe5b602002019060ff16908160ff16815250508b81604001516003600d8110151561114657fe5b602002019060ff16908160ff16815250508a81604001516004600d8110151561116b57fe5b602002019060ff16908160ff16815250508981604001516005600d8110151561119057fe5b602002019060ff16908160ff16815250508881604001516006600d811015156111b557fe5b602002019060ff16908160ff16815250508781604001516007600d811015156111da57fe5b602002019060ff16908160ff16815250508681604001516008600d811015156111ff57fe5b602002019060ff16908160ff16815250508581604001516009600d8110151561122457fe5b602002019060ff16908160ff1681525050848160400151600a600d8110151561124957fe5b602002019060ff16908160ff1681525050838160400151600b600d8110151561126e57fe5b602002019060ff16908160ff1681525050828160400151600c600d8110151561129357fe5b602002019060ff16908160ff16815250506112ad81612481565b9150509d9c50505050505050505050505050565b600360009054906101000a900460ff1681565b600081600560003373ffffffffffffffffffffffffffffffffffffffff1673ffffffffffffffffffffffffffffffffffffffff168152602001908152602001600020541015151561132457600080fd5b81600560003373ffffffffffffffffffffffffffffffffffffffff1673ffffffffffffffffffffffffffffffffffffffff16815260200190815260200160002060008282540392505081905550816004600082825403925050819055503373ffffffffffffffffffffffffffffffffffffffff167fcc16f5dbb4873280815c1ee09dbd06736cffcc184412cf7a71a0fdb75d397ca5836040518082815260200191505060405180910390a260019050919050565b600f60059054906101000a900460ff1681565b60075481565b600b5481565b60056020528060005260406000206000915090505481565b6000809054906101000a900473ffffffffffffffffffffffffffffffffffffffff1673ffffffffffffffffffffffffffffffffffffffff163373ffffffffffffffffffffffffffffffffffffffff1614151561146a57600080fd5b80600560008473ffffffffffffffffffffffffffffffffffffffff1673ffffffffffffffffffffffffffffffffffffffff16815260200190815260200160002060008282540192505081905550806004600082825401925050819055503073ffffffffffffffffffffffffffffffffffffffff1660007fddf252ad1be2c89b69c2b068fc378daa952ba7f163c4a11628f55a4df523b3ef836040518082815260200191505060405180910390a38173ffffffffffffffffffffffffffffffffffffffff163073ffffffffffffffffffffffffffffffffffffffff167fddf252ad1be2c89b69c2b068fc378daa952ba7f163c4a11628f55a4df523b3ef836040518082815260200191505060405180910390a35050565b600081600560008573ffffffffffffffffffffffffffffffffffffffff1673ffffffffffffffffffffffffffffffffffffffff16815260200190815260200160002054101515156115d057600080fd5b600660008473ffffffffffffffffffffffffffffffffffffffff1673ffffffffffffffffffffffffffffffffffffffff16815260200190815260200160002060003373ffffffffffffffffffffffffffffffffffffffff1673ffffffffffffffffffffffffffffffffffffffff16815260200190815260200160002054821115151561165b57600080fd5b81600560008573ffffffffffffffffffffffffffffffffffffffff1673ffffffffffffffffffffffffffffffffffffffff1681526020019081526020016000206000828254039250508190555081600660008573ffffffffffffffffffffffffffffffffffffffff1673ffffffffffffffffffffffffffffffffffffffff16815260200190815260200160002060003373ffffffffffffffffffffffffffffffffffffffff1673ffffffffffffffffffffffffffffffffffffffff16815260200190815260200160002060008282540392505081905550816004600082825403925050819055508273ffffffffffffffffffffffffffffffffffffffff167fcc16f5dbb4873280815c1ee09dbd06736cffcc184412cf7a71a0fdb75d397ca5836040518082815260200191505060405180910390a26001905092915050565b600f60009054906101000a900460ff1681565b6000806001915060008314156117c657600191506117ea565b600190505b82811115156117e657808202915080806001019150506117cb565b8191505b50919050565b60085481565b6000809054906101000a900473ffffffffffffffffffffffffffffffffffffffff1681565b6000611838600f60059054906101000a900460ff1660ff166117ad565b611855600f60059054906101000a900460ff16840360ff166117ad565b02600c546118658460ff166117ad565b0281151561186f57fe5b049050919050565b60028054600181600116156101000203166002900480601f01602080910402602001604051908101604052809291908181526020018280546001816001161561010002031660029004801561190d5780601f106118e25761010080835404028352916020019161190d565b820191906000526020600020905b8154815290600101906020018083116118f057829003601f168201915b505050505081565b600f60069054906101000a900460ff1681565b611930612f10565b600080600060116000878152602001908152602001600020600101600086815260200190815260200160002060020160116000888152602001908152602001600020600101600087815260200190815260200160002060030160009054906101000a900460ff1660116000898152602001908152602001600020600101600088815260200190815260200160002060030160019054906101000a900460ff16601160008a815260200190815260200160002060010160008981526020019081526020016000206004015483600d806020026040519081016040528092919082600d8015611a58576020028201916000905b82829054906101000a900460ff1660ff1681526020019060010190602082600001049283019260010382029150808411611a215790505b50505050509350935093509350935092959194509250565b600060085434811515611a7f57fe5b049050611a8d3033836121ca565b50565b611a9b3383836121ca565b5050565b60096020528060005260406000206000915054906101000a900460ff1681565b60008060009054906101000a900473ffffffffffffffffffffffffffffffffffffffff1673ffffffffffffffffffffffffffffffffffffffff163373ffffffffffffffffffffffffffffffffffffffff16141515611b1c57600080fd5b60116000600f60019054906101000a900463ffffffff1663ffffffff16815260200190815260200160002060090160009054906101000a900460ff16151515611b6457600080fd5b611b6c6127e7565b506001905090565b601081600381101515611b8357fe5b60209182820401919006915054906101000a900460ff1681565b600080849050611bad8585610eb7565b15611d12578073ffffffffffffffffffffffffffffffffffffffff16638f4ffcb1338630876040518563ffffffff167c0100000000000000000000000000000000000000000000000000000000028152600401808573ffffffffffffffffffffffffffffffffffffffff1673ffffffffffffffffffffffffffffffffffffffff1681526020018481526020018373ffffffffffffffffffffffffffffffffffffffff1673ffffffffffffffffffffffffffffffffffffffff16815260200180602001828103825283818151815260200191508051906020019080838360005b83811015611ca7578082015181840152602081019050611c8c565b50505050905090810190601f168015611cd45780820380516001836020036101000a031916815260200191505b5095505050505050600060405180830381600087803b1515611cf557600080fd5b6102c65a03f11515611d0657600080fd5b50505060019150611d13565b5b509392505050565b600d5481565b600080600080600d9250600085600c600d81101515611d3c57fe5b602002015160ff161415611d54578280600190039350505b600091505b600c821015611e8f57600f60009054906101000a900460ff1660ff168583600d81101515611d8357fe5b602002015160ff161180611dbe5750600f60009054906101000a900460ff1660ff1685600c600d81101515611db457fe5b602002015160ff16115b80611dcc575060068360ff16105b15611ddd5760008393509350611e97565b60008583600d81101515611ded57fe5b602002015160ff161415611e05578280600190039350505b6001820190505b600d811015611e82578481600d81101515611e2357fe5b602002015160ff168583600d81101515611e3957fe5b602002015160ff16148015611e64575060008583600d81101515611e5957fe5b602002015160ff1614155b15611e755760008393509350611e97565b8080600101915050611e0c565b8180600101925050611d59565b600183935093505b5050915091565b600f60019054906101000a900463ffffffff1681565b60008060009054906101000a900473ffffffffffffffffffffffffffffffffffffffff1673ffffffffffffffffffffffffffffffffffffffff163373ffffffffffffffffffffffffffffffffffffffff16141515611f1157600080fd5b8160116000600f60019054906101000a900463ffffffff1663ffffffff16815260200190815260200160002060090160006101000a81548160ff02191690831515021790555060019050919050565b6006602052816000526040600020602052806000526040600020600091509150505481565b60075481023073ffffffffffffffffffffffffffffffffffffffff163110151515611faf57600080fd5b611fba3330836121ca565b3373ffffffffffffffffffffffffffffffffffffffff166108fc60075483029081150290604051600060405180830381858888f193505050501515611ffe57600080fd5b50565b6000809054906101000a900473ffffffffffffffffffffffffffffffffffffffff1673ffffffffffffffffffffffffffffffffffffffff163373ffffffffffffffffffffffffffffffffffffffff1614151561205c57600080fd5b80600960008473ffffffffffffffffffffffffffffffffffffffff1673ffffffffffffffffffffffffffffffffffffffff16815260200190815260200160002060006101000a81548160ff0219169083151502179055507f48335238b4855f35377ed80f164e8c6f3c366e54ac00b96a6402d4a9814a03a58282604051808373ffffffffffffffffffffffffffffffffffffffff1673ffffffffffffffffffffffffffffffffffffffff168152602001821515151581526020019250505060405180910390a15050565b600e5481565b6000809054906101000a900473ffffffffffffffffffffffffffffffffffffffff1673ffffffffffffffffffffffffffffffffffffffff163373ffffffffffffffffffffffffffffffffffffffff1614151561218757600080fd5b806000806101000a81548173ffffffffffffffffffffffffffffffffffffffff021916908373ffffffffffffffffffffffffffffffffffffffff16021790555050565b60008273ffffffffffffffffffffffffffffffffffffffff16141515156121f057600080fd5b80600560008573ffffffffffffffffffffffffffffffffffffffff1673ffffffffffffffffffffffffffffffffffffffff1681526020019081526020016000205411151561223d57600080fd5b600560008373ffffffffffffffffffffffffffffffffffffffff1673ffffffffffffffffffffffffffffffffffffffff1681526020019081526020016000205481600560008573ffffffffffffffffffffffffffffffffffffffff1673ffffffffffffffffffffffffffffffffffffffff16815260200190815260200160002054011115156122cb57600080fd5b600960008473ffffffffffffffffffffffffffffffffffffffff1673ffffffffffffffffffffffffffffffffffffffff16815260200190815260200160002060009054906101000a900460ff1615151561232457600080fd5b600960008373ffffffffffffffffffffffffffffffffffffffff1673ffffffffffffffffffffffffffffffffffffffff16815260200190815260200160002060009054906101000a900460ff1615151561237d57600080fd5b80600560008573ffffffffffffffffffffffffffffffffffffffff1673ffffffffffffffffffffffffffffffffffffffff1681526020019081526020016000206000828254039250508190555080600560008473ffffffffffffffffffffffffffffffffffffffff1673ffffffffffffffffffffffffffffffffffffffff168152602001908152602001600020600082825401925050819055508173ffffffffffffffffffffffffffffffffffffffff168373ffffffffffffffffffffffffffffffffffffffff167fddf252ad1be2c89b69c2b068fc378daa952ba7f163c4a11628f55a4df523b3ef836040518082815260200191505060405180910390a3505050565b60008060008060116000600f60019054906101000a900463ffffffff1663ffffffff16815260200190815260200160002060090160009054906101000a900460ff1615156124d257600093506127df565b6124df8560400151611d21565b925092508215156124f357600093506127df565b6124fc8261181b565b905080600560003373ffffffffffffffffffffffffffffffffffffffff1673ffffffffffffffffffffffffffffffffffffffff16815260200190815260200160002054101561254e57600093506127df565b33856000019073ffffffffffffffffffffffffffffffffffffffff16908173ffffffffffffffffffffffffffffffffffffffff16815250506040805190810160405280600a81526020017f30362e31312e3230313700000000000000000000000000000000000000000000815250856020018190525081856080019060ff16908160ff16815250508460116000600f60019054906101000a900463ffffffff1663ffffffff168152602001908152602001600020600101600060116000600f60019054906101000a900463ffffffff1663ffffffff16815260200190815260200160002060020154815260200190815260200160002060008201518160000160006101000a81548173ffffffffffffffffffffffffffffffffffffffff021916908373ffffffffffffffffffffffffffffffffffffffff16021790555060208201518160010190805190602001906126a7929190612f3c565b5060408201518160020190600d6126bf929190612fbc565b5060608201518160030160006101000a81548160ff021916908360ff16021790555060808201518160030160016101000a81548160ff021916908360ff16021790555060a0820151816004015590505060116000600f60019054906101000a900463ffffffff1663ffffffff1681526020019081526020016000206002016000815480929190600101919050555080600560003373ffffffffffffffffffffffffffffffffffffffff1673ffffffffffffffffffffffffffffffffffffffff168152602001908152602001600020600082825403925050819055506064600d5482028115156127aa57fe5b04600a600082825401925050819055506064600e5482028115156127ca57fe5b04600b60008282540192505081905550600193505b505050919050565b60008060008060008060008060008090505b60116000600f60019054906101000a900463ffffffff1663ffffffff16815260200190815260200160002060020154811015612999576128db60116000600f60019054906101000a900463ffffffff1663ffffffff1681526020019081526020016000206001016000838152602001908152602001600020600201600d806020026040519081016040528092919082600d80156128d1576020028201916000905b82829054906101000a900460ff1660ff168152602001906001019060208260000104928301926001038202915080841161289a5790505b5050505050612e06565b91508160116000600f60019054906101000a900463ffffffff1663ffffffff168152602001908152602001600020600101600083815260200190815260200160002060030160006101000a81548160ff021916908360ff16021790555060038260ff16141561294d5784806001019550505b60048260ff1614156129625785806001019650505b60058260ff1614156129775786806001019750505b60068260ff16141561298c5787806001019850505b80806001019150506127f9565b600090505b60116000600f60019054906101000a900463ffffffff1663ffffffff16815260200190815260200160002060020154811015612dd75760116000600f60019054906101000a900463ffffffff1663ffffffff168152602001908152602001600020600101600082815260200190815260200160002060030160009054906101000a900460ff16915060038260ff161415612ab4576064850260106000600381101515612a4657fe5b602091828204019190069054906101000a900460ff1660ff16600b5402811515612a6c57fe5b0460116000600f60019054906101000a900463ffffffff1663ffffffff1681526020019081526020016000206001016000838152602001908152602001600020600401819055505b60048260ff161415612b42576064860260106001600381101515612ad457fe5b602091828204019190069054906101000a900460ff1660ff16600b5402811515612afa57fe5b0460116000600f60019054906101000a900463ffffffff1663ffffffff1681526020019081526020016000206001016000838152602001908152602001600020600401819055505b60058260ff161415612bd0576064870260106002600381101515612b6257fe5b602091828204019190069054906101000a900460ff1660ff16600b5402811515612b8857fe5b0460116000600f60019054906101000a900463ffffffff1663ffffffff1681526020019081526020016000206001016000838152602001908152602001600020600401819055505b60068260ff161415612c315787600a54811515612be957fe5b0460116000600f60019054906101000a900463ffffffff1663ffffffff1681526020019081526020016000206001016000838152602001908152602001600020600401819055505b60068260ff161015612c855760116000600f60019054906101000a900463ffffffff1663ffffffff168152602001908152602001600020600101600082815260200190815260200160002060040154840193505b60068260ff161415612cd95760116000600f60019054906101000a900463ffffffff1663ffffffff168152602001908152602001600020600101600082815260200190815260200160002060040154830192505b60116000600f60019054906101000a900463ffffffff1663ffffffff1681526020019081526020016000206001016000828152602001908152602001600020600401546005600060116000600f60019054906101000a900463ffffffff1663ffffffff168152602001908152602001600020600101600085815260200190815260200160002060000160009054906101000a900473ffffffffffffffffffffffffffffffffffffffff1673ffffffffffffffffffffffffffffffffffffffff1673ffffffffffffffffffffffffffffffffffffffff16815260200190815260200160002060008282540192505081905550808060010191505061299e565b83600b6000828254039250508190555082600a6000828254039250508190555060019850505050505050505090565b6000806000809250600091505b600d821015612ea657600090505b6006811015612e995760116000600f60019054906101000a900463ffffffff1663ffffffff16815260200190815260200160002060030181600681101515612e6557fe5b01548483600d81101515612e7557fe5b602002015160ff161415612e8c5782806001019350505b8080600101915050612e21565b8180600101925050612e13565b8292505050919050565b61024060405190810160405280600073ffffffffffffffffffffffffffffffffffffffff168152602001612ee2613056565b8152602001612eef61306a565b8152602001600060ff168152602001600060ff168152602001600081525090565b6101a060405190810160405280600d905b600060ff16815260200190600190039081612f215790505090565b828054600181600116156101000203166002900490600052602060002090601f016020900481019282601f10612f7d57805160ff1916838001178555612fab565b82800160010185558215612fab579182015b82811115612faa578251825591602001919060010190612f8f565b5b509050612fb89190613096565b5090565b82600d601f016020900481019282156130455791602002820160005b8382111561301657835183826101000a81548160ff021916908360ff1602179055509260200192600101602081600001049283019260010302612fd8565b80156130435782816101000a81549060ff0219169055600101602081600001049283019260010302613016565b505b50905061305291906130bb565b5090565b602060405190810160405280600081525090565b6101a060405190810160405280600d905b600060ff1681526020019060019003908161307b5790505090565b6130b891905b808211156130b457600081600090555060010161309c565b5090565b90565b6130e891905b808211156130e457600081816101000a81549060ff0219169055506001016130c1565b5090565b905600a165627a7a723058203ecc03c8add12852a0aea9f64e81393e6ba2df4d839c1fd7fb1755586227b1350029",
  "source": "pragma solidity ^0.4.11;\r\n    \r\nimport \"./DHFBaseCurrency.sol\";\r\n    \r\n/*-  4  20\r\n *4    -, 4 -   , 2      \r\n *  .\r\n *3.11.2017\r\n */\r\ncontract lottery_6_45 is DHFBaseCurrency \r\n{\r\n    uint public JackPot = 0; //  \r\n    uint public regularPrize = 0; //   \r\n    uint public ticketPrice = 10; //  \r\n    uint public JackPot_assignment = 40; //    -   \r\n    uint public regularPrize_assignment = 40; //     \r\n    uint8 public max_Number = 45; //  ,     \r\n    uint32 public last_lottery_id = 0; //   \r\n    uint8 public prize_combination_size = 6;//    \r\n    uint8 public max_numbers_in_ticket = 13;//    \r\n    uint8[3] public won_percent = [10, 30, 60];//      3, 4  5     \r\n    // \r\n    struct ticket{\r\n        address owner; // \r\n        string time; //    \r\n        uint8[13] numbers; //   -     -  4   \r\n        uint8 compliance_level; //      -  \r\n        uint8 valuable_numbers;//    - \r\n        uint money;//   \r\n    }\r\n    // 1  \r\n    struct lottery{\r\n        string date; //   \r\n        mapping(uint => ticket) tickets; //   .\r\n        uint tickets_count; //    \r\n        uint[6] prize_combination; //    \r\n        bool active;\r\n    }\r\n    mapping (uint => lottery) public lotteries;\r\n\r\n    /* \r\n     *        \r\n     *  .\r\n     *3.11.2017\r\n     */\r\n    function lottery_6_45() DHFBaseCurrency (10000, \"Lottery 6 of 45\", \"L6x45\") public\r\n    { \r\n        lotteries[0].date = \"06.11.2017\";\r\n        lotteries[0].tickets_count = 0;\r\n        lotteries[0].prize_combination = [1,2,3,4,5,6];\r\n        lotteries[0].active = true;\r\n    }\r\n    //   \r\n    event BuyTicket(uint ticket_number, uint ticket_price, address ticket_owner, uint buy_time, uint lottery_number, string lottery_type, uint8[] ticket_numbers );\r\n    \r\n    /*  \r\n     *  .\r\n     *@lottery_id  \r\n     *@ticket_Id   \r\n     *6.11.2017\r\n     */\r\n    function getTicket(uint lottery_id,uint ticket_Id) public view returns (uint8[13] ticket_numbers, uint8 ticket_prize_level,uint8 numbers_in_ticket,uint money)\r\n    {\r\n        return (lotteries[lottery_id].tickets[ticket_Id].numbers, lotteries[lottery_id].tickets[ticket_Id].compliance_level, lotteries[lottery_id].tickets[ticket_Id].valuable_numbers, lotteries[lottery_id].tickets[ticket_Id].money);\r\n    }\r\n    \r\n    /*   \r\n     *       -     \r\n     *      \r\n     *       \r\n     *  .\r\n     *@array_to_search ,   \r\n     *return bool success -  \r\n     *8.11.2017\r\n     */ \r\n    function finish_lottery() onlyOwner public returns (bool success)\r\n    {\r\n        require(!lotteries[last_lottery_id].active);\r\n        calculate_prizes();\r\n        return true;\r\n    }\r\n    \r\n    /*     \r\n     *  .\r\n     *@lottery_activity bool    \r\n     *return bool success -  \r\n     *14.11.2017\r\n     */ \r\n    function change_status(bool lottery_activity) onlyOwner public returns (bool success)\r\n    {\r\n        lotteries[last_lottery_id].active = lottery_activity;\r\n        return true;\r\n    }\r\n    \r\n    /*    \r\n     *     \r\n     *  .\r\n     *@array_to_search ,   \r\n     *return uint compliance_level -     \r\n     *8.11.2017\r\n     */ \r\n    function ticket_compliance_level(uint8[13] ticket_numbers) internal constant returns (uint8 compliance_level)\r\n    {\r\n        compliance_level = 0;\r\n        for(uint i = 0; i < 13; i++)\r\n        {\r\n            for(uint k = 0; k < 6; k++)\r\n            {\r\n                if(ticket_numbers[i] == lotteries[last_lottery_id].prize_combination[k])\r\n                    compliance_level++;\r\n            }\r\n        }\r\n        return compliance_level;\r\n    }\r\n    \r\n    /*   \r\n     *            \r\n     *  .\r\n     *return bool success -    \r\n     *9.11.2017\r\n     */\r\n    function calculate_prizes() internal returns (bool)\r\n    {\r\n        uint jack_pot_numbers;//      \r\n        uint numbers_5_of_6;//      5  \r\n        uint numbers_4_of_6;//      4  \r\n        uint numbers_3_of_6;//      3  \r\n        uint regularLotteryCountedPrize;//    \r\n        uint JackPotCountedPrize;//   -\r\n        uint8 ticketComplianceLevel; \r\n        //      ,         \r\n        for (uint i = 0; i < lotteries[last_lottery_id].tickets_count; i++)\r\n        {\r\n            ticketComplianceLevel = ticket_compliance_level(lotteries[last_lottery_id].tickets[i].numbers);\r\n            lotteries[last_lottery_id].tickets[i].compliance_level = ticketComplianceLevel;\r\n            if(ticketComplianceLevel == 3) numbers_3_of_6++;\r\n            if(ticketComplianceLevel == 4) numbers_4_of_6++;\r\n            if(ticketComplianceLevel == 5) numbers_5_of_6++;\r\n            if(ticketComplianceLevel == 6) jack_pot_numbers++;\r\n        }\r\n        //         ,      \r\n        for (i = 0; i < lotteries[last_lottery_id].tickets_count; i++)\r\n        {\r\n            ticketComplianceLevel = lotteries[last_lottery_id].tickets[i].compliance_level;\r\n            if(ticketComplianceLevel == 3)\r\n                lotteries[last_lottery_id].tickets[i].money = regularPrize * (won_percent[0]) / (numbers_3_of_6 * 100);\r\n            if(ticketComplianceLevel == 4)\r\n                lotteries[last_lottery_id].tickets[i].money = regularPrize * (won_percent[1]) / (numbers_4_of_6 * 100);\r\n            if(ticketComplianceLevel == 5)\r\n                lotteries[last_lottery_id].tickets[i].money = regularPrize * (won_percent[2]) / (numbers_5_of_6 * 100);\r\n            if(ticketComplianceLevel == 6)\r\n                lotteries[last_lottery_id].tickets[i].money = JackPot / jack_pot_numbers;\r\n            if(ticketComplianceLevel < 6) regularLotteryCountedPrize += lotteries[last_lottery_id].tickets[i].money; //   ,       \r\n            if(ticketComplianceLevel == 6) JackPotCountedPrize += lotteries[last_lottery_id].tickets[i].money; //   ,       \r\n            balanceOf[lotteries[last_lottery_id].tickets[i].owner] += lotteries[last_lottery_id].tickets[i].money;//      \r\n        }\r\n        regularPrize -= regularLotteryCountedPrize;//    \r\n        JackPot -= JackPotCountedPrize;//    \r\n        return true;\r\n    }\r\n    \r\n    /*\r\n     *      \r\n     *             \r\n     *   \r\n     *  .\r\n     *return bool success -   \r\n     *9.11.2017\r\n     */\r\n    function donate_next_lottery() internal returns (bool)\r\n    {\r\n        \r\n    }\r\n    \r\n    /*    6  13   \r\n     *  .\r\n     *@number_1-number_13 uint8    -  13\r\n     *return bool success -    \r\n     *9.11.2017\r\n     */\r\n    function buy_big_ticket(uint8 number_1,uint8 number_2,uint8 number_3,uint8 number_4, uint8 number_5,uint8 number_6,uint8 number_7,uint8 number_8,uint8 number_9,uint8 number_10, uint8 number_11,uint8 number_12,uint8 number_13) public returns (bool success)\r\n    {\r\n        ticket memory new_ticket;\r\n        new_ticket.numbers[0] = number_1;\r\n        new_ticket.numbers[1] = number_2;\r\n        new_ticket.numbers[2] = number_3;\r\n        new_ticket.numbers[3] = number_4;\r\n        new_ticket.numbers[4] = number_5;\r\n        new_ticket.numbers[5] = number_6;\r\n        new_ticket.numbers[6] = number_7;\r\n        new_ticket.numbers[7] = number_8;\r\n        new_ticket.numbers[8] = number_9;\r\n        new_ticket.numbers[9] = number_10;\r\n        new_ticket.numbers[10] = number_11;\r\n        new_ticket.numbers[11] = number_12;\r\n        new_ticket.numbers[12] = number_13;\r\n        return check_ticket_buying(new_ticket);\r\n    }\r\n    \r\n    /*   \r\n     *   -       -  16!\r\n     *  .\r\n     *@ticked_for_checking  \r\n     *return bool success -    \r\n     *9.11.2017\r\n     */\r\n    function check_ticket_buying(ticket ticked_for_checking) internal returns (bool success)\r\n    {\r\n        if(!lotteries[last_lottery_id].active) return false;\r\n        var(allowability, valuable_numbers) = isAllowableBigTicket(ticked_for_checking.numbers);\r\n        if(!allowability) return false;\r\n        uint current_ticket_price = getTicketPrice(valuable_numbers);//          \r\n        if (balanceOf[msg.sender] < current_ticket_price) return false;\r\n        ticked_for_checking.owner = msg.sender;\r\n        ticked_for_checking.time = \"06.11.2017\";\r\n        ticked_for_checking.valuable_numbers = valuable_numbers;\r\n        lotteries[last_lottery_id].tickets[lotteries[last_lottery_id].tickets_count] = ticked_for_checking;\r\n        lotteries[last_lottery_id].tickets_count++;\r\n        balanceOf[msg.sender] -= current_ticket_price;\r\n        JackPot += (current_ticket_price * JackPot_assignment) / 100;//       ,      \r\n        regularPrize += (current_ticket_price * regularPrize_assignment) / 100;//         ,      \r\n        /*\r\n        uint8[] memory temp;\r\n        for (uint8 i = 0; i < 13; i++ ){\r\n            temp[i] = ticked_for_checking.numbers[i];\r\n        }*/\r\n        //BuyTicket(current_ticket_number, current_ticket_price, msg.sender, now, last_lottery_id , \"Lottery 6 45\", temp);\r\n        return true;\r\n    }\r\n    \r\n    \r\n    /*      6  13   \r\n     *   ,        7\r\n     *  .\r\n     **@ticket_numbers  \r\n     *return bool success -        \r\n     **return uint8 numbers_in_ticket      -     \r\n     *9.11.2017\r\n     */\r\n    function isAllowableBigTicket(uint8[13] ticket_numbers) public constant returns (bool, uint8 numbers_in_ticket)\r\n    {\r\n        numbers_in_ticket = 13;\r\n        if(ticket_numbers[12] == 0) numbers_in_ticket--;\r\n        for (uint i = 0; i < 12; i++)\r\n        {\r\n            if((ticket_numbers[i] > max_Number) || (ticket_numbers[12] > max_Number) || (numbers_in_ticket < 6)) return (false, numbers_in_ticket);\r\n            if(ticket_numbers[i] == 0) numbers_in_ticket--;\r\n            for(uint k = i + 1; k < 13; k++)\r\n            {\r\n                if ((ticket_numbers[i] == ticket_numbers[k]) && (ticket_numbers[i] != 0)) return (false, numbers_in_ticket);\r\n            }\r\n        }\r\n        return (true,numbers_in_ticket);\r\n    }\r\n    \r\n    \r\n    /*       \r\n     *  .\r\n     *@number_count uint8    \r\n     *return uint256 price -    -     ,      \r\n     *9.11.2017\r\n     */\r\n    function getTicketPrice(uint8 number_count) public constant returns (uint256 price)\r\n    {\r\n        return (factorial(number_count) * ticketPrice) / (factorial(number_count - prize_combination_size) * factorial(prize_combination_size));\r\n    }\r\n    \r\n    /*  \r\n     *  .\r\n     *@number uint256    \r\n     *return uint256 fact -   \r\n     *10.11.2017\r\n     */\r\n    function factorial(uint256 number) public pure returns(uint256 fact) \r\n    {\r\n        fact = 1;\r\n        if(number == 0) return 1;\r\n        for(uint256 i = 1;i<=number;i++)\r\n            fact = fact * i;\r\n        return fact;\r\n    }\r\n    \r\n    \r\n}",
  "sourcePath": "D:\\Digital Heritage Fund\\\\    \\Lottery\\contracts\\lottery_6_45.sol",
  "compiler": {
    "name": "solc",
    "version": "0.4.18+commit.9cf6e910.Emscripten.clang"
  },
  "schemaVersion": "1.0.1",
  "updatedAt": "2017-11-20T16:49:33.763Z"
}