{
  "contractName": "lottery_6_45",
  "abi": [
    {
      "constant": false,
      "inputs": [
        {
          "name": "newSellPrice",
          "type": "uint256"
        },
        {
          "name": "newBuyPrice",
          "type": "uint256"
        }
      ],
      "name": "setPrices",
      "outputs": [],
      "payable": false,
      "stateMutability": "nonpayable",
      "type": "function"
    },
    {
      "constant": true,
      "inputs": [],
      "name": "name",
      "outputs": [
        {
          "name": "",
          "type": "string"
        }
      ],
      "payable": false,
      "stateMutability": "view",
      "type": "function"
    },
    {
      "constant": false,
      "inputs": [
        {
          "name": "_spender",
          "type": "address"
        },
        {
          "name": "_value",
          "type": "uint256"
        }
      ],
      "name": "approve",
      "outputs": [
        {
          "name": "success",
          "type": "bool"
        }
      ],
      "payable": false,
      "stateMutability": "nonpayable",
      "type": "function"
    },
    {
      "constant": true,
      "inputs": [],
      "name": "JackPot",
      "outputs": [
        {
          "name": "",
          "type": "uint256"
        }
      ],
      "payable": false,
      "stateMutability": "view",
      "type": "function"
    },
    {
      "constant": true,
      "inputs": [],
      "name": "ticketPrice",
      "outputs": [
        {
          "name": "",
          "type": "uint256"
        }
      ],
      "payable": false,
      "stateMutability": "view",
      "type": "function"
    },
    {
      "constant": true,
      "inputs": [
        {
          "name": "",
          "type": "uint256"
        }
      ],
      "name": "lotteries",
      "outputs": [
        {
          "name": "date",
          "type": "string"
        },
        {
          "name": "tickets_count",
          "type": "uint256"
        },
        {
          "name": "active",
          "type": "bool"
        }
      ],
      "payable": false,
      "stateMutability": "view",
      "type": "function"
    },
    {
      "constant": true,
      "inputs": [],
      "name": "totalSupply",
      "outputs": [
        {
          "name": "",
          "type": "uint256"
        }
      ],
      "payable": false,
      "stateMutability": "view",
      "type": "function"
    },
    {
      "constant": false,
      "inputs": [
        {
          "name": "_from",
          "type": "address"
        },
        {
          "name": "_to",
          "type": "address"
        },
        {
          "name": "_value",
          "type": "uint256"
        }
      ],
      "name": "transferFrom",
      "outputs": [
        {
          "name": "success",
          "type": "bool"
        }
      ],
      "payable": false,
      "stateMutability": "nonpayable",
      "type": "function"
    },
    {
      "constant": false,
      "inputs": [
        {
          "name": "number_1",
          "type": "uint8"
        },
        {
          "name": "number_2",
          "type": "uint8"
        },
        {
          "name": "number_3",
          "type": "uint8"
        },
        {
          "name": "number_4",
          "type": "uint8"
        },
        {
          "name": "number_5",
          "type": "uint8"
        },
        {
          "name": "number_6",
          "type": "uint8"
        },
        {
          "name": "number_7",
          "type": "uint8"
        },
        {
          "name": "number_8",
          "type": "uint8"
        },
        {
          "name": "number_9",
          "type": "uint8"
        },
        {
          "name": "number_10",
          "type": "uint8"
        },
        {
          "name": "number_11",
          "type": "uint8"
        },
        {
          "name": "number_12",
          "type": "uint8"
        },
        {
          "name": "number_13",
          "type": "uint8"
        }
      ],
      "name": "buy_big_ticket",
      "outputs": [
        {
          "name": "success",
          "type": "bool"
        }
      ],
      "payable": false,
      "stateMutability": "nonpayable",
      "type": "function"
    },
    {
      "constant": true,
      "inputs": [],
      "name": "decimals",
      "outputs": [
        {
          "name": "",
          "type": "uint8"
        }
      ],
      "payable": false,
      "stateMutability": "view",
      "type": "function"
    },
    {
      "constant": false,
      "inputs": [
        {
          "name": "_value",
          "type": "uint256"
        }
      ],
      "name": "burn",
      "outputs": [
        {
          "name": "success",
          "type": "bool"
        }
      ],
      "payable": false,
      "stateMutability": "nonpayable",
      "type": "function"
    },
    {
      "constant": true,
      "inputs": [],
      "name": "prize_combination_size",
      "outputs": [
        {
          "name": "",
          "type": "uint8"
        }
      ],
      "payable": false,
      "stateMutability": "view",
      "type": "function"
    },
    {
      "constant": true,
      "inputs": [],
      "name": "sellPrice",
      "outputs": [
        {
          "name": "",
          "type": "uint256"
        }
      ],
      "payable": false,
      "stateMutability": "view",
      "type": "function"
    },
    {
      "constant": true,
      "inputs": [],
      "name": "regularPrize",
      "outputs": [
        {
          "name": "",
          "type": "uint256"
        }
      ],
      "payable": false,
      "stateMutability": "view",
      "type": "function"
    },
    {
      "constant": true,
      "inputs": [
        {
          "name": "",
          "type": "address"
        }
      ],
      "name": "balanceOf",
      "outputs": [
        {
          "name": "",
          "type": "uint256"
        }
      ],
      "payable": false,
      "stateMutability": "view",
      "type": "function"
    },
    {
      "constant": false,
      "inputs": [
        {
          "name": "target",
          "type": "address"
        },
        {
          "name": "mintedAmount",
          "type": "uint256"
        }
      ],
      "name": "mintToken",
      "outputs": [],
      "payable": false,
      "stateMutability": "nonpayable",
      "type": "function"
    },
    {
      "constant": false,
      "inputs": [
        {
          "name": "_from",
          "type": "address"
        },
        {
          "name": "_value",
          "type": "uint256"
        }
      ],
      "name": "burnFrom",
      "outputs": [
        {
          "name": "success",
          "type": "bool"
        }
      ],
      "payable": false,
      "stateMutability": "nonpayable",
      "type": "function"
    },
    {
      "constant": true,
      "inputs": [],
      "name": "max_Number",
      "outputs": [
        {
          "name": "",
          "type": "uint8"
        }
      ],
      "payable": false,
      "stateMutability": "view",
      "type": "function"
    },
    {
      "constant": true,
      "inputs": [
        {
          "name": "number",
          "type": "uint256"
        }
      ],
      "name": "factorial",
      "outputs": [
        {
          "name": "fact",
          "type": "uint256"
        }
      ],
      "payable": false,
      "stateMutability": "pure",
      "type": "function"
    },
    {
      "constant": true,
      "inputs": [],
      "name": "buyPrice",
      "outputs": [
        {
          "name": "",
          "type": "uint256"
        }
      ],
      "payable": false,
      "stateMutability": "view",
      "type": "function"
    },
    {
      "constant": true,
      "inputs": [],
      "name": "owner",
      "outputs": [
        {
          "name": "",
          "type": "address"
        }
      ],
      "payable": false,
      "stateMutability": "view",
      "type": "function"
    },
    {
      "constant": true,
      "inputs": [
        {
          "name": "number_count",
          "type": "uint8"
        }
      ],
      "name": "getTicketPrice",
      "outputs": [
        {
          "name": "price",
          "type": "uint256"
        }
      ],
      "payable": false,
      "stateMutability": "view",
      "type": "function"
    },
    {
      "constant": true,
      "inputs": [
        {
          "name": "lottery_id",
          "type": "uint256"
        },
        {
          "name": "ticket_Id",
          "type": "uint256"
        }
      ],
      "name": "symbol",
      "outputs": [
        {
          "name": "",
          "type": "string"
        },
        {
          "name": "ticket_prize_level",
          "type": "uint8"
        },
        {
          "name": "numbers_in_ticket",
          "type": "uint8"
        },
        {
          "name": "money",
          "type": "uint256"
        }
      ],
      "payable": false,
      "stateMutability": "view",
      "type": "function"
    },
    {
      "constant": true,
      "inputs": [],
      "name": "max_numbers_in_ticket",
      "outputs": [
        {
          "name": "",
          "type": "uint8"
        }
      ],
      "payable": false,
      "stateMutability": "view",
      "type": "function"
    },
    {
      "constant": true,
      "inputs": [
        {
          "name": "lottery_id",
          "type": "uint256"
        },
        {
          "name": "ticket_Id",
          "type": "uint256"
        }
      ],
      "name": "getTicket",
      "outputs": [
        {
          "name": "ticket_numbers",
          "type": "uint8[13]"
        },
        {
          "name": "ticket_prize_level",
          "type": "uint8"
        },
        {
          "name": "numbers_in_ticket",
          "type": "uint8"
        },
        {
          "name": "money",
          "type": "uint256"
        }
      ],
      "payable": false,
      "stateMutability": "view",
      "type": "function"
    },
    {
      "constant": false,
      "inputs": [
        {
          "name": "",
          "type": "address"
        }
      ],
      "name": "buy",
      "outputs": [
        {
          "name": "",
          "type": "bool"
        }
      ],
      "payable": true,
      "stateMutability": "payable",
      "type": "function"
    },
    {
      "constant": false,
      "inputs": [
        {
          "name": "_to",
          "type": "address"
        },
        {
          "name": "_value",
          "type": "uint256"
        }
      ],
      "name": "transfer",
      "outputs": [
        {
          "name": "success",
          "type": "bool"
        }
      ],
      "payable": false,
      "stateMutability": "nonpayable",
      "type": "function"
    },
    {
      "constant": true,
      "inputs": [
        {
          "name": "",
          "type": "address"
        }
      ],
      "name": "frozenAccount",
      "outputs": [
        {
          "name": "",
          "type": "bool"
        }
      ],
      "payable": false,
      "stateMutability": "view",
      "type": "function"
    },
    {
      "constant": false,
      "inputs": [
        {
          "name": "",
          "type": "uint256"
        }
      ],
      "name": "finish_lottery",
      "outputs": [
        {
          "name": "success",
          "type": "bool"
        }
      ],
      "payable": false,
      "stateMutability": "nonpayable",
      "type": "function"
    },
    {
      "constant": true,
      "inputs": [
        {
          "name": "",
          "type": "uint256"
        },
        {
          "name": "_value",
          "type": "uint256"
        },
        {
          "name": "_extraData",
          "type": "bytes"
        }
      ],
      "name": "won_percent",
      "outputs": [
        {
          "name": "",
          "type": "uint8"
        }
      ],
      "payable": false,
      "stateMutability": "view",
      "type": "function"
    },
    {
      "constant": false,
      "inputs": [
        {
          "name": "_spender",
          "type": "address"
        },
        {
          "name": "_value",
          "type": "uint256"
        },
        {
          "name": "_extraData",
          "type": "bytes"
        }
      ],
      "name": "approveAndCall",
      "outputs": [
        {
          "name": "success",
          "type": "bool"
        }
      ],
      "payable": false,
      "stateMutability": "nonpayable",
      "type": "function"
    },
    {
      "constant": true,
      "inputs": [],
      "name": "JackPot_assignment",
      "outputs": [
        {
          "name": "",
          "type": "uint256"
        }
      ],
      "payable": false,
      "stateMutability": "view",
      "type": "function"
    },
    {
      "constant": true,
      "inputs": [
        {
          "name": "lottery_activity",
          "type": "bool"
        }
      ],
      "name": "last_lottery_id",
      "outputs": [
        {
          "name": "",
          "type": "uint32"
        }
      ],
      "payable": false,
      "stateMutability": "view",
      "type": "function"
    },
    {
      "constant": false,
      "inputs": [
        {
          "name": "lottery_activity",
          "type": "bool"
        },
        {
          "name": "",
          "type": "address"
        }
      ],
      "name": "change_status",
      "outputs": [
        {
          "name": "success",
          "type": "bool"
        }
      ],
      "payable": false,
      "stateMutability": "nonpayable",
      "type": "function"
    },
    {
      "constant": true,
      "inputs": [
        {
          "name": "",
          "type": "address"
        },
        {
          "name": "",
          "type": "address"
        }
      ],
      "name": "allowance",
      "outputs": [
        {
          "name": "",
          "type": "uint256"
        }
      ],
      "payable": false,
      "stateMutability": "view",
      "type": "function"
    },
    {
      "constant": false,
      "inputs": [
        {
          "name": "amount",
          "type": "uint256"
        },
        {
          "name": "freeze",
          "type": "bool"
        }
      ],
      "name": "sell",
      "outputs": [],
      "payable": false,
      "stateMutability": "nonpayable",
      "type": "function"
    },
    {
      "constant": false,
      "inputs": [
        {
          "name": "target",
          "type": "address"
        },
        {
          "name": "freeze",
          "type": "bool"
        }
      ],
      "name": "freezeAccount",
      "outputs": [
        {
          "name": "",
          "type": "uint256"
        }
      ],
      "payable": false,
      "stateMutability": "nonpayable",
      "type": "function"
    },
    {
      "constant": true,
      "inputs": [
        {
          "name": "newOwner",
          "type": "address"
        }
      ],
      "name": "regularPrize_assignment",
      "outputs": [
        {
          "name": "",
          "type": "uint256"
        }
      ],
      "payable": false,
      "stateMutability": "view",
      "type": "function"
    },
    {
      "inputs": [
        {
          "name": "newOwner",
          "type": "address"
        }
      ],
      "payable": false,
      "stateMutability": "nonpayable",
      "type": "function",
      "constant": false,
      "name": "transferOwnership",
      "outputs": []
    },
    {
      "anonymous": false,
      "inputs": [
        {
          "indexed": false,
          "name": "ticket_number",
          "type": "uint256"
        },
        {
          "indexed": false,
          "name": "ticket_price",
          "type": "uint256"
        },
        {
          "indexed": false,
          "name": "ticket_owner",
          "type": "address"
        },
        {
          "indexed": false,
          "name": "buy_time",
          "type": "uint256"
        },
        {
          "indexed": false,
          "name": "lottery_number",
          "type": "uint256"
        },
        {
          "indexed": false,
          "name": "lottery_type",
          "type": "string"
        },
        {
          "indexed": false,
          "name": "ticket_numbers",
          "type": "uint8[]"
        }
      ],
      "name": "BuyTicket",
      "type": "constructor",
      "payable": false,
      "stateMutability": "nonpayable"
    },
    {
      "anonymous": false,
      "inputs": [
        {
          "indexed": false,
          "name": "ticket_number",
          "type": "uint256"
        },
        {
          "indexed": false,
          "name": "ticket_price",
          "type": "uint256"
        },
        {
          "indexed": false,
          "name": "ticket_owner",
          "type": "address"
        },
        {
          "indexed": false,
          "name": "buy_time",
          "type": "uint256"
        },
        {
          "indexed": false,
          "name": "lottery_number",
          "type": "uint256"
        },
        {
          "indexed": false,
          "name": "lottery_type",
          "type": "string"
        },
        {
          "indexed": false,
          "name": "ticket_numbers",
          "type": "uint8[]"
        }
      ],
      "name": "BuyTicket",
      "type": "event"
    },
    {
      "anonymous": false,
      "inputs": [
        {
          "indexed": false,
          "name": "target",
          "type": "address"
        },
        {
          "indexed": false,
          "name": "frozen",
          "type": "bool"
        },
        {
          "indexed": false,
          "name": "value",
          "type": "uint256"
        }
      ],
      "name": "FrozenFunds",
      "type": "event"
    },
    {
      "anonymous": false,
      "inputs": [
        {
          "indexed": true,
          "name": "from",
          "type": "address"
        },
        {
          "indexed": true,
          "name": "to",
          "type": "address"
        },
        {
          "indexed": false,
          "name": "value",
          "type": "uint256"
        }
      ],
      "name": "Transfer",
      "type": "event"
    },
    {
      "anonymous": false,
      "inputs": [
        {
          "indexed": true,
          "name": "from",
          "type": "address"
        },
        {
          "indexed": false,
          "name": "value",
          "type": "uint256"
        }
      ],
      "name": "Burn",
      "type": "event"
    }
  ],
  "bytecode": "0x60606040526012600360006101000a81548160ff021916908360ff1602179055506000600a556000600b55600a600c556028600d556028600e55602d600f60006101000a81548160ff021916908360ff1602179055506000600f60016101000a81548163ffffffff021916908363ffffffff1602179055506006600f60056101000a81548160ff021916908360ff160217905550600d600f60066101000a81548160ff021916908360ff160217905550606060405190810160405280600a60ff168152602001601e60ff168152602001603c60ff168152506010906003620000e992919062000364565b503415620000f657600080fd5b6127106040805190810160405280600f81526020017f4c6f74746572792036206f6620343500000000000000000000000000000000008152506040805190810160405280600581526020017f4c36783435000000000000000000000000000000000000000000000000000000815250828282336000806101000a81548173ffffffffffffffffffffffffffffffffffffffff021916908373ffffffffffffffffffffffffffffffffffffffff160217905550600360009054906101000a900460ff1660ff16600a0a8302600481905550600454600560003373ffffffffffffffffffffffffffffffffffffffff1673ffffffffffffffffffffffffffffffffffffffff1681526020019081526020016000208190555081600190805190602001906200022492919062000405565b5080600290805190602001906200023d92919062000405565b505050505050506040805190810160405280600a81526020017f30362e31312e3230313700000000000000000000000000000000000000000000815250601160008081526020019081526020016000206000019080519060200190620002a592919062000405565b506000601160008081526020019081526020016000206002018190555060c060405190810160405280600160ff168152602001600260ff168152602001600360ff168152602001600460ff168152602001600560ff168152602001600660ff16815250601160008081526020019081526020016000206003019060066200032e9291906200048c565b5060016011600080815260200190815260200160002060090160006101000a81548160ff02191690831515021790555062000531565b826003601f01602090048101928215620003f25791602002820160005b83821115620003c157835183826101000a81548160ff021916908360ff160217905550926020019260010160208160000104928301926001030262000381565b8015620003f05782816101000a81549060ff0219169055600101602081600001049283019260010302620003c1565b505b509050620004019190620004d6565b5090565b828054600181600116156101000203166002900490600052602060002090601f016020900481019282601f106200044857805160ff191683800117855562000479565b8280016001018555821562000479579182015b82811115620004785782518255916020019190600101906200045b565b5b50905062000488919062000509565b5090565b8260068101928215620004c3579160200282015b82811115620004c2578251829060ff16905591602001919060010190620004a0565b5b509050620004d2919062000509565b5090565b6200050691905b808211156200050257600081816101000a81549060ff021916905550600101620004dd565b5090565b90565b6200052e91905b808211156200052a57600081600090555060010162000510565b5090565b90565b61309880620005416000396000f3006060604052600436106101e3576000357c0100000000000000000000000000000000000000000000000000000000900463ffffffff16806305fefda7146101e857806306fdde0314610214578063095ea7b3146102a25780630a2282ae146102fc5780631209b1f6146103255780631398e0761461034e57806318160ddd1461041957806323b872dd1461044257806329fbcbe7146104bb578063313ce5671461058957806342966c68146105b8578063452b6feb146105f35780634b750334146106225780635be01e451461064b57806370a082311461067457806379c65068146106c157806379cc6790146107035780637d5bf6f31461075d578063837148341461078c5780638620410b146107c35780638da5cb5b146107ec5780638ef7c6491461084157806395d89b411461087b578063999fd09b14610909578063a426e4c814610938578063a6f2ae3a146109c1578063a9059cbb146109cb578063b414d4b614610a0d578063b6aede1614610a5e578063c61694f714610a8b578063cae9ca5114610ac8578063cc911d7914610b65578063d583c5fb14610b8e578063da473f3014610bc3578063dd62ed3e14610c00578063e4849b3214610c6c578063e724529c14610c8f578063ea0a23e314610cd3578063f2fde38b14610cfc575b600080fd5b34156101f357600080fd5b6102126004808035906020019091908035906020019091905050610d35565b005b341561021f57600080fd5b610227610da2565b6040518080602001828103825283818151815260200191508051906020019080838360005b8381101561026757808201518184015260208101905061024c565b50505050905090810190601f1680156102945780820380516001836020036101000a031916815260200191505b509250505060405180910390f35b34156102ad57600080fd5b6102e2600480803573ffffffffffffffffffffffffffffffffffffffff16906020019091908035906020019091905050610e40565b604051808215151515815260200191505060405180910390f35b341561030757600080fd5b61030f610ecd565b6040518082815260200191505060405180910390f35b341561033057600080fd5b610338610ed3565b6040518082815260200191505060405180910390f35b341561035957600080fd5b61036f6004808035906020019091905050610ed9565b6040518080602001848152602001831515151581526020018281038252858181546001816001161561010002031660029004815260200191508054600181600116156101000203166002900480156104085780601f106103dd57610100808354040283529160200191610408565b820191906000526020600020905b8154815290600101906020018083116103eb57829003601f168201915b505094505050505060405180910390f35b341561042457600080fd5b61042c610f0f565b6040518082815260200191505060405180910390f35b341561044d57600080fd5b6104a1600480803573ffffffffffffffffffffffffffffffffffffffff1690602001909190803573ffffffffffffffffffffffffffffffffffffffff16906020019091908035906020019091905050610f15565b604051808215151515815260200191505060405180910390f35b34156104c657600080fd5b61056f600480803560ff1690602001909190803560ff1690602001909190803560ff1690602001909190803560ff1690602001909190803560ff1690602001909190803560ff1690602001909190803560ff1690602001909190803560ff1690602001909190803560ff1690602001909190803560ff1690602001909190803560ff1690602001909190803560ff1690602001909190803560ff16906020019091905050611042565b604051808215151515815260200191505060405180910390f35b341561059457600080fd5b61059c61124a565b604051808260ff1660ff16815260200191505060405180910390f35b34156105c357600080fd5b6105d9600480803590602001909190505061125d565b604051808215151515815260200191505060405180910390f35b34156105fe57600080fd5b610606611361565b604051808260ff1660ff16815260200191505060405180910390f35b341561062d57600080fd5b610635611374565b6040518082815260200191505060405180910390f35b341561065657600080fd5b61065e61137a565b6040518082815260200191505060405180910390f35b341561067f57600080fd5b6106ab600480803573ffffffffffffffffffffffffffffffffffffffff16906020019091905050611380565b6040518082815260200191505060405180910390f35b34156106cc57600080fd5b610701600480803573ffffffffffffffffffffffffffffffffffffffff16906020019091908035906020019091905050611398565b005b341561070e57600080fd5b610743600480803573ffffffffffffffffffffffffffffffffffffffff16906020019091908035906020019091905050611509565b604051808215151515815260200191505060405180910390f35b341561076857600080fd5b610770611723565b604051808260ff1660ff16815260200191505060405180910390f35b341561079757600080fd5b6107ad6004808035906020019091905050611736565b6040518082815260200191505060405180910390f35b34156107ce57600080fd5b6107d6611779565b6040518082815260200191505060405180910390f35b34156107f757600080fd5b6107ff61177f565b604051808273ffffffffffffffffffffffffffffffffffffffff1673ffffffffffffffffffffffffffffffffffffffff16815260200191505060405180910390f35b341561084c57600080fd5b610865600480803560ff169060200190919050506117a4565b6040518082815260200191505060405180910390f35b341561088657600080fd5b61088e611800565b6040518080602001828103825283818151815260200191508051906020019080838360005b838110156108ce5780820151818401526020810190506108b3565b50505050905090810190601f1680156108fb5780820380516001836020036101000a031916815260200191505b509250505060405180910390f35b341561091457600080fd5b61091c61189e565b604051808260ff1660ff16815260200191505060405180910390f35b341561094357600080fd5b61096260048080359060200190919080359060200190919050506118b1565b6040518085600d60200280838360005b8381101561098d578082015181840152602081019050610972565b505050509050018460ff1660ff1681526020018360ff1660ff16815260200182815260200194505050505060405180910390f35b6109c96119f9565b005b34156109d657600080fd5b610a0b600480803573ffffffffffffffffffffffffffffffffffffffff16906020019091908035906020019091905050611a19565b005b3415610a1857600080fd5b610a44600480803573ffffffffffffffffffffffffffffffffffffffff16906020019091905050611a28565b604051808215151515815260200191505060405180910390f35b3415610a6957600080fd5b610a71611a48565b604051808215151515815260200191505060405180910390f35b3415610a9657600080fd5b610aac6004808035906020019091905050611afd565b604051808260ff1660ff16815260200191505060405180910390f35b3415610ad357600080fd5b610b4b600480803573ffffffffffffffffffffffffffffffffffffffff1690602001909190803590602001909190803590602001908201803590602001908080601f01602080910402602001604051908101604052809392919081815260200183838082843782019150505050505091905050611b26565b604051808215151515815260200191505060405180910390f35b3415610b7057600080fd5b610b78611ca4565b6040518082815260200191505060405180910390f35b3415610b9957600080fd5b610ba1611caa565b604051808263ffffffff1663ffffffff16815260200191505060405180910390f35b3415610bce57600080fd5b610be660048080351515906020019091905050611cc0565b604051808215151515815260200191505060405180910390f35b3415610c0b57600080fd5b610c56600480803573ffffffffffffffffffffffffffffffffffffffff1690602001909190803573ffffffffffffffffffffffffffffffffffffffff16906020019091905050611d6c565b6040518082815260200191505060405180910390f35b3415610c7757600080fd5b610c8d6004808035906020019091905050611d91565b005b3415610c9a57600080fd5b610cd1600480803573ffffffffffffffffffffffffffffffffffffffff169060200190919080351515906020019091905050611e0d565b005b3415610cde57600080fd5b610ce6611f32565b6040518082815260200191505060405180910390f35b3415610d0757600080fd5b610d33600480803573ffffffffffffffffffffffffffffffffffffffff16906020019091905050611f38565b005b6000809054906101000a900473ffffffffffffffffffffffffffffffffffffffff1673ffffffffffffffffffffffffffffffffffffffff163373ffffffffffffffffffffffffffffffffffffffff16141515610d9057600080fd5b81600781905550806008819055505050565b60018054600181600116156101000203166002900480601f016020809104026020016040519081016040528092919081815260200182805460018160011615610100020316600290048015610e385780601f10610e0d57610100808354040283529160200191610e38565b820191906000526020600020905b815481529060010190602001808311610e1b57829003601f168201915b505050505081565b600081600660003373ffffffffffffffffffffffffffffffffffffffff1673ffffffffffffffffffffffffffffffffffffffff16815260200190815260200160002060008573ffffffffffffffffffffffffffffffffffffffff1673ffffffffffffffffffffffffffffffffffffffff168152602001908152602001600020819055506001905092915050565b600a5481565b600c5481565b601160205280600052604060002060009150905080600001908060020154908060090160009054906101000a900460ff16905083565b60045481565b6000600660008573ffffffffffffffffffffffffffffffffffffffff1673ffffffffffffffffffffffffffffffffffffffff16815260200190815260200160002060003373ffffffffffffffffffffffffffffffffffffffff1673ffffffffffffffffffffffffffffffffffffffff168152602001908152602001600020548211151515610fa257600080fd5b81600660008673ffffffffffffffffffffffffffffffffffffffff1673ffffffffffffffffffffffffffffffffffffffff16815260200190815260200160002060003373ffffffffffffffffffffffffffffffffffffffff1673ffffffffffffffffffffffffffffffffffffffff16815260200190815260200160002060008282540392505081905550611037848484611fd6565b600190509392505050565b600061104c612e31565b8e81604001516000600d8110151561106057fe5b602002019060ff16908160ff16815250508d81604001516001600d8110151561108557fe5b602002019060ff16908160ff16815250508c81604001516002600d811015156110aa57fe5b602002019060ff16908160ff16815250508b81604001516003600d811015156110cf57fe5b602002019060ff16908160ff16815250508a81604001516004600d811015156110f457fe5b602002019060ff16908160ff16815250508981604001516005600d8110151561111957fe5b602002019060ff16908160ff16815250508881604001516006600d8110151561113e57fe5b602002019060ff16908160ff16815250508781604001516007600d8110151561116357fe5b602002019060ff16908160ff16815250508681604001516008600d8110151561118857fe5b602002019060ff16908160ff16815250508581604001516009600d811015156111ad57fe5b602002019060ff16908160ff1681525050848160400151600a600d811015156111d257fe5b602002019060ff16908160ff1681525050838160400151600b600d811015156111f757fe5b602002019060ff16908160ff1681525050828160400151600c600d8110151561121c57fe5b602002019060ff16908160ff16815250506112368161228d565b9150509d9c50505050505050505050505050565b600360009054906101000a900460ff1681565b600081600560003373ffffffffffffffffffffffffffffffffffffffff1673ffffffffffffffffffffffffffffffffffffffff16815260200190815260200160002054101515156112ad57600080fd5b81600560003373ffffffffffffffffffffffffffffffffffffffff1673ffffffffffffffffffffffffffffffffffffffff16815260200190815260200160002060008282540392505081905550816004600082825403925050819055503373ffffffffffffffffffffffffffffffffffffffff167fcc16f5dbb4873280815c1ee09dbd06736cffcc184412cf7a71a0fdb75d397ca5836040518082815260200191505060405180910390a260019050919050565b600f60059054906101000a900460ff1681565b60075481565b600b5481565b60056020528060005260406000206000915090505481565b6000809054906101000a900473ffffffffffffffffffffffffffffffffffffffff1673ffffffffffffffffffffffffffffffffffffffff163373ffffffffffffffffffffffffffffffffffffffff161415156113f357600080fd5b80600560008473ffffffffffffffffffffffffffffffffffffffff1673ffffffffffffffffffffffffffffffffffffffff16815260200190815260200160002060008282540192505081905550806004600082825401925050819055503073ffffffffffffffffffffffffffffffffffffffff1660007fddf252ad1be2c89b69c2b068fc378daa952ba7f163c4a11628f55a4df523b3ef836040518082815260200191505060405180910390a38173ffffffffffffffffffffffffffffffffffffffff163073ffffffffffffffffffffffffffffffffffffffff167fddf252ad1be2c89b69c2b068fc378daa952ba7f163c4a11628f55a4df523b3ef836040518082815260200191505060405180910390a35050565b600081600560008573ffffffffffffffffffffffffffffffffffffffff1673ffffffffffffffffffffffffffffffffffffffff168152602001908152602001600020541015151561155957600080fd5b600660008473ffffffffffffffffffffffffffffffffffffffff1673ffffffffffffffffffffffffffffffffffffffff16815260200190815260200160002060003373ffffffffffffffffffffffffffffffffffffffff1673ffffffffffffffffffffffffffffffffffffffff1681526020019081526020016000205482111515156115e457600080fd5b81600560008573ffffffffffffffffffffffffffffffffffffffff1673ffffffffffffffffffffffffffffffffffffffff1681526020019081526020016000206000828254039250508190555081600660008573ffffffffffffffffffffffffffffffffffffffff1673ffffffffffffffffffffffffffffffffffffffff16815260200190815260200160002060003373ffffffffffffffffffffffffffffffffffffffff1673ffffffffffffffffffffffffffffffffffffffff16815260200190815260200160002060008282540392505081905550816004600082825403925050819055508273ffffffffffffffffffffffffffffffffffffffff167fcc16f5dbb4873280815c1ee09dbd06736cffcc184412cf7a71a0fdb75d397ca5836040518082815260200191505060405180910390a26001905092915050565b600f60009054906101000a900460ff1681565b60008060019150600083141561174f5760019150611773565b600190505b828111151561176f5780820291508080600101915050611754565b8191505b50919050565b60085481565b6000809054906101000a900473ffffffffffffffffffffffffffffffffffffffff1681565b60006117c1600f60059054906101000a900460ff1660ff16611736565b6117de600f60059054906101000a900460ff16840360ff16611736565b02600c546117ee8460ff16611736565b028115156117f857fe5b049050919050565b60028054600181600116156101000203166002900480601f0160208091040260200160405190810160405280929190818152602001828054600181600116156101000203166002900480156118965780601f1061186b57610100808354040283529160200191611896565b820191906000526020600020905b81548152906001019060200180831161187957829003601f168201915b505050505081565b600f60069054906101000a900460ff1681565b6118b9612e91565b600080600060116000878152602001908152602001600020600101600086815260200190815260200160002060020160116000888152602001908152602001600020600101600087815260200190815260200160002060030160009054906101000a900460ff1660116000898152602001908152602001600020600101600088815260200190815260200160002060030160019054906101000a900460ff16601160008a815260200190815260200160002060010160008981526020019081526020016000206004015483600d806020026040519081016040528092919082600d80156119e1576020028201916000905b82829054906101000a900460ff1660ff16815260200190600101906020826000010492830192600103820291508084116119aa5790505b50505050509350935093509350935092959194509250565b600060085434811515611a0857fe5b049050611a16303383611fd6565b50565b611a24338383611fd6565b5050565b60096020528060005260406000206000915054906101000a900460ff1681565b60008060009054906101000a900473ffffffffffffffffffffffffffffffffffffffff1673ffffffffffffffffffffffffffffffffffffffff163373ffffffffffffffffffffffffffffffffffffffff16141515611aa557600080fd5b60116000600f60019054906101000a900463ffffffff1663ffffffff16815260200190815260200160002060090160009054906101000a900460ff16151515611aed57600080fd5b611af56125eb565b506001905090565b601081600381101515611b0c57fe5b60209182820401919006915054906101000a900460ff1681565b600080849050611b368585610e40565b15611c9b578073ffffffffffffffffffffffffffffffffffffffff16638f4ffcb1338630876040518563ffffffff167c0100000000000000000000000000000000000000000000000000000000028152600401808573ffffffffffffffffffffffffffffffffffffffff1673ffffffffffffffffffffffffffffffffffffffff1681526020018481526020018373ffffffffffffffffffffffffffffffffffffffff1673ffffffffffffffffffffffffffffffffffffffff16815260200180602001828103825283818151815260200191508051906020019080838360005b83811015611c30578082015181840152602081019050611c15565b50505050905090810190601f168015611c5d5780820380516001836020036101000a031916815260200191505b5095505050505050600060405180830381600087803b1515611c7e57600080fd5b6102c65a03f11515611c8f57600080fd5b50505060019150611c9c565b5b509392505050565b600d5481565b600f60019054906101000a900463ffffffff1681565b60008060009054906101000a900473ffffffffffffffffffffffffffffffffffffffff1673ffffffffffffffffffffffffffffffffffffffff163373ffffffffffffffffffffffffffffffffffffffff16141515611d1d57600080fd5b8160116000600f60019054906101000a900463ffffffff1663ffffffff16815260200190815260200160002060090160006101000a81548160ff02191690831515021790555060019050919050565b6006602052816000526040600020602052806000526040600020600091509150505481565b60075481023073ffffffffffffffffffffffffffffffffffffffff163110151515611dbb57600080fd5b611dc6333083611fd6565b3373ffffffffffffffffffffffffffffffffffffffff166108fc60075483029081150290604051600060405180830381858888f193505050501515611e0a57600080fd5b50565b6000809054906101000a900473ffffffffffffffffffffffffffffffffffffffff1673ffffffffffffffffffffffffffffffffffffffff163373ffffffffffffffffffffffffffffffffffffffff16141515611e6857600080fd5b80600960008473ffffffffffffffffffffffffffffffffffffffff1673ffffffffffffffffffffffffffffffffffffffff16815260200190815260200160002060006101000a81548160ff0219169083151502179055507f48335238b4855f35377ed80f164e8c6f3c366e54ac00b96a6402d4a9814a03a58282604051808373ffffffffffffffffffffffffffffffffffffffff1673ffffffffffffffffffffffffffffffffffffffff168152602001821515151581526020019250505060405180910390a15050565b600e5481565b6000809054906101000a900473ffffffffffffffffffffffffffffffffffffffff1673ffffffffffffffffffffffffffffffffffffffff163373ffffffffffffffffffffffffffffffffffffffff16141515611f9357600080fd5b806000806101000a81548173ffffffffffffffffffffffffffffffffffffffff021916908373ffffffffffffffffffffffffffffffffffffffff16021790555050565b60008273ffffffffffffffffffffffffffffffffffffffff1614151515611ffc57600080fd5b80600560008573ffffffffffffffffffffffffffffffffffffffff1673ffffffffffffffffffffffffffffffffffffffff1681526020019081526020016000205411151561204957600080fd5b600560008373ffffffffffffffffffffffffffffffffffffffff1673ffffffffffffffffffffffffffffffffffffffff1681526020019081526020016000205481600560008573ffffffffffffffffffffffffffffffffffffffff1673ffffffffffffffffffffffffffffffffffffffff16815260200190815260200160002054011115156120d757600080fd5b600960008473ffffffffffffffffffffffffffffffffffffffff1673ffffffffffffffffffffffffffffffffffffffff16815260200190815260200160002060009054906101000a900460ff1615151561213057600080fd5b600960008373ffffffffffffffffffffffffffffffffffffffff1673ffffffffffffffffffffffffffffffffffffffff16815260200190815260200160002060009054906101000a900460ff1615151561218957600080fd5b80600560008573ffffffffffffffffffffffffffffffffffffffff1673ffffffffffffffffffffffffffffffffffffffff1681526020019081526020016000206000828254039250508190555080600560008473ffffffffffffffffffffffffffffffffffffffff1673ffffffffffffffffffffffffffffffffffffffff168152602001908152602001600020600082825401925050819055508173ffffffffffffffffffffffffffffffffffffffff168373ffffffffffffffffffffffffffffffffffffffff167fddf252ad1be2c89b69c2b068fc378daa952ba7f163c4a11628f55a4df523b3ef836040518082815260200191505060405180910390a3505050565b60008060008060116000600f60019054906101000a900463ffffffff1663ffffffff16815260200190815260200160002060090160009054906101000a900460ff1615156122da57600080fd5b6122e78560400151612c0a565b925092508215156122f757600080fd5b612300826117a4565b905080600560003373ffffffffffffffffffffffffffffffffffffffff1673ffffffffffffffffffffffffffffffffffffffff16815260200190815260200160002054101561235257600093506125e3565b33856000019073ffffffffffffffffffffffffffffffffffffffff16908173ffffffffffffffffffffffffffffffffffffffff16815250506040805190810160405280600a81526020017f30362e31312e3230313700000000000000000000000000000000000000000000815250856020018190525081856080019060ff16908160ff16815250508460116000600f60019054906101000a900463ffffffff1663ffffffff168152602001908152602001600020600101600060116000600f60019054906101000a900463ffffffff1663ffffffff16815260200190815260200160002060020154815260200190815260200160002060008201518160000160006101000a81548173ffffffffffffffffffffffffffffffffffffffff021916908373ffffffffffffffffffffffffffffffffffffffff16021790555060208201518160010190805190602001906124ab929190612ebd565b5060408201518160020190600d6124c3929190612f3d565b5060608201518160030160006101000a81548160ff021916908360ff16021790555060808201518160030160016101000a81548160ff021916908360ff16021790555060a0820151816004015590505060116000600f60019054906101000a900463ffffffff1663ffffffff1681526020019081526020016000206002016000815480929190600101919050555080600560003373ffffffffffffffffffffffffffffffffffffffff1673ffffffffffffffffffffffffffffffffffffffff168152602001908152602001600020600082825403925050819055506064600d5482028115156125ae57fe5b04600a600082825401925050819055506064600e5482028115156125ce57fe5b04600b60008282540192505081905550600193505b505050919050565b60008060008060008060008060008090505b60116000600f60019054906101000a900463ffffffff1663ffffffff1681526020019081526020016000206002015481101561279d576126df60116000600f60019054906101000a900463ffffffff1663ffffffff1681526020019081526020016000206001016000838152602001908152602001600020600201600d806020026040519081016040528092919082600d80156126d5576020028201916000905b82829054906101000a900460ff1660ff168152602001906001019060208260000104928301926001038202915080841161269e5790505b5050505050612d87565b91508160116000600f60019054906101000a900463ffffffff1663ffffffff168152602001908152602001600020600101600083815260200190815260200160002060030160006101000a81548160ff021916908360ff16021790555060038260ff1614156127515784806001019550505b60048260ff1614156127665785806001019650505b60058260ff16141561277b5786806001019750505b60068260ff1614156127905787806001019850505b80806001019150506125fd565b600090505b60116000600f60019054906101000a900463ffffffff1663ffffffff16815260200190815260200160002060020154811015612bdb5760116000600f60019054906101000a900463ffffffff1663ffffffff168152602001908152602001600020600101600082815260200190815260200160002060030160009054906101000a900460ff16915060038260ff1614156128b857606485026010600060038110151561284a57fe5b602091828204019190069054906101000a900460ff1660ff16600b540281151561287057fe5b0460116000600f60019054906101000a900463ffffffff1663ffffffff1681526020019081526020016000206001016000838152602001908152602001600020600401819055505b60048260ff1614156129465760648602601060016003811015156128d857fe5b602091828204019190069054906101000a900460ff1660ff16600b54028115156128fe57fe5b0460116000600f60019054906101000a900463ffffffff1663ffffffff1681526020019081526020016000206001016000838152602001908152602001600020600401819055505b60058260ff1614156129d457606487026010600260038110151561296657fe5b602091828204019190069054906101000a900460ff1660ff16600b540281151561298c57fe5b0460116000600f60019054906101000a900463ffffffff1663ffffffff1681526020019081526020016000206001016000838152602001908152602001600020600401819055505b60068260ff161415612a355787600a548115156129ed57fe5b0460116000600f60019054906101000a900463ffffffff1663ffffffff1681526020019081526020016000206001016000838152602001908152602001600020600401819055505b60068260ff161015612a895760116000600f60019054906101000a900463ffffffff1663ffffffff168152602001908152602001600020600101600082815260200190815260200160002060040154840193505b60068260ff161415612add5760116000600f60019054906101000a900463ffffffff1663ffffffff168152602001908152602001600020600101600082815260200190815260200160002060040154830192505b60116000600f60019054906101000a900463ffffffff1663ffffffff1681526020019081526020016000206001016000828152602001908152602001600020600401546005600060116000600f60019054906101000a900463ffffffff1663ffffffff168152602001908152602001600020600101600085815260200190815260200160002060000160009054906101000a900473ffffffffffffffffffffffffffffffffffffffff1673ffffffffffffffffffffffffffffffffffffffff1673ffffffffffffffffffffffffffffffffffffffff1681526020019081526020016000206000828254019250508190555080806001019150506127a2565b83600b6000828254039250508190555082600a6000828254039250508190555060019850505050505050505090565b600080600080600d9250600085600c600d81101515612c2557fe5b602002015160ff161415612c3d578280600190039350505b600091505b600c821015612d7857600f60009054906101000a900460ff1660ff168583600d81101515612c6c57fe5b602002015160ff161180612ca75750600f60009054906101000a900460ff1660ff1685600c600d81101515612c9d57fe5b602002015160ff16115b80612cb5575060068360ff16105b15612cc65760008393509350612d80565b60008583600d81101515612cd657fe5b602002015160ff161415612cee578280600190039350505b6001820190505b600d811015612d6b578481600d81101515612d0c57fe5b602002015160ff168583600d81101515612d2257fe5b602002015160ff16148015612d4d575060008583600d81101515612d4257fe5b602002015160ff1614155b15612d5e5760008393509350612d80565b8080600101915050612cf5565b8180600101925050612c42565b600183935093505b5050915091565b6000806000809250600091505b600d821015612e2757600090505b6006811015612e1a5760116000600f60019054906101000a900463ffffffff1663ffffffff16815260200190815260200160002060030181600681101515612de657fe5b01548483600d81101515612df657fe5b602002015160ff161415612e0d5782806001019350505b8080600101915050612da2565b8180600101925050612d94565b8292505050919050565b61024060405190810160405280600073ffffffffffffffffffffffffffffffffffffffff168152602001612e63612fd7565b8152602001612e70612feb565b8152602001600060ff168152602001600060ff168152602001600081525090565b6101a060405190810160405280600d905b600060ff16815260200190600190039081612ea25790505090565b828054600181600116156101000203166002900490600052602060002090601f016020900481019282601f10612efe57805160ff1916838001178555612f2c565b82800160010185558215612f2c579182015b82811115612f2b578251825591602001919060010190612f10565b5b509050612f399190613017565b5090565b82600d601f01602090048101928215612fc65791602002820160005b83821115612f9757835183826101000a81548160ff021916908360ff1602179055509260200192600101602081600001049283019260010302612f59565b8015612fc45782816101000a81549060ff0219169055600101602081600001049283019260010302612f97565b505b509050612fd3919061303c565b5090565b602060405190810160405280600081525090565b6101a060405190810160405280600d905b600060ff16815260200190600190039081612ffc5790505090565b61303991905b8082111561303557600081600090555060010161301d565b5090565b90565b61306991905b8082111561306557600081816101000a81549060ff021916905550600101613042565b5090565b905600a165627a7a723058204daafb4475e454670b129f466675b8d95817eb347635e9fbfb69deaed9c578670029",
  "source": "pragma solidity ^0.4.11;\r\n    \r\nimport \"./DHFBaseCurrency.sol\";\r\n    \r\n/*-  4  20\r\n *4    -, 4 -   , 2      \r\n *  .\r\n *3.11.2017\r\n */\r\ncontract lottery_6_45 is DHFBaseCurrency \r\n{\r\n    uint public JackPot = 0; //  \r\n    uint public regularPrize = 0; //   \r\n    uint public ticketPrice = 10; //  \r\n    uint public JackPot_assignment = 40; //    -   \r\n    uint public regularPrize_assignment = 40; //     \r\n    uint8 public max_Number = 45; //  ,     \r\n    uint32 public last_lottery_id = 0; //   \r\n    uint8 public prize_combination_size = 6;//    \r\n    uint8 public max_numbers_in_ticket = 13;//    \r\n    uint8[3] public won_percent = [10, 30, 60];//      3, 4  5     \r\n    // \r\n    struct ticket{\r\n        address owner; // \r\n        string time; //    \r\n        uint8[13] numbers; //   -     -  4   \r\n        uint8 compliance_level; //      -  \r\n        uint8 valuable_numbers;//    - \r\n        uint money;//   \r\n    }\r\n    // 1  \r\n    struct lottery{\r\n        string date; //   \r\n        mapping(uint => ticket) tickets; //   .\r\n        uint tickets_count; //    \r\n        uint[6] prize_combination; //    \r\n        bool active;\r\n    }\r\n    mapping (uint => lottery) public lotteries;\r\n\r\n    /* \r\n     *        \r\n     *  .\r\n     *3.11.2017\r\n     */\r\n    function lottery_6_45() DHFBaseCurrency (10000, \"Lottery 6 of 45\", \"L6x45\") public\r\n    { \r\n        lotteries[0].date = \"06.11.2017\";\r\n        lotteries[0].tickets_count = 0;\r\n        lotteries[0].prize_combination = [1,2,3,4,5,6];\r\n        lotteries[0].active = true;\r\n    }\r\n    //   \r\n    event BuyTicket(uint ticket_number, uint ticket_price, address ticket_owner, uint buy_time, uint lottery_number, string lottery_type, uint8[] ticket_numbers );\r\n    \r\n    /*  \r\n     *  .\r\n     *@lottery_id  \r\n     *@ticket_Id   \r\n     *6.11.2017\r\n     */\r\n    function getTicket(uint lottery_id,uint ticket_Id) public view returns (uint8[13] ticket_numbers, uint8 ticket_prize_level,uint8 numbers_in_ticket,uint money)\r\n    {\r\n        return (lotteries[lottery_id].tickets[ticket_Id].numbers, lotteries[lottery_id].tickets[ticket_Id].compliance_level, lotteries[lottery_id].tickets[ticket_Id].valuable_numbers, lotteries[lottery_id].tickets[ticket_Id].money);\r\n    }\r\n    \r\n    /*   \r\n     *       -     \r\n     *      \r\n     *       \r\n     *  .\r\n     *@array_to_search ,   \r\n     *return bool success -  \r\n     *8.11.2017\r\n     */ \r\n    function finish_lottery() onlyOwner public returns (bool success)\r\n    {\r\n        require(!lotteries[last_lottery_id].active);\r\n        calculate_prizes();\r\n        return true;\r\n    }\r\n    \r\n    /*     \r\n     *  .\r\n     *@lottery_activity bool    \r\n     *return bool success -  \r\n     *14.11.2017\r\n     */ \r\n    function change_status(bool lottery_activity) onlyOwner public returns (bool success)\r\n    {\r\n        lotteries[last_lottery_id].active = lottery_activity;\r\n        return true;\r\n    }\r\n    \r\n    /*    \r\n     *     \r\n     *  .\r\n     *@array_to_search ,   \r\n     *return uint compliance_level -     \r\n     *8.11.2017\r\n     */ \r\n    function ticket_compliance_level(uint8[13] ticket_numbers) internal constant returns (uint8 compliance_level)\r\n    {\r\n        compliance_level = 0;\r\n        for(uint i = 0; i < 13; i++)\r\n        {\r\n            for(uint k = 0; k < 6; k++)\r\n            {\r\n                if(ticket_numbers[i] == lotteries[last_lottery_id].prize_combination[k])\r\n                    compliance_level++;\r\n            }\r\n        }\r\n        return compliance_level;\r\n    }\r\n    \r\n    /*   \r\n     *            \r\n     *  .\r\n     *return bool success -    \r\n     *9.11.2017\r\n     */\r\n    function calculate_prizes() internal returns (bool)\r\n    {\r\n        uint jack_pot_numbers;//      \r\n        uint numbers_5_of_6;//      5  \r\n        uint numbers_4_of_6;//      4  \r\n        uint numbers_3_of_6;//      3  \r\n        uint regularLotteryCountedPrize;//    \r\n        uint JackPotCountedPrize;//   -\r\n        uint8 ticketComplianceLevel; \r\n        //      ,         \r\n        for (uint i = 0; i < lotteries[last_lottery_id].tickets_count; i++)\r\n        {\r\n            ticketComplianceLevel = ticket_compliance_level(lotteries[last_lottery_id].tickets[i].numbers);\r\n            lotteries[last_lottery_id].tickets[i].compliance_level = ticketComplianceLevel;\r\n            if(ticketComplianceLevel == 3) numbers_3_of_6++;\r\n            if(ticketComplianceLevel == 4) numbers_4_of_6++;\r\n            if(ticketComplianceLevel == 5) numbers_5_of_6++;\r\n            if(ticketComplianceLevel == 6) jack_pot_numbers++;\r\n        }\r\n        //         ,      \r\n        for (i = 0; i < lotteries[last_lottery_id].tickets_count; i++)\r\n        {\r\n            ticketComplianceLevel = lotteries[last_lottery_id].tickets[i].compliance_level;\r\n            if(ticketComplianceLevel == 3)\r\n                lotteries[last_lottery_id].tickets[i].money = regularPrize * (won_percent[0]) / (numbers_3_of_6 * 100);\r\n            if(ticketComplianceLevel == 4)\r\n                lotteries[last_lottery_id].tickets[i].money = regularPrize * (won_percent[1]) / (numbers_4_of_6 * 100);\r\n            if(ticketComplianceLevel == 5)\r\n                lotteries[last_lottery_id].tickets[i].money = regularPrize * (won_percent[2]) / (numbers_5_of_6 * 100);\r\n            if(ticketComplianceLevel == 6)\r\n                lotteries[last_lottery_id].tickets[i].money = JackPot / jack_pot_numbers;\r\n            if(ticketComplianceLevel < 6) regularLotteryCountedPrize += lotteries[last_lottery_id].tickets[i].money; //   ,       \r\n            if(ticketComplianceLevel == 6) JackPotCountedPrize += lotteries[last_lottery_id].tickets[i].money; //   ,       \r\n            balanceOf[lotteries[last_lottery_id].tickets[i].owner] += lotteries[last_lottery_id].tickets[i].money;//      \r\n        }\r\n        regularPrize -= regularLotteryCountedPrize;//    \r\n        JackPot -= JackPotCountedPrize;//    \r\n        return true;\r\n    }\r\n    \r\n    /*\r\n     *      \r\n     *             \r\n     *   \r\n     *  .\r\n     *return bool success -   \r\n     *9.11.2017\r\n     */\r\n    function donate_next_lottery() internal returns (bool)\r\n    {\r\n        \r\n    }\r\n    \r\n    /*    6  13   \r\n     *  .\r\n     *@number_1-number_13 uint8    -  13\r\n     *return bool success -    \r\n     *9.11.2017\r\n     */\r\n    function buy_big_ticket(uint8 number_1,uint8 number_2,uint8 number_3,uint8 number_4, uint8 number_5,uint8 number_6,uint8 number_7,uint8 number_8,uint8 number_9,uint8 number_10, uint8 number_11,uint8 number_12,uint8 number_13) public returns (bool success)\r\n    {\r\n        ticket memory new_ticket;\r\n        new_ticket.numbers[0] = number_1;\r\n        new_ticket.numbers[1] = number_2;\r\n        new_ticket.numbers[2] = number_3;\r\n        new_ticket.numbers[3] = number_4;\r\n        new_ticket.numbers[4] = number_5;\r\n        new_ticket.numbers[5] = number_6;\r\n        new_ticket.numbers[6] = number_7;\r\n        new_ticket.numbers[7] = number_8;\r\n        new_ticket.numbers[8] = number_9;\r\n        new_ticket.numbers[9] = number_10;\r\n        new_ticket.numbers[10] = number_11;\r\n        new_ticket.numbers[11] = number_12;\r\n        new_ticket.numbers[12] = number_13;\r\n        return check_ticket_buying(new_ticket);\r\n    }\r\n    \r\n    /*   \r\n     *   -       -  16!\r\n     *  .\r\n     *@ticked_for_checking  \r\n     *return bool success -    \r\n     *9.11.2017\r\n     */\r\n    function check_ticket_buying(ticket ticked_for_checking) internal returns (bool success)\r\n    {\r\n        require(lotteries[last_lottery_id].active);\r\n        var(allowability, valuable_numbers) = allowable_big_ticket(ticked_for_checking.numbers);\r\n        require(allowability);\r\n        uint current_ticket_price = getTicketPrice(valuable_numbers);//          \r\n        if (balanceOf[msg.sender] < current_ticket_price) return false;\r\n        ticked_for_checking.owner = msg.sender;\r\n        ticked_for_checking.time = \"06.11.2017\";\r\n        ticked_for_checking.valuable_numbers = valuable_numbers;\r\n        lotteries[last_lottery_id].tickets[lotteries[last_lottery_id].tickets_count] = ticked_for_checking;\r\n        lotteries[last_lottery_id].tickets_count++;\r\n        balanceOf[msg.sender] -= current_ticket_price;\r\n        JackPot += (current_ticket_price * JackPot_assignment) / 100;//       ,      \r\n        regularPrize += (current_ticket_price * regularPrize_assignment) / 100;//         ,      \r\n        /*\r\n        uint8[] memory temp;\r\n        for (uint8 i = 0; i < 13; i++ ){\r\n            temp[i] = ticked_for_checking.numbers[i];\r\n        }*/\r\n        //BuyTicket(current_ticket_number, current_ticket_price, msg.sender, now, last_lottery_id , \"Lottery 6 45\", temp);\r\n        return true;\r\n    }\r\n    \r\n    \r\n    /*      6  13   \r\n     *   ,        7\r\n     *  .\r\n     **@ticket_numbers  \r\n     *return bool success -        \r\n     **return uint8 numbers_in_ticket      -     \r\n     *9.11.2017\r\n     */\r\n    function allowable_big_ticket(uint8[13] ticket_numbers) internal constant returns (bool, uint8 numbers_in_ticket)\r\n    {\r\n        numbers_in_ticket = 13;\r\n        if(ticket_numbers[12] == 0) numbers_in_ticket--;\r\n        for (uint i = 0; i < 12; i++)\r\n        {\r\n            if((ticket_numbers[i] > max_Number) || (ticket_numbers[12] > max_Number) || (numbers_in_ticket < 6)) return (false, numbers_in_ticket);\r\n            if(ticket_numbers[i] == 0) numbers_in_ticket--;\r\n            for(uint k = i + 1; k < 13; k++)\r\n            {\r\n                if ((ticket_numbers[i] == ticket_numbers[k]) && (ticket_numbers[i] != 0)) return (false, numbers_in_ticket);\r\n            }\r\n        }\r\n        return (true,numbers_in_ticket);\r\n    }\r\n    \r\n    \r\n    /*       \r\n     *  .\r\n     *@number_count uint8    \r\n     *return uint256 price -    -     ,      \r\n     *9.11.2017\r\n     */\r\n    function getTicketPrice(uint8 number_count) public constant returns (uint256 price)\r\n    {\r\n        return (factorial(number_count) * ticketPrice) / (factorial(number_count - prize_combination_size) * factorial(prize_combination_size));\r\n    }\r\n    \r\n    /*  \r\n     *  .\r\n     *@number uint256    \r\n     *return uint256 fact -   \r\n     *10.11.2017\r\n     */\r\n    function factorial(uint256 number) public pure returns(uint256 fact) \r\n    {\r\n        fact = 1;\r\n        if(number == 0) return 1;\r\n        for(uint256 i = 1;i<=number;i++)\r\n            fact = fact * i;\r\n        return fact;\r\n    }\r\n    \r\n    \r\n}",
  "sourcePath": "D:\\Digital Heritage Fund\\\\    \\Lottery\\contracts\\lottery_6_45.sol",
  "compiler": {
    "name": "solc",
    "version": "0.4.18+commit.9cf6e910.Emscripten.clang"
  },
  "schemaVersion": "1.0.1",
  "updatedAt": "2017-11-17T13:03:49.638Z"
}