{
  "contractName": "lottery_6_45",
  "abi": [
    {
      "constant": false,
      "inputs": [
        {
          "name": "newSellPrice",
          "type": "uint256"
        },
        {
          "name": "newBuyPrice",
          "type": "uint256"
        }
      ],
      "name": "setPrices",
      "outputs": [],
      "payable": false,
      "stateMutability": "nonpayable",
      "type": "function"
    },
    {
      "constant": true,
      "inputs": [
        {
          "name": "",
          "type": "uint256"
        }
      ],
      "name": "redistributionPercent",
      "outputs": [
        {
          "name": "",
          "type": "uint256"
        }
      ],
      "payable": false,
      "stateMutability": "view",
      "type": "function"
    },
    {
      "constant": true,
      "inputs": [
        {
          "name": "_spender",
          "type": "address"
        },
        {
          "name": "_value",
          "type": "uint256"
        }
      ],
      "name": "name",
      "outputs": [
        {
          "name": "",
          "type": "string"
        }
      ],
      "payable": false,
      "stateMutability": "view",
      "type": "function"
    },
    {
      "constant": false,
      "inputs": [
        {
          "name": "_spender",
          "type": "address"
        },
        {
          "name": "_value",
          "type": "uint256"
        }
      ],
      "name": "approve",
      "outputs": [
        {
          "name": "success",
          "type": "bool"
        }
      ],
      "payable": false,
      "stateMutability": "nonpayable",
      "type": "function"
    },
    {
      "constant": true,
      "inputs": [],
      "name": "JackPot",
      "outputs": [
        {
          "name": "",
          "type": "uint256"
        }
      ],
      "payable": false,
      "stateMutability": "view",
      "type": "function"
    },
    {
      "constant": true,
      "inputs": [
        {
          "name": "",
          "type": "uint256"
        }
      ],
      "name": "ticketPrice",
      "outputs": [
        {
          "name": "",
          "type": "uint256"
        },
        {
          "name": "tickets_count",
          "type": "uint256"
        },
        {
          "name": "active",
          "type": "bool"
        }
      ],
      "payable": false,
      "stateMutability": "view",
      "type": "function"
    },
    {
      "constant": true,
      "inputs": [
        {
          "name": "",
          "type": "uint256"
        }
      ],
      "name": "lotteries",
      "outputs": [
        {
          "name": "date",
          "type": "string"
        },
        {
          "name": "tickets_count",
          "type": "uint256"
        },
        {
          "name": "active",
          "type": "bool"
        },
        {
          "name": "played",
          "type": "bool"
        }
      ],
      "payable": false,
      "stateMutability": "view",
      "type": "function"
    },
    {
      "constant": true,
      "inputs": [
        {
          "name": "_from",
          "type": "address"
        },
        {
          "name": "_to",
          "type": "address"
        },
        {
          "name": "_value",
          "type": "uint256"
        }
      ],
      "name": "totalSupply",
      "outputs": [
        {
          "name": "",
          "type": "uint256"
        }
      ],
      "payable": false,
      "stateMutability": "view",
      "type": "function"
    },
    {
      "constant": true,
      "inputs": [
        {
          "name": "prizeNumbers",
          "type": "uint8[6]"
        },
        {
          "name": "_to",
          "type": "address"
        },
        {
          "name": "_value",
          "type": "uint256"
        },
        {
          "name": "number_4",
          "type": "uint8"
        },
        {
          "name": "number_5",
          "type": "uint8"
        },
        {
          "name": "number_6",
          "type": "uint8"
        },
        {
          "name": "number_7",
          "type": "uint8"
        },
        {
          "name": "number_8",
          "type": "uint8"
        },
        {
          "name": "number_9",
          "type": "uint8"
        },
        {
          "name": "number_10",
          "type": "uint8"
        },
        {
          "name": "number_11",
          "type": "uint8"
        },
        {
          "name": "number_12",
          "type": "uint8"
        },
        {
          "name": "number_13",
          "type": "uint8"
        }
      ],
      "name": "isAllowablePrizeCombination",
      "outputs": [
        {
          "name": "",
          "type": "bool"
        }
      ],
      "payable": false,
      "stateMutability": "view",
      "type": "function"
    },
    {
      "constant": false,
      "inputs": [
        {
          "name": "_from",
          "type": "address"
        },
        {
          "name": "_to",
          "type": "address"
        },
        {
          "name": "_value",
          "type": "uint256"
        }
      ],
      "name": "transferFrom",
      "outputs": [
        {
          "name": "success",
          "type": "bool"
        }
      ],
      "payable": false,
      "stateMutability": "nonpayable",
      "type": "function"
    },
    {
      "constant": false,
      "inputs": [
        {
          "name": "_value",
          "type": "uint256"
        }
      ],
      "name": "finishLottery",
      "outputs": [
        {
          "name": "success",
          "type": "bool"
        }
      ],
      "payable": false,
      "stateMutability": "nonpayable",
      "type": "function"
    },
    {
      "constant": true,
      "inputs": [
        {
          "name": "_value",
          "type": "uint256"
        }
      ],
      "name": "decimals",
      "outputs": [
        {
          "name": "",
          "type": "uint8"
        }
      ],
      "payable": false,
      "stateMutability": "view",
      "type": "function"
    },
    {
      "constant": false,
      "inputs": [
        {
          "name": "_value",
          "type": "uint256"
        },
        {
          "name": "number_2",
          "type": "uint8"
        },
        {
          "name": "number_3",
          "type": "uint8"
        },
        {
          "name": "number_4",
          "type": "uint8"
        },
        {
          "name": "number_5",
          "type": "uint8"
        },
        {
          "name": "number_6",
          "type": "uint8"
        },
        {
          "name": "number_7",
          "type": "uint8"
        },
        {
          "name": "number_8",
          "type": "uint8"
        },
        {
          "name": "number_9",
          "type": "uint8"
        },
        {
          "name": "number_10",
          "type": "uint8"
        },
        {
          "name": "number_11",
          "type": "uint8"
        },
        {
          "name": "number_12",
          "type": "uint8"
        },
        {
          "name": "number_13",
          "type": "uint8"
        }
      ],
      "name": "burn",
      "outputs": [
        {
          "name": "success",
          "type": "bool"
        }
      ],
      "payable": false,
      "stateMutability": "nonpayable",
      "type": "function"
    },
    {
      "constant": false,
      "inputs": [
        {
          "name": "number_1",
          "type": "uint8"
        },
        {
          "name": "number_2",
          "type": "uint8"
        },
        {
          "name": "number_3",
          "type": "uint8"
        },
        {
          "name": "number_4",
          "type": "uint8"
        },
        {
          "name": "number_5",
          "type": "uint8"
        },
        {
          "name": "number_6",
          "type": "uint8"
        },
        {
          "name": "number_7",
          "type": "uint8"
        },
        {
          "name": "number_8",
          "type": "uint8"
        },
        {
          "name": "number_9",
          "type": "uint8"
        },
        {
          "name": "number_10",
          "type": "uint8"
        },
        {
          "name": "number_11",
          "type": "uint8"
        },
        {
          "name": "number_12",
          "type": "uint8"
        },
        {
          "name": "number_13",
          "type": "uint8"
        }
      ],
      "name": "buyTicket",
      "outputs": [
        {
          "name": "success",
          "type": "bool"
        }
      ],
      "payable": false,
      "stateMutability": "nonpayable",
      "type": "function"
    },
    {
      "constant": true,
      "inputs": [
        {
          "name": "",
          "type": "address"
        }
      ],
      "name": "prize_combination_size",
      "outputs": [
        {
          "name": "",
          "type": "uint8"
        }
      ],
      "payable": false,
      "stateMutability": "view",
      "type": "function"
    },
    {
      "constant": true,
      "inputs": [
        {
          "name": "target",
          "type": "address"
        },
        {
          "name": "mintedAmount",
          "type": "uint256"
        }
      ],
      "name": "sellPrice",
      "outputs": [
        {
          "name": "",
          "type": "uint256"
        }
      ],
      "payable": false,
      "stateMutability": "view",
      "type": "function"
    },
    {
      "constant": true,
      "inputs": [
        {
          "name": "",
          "type": "address"
        },
        {
          "name": "_value",
          "type": "uint256"
        }
      ],
      "name": "regularPrize",
      "outputs": [
        {
          "name": "",
          "type": "uint256"
        }
      ],
      "payable": false,
      "stateMutability": "view",
      "type": "function"
    },
    {
      "constant": true,
      "inputs": [
        {
          "name": "",
          "type": "address"
        },
        {
          "name": "mintedAmount",
          "type": "uint256"
        }
      ],
      "name": "balanceOf",
      "outputs": [
        {
          "name": "",
          "type": "uint256"
        }
      ],
      "payable": false,
      "stateMutability": "view",
      "type": "function"
    },
    {
      "constant": false,
      "inputs": [
        {
          "name": "target",
          "type": "address"
        },
        {
          "name": "mintedAmount",
          "type": "uint256"
        }
      ],
      "name": "mintToken",
      "outputs": [
        {
          "name": "ticketGetted",
          "type": "tuple",
          "components": [
            {
              "name": "owner",
              "type": "address"
            },
            {
              "name": "time",
              "type": "string"
            },
            {
              "name": "numbers",
              "type": "uint8[13]"
            },
            {
              "name": "compliance_level",
              "type": "uint8"
            },
            {
              "name": "valuable_numbers",
              "type": "uint8"
            },
            {
              "name": "money",
              "type": "uint256"
            }
          ]
        }
      ],
      "payable": false,
      "stateMutability": "nonpayable",
      "type": "function"
    },
    {
      "constant": false,
      "inputs": [
        {
          "name": "_from",
          "type": "address"
        },
        {
          "name": "_value",
          "type": "uint256"
        }
      ],
      "name": "burnFrom",
      "outputs": [
        {
          "name": "success",
          "type": "bool"
        }
      ],
      "payable": false,
      "stateMutability": "nonpayable",
      "type": "function"
    },
    {
      "constant": true,
      "inputs": [
        {
          "name": "_from",
          "type": "address"
        },
        {
          "name": "_value",
          "type": "uint256"
        }
      ],
      "name": "max_Number",
      "outputs": [
        {
          "name": "",
          "type": "uint8"
        }
      ],
      "payable": false,
      "stateMutability": "view",
      "type": "function"
    },
    {
      "constant": true,
      "inputs": [
        {
          "name": "number",
          "type": "uint256"
        }
      ],
      "name": "factorial",
      "outputs": [
        {
          "name": "fact",
          "type": "uint256"
        }
      ],
      "payable": false,
      "stateMutability": "view",
      "type": "function"
    },
    {
      "constant": true,
      "inputs": [
        {
          "name": "number",
          "type": "uint256"
        },
        {
          "name": "ticket_Id",
          "type": "uint256"
        }
      ],
      "name": "buyPrice",
      "outputs": [
        {
          "name": "",
          "type": "uint256"
        },
        {
          "name": "ticket_prize_level",
          "type": "uint8"
        },
        {
          "name": "numbers_in_ticket",
          "type": "uint8"
        },
        {
          "name": "money",
          "type": "uint256"
        }
      ],
      "payable": false,
      "stateMutability": "view",
      "type": "function"
    },
    {
      "constant": true,
      "inputs": [
        {
          "name": "number_count",
          "type": "uint8"
        }
      ],
      "name": "owner",
      "outputs": [
        {
          "name": "",
          "type": "address"
        }
      ],
      "payable": false,
      "stateMutability": "view",
      "type": "function"
    },
    {
      "constant": true,
      "inputs": [
        {
          "name": "number_count",
          "type": "uint8"
        },
        {
          "name": "ticket_Id",
          "type": "uint256"
        }
      ],
      "name": "getTicketPrice",
      "outputs": [
        {
          "name": "price",
          "type": "uint256"
        },
        {
          "name": "tickets_count",
          "type": "uint256"
        },
        {
          "name": "prize_combination",
          "type": "uint256[6]"
        },
        {
          "name": "active",
          "type": "bool"
        }
      ],
      "payable": false,
      "stateMutability": "view",
      "type": "function"
    },
    {
      "constant": true,
      "inputs": [
        {
          "name": "lottery_id",
          "type": "uint256"
        }
      ],
      "name": "getLottery",
      "outputs": [
        {
          "name": "date",
          "type": "string"
        },
        {
          "name": "tickets_count",
          "type": "uint256"
        },
        {
          "name": "prize_combination",
          "type": "uint256[6]"
        },
        {
          "name": "active",
          "type": "bool"
        }
      ],
      "payable": false,
      "stateMutability": "view",
      "type": "function"
    },
    {
      "constant": true,
      "inputs": [
        {
          "name": "lottery_id",
          "type": "uint256"
        },
        {
          "name": "_value",
          "type": "uint256"
        }
      ],
      "name": "symbol",
      "outputs": [
        {
          "name": "",
          "type": "string"
        },
        {
          "name": "tickets_count",
          "type": "uint256"
        },
        {
          "name": "prize_combination",
          "type": "uint256[6]"
        },
        {
          "name": "active",
          "type": "bool"
        }
      ],
      "payable": false,
      "stateMutability": "view",
      "type": "function"
    },
    {
      "constant": true,
      "inputs": [
        {
          "name": "lottery_activity",
          "type": "bool"
        }
      ],
      "name": "max_numbers_in_ticket",
      "outputs": [
        {
          "name": "",
          "type": "uint8"
        }
      ],
      "payable": false,
      "stateMutability": "view",
      "type": "function"
    },
    {
      "constant": false,
      "inputs": [
        {
          "name": "lottery_activity",
          "type": "bool"
        },
        {
          "name": "ticket_Id",
          "type": "uint256"
        }
      ],
      "name": "changeStatus",
      "outputs": [
        {
          "name": "success",
          "type": "bool"
        },
        {
          "name": "ticket_prize_level",
          "type": "uint8"
        },
        {
          "name": "numbers_in_ticket",
          "type": "uint8"
        },
        {
          "name": "money",
          "type": "uint256"
        }
      ],
      "payable": false,
      "stateMutability": "nonpayable",
      "type": "function"
    },
    {
      "constant": true,
      "inputs": [
        {
          "name": "lottery_id",
          "type": "uint256"
        },
        {
          "name": "ticket_Id",
          "type": "uint256"
        },
        {
          "name": "_extraData",
          "type": "bytes"
        }
      ],
      "name": "getTicket",
      "outputs": [
        {
          "name": "ticket_numbers",
          "type": "uint8[13]"
        },
        {
          "name": "ticket_prize_level",
          "type": "uint8"
        },
        {
          "name": "numbers_in_ticket",
          "type": "uint8"
        },
        {
          "name": "money",
          "type": "uint256"
        },
        {
          "name": "owner",
          "type": "address"
        }
      ],
      "payable": false,
      "stateMutability": "view",
      "type": "function"
    },
    {
      "constant": false,
      "inputs": [
        {
          "name": "lottery_id",
          "type": "uint256"
        },
        {
          "name": "ticket_Id",
          "type": "uint256"
        },
        {
          "name": "_extraData",
          "type": "bytes"
        }
      ],
      "name": "buy",
      "outputs": [
        {
          "name": "ticket_numbers",
          "type": "uint8[13]"
        },
        {
          "name": "ticket_prize_level",
          "type": "uint8"
        },
        {
          "name": "numbers_in_ticket",
          "type": "uint8"
        },
        {
          "name": "money",
          "type": "uint256"
        },
        {
          "name": "owner",
          "type": "address"
        }
      ],
      "payable": true,
      "stateMutability": "payable",
      "type": "function"
    },
    {
      "constant": false,
      "inputs": [
        {
          "name": "_to",
          "type": "address"
        },
        {
          "name": "_value",
          "type": "uint256"
        }
      ],
      "name": "transfer",
      "outputs": [
        {
          "name": "result",
          "type": "bool"
        }
      ],
      "payable": false,
      "stateMutability": "nonpayable",
      "type": "function"
    },
    {
      "constant": false,
      "inputs": [
        {
          "name": "_to",
          "type": "address"
        },
        {
          "name": "_value",
          "type": "uint256"
        }
      ],
      "name": "newLottery",
      "outputs": [
        {
          "name": "result",
          "type": "bool"
        },
        {
          "name": "numbers_in_ticket",
          "type": "uint8"
        }
      ],
      "payable": false,
      "stateMutability": "nonpayable",
      "type": "function"
    },
    {
      "constant": true,
      "inputs": [
        {
          "name": "",
          "type": "address"
        },
        {
          "name": "",
          "type": "address"
        }
      ],
      "name": "frozenAccount",
      "outputs": [
        {
          "name": "",
          "type": "bool"
        }
      ],
      "payable": false,
      "stateMutability": "view",
      "type": "function"
    },
    {
      "constant": true,
      "inputs": [
        {
          "name": "",
          "type": "uint256"
        },
        {
          "name": "_value",
          "type": "uint256"
        },
        {
          "name": "_extraData",
          "type": "bytes"
        }
      ],
      "name": "won_percent",
      "outputs": [
        {
          "name": "",
          "type": "uint8"
        }
      ],
      "payable": false,
      "stateMutability": "view",
      "type": "function"
    },
    {
      "constant": false,
      "inputs": [
        {
          "name": "_spender",
          "type": "address"
        },
        {
          "name": "_value",
          "type": "uint256"
        },
        {
          "name": "_extraData",
          "type": "bytes"
        }
      ],
      "name": "approveAndCall",
      "outputs": [
        {
          "name": "success",
          "type": "bool"
        }
      ],
      "payable": false,
      "stateMutability": "nonpayable",
      "type": "function"
    },
    {
      "constant": true,
      "inputs": [
        {
          "name": "_spender",
          "type": "address"
        },
        {
          "name": "_value",
          "type": "uint256"
        },
        {
          "name": "_extraData",
          "type": "bytes"
        }
      ],
      "name": "JackPot_assignment",
      "outputs": [
        {
          "name": "",
          "type": "uint256"
        },
        {
          "name": "numbers_in_ticket",
          "type": "uint8"
        }
      ],
      "payable": false,
      "stateMutability": "view",
      "type": "function"
    },
    {
      "constant": true,
      "inputs": [
        {
          "name": "ticket_numbers",
          "type": "uint8[13]"
        },
        {
          "name": "freeze",
          "type": "bool"
        }
      ],
      "name": "isAllowableBigTicket",
      "outputs": [
        {
          "name": "",
          "type": "bool"
        },
        {
          "name": "numbers_in_ticket",
          "type": "uint8"
        }
      ],
      "payable": false,
      "stateMutability": "view",
      "type": "function"
    },
    {
      "inputs": [
        {
          "name": "ticket_numbers",
          "type": "uint8[13]"
        },
        {
          "name": "",
          "type": "address"
        }
      ],
      "payable": false,
      "stateMutability": "view",
      "type": "function",
      "constant": true,
      "name": "last_lottery_id",
      "outputs": [
        {
          "name": "",
          "type": "uint32"
        },
        {
          "name": "numbers_in_ticket",
          "type": "uint8"
        }
      ]
    },
    {
      "anonymous": false,
      "inputs": [
        {
          "indexed": false,
          "name": "",
          "type": "address"
        },
        {
          "indexed": false,
          "name": "",
          "type": "address"
        },
        {
          "indexed": false,
          "name": "ticket_owner",
          "type": "address"
        },
        {
          "indexed": false,
          "name": "buy_time",
          "type": "uint256"
        },
        {
          "indexed": false,
          "name": "lottery_number",
          "type": "uint256"
        },
        {
          "indexed": false,
          "name": "lottery_type",
          "type": "string"
        },
        {
          "indexed": false,
          "name": "ticket_numbers",
          "type": "uint8[]"
        }
      ],
      "name": "allowance",
      "type": "function",
      "payable": false,
      "stateMutability": "view",
      "constant": true,
      "outputs": [
        {
          "name": "",
          "type": "uint256"
        }
      ]
    },
    {
      "anonymous": false,
      "inputs": [
        {
          "indexed": false,
          "name": "amount",
          "type": "uint256"
        },
        {
          "indexed": false,
          "name": "",
          "type": "address"
        },
        {
          "indexed": false,
          "name": "ticket_owner",
          "type": "address"
        },
        {
          "indexed": false,
          "name": "buy_time",
          "type": "uint256"
        },
        {
          "indexed": false,
          "name": "lottery_number",
          "type": "uint256"
        },
        {
          "indexed": false,
          "name": "lottery_type",
          "type": "string"
        },
        {
          "indexed": false,
          "name": "ticket_numbers",
          "type": "uint8[]"
        }
      ],
      "name": "sell",
      "type": "function",
      "payable": false,
      "stateMutability": "nonpayable",
      "constant": false,
      "outputs": [
        {
          "name": "",
          "type": "uint256"
        }
      ]
    },
    {
      "anonymous": false,
      "inputs": [
        {
          "indexed": false,
          "name": "target",
          "type": "address"
        },
        {
          "indexed": false,
          "name": "freeze",
          "type": "bool"
        },
        {
          "indexed": false,
          "name": "ticket_owner",
          "type": "address"
        },
        {
          "indexed": false,
          "name": "buy_time",
          "type": "uint256"
        },
        {
          "indexed": false,
          "name": "lottery_number",
          "type": "uint256"
        },
        {
          "indexed": false,
          "name": "lottery_type",
          "type": "string"
        },
        {
          "indexed": false,
          "name": "ticket_numbers",
          "type": "uint8[]"
        }
      ],
      "name": "freezeAccount",
      "type": "function",
      "constant": false,
      "outputs": [
        {
          "name": "",
          "type": "uint256"
        }
      ],
      "payable": false,
      "stateMutability": "nonpayable"
    },
    {
      "anonymous": false,
      "inputs": [
        {
          "indexed": false,
          "name": "target",
          "type": "address"
        },
        {
          "indexed": false,
          "name": "freeze",
          "type": "bool"
        },
        {
          "indexed": false,
          "name": "value",
          "type": "uint256"
        }
      ],
      "name": "regularPrize_assignment",
      "type": "function",
      "constant": true,
      "outputs": [
        {
          "name": "",
          "type": "uint256"
        }
      ],
      "payable": false,
      "stateMutability": "view"
    },
    {
      "anonymous": false,
      "inputs": [
        {
          "indexed": true,
          "name": "newOwner",
          "type": "address"
        },
        {
          "indexed": true,
          "name": "to",
          "type": "address"
        },
        {
          "indexed": false,
          "name": "value",
          "type": "uint256"
        }
      ],
      "name": "transferOwnership",
      "type": "function",
      "payable": false,
      "stateMutability": "nonpayable",
      "constant": false,
      "outputs": [
        {
          "name": "",
          "type": "uint256"
        }
      ]
    },
    {
      "anonymous": false,
      "inputs": [
        {
          "indexed": false,
          "name": "number_1",
          "type": "uint8"
        },
        {
          "indexed": false,
          "name": "number_2",
          "type": "uint8"
        },
        {
          "indexed": false,
          "name": "number_3",
          "type": "uint8"
        },
        {
          "indexed": false,
          "name": "number_4",
          "type": "uint8"
        },
        {
          "indexed": false,
          "name": "number_5",
          "type": "uint8"
        },
        {
          "indexed": false,
          "name": "number_6",
          "type": "uint8"
        },
        {
          "indexed": false,
          "name": "ticket_numbers",
          "type": "uint8[]"
        }
      ],
      "name": "updatePrizeCombination",
      "type": "function",
      "constant": false,
      "outputs": [
        {
          "name": "",
          "type": "bool"
        }
      ],
      "payable": false,
      "stateMutability": "nonpayable"
    },
    {
      "anonymous": false,
      "inputs": [
        {
          "indexed": false,
          "name": "number_1",
          "type": "uint8"
        },
        {
          "indexed": false,
          "name": "number_2",
          "type": "uint8"
        },
        {
          "name": "number_3",
          "type": "uint8"
        },
        {
          "name": "number_4",
          "type": "uint8"
        },
        {
          "name": "number_5",
          "type": "uint8"
        },
        {
          "name": "number_6",
          "type": "uint8"
        }
      ],
      "name": "updatePrizeCombination",
      "type": "constructor",
      "payable": false,
      "stateMutability": "nonpayable",
      "constant": false,
      "outputs": [
        {
          "name": "",
          "type": "bool"
        }
      ]
    },
    {
      "anonymous": false,
      "inputs": [
        {
          "indexed": false,
          "name": "ticket_number",
          "type": "uint256"
        },
        {
          "indexed": false,
          "name": "ticket_price",
          "type": "uint256"
        },
        {
          "indexed": false,
          "name": "ticket_owner",
          "type": "address"
        },
        {
          "indexed": false,
          "name": "buy_time",
          "type": "uint256"
        },
        {
          "indexed": false,
          "name": "lottery_number",
          "type": "uint256"
        },
        {
          "indexed": false,
          "name": "lottery_type",
          "type": "string"
        },
        {
          "indexed": false,
          "name": "ticket_numbers",
          "type": "uint8[]"
        }
      ],
      "name": "BuyTicket",
      "type": "event",
      "payable": false,
      "stateMutability": "nonpayable"
    },
    {
      "anonymous": false,
      "inputs": [
        {
          "indexed": false,
          "name": "target",
          "type": "address"
        },
        {
          "indexed": false,
          "name": "frozen",
          "type": "bool"
        },
        {
          "indexed": false,
          "name": "ticket_owner",
          "type": "address"
        },
        {
          "indexed": false,
          "name": "buy_time",
          "type": "uint256"
        },
        {
          "indexed": false,
          "name": "lottery_number",
          "type": "uint256"
        },
        {
          "indexed": false,
          "name": "lottery_type",
          "type": "string"
        },
        {
          "indexed": false,
          "name": "ticket_numbers",
          "type": "uint8[]"
        }
      ],
      "name": "FrozenFunds",
      "type": "event"
    },
    {
      "anonymous": false,
      "inputs": [
        {
          "indexed": true,
          "name": "from",
          "type": "address"
        },
        {
          "indexed": true,
          "name": "to",
          "type": "address"
        },
        {
          "indexed": false,
          "name": "value",
          "type": "uint256"
        }
      ],
      "name": "Transfer",
      "type": "event"
    },
    {
      "anonymous": false,
      "inputs": [
        {
          "indexed": true,
          "name": "from",
          "type": "address"
        },
        {
          "indexed": false,
          "name": "value",
          "type": "uint256"
        },
        {
          "indexed": false,
          "name": "value",
          "type": "uint256"
        }
      ],
      "name": "Burn",
      "type": "event"
    },
    {
      "anonymous": false,
      "inputs": [
        {
          "indexed": true,
          "name": "from",
          "type": "address"
        },
        {
          "indexed": false,
          "name": "value",
          "type": "uint256"
        }
      ],
      "name": "Burn",
      "type": "event"
    }
  ],
  "bytecode": "0x60606040526012600360006101000a81548160ff021916908360ff1602179055506000600a556000600b55600a600c556028600d556028600e55602d600f60006101000a81548160ff021916908360ff1602179055506000600f60016101000a81548163ffffffff021916908363ffffffff1602179055506006600f60056101000a81548160ff021916908360ff160217905550600d600f60066101000a81548160ff021916908360ff160217905550606060405190810160405280600a60ff168152602001601e60ff168152602001603c60ff168152506010906003620000e9929190620003ce565b50606060405190810160405280602d60ff168152602001602d60ff168152602001600a60ff168152506011906003620001249291906200046f565b5034156200013157600080fd5b6127106040805190810160405280600f81526020017f4c6f74746572792036206f6620343500000000000000000000000000000000008152506040805190810160405280600581526020017f4c36783435000000000000000000000000000000000000000000000000000000815250828282336000806101000a81548173ffffffffffffffffffffffffffffffffffffffff021916908373ffffffffffffffffffffffffffffffffffffffff160217905550600360009054906101000a900460ff1660ff16600a0a8302600481905550600454600560003373ffffffffffffffffffffffffffffffffffffffff1673ffffffffffffffffffffffffffffffffffffffff1681526020019081526020016000208190555081600190805190602001906200025f929190620004b9565b50806002908051906020019062000278929190620004b9565b505050505050506040805190810160405280600a81526020017f30362e31312e3230313700000000000000000000000000000000000000000000815250601460008081526020019081526020016000206000019080519060200190620002e0929190620004b9565b506000601460008081526020019081526020016000206002018190555060c060405190810160405280600060ff168152602001600060ff168152602001600060ff168152602001600060ff168152602001600060ff168152602001600060ff16815250601460008081526020019081526020016000206003019060066200036992919062000540565b5060016014600080815260200190815260200160002060090160006101000a81548160ff02191690831515021790555060006014600080815260200190815260200160002060090160016101000a81548160ff021916908315150217905550620005e5565b826003601f016020900481019282156200045c5791602002820160005b838211156200042b57835183826101000a81548160ff021916908360ff1602179055509260200192600101602081600001049283019260010302620003eb565b80156200045a5782816101000a81549060ff02191690556001016020816000010492830192600103026200042b565b505b5090506200046b91906200058a565b5090565b8260038101928215620004a6579160200282015b82811115620004a5578251829060ff1690559160200191906001019062000483565b5b509050620004b59190620005bd565b5090565b828054600181600116156101000203166002900490600052602060002090601f016020900481019282601f10620004fc57805160ff19168380011785556200052d565b828001600101855582156200052d579182015b828111156200052c5782518255916020019190600101906200050f565b5b5090506200053c9190620005bd565b5090565b826006810192821562000577579160200282015b8281111562000576578251829060ff1690559160200191906001019062000554565b5b509050620005869190620005bd565b5090565b620005ba91905b80821115620005b657600081816101000a81549060ff02191690555060010162000591565b5090565b90565b620005e291905b80821115620005de576000816000905550600101620005c4565b5090565b90565b613e5a80620005f56000396000f300606060405260043610610225576000357c0100000000000000000000000000000000000000000000000000000000900463ffffffff16806305fefda71461022a5780630652a9d31461025657806306fdde031461028d578063095ea7b31461031b5780630a2282ae146103755780631209b1f61461039e5780631398e076146103c757806318160ddd1461049d57806319296aa1146104c657806323b872dd146105245780632c906ba21461059d578063313ce567146105ca57806342966c68146105f957806343bfdb0014610634578063452b6feb146107025780634b750334146107315780635be01e451461075a57806370a082311461078357806379c65068146107d057806379cc6790146108125780637d5bf6f31461086c578063837148341461089b5780638620410b146108d25780638da5cb5b146108fb5780638ef7c6491461095057806392e845f61461098a57806395d89b4114610a67578063999fd09b14610af55780639b3de49b14610b24578063a426e4c814610b61578063a6f2ae3a14610c1d578063a9059cbb14610c27578063b1e2cb0314610c69578063b414d4b614610c96578063c61694f714610ce7578063cae9ca5114610d24578063cc911d7914610dc1578063d03fc5e814610dea578063d583c5fb14610e56578063dd62ed3e14610e8b578063e4849b3214610ef7578063e724529c14610f1a578063ea0a23e314610f5e578063f2fde38b14610f87578063fee429d114610fc0575b600080fd5b341561023557600080fd5b610254600480803590602001909190803590602001909190505061103a565b005b341561026157600080fd5b61027760048080359060200190919050506110a7565b6040518082815260200191505060405180910390f35b341561029857600080fd5b6102a06110c1565b6040518080602001828103825283818151815260200191508051906020019080838360005b838110156102e05780820151818401526020810190506102c5565b50505050905090810190601f16801561030d5780820380516001836020036101000a031916815260200191505b509250505060405180910390f35b341561032657600080fd5b61035b600480803573ffffffffffffffffffffffffffffffffffffffff1690602001909190803590602001909190505061115f565b604051808215151515815260200191505060405180910390f35b341561038057600080fd5b6103886111ec565b6040518082815260200191505060405180910390f35b34156103a957600080fd5b6103b16111f2565b6040518082815260200191505060405180910390f35b34156103d257600080fd5b6103e860048080359060200190919050506111f8565b6040518080602001858152602001841515151581526020018315151515815260200182810382528681815460018160011615610100020316600290048152602001915080546001816001161561010002031660029004801561048b5780601f106104605761010080835404028352916020019161048b565b820191906000526020600020905b81548152906001019060200180831161046e57829003601f168201915b50509550505050505060405180910390f35b34156104a857600080fd5b6104b0611241565b6040518082815260200191505060405180910390f35b34156104d157600080fd5b61050a6004808060c001906006806020026040519081016040528092919082600660200280828437820191505050505091905050611247565b604051808215151515815260200191505060405180910390f35b341561052f57600080fd5b610583600480803573ffffffffffffffffffffffffffffffffffffffff1690602001909190803573ffffffffffffffffffffffffffffffffffffffff1690602001909190803590602001909190505061137c565b604051808215151515815260200191505060405180910390f35b34156105a857600080fd5b6105b06114a9565b604051808215151515815260200191505060405180910390f35b34156105d557600080fd5b6105dd6115fb565b604051808260ff1660ff16815260200191505060405180910390f35b341561060457600080fd5b61061a600480803590602001909190505061160e565b604051808215151515815260200191505060405180910390f35b341561063f57600080fd5b6106e8600480803560ff1690602001909190803560ff1690602001909190803560ff1690602001909190803560ff1690602001909190803560ff1690602001909190803560ff1690602001909190803560ff1690602001909190803560ff1690602001909190803560ff1690602001909190803560ff1690602001909190803560ff1690602001909190803560ff1690602001909190803560ff16906020019091905050611712565b604051808215151515815260200191505060405180910390f35b341561070d57600080fd5b61071561191a565b604051808260ff1660ff16815260200191505060405180910390f35b341561073c57600080fd5b61074461192d565b6040518082815260200191505060405180910390f35b341561076557600080fd5b61076d611933565b6040518082815260200191505060405180910390f35b341561078e57600080fd5b6107ba600480803573ffffffffffffffffffffffffffffffffffffffff16906020019091905050611939565b6040518082815260200191505060405180910390f35b34156107db57600080fd5b610810600480803573ffffffffffffffffffffffffffffffffffffffff16906020019091908035906020019091905050611951565b005b341561081d57600080fd5b610852600480803573ffffffffffffffffffffffffffffffffffffffff16906020019091908035906020019091905050611ac2565b604051808215151515815260200191505060405180910390f35b341561087757600080fd5b61087f611cdc565b604051808260ff1660ff16815260200191505060405180910390f35b34156108a657600080fd5b6108bc6004808035906020019091905050611cef565b6040518082815260200191505060405180910390f35b34156108dd57600080fd5b6108e5611d32565b6040518082815260200191505060405180910390f35b341561090657600080fd5b61090e611d38565b604051808273ffffffffffffffffffffffffffffffffffffffff1673ffffffffffffffffffffffffffffffffffffffff16815260200191505060405180910390f35b341561095b57600080fd5b610974600480803560ff16906020019091905050611d5d565b6040518082815260200191505060405180910390f35b341561099557600080fd5b6109ab6004808035906020019091905050611db9565b604051808060200185815260200184600660200280838360005b838110156109e05780820151818401526020810190506109c5565b5050505090500183151515158152602001828103825286818151815260200191508051906020019080838360005b83811015610a29578082015181840152602081019050610a0e565b50505050905090810190601f168015610a565780820380516001836020036101000a031916815260200191505b509550505050505060405180910390f35b3415610a7257600080fd5b610a7a611f1e565b6040518080602001828103825283818151815260200191508051906020019080838360005b83811015610aba578082015181840152602081019050610a9f565b50505050905090810190601f168015610ae75780820380516001836020036101000a031916815260200191505b509250505060405180910390f35b3415610b0057600080fd5b610b08611fbc565b604051808260ff1660ff16815260200191505060405180910390f35b3415610b2f57600080fd5b610b4760048080351515906020019091905050611fcf565b604051808215151515815260200191505060405180910390f35b3415610b6c57600080fd5b610b8b60048080359060200190919080359060200190919050506120c6565b6040518086600d60200280838360005b83811015610bb6578082015181840152602081019050610b9b565b505050509050018560ff1660ff1681526020018460ff1660ff1681526020018381526020018273ffffffffffffffffffffffffffffffffffffffff1673ffffffffffffffffffffffffffffffffffffffff1681526020019550505050505060405180910390f35b610c2561225d565b005b3415610c3257600080fd5b610c67600480803573ffffffffffffffffffffffffffffffffffffffff1690602001909190803590602001909190505061227d565b005b3415610c7457600080fd5b610c7c61228c565b604051808215151515815260200191505060405180910390f35b3415610ca157600080fd5b610ccd600480803573ffffffffffffffffffffffffffffffffffffffff1690602001909190505061257e565b604051808215151515815260200191505060405180910390f35b3415610cf257600080fd5b610d08600480803590602001909190505061259e565b604051808260ff1660ff16815260200191505060405180910390f35b3415610d2f57600080fd5b610da7600480803573ffffffffffffffffffffffffffffffffffffffff1690602001909190803590602001909190803590602001908201803590602001908080601f016020809104026020016040519081016040528093929190818152602001838380828437820191505050505050919050506125c7565b604051808215151515815260200191505060405180910390f35b3415610dcc57600080fd5b610dd4612745565b6040518082815260200191505060405180910390f35b3415610df557600080fd5b610e2f600480806101a00190600d806020026040519081016040528092919082600d6020028082843782019150505050509190505061274b565b60405180831515151581526020018260ff1660ff1681526020019250505060405180910390f35b3415610e6157600080fd5b610e696128c8565b604051808263ffffffff1663ffffffff16815260200191505060405180910390f35b3415610e9657600080fd5b610ee1600480803573ffffffffffffffffffffffffffffffffffffffff1690602001909190803573ffffffffffffffffffffffffffffffffffffffff169060200190919050506128de565b6040518082815260200191505060405180910390f35b3415610f0257600080fd5b610f186004808035906020019091905050612903565b005b3415610f2557600080fd5b610f5c600480803573ffffffffffffffffffffffffffffffffffffffff16906020019091908035151590602001909190505061297f565b005b3415610f6957600080fd5b610f71612aa4565b6040518082815260200191505060405180910390f35b3415610f9257600080fd5b610fbe600480803573ffffffffffffffffffffffffffffffffffffffff16906020019091905050612aaa565b005b3415610fcb57600080fd5b611020600480803560ff1690602001909190803560ff1690602001909190803560ff1690602001909190803560ff1690602001909190803560ff1690602001909190803560ff16906020019091905050612b48565b604051808215151515815260200191505060405180910390f35b6000809054906101000a900473ffffffffffffffffffffffffffffffffffffffff1673ffffffffffffffffffffffffffffffffffffffff163373ffffffffffffffffffffffffffffffffffffffff1614151561109557600080fd5b81600781905550806008819055505050565b6011816003811015156110b657fe5b016000915090505481565b60018054600181600116156101000203166002900480601f0160208091040260200160405190810160405280929190818152602001828054600181600116156101000203166002900480156111575780601f1061112c57610100808354040283529160200191611157565b820191906000526020600020905b81548152906001019060200180831161113a57829003601f168201915b505050505081565b600081600660003373ffffffffffffffffffffffffffffffffffffffff1673ffffffffffffffffffffffffffffffffffffffff16815260200190815260200160002060008573ffffffffffffffffffffffffffffffffffffffff1673ffffffffffffffffffffffffffffffffffffffff168152602001908152602001600020819055506001905092915050565b600a5481565b600c5481565b601460205280600052604060002060009150905080600001908060020154908060090160009054906101000a900460ff16908060090160019054906101000a900460ff16905084565b60045481565b60008060008084600560068110151561125c57fe5b602002015160ff1614806112975750600f60009054906101000a900460ff1660ff1684600560068110151561128d57fe5b602002015160ff16115b156112a55760009250611375565b600091505b600582101561137057600f60009054906101000a900460ff1660ff1684836006811015156112d457fe5b602002015160ff1611806112fd5750600084836006811015156112f357fe5b602002015160ff16145b1561130b5760009250611375565b6001820190505b600681101561136357838160068110151561132957fe5b602002015160ff16848360068110151561133f57fe5b602002015160ff1614156113565760009250611375565b8080600101915050611312565b81806001019250506112aa565b600192505b5050919050565b6000600660008573ffffffffffffffffffffffffffffffffffffffff1673ffffffffffffffffffffffffffffffffffffffff16815260200190815260200160002060003373ffffffffffffffffffffffffffffffffffffffff1673ffffffffffffffffffffffffffffffffffffffff16815260200190815260200160002054821115151561140957600080fd5b81600660008673ffffffffffffffffffffffffffffffffffffffff1673ffffffffffffffffffffffffffffffffffffffff16815260200190815260200160002060003373ffffffffffffffffffffffffffffffffffffffff1673ffffffffffffffffffffffffffffffffffffffff1681526020019081526020016000206000828254039250508190555061149e848484612cfb565b600190509392505050565b60008060009054906101000a900473ffffffffffffffffffffffffffffffffffffffff1673ffffffffffffffffffffffffffffffffffffffff163373ffffffffffffffffffffffffffffffffffffffff1614151561150657600080fd5b60146000600f60019054906101000a900463ffffffff1663ffffffff16815260200190815260200160002060090160009054906101000a900460ff161561155057600090506115f8565b60146000600f60019054906101000a900463ffffffff1663ffffffff16815260200190815260200160002060090160019054906101000a900460ff161561159a57600090506115f8565b6115a2612fb2565b506115ab6135d1565b50600160146000600f60019054906101000a900463ffffffff1663ffffffff16815260200190815260200160002060090160016101000a81548160ff021916908315150217905550600190505b90565b600360009054906101000a900460ff1681565b600081600560003373ffffffffffffffffffffffffffffffffffffffff1673ffffffffffffffffffffffffffffffffffffffff168152602001908152602001600020541015151561165e57600080fd5b81600560003373ffffffffffffffffffffffffffffffffffffffff1673ffffffffffffffffffffffffffffffffffffffff16815260200190815260200160002060008282540392505081905550816004600082825403925050819055503373ffffffffffffffffffffffffffffffffffffffff167fcc16f5dbb4873280815c1ee09dbd06736cffcc184412cf7a71a0fdb75d397ca5836040518082815260200191505060405180910390a260019050919050565b600061171c613ac7565b8e81604001516000600d8110151561173057fe5b602002019060ff16908160ff16815250508d81604001516001600d8110151561175557fe5b602002019060ff16908160ff16815250508c81604001516002600d8110151561177a57fe5b602002019060ff16908160ff16815250508b81604001516003600d8110151561179f57fe5b602002019060ff16908160ff16815250508a81604001516004600d811015156117c457fe5b602002019060ff16908160ff16815250508981604001516005600d811015156117e957fe5b602002019060ff16908160ff16815250508881604001516006600d8110151561180e57fe5b602002019060ff16908160ff16815250508781604001516007600d8110151561183357fe5b602002019060ff16908160ff16815250508681604001516008600d8110151561185857fe5b602002019060ff16908160ff16815250508581604001516009600d8110151561187d57fe5b602002019060ff16908160ff1681525050848160400151600a600d811015156118a257fe5b602002019060ff16908160ff1681525050838160400151600b600d811015156118c757fe5b602002019060ff16908160ff1681525050828160400151600c600d811015156118ec57fe5b602002019060ff16908160ff1681525050611906816136b7565b9150509d9c50505050505050505050505050565b600f60059054906101000a900460ff1681565b60075481565b600b5481565b60056020528060005260406000206000915090505481565b6000809054906101000a900473ffffffffffffffffffffffffffffffffffffffff1673ffffffffffffffffffffffffffffffffffffffff163373ffffffffffffffffffffffffffffffffffffffff161415156119ac57600080fd5b80600560008473ffffffffffffffffffffffffffffffffffffffff1673ffffffffffffffffffffffffffffffffffffffff16815260200190815260200160002060008282540192505081905550806004600082825401925050819055503073ffffffffffffffffffffffffffffffffffffffff1660007fddf252ad1be2c89b69c2b068fc378daa952ba7f163c4a11628f55a4df523b3ef836040518082815260200191505060405180910390a38173ffffffffffffffffffffffffffffffffffffffff163073ffffffffffffffffffffffffffffffffffffffff167fddf252ad1be2c89b69c2b068fc378daa952ba7f163c4a11628f55a4df523b3ef836040518082815260200191505060405180910390a35050565b600081600560008573ffffffffffffffffffffffffffffffffffffffff1673ffffffffffffffffffffffffffffffffffffffff1681526020019081526020016000205410151515611b1257600080fd5b600660008473ffffffffffffffffffffffffffffffffffffffff1673ffffffffffffffffffffffffffffffffffffffff16815260200190815260200160002060003373ffffffffffffffffffffffffffffffffffffffff1673ffffffffffffffffffffffffffffffffffffffff168152602001908152602001600020548211151515611b9d57600080fd5b81600560008573ffffffffffffffffffffffffffffffffffffffff1673ffffffffffffffffffffffffffffffffffffffff1681526020019081526020016000206000828254039250508190555081600660008573ffffffffffffffffffffffffffffffffffffffff1673ffffffffffffffffffffffffffffffffffffffff16815260200190815260200160002060003373ffffffffffffffffffffffffffffffffffffffff1673ffffffffffffffffffffffffffffffffffffffff16815260200190815260200160002060008282540392505081905550816004600082825403925050819055508273ffffffffffffffffffffffffffffffffffffffff167fcc16f5dbb4873280815c1ee09dbd06736cffcc184412cf7a71a0fdb75d397ca5836040518082815260200191505060405180910390a26001905092915050565b600f60009054906101000a900460ff1681565b600080600191506000831415611d085760019150611d2c565b600190505b8281111515611d285780820291508080600101915050611d0d565b8191505b50919050565b60085481565b6000809054906101000a900473ffffffffffffffffffffffffffffffffffffffff1681565b6000611d7a600f60059054906101000a900460ff1660ff16611cef565b611d97600f60059054906101000a900460ff16840360ff16611cef565b02600c54611da78460ff16611cef565b02811515611db157fe5b049050919050565b611dc1613b27565b6000611dcb613b3b565b6000601460008681526020019081526020016000206000016014600087815260200190815260200160002060020154601460008881526020019081526020016000206003016014600089815260200190815260200160002060090160009054906101000a900460ff16838054600181600116156101000203166002900480601f016020809104026020016040519081016040528092919081815260200182805460018160011615610100020316600290048015611ec95780601f10611e9e57610100808354040283529160200191611ec9565b820191906000526020600020905b815481529060010190602001808311611eac57829003601f168201915b5050505050935081600680602002604051908101604052809291908260068015611f08576020028201915b815481526020019060010190808311611ef4575b5050505050915093509350935093509193509193565b60028054600181600116156101000203166002900480601f016020809104026020016040519081016040528092919081815260200182805460018160011615610100020316600290048015611fb45780601f10611f8957610100808354040283529160200191611fb4565b820191906000526020600020905b815481529060010190602001808311611f9757829003601f168201915b505050505081565b600f60069054906101000a900460ff1681565b60008060009054906101000a900473ffffffffffffffffffffffffffffffffffffffff1673ffffffffffffffffffffffffffffffffffffffff163373ffffffffffffffffffffffffffffffffffffffff1614151561202c57600080fd5b60146000600f60019054906101000a900463ffffffff1663ffffffff16815260200190815260200160002060090160019054906101000a900460ff161561207657600090506120c1565b8160146000600f60019054906101000a900463ffffffff1663ffffffff16815260200190815260200160002060090160006101000a81548160ff021916908315150217905550600190505b919050565b6120ce613b63565b60008060008060146000888152602001908152602001600020600101600087815260200190815260200160002060020160146000898152602001908152602001600020600101600088815260200190815260200160002060030160009054906101000a900460ff16601460008a8152602001908152602001600020600101600089815260200190815260200160002060030160019054906101000a900460ff16601460008b815260200190815260200160002060010160008a815260200190815260200160002060040154601460008c815260200190815260200160002060010160008b815260200190815260200160002060000160009054906101000a900473ffffffffffffffffffffffffffffffffffffffff1684600d806020026040519081016040528092919082600d8015612242576020028201916000905b82829054906101000a900460ff1660ff168152602001906001019060208260000104928301926001038202915080841161220b5790505b50505050509450945094509450945094509295509295909350565b60006008543481151561226c57fe5b04905061227a303383612cfb565b50565b612288338383612cfb565b5050565b60008060009054906101000a900473ffffffffffffffffffffffffffffffffffffffff1673ffffffffffffffffffffffffffffffffffffffff163373ffffffffffffffffffffffffffffffffffffffff161415156122e957600080fd5b60146000600f60019054906101000a900463ffffffff1663ffffffff16815260200190815260200160002060090160009054906101000a900460ff1615612333576000905061257b565b60146000600f60019054906101000a900463ffffffff1663ffffffff16815260200190815260200160002060090160019054906101000a900460ff16151561237e576000905061257b565b600f600181819054906101000a900463ffffffff168092919060010191906101000a81548163ffffffff021916908363ffffffff160217905550506040805190810160405280600a81526020017f32312e31312e323031370000000000000000000000000000000000000000000081525060146000600f60019054906101000a900463ffffffff1663ffffffff1681526020019081526020016000206000019080519060200190612430929190613b8f565b50600060146000600f60019054906101000a900463ffffffff1663ffffffff1681526020019081526020016000206002018190555060c060405190810160405280600060ff168152602001600060ff168152602001600060ff168152602001600060ff168152602001600060ff168152602001600060ff1681525060146000600f60019054906101000a900463ffffffff1663ffffffff1681526020019081526020016000206003019060066124e7929190613c0f565b50600160146000600f60019054906101000a900463ffffffff1663ffffffff16815260200190815260200160002060090160006101000a81548160ff021916908315150217905550600060146000600f60019054906101000a900463ffffffff1663ffffffff16815260200190815260200160002060090160016101000a81548160ff021916908315150217905550600190505b90565b60096020528060005260406000206000915054906101000a900460ff1681565b6010816003811015156125ad57fe5b60209182820401919006915054906101000a900460ff1681565b6000808490506125d7858561115f565b1561273c578073ffffffffffffffffffffffffffffffffffffffff16638f4ffcb1338630876040518563ffffffff167c0100000000000000000000000000000000000000000000000000000000028152600401808573ffffffffffffffffffffffffffffffffffffffff1673ffffffffffffffffffffffffffffffffffffffff1681526020018481526020018373ffffffffffffffffffffffffffffffffffffffff1673ffffffffffffffffffffffffffffffffffffffff16815260200180602001828103825283818151815260200191508051906020019080838360005b838110156126d15780820151818401526020810190506126b6565b50505050905090810190601f1680156126fe5780820380516001836020036101000a031916815260200191505b5095505050505050600060405180830381600087803b151561271f57600080fd5b6102c65a03f1151561273057600080fd5b5050506001915061273d565b5b509392505050565b600d5481565b600080600080600d9250600085600c600d8110151561276657fe5b602002015160ff16141561277e578280600190039350505b600091505b600c8210156128b957600f60009054906101000a900460ff1660ff168583600d811015156127ad57fe5b602002015160ff1611806127e85750600f60009054906101000a900460ff1660ff1685600c600d811015156127de57fe5b602002015160ff16115b806127f6575060068360ff16105b1561280757600083935093506128c1565b60008583600d8110151561281757fe5b602002015160ff16141561282f578280600190039350505b6001820190505b600d8110156128ac578481600d8110151561284d57fe5b602002015160ff168583600d8110151561286357fe5b602002015160ff1614801561288e575060008583600d8110151561288357fe5b602002015160ff1614155b1561289f57600083935093506128c1565b8080600101915050612836565b8180600101925050612783565b600183935093505b5050915091565b600f60019054906101000a900463ffffffff1681565b6006602052816000526040600020602052806000526040600020600091509150505481565b60075481023073ffffffffffffffffffffffffffffffffffffffff16311015151561292d57600080fd5b612938333083612cfb565b3373ffffffffffffffffffffffffffffffffffffffff166108fc60075483029081150290604051600060405180830381858888f19350505050151561297c57600080fd5b50565b6000809054906101000a900473ffffffffffffffffffffffffffffffffffffffff1673ffffffffffffffffffffffffffffffffffffffff163373ffffffffffffffffffffffffffffffffffffffff161415156129da57600080fd5b80600960008473ffffffffffffffffffffffffffffffffffffffff1673ffffffffffffffffffffffffffffffffffffffff16815260200190815260200160002060006101000a81548160ff0219169083151502179055507f48335238b4855f35377ed80f164e8c6f3c366e54ac00b96a6402d4a9814a03a58282604051808373ffffffffffffffffffffffffffffffffffffffff1673ffffffffffffffffffffffffffffffffffffffff168152602001821515151581526020019250505060405180910390a15050565b600e5481565b6000809054906101000a900473ffffffffffffffffffffffffffffffffffffffff1673ffffffffffffffffffffffffffffffffffffffff163373ffffffffffffffffffffffffffffffffffffffff16141515612b0557600080fd5b806000806101000a81548173ffffffffffffffffffffffffffffffffffffffff021916908373ffffffffffffffffffffffffffffffffffffffff16021790555050565b6000612b52613c54565b6000809054906101000a900473ffffffffffffffffffffffffffffffffffffffff1673ffffffffffffffffffffffffffffffffffffffff163373ffffffffffffffffffffffffffffffffffffffff16141515612bad57600080fd5b60146000600f60019054906101000a900463ffffffff1663ffffffff16815260200190815260200160002060090160009054906101000a900460ff1615612bf75760009150612cf0565b60146000600f60019054906101000a900463ffffffff1663ffffffff16815260200190815260200160002060090160019054906101000a900460ff1615612c415760009150612cf0565b60c0604051908101604052808960ff1660ff1681526020018860ff1660ff1681526020018760ff1660ff1681526020018660ff1660ff1681526020018560ff1660ff1681526020018460ff1660ff168152509050612c9e81611247565b1515612cad5760009150612cf0565b8060146000600f60019054906101000a900463ffffffff1663ffffffff168152602001908152602001600020600301906006612cea929190613c0f565b50600191505b509695505050505050565b60008273ffffffffffffffffffffffffffffffffffffffff1614151515612d2157600080fd5b80600560008573ffffffffffffffffffffffffffffffffffffffff1673ffffffffffffffffffffffffffffffffffffffff16815260200190815260200160002054111515612d6e57600080fd5b600560008373ffffffffffffffffffffffffffffffffffffffff1673ffffffffffffffffffffffffffffffffffffffff1681526020019081526020016000205481600560008573ffffffffffffffffffffffffffffffffffffffff1673ffffffffffffffffffffffffffffffffffffffff1681526020019081526020016000205401111515612dfc57600080fd5b600960008473ffffffffffffffffffffffffffffffffffffffff1673ffffffffffffffffffffffffffffffffffffffff16815260200190815260200160002060009054906101000a900460ff16151515612e5557600080fd5b600960008373ffffffffffffffffffffffffffffffffffffffff1673ffffffffffffffffffffffffffffffffffffffff16815260200190815260200160002060009054906101000a900460ff16151515612eae57600080fd5b80600560008573ffffffffffffffffffffffffffffffffffffffff1673ffffffffffffffffffffffffffffffffffffffff1681526020019081526020016000206000828254039250508190555080600560008473ffffffffffffffffffffffffffffffffffffffff1673ffffffffffffffffffffffffffffffffffffffff168152602001908152602001600020600082825401925050819055508173ffffffffffffffffffffffffffffffffffffffff168373ffffffffffffffffffffffffffffffffffffffff167fddf252ad1be2c89b69c2b068fc378daa952ba7f163c4a11628f55a4df523b3ef836040518082815260200191505060405180910390a3505050565b60008060008060008060008060008090505b60146000600f60019054906101000a900463ffffffff1663ffffffff16815260200190815260200160002060020154811015613164576130a660146000600f60019054906101000a900463ffffffff1663ffffffff1681526020019081526020016000206001016000838152602001908152602001600020600201600d806020026040519081016040528092919082600d801561309c576020028201916000905b82829054906101000a900460ff1660ff16815260200190600101906020826000010492830192600103820291508084116130655790505b5050505050613a1d565b91508160146000600f60019054906101000a900463ffffffff1663ffffffff168152602001908152602001600020600101600083815260200190815260200160002060030160006101000a81548160ff021916908360ff16021790555060038260ff1614156131185784806001019550505b60048260ff16141561312d5785806001019650505b60058260ff1614156131425786806001019750505b60068260ff1614156131575787806001019850505b8080600101915050612fc4565b600090505b60146000600f60019054906101000a900463ffffffff1663ffffffff168152602001908152602001600020600201548110156135a25760146000600f60019054906101000a900463ffffffff1663ffffffff168152602001908152602001600020600101600082815260200190815260200160002060030160009054906101000a900460ff16915060038260ff16141561327f57606485026010600060038110151561321157fe5b602091828204019190069054906101000a900460ff1660ff16600b540281151561323757fe5b0460146000600f60019054906101000a900463ffffffff1663ffffffff1681526020019081526020016000206001016000838152602001908152602001600020600401819055505b60048260ff16141561330d57606486026010600160038110151561329f57fe5b602091828204019190069054906101000a900460ff1660ff16600b54028115156132c557fe5b0460146000600f60019054906101000a900463ffffffff1663ffffffff1681526020019081526020016000206001016000838152602001908152602001600020600401819055505b60058260ff16141561339b57606487026010600260038110151561332d57fe5b602091828204019190069054906101000a900460ff1660ff16600b540281151561335357fe5b0460146000600f60019054906101000a900463ffffffff1663ffffffff1681526020019081526020016000206001016000838152602001908152602001600020600401819055505b60068260ff1614156133fc5787600a548115156133b457fe5b0460146000600f60019054906101000a900463ffffffff1663ffffffff1681526020019081526020016000206001016000838152602001908152602001600020600401819055505b60068260ff1610156134505760146000600f60019054906101000a900463ffffffff1663ffffffff168152602001908152602001600020600101600082815260200190815260200160002060040154840193505b60068260ff1614156134a45760146000600f60019054906101000a900463ffffffff1663ffffffff168152602001908152602001600020600101600082815260200190815260200160002060040154830192505b60146000600f60019054906101000a900463ffffffff1663ffffffff1681526020019081526020016000206001016000828152602001908152602001600020600401546005600060146000600f60019054906101000a900463ffffffff1663ffffffff168152602001908152602001600020600101600085815260200190815260200160002060000160009054906101000a900473ffffffffffffffffffffffffffffffffffffffff1673ffffffffffffffffffffffffffffffffffffffff1673ffffffffffffffffffffffffffffffffffffffff168152602001908152602001600020600082825401925050819055508080600101915050613169565b83600b6000828254039250508190555082600a6000828254039250508190555060019850505050505050505090565b60008060006064601160016003811015156135e857fe5b0154600b54028115156135f757fe5b04915060646011600260038110151561360c57fe5b0154600b540281151561361b57fe5b049050808201600b6000828254039250508190555081600a6000828254019250508190555080600560008060009054906101000a900473ffffffffffffffffffffffffffffffffffffffff1673ffffffffffffffffffffffffffffffffffffffff1673ffffffffffffffffffffffffffffffffffffffff1681526020019081526020016000206000828254019250508190555060019250505090565b60008060008060146000600f60019054906101000a900463ffffffff1663ffffffff16815260200190815260200160002060090160009054906101000a900460ff1615156137085760009350613a15565b613715856040015161274b565b925092508215156137295760009350613a15565b61373282611d5d565b905080600560003373ffffffffffffffffffffffffffffffffffffffff1673ffffffffffffffffffffffffffffffffffffffff1681526020019081526020016000205410156137845760009350613a15565b33856000019073ffffffffffffffffffffffffffffffffffffffff16908173ffffffffffffffffffffffffffffffffffffffff16815250506040805190810160405280600a81526020017f30362e31312e3230313700000000000000000000000000000000000000000000815250856020018190525081856080019060ff16908160ff16815250508460146000600f60019054906101000a900463ffffffff1663ffffffff168152602001908152602001600020600101600060146000600f60019054906101000a900463ffffffff1663ffffffff16815260200190815260200160002060020154815260200190815260200160002060008201518160000160006101000a81548173ffffffffffffffffffffffffffffffffffffffff021916908373ffffffffffffffffffffffffffffffffffffffff16021790555060208201518160010190805190602001906138dd929190613c7f565b5060408201518160020190600d6138f5929190613cff565b5060608201518160030160006101000a81548160ff021916908360ff16021790555060808201518160030160016101000a81548160ff021916908360ff16021790555060a0820151816004015590505060146000600f60019054906101000a900463ffffffff1663ffffffff1681526020019081526020016000206002016000815480929190600101919050555080600560003373ffffffffffffffffffffffffffffffffffffffff1673ffffffffffffffffffffffffffffffffffffffff168152602001908152602001600020600082825403925050819055506064600d5482028115156139e057fe5b04600a600082825401925050819055506064600e548202811515613a0057fe5b04600b60008282540192505081905550600193505b505050919050565b6000806000809250600091505b600d821015613abd57600090505b6006811015613ab05760146000600f60019054906101000a900463ffffffff1663ffffffff16815260200190815260200160002060030181600681101515613a7c57fe5b01548483600d81101515613a8c57fe5b602002015160ff161415613aa35782806001019350505b8080600101915050613a38565b8180600101925050613a2a565b8292505050919050565b61024060405190810160405280600073ffffffffffffffffffffffffffffffffffffffff168152602001613af9613d99565b8152602001613b06613dad565b8152602001600060ff168152602001600060ff168152602001600081525090565b602060405190810160405280600081525090565b60c0604051908101604052806006905b6000815260200190600190039081613b4b5790505090565b6101a060405190810160405280600d905b600060ff16815260200190600190039081613b745790505090565b828054600181600116156101000203166002900490600052602060002090601f016020900481019282601f10613bd057805160ff1916838001178555613bfe565b82800160010185558215613bfe579182015b82811115613bfd578251825591602001919060010190613be2565b5b509050613c0b9190613dd9565b5090565b8260068101928215613c43579160200282015b82811115613c42578251829060ff16905591602001919060010190613c22565b5b509050613c509190613dd9565b5090565b60c0604051908101604052806006905b600060ff16815260200190600190039081613c645790505090565b828054600181600116156101000203166002900490600052602060002090601f016020900481019282601f10613cc057805160ff1916838001178555613cee565b82800160010185558215613cee579182015b82811115613ced578251825591602001919060010190613cd2565b5b509050613cfb9190613dd9565b5090565b82600d601f01602090048101928215613d885791602002820160005b83821115613d5957835183826101000a81548160ff021916908360ff1602179055509260200192600101602081600001049283019260010302613d1b565b8015613d865782816101000a81549060ff0219169055600101602081600001049283019260010302613d59565b505b509050613d959190613dfe565b5090565b602060405190810160405280600081525090565b6101a060405190810160405280600d905b600060ff16815260200190600190039081613dbe5790505090565b613dfb91905b80821115613df7576000816000905550600101613ddf565b5090565b90565b613e2b91905b80821115613e2757600081816101000a81549060ff021916905550600101613e04565b5090565b905600a165627a7a72305820523899009c8a65f22b3c5e4d22458dc594d01602f99bec88ac0dcea96ba545d10029",
  "source": "pragma solidity ^0.4.11;\r\n    \r\nimport \"./DHFBaseCurrency.sol\";\r\n    \r\n/*-  4  20\r\n *4    -, 4 -   , 2      \r\n *  .\r\n *3.11.2017\r\n */\r\ncontract lottery_6_45 is DHFBaseCurrency \r\n{\r\n    uint public JackPot = 0; //  \r\n    uint public regularPrize = 0; //   \r\n    uint public ticketPrice = 10; //  \r\n    uint public JackPot_assignment = 40; //    -   \r\n    uint public regularPrize_assignment = 40; //     \r\n    uint8 public max_Number = 45; //  ,     \r\n    uint32 public last_lottery_id = 0; //   \r\n    uint8 public prize_combination_size = 6;//    \r\n    uint8 public max_numbers_in_ticket = 13;//    \r\n    uint8[3] public won_percent = [10, 30, 60];//      3, 4  5     \r\n    uint[3] public redistributionPercent = [45, 45, 10];//     :  .    -.   \r\n    // \r\n    struct ticket{\r\n        address owner; // \r\n        string time; //    \r\n        uint8[13] numbers; //   -     -  4   \r\n        uint8 compliance_level; //      -  \r\n        uint8 valuable_numbers;//    - \r\n        uint money;//   \r\n    }\r\n    // 1  \r\n    struct lottery{\r\n        string date; //   \r\n        mapping(uint => ticket) tickets; //   .\r\n        uint tickets_count; //    \r\n        uint[6] prize_combination; //    \r\n        bool active; //     \r\n        bool played; //  \r\n    }\r\n    mapping (uint => lottery) public lotteries;\r\n\r\n    /* \r\n     *        \r\n     *  .\r\n     *3.11.2017\r\n     */\r\n    function lottery_6_45() DHFBaseCurrency (10000, \"Lottery 6 of 45\", \"L6x45\") public\r\n    { \r\n        lotteries[0].date = \"06.11.2017\";\r\n        lotteries[0].tickets_count = 0;\r\n        lotteries[0].prize_combination = [0,0,0,0,0,0];\r\n        lotteries[0].active = true;\r\n        lotteries[0].played = false;\r\n    }\r\n    //   \r\n    event BuyTicket(uint ticket_number, uint ticket_price, address ticket_owner, uint buy_time, uint lottery_number, string lottery_type, uint8[] ticket_numbers );\r\n    \r\n    /*  \r\n     *  .\r\n     *@lottery_id  \r\n     *@ticket_Id   \r\n     *6.11.2017\r\n     */\r\n    function getTicket(uint lottery_id,uint ticket_Id) public view returns (uint8[13] ticket_numbers, uint8 ticket_prize_level,uint8 numbers_in_ticket,uint money,address owner)\r\n    {\r\n        return (lotteries[lottery_id].tickets[ticket_Id].numbers, lotteries[lottery_id].tickets[ticket_Id].compliance_level, lotteries[lottery_id].tickets[ticket_Id].valuable_numbers, lotteries[lottery_id].tickets[ticket_Id].money, lotteries[lottery_id].tickets[ticket_Id].owner);\r\n    }\r\n    \r\n    /*    \r\n     *  .\r\n     *return @count    \r\n     *21.11.2017\r\n     */\r\n    function newLottery() public onlyOwner returns (bool result)\r\n    {\r\n        if(lotteries[last_lottery_id].active) return false; //   ,    \r\n        if(!lotteries[last_lottery_id].played) return false; //    ,    \r\n        last_lottery_id++;\r\n        lotteries[last_lottery_id].date = \"21.11.2017\";\r\n        lotteries[last_lottery_id].tickets_count = 0;\r\n        lotteries[last_lottery_id].prize_combination = [0,0,0,0,0,0];\r\n        lotteries[last_lottery_id].active = true;\r\n        lotteries[last_lottery_id].played = false;\r\n        return true;\r\n    }\r\n    \r\n    /*   \r\n     *  .\r\n     *uint8 number_1  ,\r\n     *uint8 number_2  ,\r\n     *uint8 number_3  ,\r\n     *uint8 number_4  ,\r\n     *uint8 number_5  ,\r\n     *return @count   \r\n     *22.11.2017\r\n     */\r\n    function updatePrizeCombination(\r\n            uint8 number_1,\r\n            uint8 number_2,\r\n            uint8 number_3,\r\n            uint8 number_4,\r\n            uint8 number_5,\r\n            uint8 number_6) public onlyOwner returns (bool)\r\n    {\r\n        if(lotteries[last_lottery_id].active) return false;//    ,       \r\n        if(lotteries[last_lottery_id].played) return false;//    ,    \r\n        uint8[6] memory prizeCombinationForCheck = [number_1, number_2, number_3, number_4, number_5, number_6];\r\n        if(!isAllowablePrizeCombination(prizeCombinationForCheck)) return false;\r\n        lotteries[last_lottery_id].prize_combination = prizeCombinationForCheck;\r\n        return true;\r\n    }\r\n    \r\n    /*  \r\n     *  .\r\n     *@lottery_id  \r\n     *return @count    \r\n     *21.11.2017\r\n     */\r\n    function getLottery(uint lottery_id) public view returns (\r\n        string date, //   \r\n        uint tickets_count, //    \r\n        uint[6] prize_combination, //    \r\n        bool active\r\n        )\r\n    {\r\n        return (lotteries[lottery_id].date,lotteries[lottery_id].tickets_count,lotteries[lottery_id].prize_combination, lotteries[lottery_id].active);\r\n    }\r\n    \r\n    /*   \r\n     *       -     \r\n     *      \r\n     *       \r\n     *  .\r\n     *@array_to_search ,   \r\n     *return bool success -  \r\n     *8.11.2017\r\n     */ \r\n    function finishLottery() onlyOwner public returns (bool success)\r\n    {\r\n        if(lotteries[last_lottery_id].active) return false;\r\n        if(lotteries[last_lottery_id].played) return false;\r\n        calculatePrizes();\r\n        redistributionOfRegularPrize();\r\n        lotteries[last_lottery_id].played = true;\r\n        return true;\r\n    }\r\n    \r\n    /*     \r\n     *  .\r\n     *@lottery_activity bool    \r\n     *return bool success -  \r\n     *14.11.2017\r\n     */ \r\n    function changeStatus(bool lottery_activity) onlyOwner public returns (bool success)\r\n    {\r\n        if(lotteries[last_lottery_id].played) return false;//   ,   \r\n        lotteries[last_lottery_id].active = lottery_activity;\r\n        return true;\r\n    }\r\n    \r\n    /*    \r\n     *     \r\n     *  .\r\n     *@array_to_search ,   \r\n     *return uint compliance_level -     \r\n     *8.11.2017\r\n     */ \r\n    function getTicketComplianceLevel(uint8[13] ticket_numbers) internal constant returns (uint8 compliance_level)\r\n    {\r\n        compliance_level = 0;\r\n        for(uint i = 0; i < 13; i++)\r\n        {\r\n            for(uint k = 0; k < 6; k++)\r\n            {\r\n                if(ticket_numbers[i] == lotteries[last_lottery_id].prize_combination[k])\r\n                    compliance_level++;\r\n            }\r\n        }\r\n        return compliance_level;\r\n    }\r\n    \r\n    /*   \r\n     *            \r\n     *  .\r\n     *return bool success -    \r\n     *9.11.2017\r\n     */\r\n    function calculatePrizes() internal returns (bool)\r\n    {\r\n        uint jack_pot_numbers;//      \r\n        uint numbers_5_of_6;//      5  \r\n        uint numbers_4_of_6;//      4  \r\n        uint numbers_3_of_6;//      3  \r\n        uint regularLotteryCountedPrize;//    \r\n        uint JackPotCountedPrize;//   -\r\n        uint8 ticketComplianceLevel; \r\n        //      ,         \r\n        for (uint i = 0; i < lotteries[last_lottery_id].tickets_count; i++)\r\n        {\r\n            ticketComplianceLevel = getTicketComplianceLevel(lotteries[last_lottery_id].tickets[i].numbers);\r\n            lotteries[last_lottery_id].tickets[i].compliance_level = ticketComplianceLevel;\r\n            if(ticketComplianceLevel == 3) numbers_3_of_6++;\r\n            if(ticketComplianceLevel == 4) numbers_4_of_6++;\r\n            if(ticketComplianceLevel == 5) numbers_5_of_6++;\r\n            if(ticketComplianceLevel == 6) jack_pot_numbers++;\r\n        }\r\n        //         ,      \r\n        for (i = 0; i < lotteries[last_lottery_id].tickets_count; i++)\r\n        {\r\n            ticketComplianceLevel = lotteries[last_lottery_id].tickets[i].compliance_level;\r\n            if(ticketComplianceLevel == 3)\r\n                lotteries[last_lottery_id].tickets[i].money = regularPrize * (won_percent[0]) / (numbers_3_of_6 * 100);\r\n            if(ticketComplianceLevel == 4)\r\n                lotteries[last_lottery_id].tickets[i].money = regularPrize * (won_percent[1]) / (numbers_4_of_6 * 100);\r\n            if(ticketComplianceLevel == 5)\r\n                lotteries[last_lottery_id].tickets[i].money = regularPrize * (won_percent[2]) / (numbers_5_of_6 * 100);\r\n            if(ticketComplianceLevel == 6)\r\n                lotteries[last_lottery_id].tickets[i].money = JackPot / jack_pot_numbers;\r\n            if(ticketComplianceLevel < 6) regularLotteryCountedPrize += lotteries[last_lottery_id].tickets[i].money; //   ,       \r\n            if(ticketComplianceLevel == 6) JackPotCountedPrize += lotteries[last_lottery_id].tickets[i].money; //   ,       \r\n            balanceOf[lotteries[last_lottery_id].tickets[i].owner] += lotteries[last_lottery_id].tickets[i].money;//      \r\n        }\r\n        regularPrize -= regularLotteryCountedPrize;//    \r\n        JackPot -= JackPotCountedPrize;//    \r\n        return true;\r\n    }\r\n    \r\n    /*\r\n     *       \r\n     *45%      \r\n     *45%      -\r\n     *10%     -\r\n     *  .\r\n     *return bool success -   \r\n     *21.11.2017\r\n     */\r\n    function redistributionOfRegularPrize() internal returns (bool)\r\n    {\r\n        uint jackPotAdditional = regularPrize * redistributionPercent[1] / 100;//        \r\n        uint ownersAdditional = regularPrize * redistributionPercent[2] / 100;//        \r\n        regularPrize -= (jackPotAdditional + ownersAdditional);\r\n        JackPot += jackPotAdditional;\r\n        balanceOf[owner] += ownersAdditional;\r\n        return true;\r\n    }\r\n    \r\n    /*    6  13   \r\n     *  .\r\n     *@number_1-number_13 uint8    -  13\r\n     *return bool success -    \r\n     *9.11.2017\r\n     */\r\n    function buyTicket(\r\n            uint8 number_1,\r\n            uint8 number_2,\r\n            uint8 number_3,\r\n            uint8 number_4,\r\n            uint8 number_5,\r\n            uint8 number_6,\r\n            uint8 number_7,\r\n            uint8 number_8,\r\n            uint8 number_9,\r\n            uint8 number_10,\r\n            uint8 number_11,\r\n            uint8 number_12,\r\n            uint8 number_13)\r\n        public returns (bool success){\r\n        ticket memory new_ticket;\r\n        new_ticket.numbers[0] = number_1;\r\n        new_ticket.numbers[1] = number_2;\r\n        new_ticket.numbers[2] = number_3;\r\n        new_ticket.numbers[3] = number_4;\r\n        new_ticket.numbers[4] = number_5;\r\n        new_ticket.numbers[5] = number_6;\r\n        new_ticket.numbers[6] = number_7;\r\n        new_ticket.numbers[7] = number_8;\r\n        new_ticket.numbers[8] = number_9;\r\n        new_ticket.numbers[9] = number_10;\r\n        new_ticket.numbers[10] = number_11;\r\n        new_ticket.numbers[11] = number_12;\r\n        new_ticket.numbers[12] = number_13;\r\n        return checkTicketBuying(new_ticket);\r\n    }\r\n    \r\n    /*   \r\n     *   -       -  16!\r\n     *  .\r\n     *@ticked_for_checking  \r\n     *return bool success -    \r\n     *9.11.2017\r\n     */\r\n    function checkTicketBuying(ticket ticked_for_checking) internal returns (bool success)\r\n    {\r\n        if(!lotteries[last_lottery_id].active) return false;\r\n        var(allowability, valuable_numbers) = isAllowableBigTicket(ticked_for_checking.numbers);\r\n        if(!allowability) return false;\r\n        uint current_ticket_price = getTicketPrice(valuable_numbers);//          \r\n        if (balanceOf[msg.sender] < current_ticket_price) return false;\r\n        ticked_for_checking.owner = msg.sender;\r\n        ticked_for_checking.time = \"06.11.2017\";\r\n        ticked_for_checking.valuable_numbers = valuable_numbers;\r\n        lotteries[last_lottery_id].tickets[lotteries[last_lottery_id].tickets_count] = ticked_for_checking;\r\n        lotteries[last_lottery_id].tickets_count++;\r\n        balanceOf[msg.sender] -= current_ticket_price;\r\n        JackPot += (current_ticket_price * JackPot_assignment) / 100;//       ,      \r\n        regularPrize += (current_ticket_price * regularPrize_assignment) / 100;//         ,      \r\n        /*\r\n        uint8[] memory temp;\r\n        for (uint8 i = 0; i < 13; i++ ){\r\n            temp[i] = ticked_for_checking.numbers[i];\r\n        }*/\r\n        //BuyTicket(current_ticket_number, current_ticket_price, msg.sender, now, last_lottery_id , \"Lottery 6 45\", temp);\r\n        return true;\r\n    }\r\n    \r\n    \r\n    /*      6  13   \r\n     *   ,        7\r\n     *  .\r\n     **@ticket_numbers  \r\n     *return bool success -        \r\n     **return uint8 numbers_in_ticket      -     \r\n     *9.11.2017\r\n     */\r\n    function isAllowableBigTicket(uint8[13] ticket_numbers) public constant returns (bool, uint8 numbers_in_ticket)\r\n    {\r\n        numbers_in_ticket = 13;\r\n        if(ticket_numbers[12] == 0) numbers_in_ticket--;\r\n        for (uint i = 0; i < 12; i++)\r\n        {\r\n            if((ticket_numbers[i] > max_Number) || (ticket_numbers[12] > max_Number) || (numbers_in_ticket < 6)) return (false, numbers_in_ticket);\r\n            if(ticket_numbers[i] == 0) numbers_in_ticket--;\r\n            for(uint k = i + 1; k < 13; k++)\r\n            {\r\n                if ((ticket_numbers[i] == ticket_numbers[k]) && (ticket_numbers[i] != 0)) return (false, numbers_in_ticket);\r\n            }\r\n        }\r\n        return (true,numbers_in_ticket);\r\n    }\r\n    \r\n    /*     -  6     1  45\r\n     *   ,        7\r\n     *  .\r\n     *@prizeNumbers  \r\n     *return bool success -        \r\n     *22.11.2017\r\n     */\r\n    function isAllowablePrizeCombination(uint8[6] prizeNumbers) public constant returns (bool)\r\n    {\r\n        if((prizeNumbers[5] == 0) || (prizeNumbers[5] > max_Number)) return false;\r\n        for (uint i = 0; i < 5; i++)\r\n        {\r\n            if((prizeNumbers[i] > max_Number) || (prizeNumbers[i] == 0)) return false;\r\n            for(uint k = i + 1; k < 6; k++)\r\n                if (prizeNumbers[i] == prizeNumbers[k]) return false;\r\n        }\r\n        return true;\r\n    }\r\n    \r\n    \r\n    /*       \r\n     *  .\r\n     *@number_count uint8    \r\n     *return uint256 price -    -     ,      \r\n     *9.11.2017\r\n     */\r\n    function getTicketPrice(uint8 number_count) public constant returns (uint256 price)\r\n    {\r\n        return (factorial(number_count) * ticketPrice) / (factorial(number_count - prize_combination_size) * factorial(prize_combination_size));\r\n    }\r\n    \r\n    /*  \r\n     *  .\r\n     *@number uint256    \r\n     *return uint256 fact -   \r\n     *10.11.2017\r\n     */\r\n    function factorial(uint256 number) public constant returns(uint256 fact) \r\n    {\r\n        fact = 1; \r\n        if(number == 0) return 1;\r\n        for(uint256 i = 1;i<=number;i++)\r\n            fact = fact * i;\r\n        return fact;\r\n    }\r\n    \r\n    \r\n}",
  "sourcePath": "D:\\Digital Heritage Fund\\\\    \\Lottery\\contracts\\lottery_6_45.sol",
  "compiler": {
    "name": "solc",
    "version": "0.4.18+commit.9cf6e910.Emscripten.clang"
  },
  "schemaVersion": "1.0.1",
  "updatedAt": "2017-11-27T09:03:41.859Z"
}