{
  "contractName": "lottery_6_45",
  "abi": [
    {
      "constant": false,
      "inputs": [
        {
          "name": "newSellPrice",
          "type": "uint256"
        },
        {
          "name": "newBuyPrice",
          "type": "uint256"
        }
      ],
      "name": "setPrices",
      "outputs": [],
      "payable": false,
      "stateMutability": "nonpayable",
      "type": "function"
    },
    {
      "constant": true,
      "inputs": [
        {
          "name": "",
          "type": "uint256"
        }
      ],
      "name": "redistributionPercent",
      "outputs": [
        {
          "name": "",
          "type": "uint256"
        }
      ],
      "payable": false,
      "stateMutability": "view",
      "type": "function"
    },
    {
      "constant": true,
      "inputs": [
        {
          "name": "_spender",
          "type": "address"
        },
        {
          "name": "_value",
          "type": "uint256"
        }
      ],
      "name": "name",
      "outputs": [
        {
          "name": "",
          "type": "string"
        }
      ],
      "payable": false,
      "stateMutability": "view",
      "type": "function"
    },
    {
      "constant": false,
      "inputs": [
        {
          "name": "_spender",
          "type": "address"
        },
        {
          "name": "_value",
          "type": "uint256"
        }
      ],
      "name": "approve",
      "outputs": [
        {
          "name": "success",
          "type": "bool"
        }
      ],
      "payable": false,
      "stateMutability": "nonpayable",
      "type": "function"
    },
    {
      "constant": true,
      "inputs": [],
      "name": "JackPot",
      "outputs": [
        {
          "name": "",
          "type": "uint256"
        }
      ],
      "payable": false,
      "stateMutability": "view",
      "type": "function"
    },
    {
      "constant": true,
      "inputs": [
        {
          "name": "",
          "type": "uint256"
        }
      ],
      "name": "ticketPrice",
      "outputs": [
        {
          "name": "",
          "type": "uint256"
        },
        {
          "name": "tickets_count",
          "type": "uint256"
        },
        {
          "name": "active",
          "type": "bool"
        }
      ],
      "payable": false,
      "stateMutability": "view",
      "type": "function"
    },
    {
      "constant": true,
      "inputs": [
        {
          "name": "",
          "type": "uint256"
        }
      ],
      "name": "lotteries",
      "outputs": [
        {
          "name": "date",
          "type": "string"
        },
        {
          "name": "tickets_count",
          "type": "uint256"
        },
        {
          "name": "active",
          "type": "bool"
        },
        {
          "name": "played",
          "type": "bool"
        }
      ],
      "payable": false,
      "stateMutability": "view",
      "type": "function"
    },
    {
      "constant": true,
      "inputs": [
        {
          "name": "_from",
          "type": "address"
        },
        {
          "name": "_to",
          "type": "address"
        },
        {
          "name": "_value",
          "type": "uint256"
        }
      ],
      "name": "totalSupply",
      "outputs": [
        {
          "name": "",
          "type": "uint256"
        }
      ],
      "payable": false,
      "stateMutability": "view",
      "type": "function"
    },
    {
      "constant": true,
      "inputs": [
        {
          "name": "prizeNumbers",
          "type": "uint8[6]"
        },
        {
          "name": "_to",
          "type": "address"
        },
        {
          "name": "_value",
          "type": "uint256"
        },
        {
          "name": "number_4",
          "type": "uint8"
        },
        {
          "name": "number_5",
          "type": "uint8"
        },
        {
          "name": "number_6",
          "type": "uint8"
        },
        {
          "name": "number_7",
          "type": "uint8"
        },
        {
          "name": "number_8",
          "type": "uint8"
        },
        {
          "name": "number_9",
          "type": "uint8"
        },
        {
          "name": "number_10",
          "type": "uint8"
        },
        {
          "name": "number_11",
          "type": "uint8"
        },
        {
          "name": "number_12",
          "type": "uint8"
        },
        {
          "name": "number_13",
          "type": "uint8"
        }
      ],
      "name": "isAllowablePrizeCombination",
      "outputs": [
        {
          "name": "",
          "type": "bool"
        }
      ],
      "payable": false,
      "stateMutability": "view",
      "type": "function"
    },
    {
      "constant": false,
      "inputs": [
        {
          "name": "_from",
          "type": "address"
        },
        {
          "name": "_to",
          "type": "address"
        },
        {
          "name": "_value",
          "type": "uint256"
        }
      ],
      "name": "transferFrom",
      "outputs": [
        {
          "name": "success",
          "type": "bool"
        }
      ],
      "payable": false,
      "stateMutability": "nonpayable",
      "type": "function"
    },
    {
      "constant": false,
      "inputs": [
        {
          "name": "_value",
          "type": "uint256"
        }
      ],
      "name": "finishLottery",
      "outputs": [
        {
          "name": "success",
          "type": "bool"
        }
      ],
      "payable": false,
      "stateMutability": "nonpayable",
      "type": "function"
    },
    {
      "constant": true,
      "inputs": [
        {
          "name": "_value",
          "type": "uint256"
        }
      ],
      "name": "decimals",
      "outputs": [
        {
          "name": "",
          "type": "uint8"
        }
      ],
      "payable": false,
      "stateMutability": "view",
      "type": "function"
    },
    {
      "constant": false,
      "inputs": [
        {
          "name": "_value",
          "type": "uint256"
        },
        {
          "name": "number_2",
          "type": "uint8"
        },
        {
          "name": "number_3",
          "type": "uint8"
        },
        {
          "name": "number_4",
          "type": "uint8"
        },
        {
          "name": "number_5",
          "type": "uint8"
        },
        {
          "name": "number_6",
          "type": "uint8"
        },
        {
          "name": "number_7",
          "type": "uint8"
        },
        {
          "name": "number_8",
          "type": "uint8"
        },
        {
          "name": "number_9",
          "type": "uint8"
        },
        {
          "name": "number_10",
          "type": "uint8"
        },
        {
          "name": "number_11",
          "type": "uint8"
        },
        {
          "name": "number_12",
          "type": "uint8"
        },
        {
          "name": "number_13",
          "type": "uint8"
        }
      ],
      "name": "burn",
      "outputs": [
        {
          "name": "success",
          "type": "bool"
        }
      ],
      "payable": false,
      "stateMutability": "nonpayable",
      "type": "function"
    },
    {
      "constant": false,
      "inputs": [
        {
          "name": "number_1",
          "type": "uint8"
        },
        {
          "name": "number_2",
          "type": "uint8"
        },
        {
          "name": "number_3",
          "type": "uint8"
        },
        {
          "name": "number_4",
          "type": "uint8"
        },
        {
          "name": "number_5",
          "type": "uint8"
        },
        {
          "name": "number_6",
          "type": "uint8"
        },
        {
          "name": "number_7",
          "type": "uint8"
        },
        {
          "name": "number_8",
          "type": "uint8"
        },
        {
          "name": "number_9",
          "type": "uint8"
        },
        {
          "name": "number_10",
          "type": "uint8"
        },
        {
          "name": "number_11",
          "type": "uint8"
        },
        {
          "name": "number_12",
          "type": "uint8"
        },
        {
          "name": "number_13",
          "type": "uint8"
        }
      ],
      "name": "buyTicket",
      "outputs": [
        {
          "name": "success",
          "type": "bool"
        }
      ],
      "payable": false,
      "stateMutability": "nonpayable",
      "type": "function"
    },
    {
      "constant": true,
      "inputs": [
        {
          "name": "",
          "type": "address"
        }
      ],
      "name": "prize_combination_size",
      "outputs": [
        {
          "name": "",
          "type": "uint8"
        }
      ],
      "payable": false,
      "stateMutability": "view",
      "type": "function"
    },
    {
      "constant": true,
      "inputs": [
        {
          "name": "target",
          "type": "address"
        },
        {
          "name": "mintedAmount",
          "type": "uint256"
        }
      ],
      "name": "sellPrice",
      "outputs": [
        {
          "name": "",
          "type": "uint256"
        }
      ],
      "payable": false,
      "stateMutability": "view",
      "type": "function"
    },
    {
      "constant": true,
      "inputs": [
        {
          "name": "",
          "type": "address"
        },
        {
          "name": "_value",
          "type": "uint256"
        }
      ],
      "name": "regularPrize",
      "outputs": [
        {
          "name": "",
          "type": "uint256"
        }
      ],
      "payable": false,
      "stateMutability": "view",
      "type": "function"
    },
    {
      "constant": true,
      "inputs": [
        {
          "name": "",
          "type": "address"
        },
        {
          "name": "mintedAmount",
          "type": "uint256"
        }
      ],
      "name": "balanceOf",
      "outputs": [
        {
          "name": "",
          "type": "uint256"
        }
      ],
      "payable": false,
      "stateMutability": "view",
      "type": "function"
    },
    {
      "constant": true,
      "inputs": [
        {
          "name": "lottery_id",
          "type": "uint256"
        },
        {
          "name": "ticket_Id",
          "type": "uint256"
        }
      ],
      "name": "getTicketAsStruct",
      "outputs": [
        {
          "name": "ticketGetted",
          "type": "tuple",
          "components": [
            {
              "name": "owner",
              "type": "address"
            },
            {
              "name": "time",
              "type": "string"
            },
            {
              "name": "numbers",
              "type": "uint8[13]"
            },
            {
              "name": "compliance_level",
              "type": "uint8"
            },
            {
              "name": "valuable_numbers",
              "type": "uint8"
            },
            {
              "name": "money",
              "type": "uint256"
            }
          ]
        }
      ],
      "payable": false,
      "stateMutability": "view",
      "type": "function"
    },
    {
      "constant": false,
      "inputs": [
        {
          "name": "target",
          "type": "address"
        },
        {
          "name": "mintedAmount",
          "type": "uint256"
        }
      ],
      "name": "mintToken",
      "outputs": [
        {
          "name": "success",
          "type": "bool"
        }
      ],
      "payable": false,
      "stateMutability": "nonpayable",
      "type": "function"
    },
    {
      "constant": false,
      "inputs": [
        {
          "name": "_from",
          "type": "address"
        },
        {
          "name": "_value",
          "type": "uint256"
        }
      ],
      "name": "burnFrom",
      "outputs": [
        {
          "name": "success",
          "type": "bool"
        }
      ],
      "payable": false,
      "stateMutability": "nonpayable",
      "type": "function"
    },
    {
      "constant": true,
      "inputs": [
        {
          "name": "number",
          "type": "uint256"
        }
      ],
      "name": "max_Number",
      "outputs": [
        {
          "name": "",
          "type": "uint8"
        }
      ],
      "payable": false,
      "stateMutability": "view",
      "type": "function"
    },
    {
      "constant": true,
      "inputs": [
        {
          "name": "number",
          "type": "uint256"
        },
        {
          "name": "ticket_Id",
          "type": "uint256"
        }
      ],
      "name": "factorial",
      "outputs": [
        {
          "name": "fact",
          "type": "uint256"
        },
        {
          "name": "ticket_prize_level",
          "type": "uint8"
        },
        {
          "name": "numbers_in_ticket",
          "type": "uint8"
        },
        {
          "name": "money",
          "type": "uint256"
        }
      ],
      "payable": false,
      "stateMutability": "view",
      "type": "function"
    },
    {
      "constant": true,
      "inputs": [
        {
          "name": "number_count",
          "type": "uint8"
        }
      ],
      "name": "buyPrice",
      "outputs": [
        {
          "name": "",
          "type": "uint256"
        }
      ],
      "payable": false,
      "stateMutability": "view",
      "type": "function"
    },
    {
      "constant": true,
      "inputs": [
        {
          "name": "number_count",
          "type": "uint8"
        },
        {
          "name": "ticket_Id",
          "type": "uint256"
        }
      ],
      "name": "owner",
      "outputs": [
        {
          "name": "",
          "type": "address"
        },
        {
          "name": "tickets_count",
          "type": "uint256"
        },
        {
          "name": "prize_combination",
          "type": "uint256[6]"
        },
        {
          "name": "active",
          "type": "bool"
        }
      ],
      "payable": false,
      "stateMutability": "view",
      "type": "function"
    },
    {
      "constant": true,
      "inputs": [
        {
          "name": "number_count",
          "type": "uint8"
        }
      ],
      "name": "getTicketPrice",
      "outputs": [
        {
          "name": "price",
          "type": "uint256"
        },
        {
          "name": "tickets_count",
          "type": "uint256"
        },
        {
          "name": "prize_combination",
          "type": "uint256[6]"
        },
        {
          "name": "active",
          "type": "bool"
        }
      ],
      "payable": false,
      "stateMutability": "view",
      "type": "function"
    },
    {
      "constant": true,
      "inputs": [
        {
          "name": "lottery_id",
          "type": "uint256"
        },
        {
          "name": "_value",
          "type": "uint256"
        }
      ],
      "name": "getLottery",
      "outputs": [
        {
          "name": "date",
          "type": "string"
        },
        {
          "name": "tickets_count",
          "type": "uint256"
        },
        {
          "name": "prize_combination",
          "type": "uint256[6]"
        },
        {
          "name": "active",
          "type": "bool"
        }
      ],
      "payable": false,
      "stateMutability": "view",
      "type": "function"
    },
    {
      "constant": true,
      "inputs": [
        {
          "name": "lottery_activity",
          "type": "bool"
        }
      ],
      "name": "symbol",
      "outputs": [
        {
          "name": "",
          "type": "string"
        }
      ],
      "payable": false,
      "stateMutability": "view",
      "type": "function"
    },
    {
      "constant": true,
      "inputs": [
        {
          "name": "lottery_activity",
          "type": "bool"
        },
        {
          "name": "ticket_Id",
          "type": "uint256"
        }
      ],
      "name": "max_numbers_in_ticket",
      "outputs": [
        {
          "name": "",
          "type": "uint8"
        },
        {
          "name": "ticket_prize_level",
          "type": "uint8"
        },
        {
          "name": "numbers_in_ticket",
          "type": "uint8"
        },
        {
          "name": "money",
          "type": "uint256"
        }
      ],
      "payable": false,
      "stateMutability": "view",
      "type": "function"
    },
    {
      "constant": false,
      "inputs": [
        {
          "name": "lottery_activity",
          "type": "bool"
        },
        {
          "name": "ticket_Id",
          "type": "uint256"
        },
        {
          "name": "_extraData",
          "type": "bytes"
        }
      ],
      "name": "changeStatus",
      "outputs": [
        {
          "name": "success",
          "type": "bool"
        },
        {
          "name": "ticket_prize_level",
          "type": "uint8"
        },
        {
          "name": "numbers_in_ticket",
          "type": "uint8"
        },
        {
          "name": "money",
          "type": "uint256"
        },
        {
          "name": "owner",
          "type": "address"
        }
      ],
      "payable": false,
      "stateMutability": "nonpayable",
      "type": "function"
    },
    {
      "constant": true,
      "inputs": [
        {
          "name": "lottery_id",
          "type": "uint256"
        },
        {
          "name": "ticket_Id",
          "type": "uint256"
        },
        {
          "name": "_extraData",
          "type": "bytes"
        }
      ],
      "name": "getTicket",
      "outputs": [
        {
          "name": "ticket_numbers",
          "type": "uint8[13]"
        },
        {
          "name": "ticket_prize_level",
          "type": "uint8"
        },
        {
          "name": "numbers_in_ticket",
          "type": "uint8"
        },
        {
          "name": "money",
          "type": "uint256"
        },
        {
          "name": "owner",
          "type": "address"
        }
      ],
      "payable": false,
      "stateMutability": "view",
      "type": "function"
    },
    {
      "constant": false,
      "inputs": [
        {
          "name": "_to",
          "type": "address"
        },
        {
          "name": "_value",
          "type": "uint256"
        }
      ],
      "name": "buy",
      "outputs": [
        {
          "name": "result",
          "type": "bool"
        }
      ],
      "payable": true,
      "stateMutability": "payable",
      "type": "function"
    },
    {
      "constant": false,
      "inputs": [
        {
          "name": "_to",
          "type": "address"
        },
        {
          "name": "_value",
          "type": "uint256"
        }
      ],
      "name": "transfer",
      "outputs": [
        {
          "name": "result",
          "type": "bool"
        },
        {
          "name": "numbers_in_ticket",
          "type": "uint8"
        }
      ],
      "payable": false,
      "stateMutability": "nonpayable",
      "type": "function"
    },
    {
      "constant": false,
      "inputs": [
        {
          "name": "",
          "type": "address"
        },
        {
          "name": "",
          "type": "address"
        }
      ],
      "name": "newLottery",
      "outputs": [
        {
          "name": "result",
          "type": "bool"
        }
      ],
      "payable": false,
      "stateMutability": "nonpayable",
      "type": "function"
    },
    {
      "constant": true,
      "inputs": [
        {
          "name": "",
          "type": "address"
        },
        {
          "name": "_value",
          "type": "uint256"
        },
        {
          "name": "_extraData",
          "type": "bytes"
        }
      ],
      "name": "frozenAccount",
      "outputs": [
        {
          "name": "",
          "type": "bool"
        }
      ],
      "payable": false,
      "stateMutability": "view",
      "type": "function"
    },
    {
      "constant": true,
      "inputs": [
        {
          "name": "",
          "type": "uint256"
        },
        {
          "name": "_value",
          "type": "uint256"
        },
        {
          "name": "_extraData",
          "type": "bytes"
        }
      ],
      "name": "won_percent",
      "outputs": [
        {
          "name": "",
          "type": "uint8"
        }
      ],
      "payable": false,
      "stateMutability": "view",
      "type": "function"
    },
    {
      "constant": false,
      "inputs": [
        {
          "name": "_spender",
          "type": "address"
        },
        {
          "name": "_value",
          "type": "uint256"
        },
        {
          "name": "_extraData",
          "type": "bytes"
        }
      ],
      "name": "approveAndCall",
      "outputs": [
        {
          "name": "success",
          "type": "bool"
        },
        {
          "name": "numbers_in_ticket",
          "type": "uint8"
        }
      ],
      "payable": false,
      "stateMutability": "nonpayable",
      "type": "function"
    },
    {
      "constant": true,
      "inputs": [
        {
          "name": "ticket_numbers",
          "type": "uint8[13]"
        },
        {
          "name": "freeze",
          "type": "bool"
        }
      ],
      "name": "JackPot_assignment",
      "outputs": [
        {
          "name": "",
          "type": "uint256"
        },
        {
          "name": "numbers_in_ticket",
          "type": "uint8"
        }
      ],
      "payable": false,
      "stateMutability": "view",
      "type": "function"
    },
    {
      "inputs": [
        {
          "name": "ticket_numbers",
          "type": "uint8[13]"
        },
        {
          "name": "",
          "type": "address"
        }
      ],
      "payable": false,
      "stateMutability": "view",
      "type": "function",
      "constant": true,
      "name": "isAllowableBigTicket",
      "outputs": [
        {
          "name": "",
          "type": "bool"
        },
        {
          "name": "numbers_in_ticket",
          "type": "uint8"
        }
      ]
    },
    {
      "anonymous": false,
      "inputs": [
        {
          "indexed": false,
          "name": "",
          "type": "address"
        },
        {
          "indexed": false,
          "name": "",
          "type": "address"
        },
        {
          "indexed": false,
          "name": "ticket_owner",
          "type": "address"
        },
        {
          "indexed": false,
          "name": "buy_time",
          "type": "uint256"
        },
        {
          "indexed": false,
          "name": "lottery_number",
          "type": "uint256"
        },
        {
          "indexed": false,
          "name": "lottery_type",
          "type": "string"
        },
        {
          "indexed": false,
          "name": "ticket_numbers",
          "type": "uint8[]"
        }
      ],
      "name": "last_lottery_id",
      "type": "function",
      "payable": false,
      "stateMutability": "view",
      "constant": true,
      "outputs": [
        {
          "name": "",
          "type": "uint32"
        }
      ]
    },
    {
      "anonymous": false,
      "inputs": [
        {
          "indexed": false,
          "name": "",
          "type": "address"
        },
        {
          "indexed": false,
          "name": "",
          "type": "address"
        },
        {
          "indexed": false,
          "name": "ticket_owner",
          "type": "address"
        },
        {
          "indexed": false,
          "name": "buy_time",
          "type": "uint256"
        },
        {
          "indexed": false,
          "name": "lottery_number",
          "type": "uint256"
        },
        {
          "indexed": false,
          "name": "lottery_type",
          "type": "string"
        },
        {
          "indexed": false,
          "name": "ticket_numbers",
          "type": "uint8[]"
        }
      ],
      "name": "allowance",
      "type": "function",
      "payable": false,
      "stateMutability": "view",
      "constant": true,
      "outputs": [
        {
          "name": "",
          "type": "uint256"
        }
      ]
    },
    {
      "anonymous": false,
      "inputs": [
        {
          "indexed": false,
          "name": "amount",
          "type": "uint256"
        },
        {
          "indexed": false,
          "name": "freeze",
          "type": "bool"
        },
        {
          "indexed": false,
          "name": "ticket_owner",
          "type": "address"
        },
        {
          "indexed": false,
          "name": "buy_time",
          "type": "uint256"
        },
        {
          "indexed": false,
          "name": "lottery_number",
          "type": "uint256"
        },
        {
          "indexed": false,
          "name": "lottery_type",
          "type": "string"
        },
        {
          "indexed": false,
          "name": "ticket_numbers",
          "type": "uint8[]"
        }
      ],
      "name": "sell",
      "type": "function",
      "constant": false,
      "outputs": [
        {
          "name": "",
          "type": "uint256"
        }
      ],
      "payable": false,
      "stateMutability": "nonpayable"
    },
    {
      "anonymous": false,
      "inputs": [
        {
          "indexed": false,
          "name": "target",
          "type": "address"
        },
        {
          "indexed": false,
          "name": "freeze",
          "type": "bool"
        },
        {
          "indexed": false,
          "name": "value",
          "type": "uint256"
        }
      ],
      "name": "freezeAccount",
      "type": "function",
      "constant": false,
      "outputs": [
        {
          "name": "",
          "type": "uint256"
        }
      ],
      "payable": false,
      "stateMutability": "nonpayable"
    },
    {
      "anonymous": false,
      "inputs": [
        {
          "indexed": true,
          "name": "newOwner",
          "type": "address"
        },
        {
          "indexed": true,
          "name": "to",
          "type": "address"
        },
        {
          "indexed": false,
          "name": "value",
          "type": "uint256"
        }
      ],
      "name": "regularPrize_assignment",
      "type": "function",
      "payable": false,
      "stateMutability": "view",
      "constant": true,
      "outputs": [
        {
          "name": "",
          "type": "uint256"
        }
      ]
    },
    {
      "anonymous": false,
      "inputs": [
        {
          "indexed": false,
          "name": "newOwner",
          "type": "address"
        },
        {
          "indexed": false,
          "name": "number_2",
          "type": "uint8"
        },
        {
          "indexed": false,
          "name": "number_3",
          "type": "uint8"
        },
        {
          "indexed": false,
          "name": "number_4",
          "type": "uint8"
        },
        {
          "indexed": false,
          "name": "number_5",
          "type": "uint8"
        },
        {
          "indexed": false,
          "name": "number_6",
          "type": "uint8"
        },
        {
          "indexed": false,
          "name": "ticket_numbers",
          "type": "uint8[]"
        }
      ],
      "name": "transferOwnership",
      "type": "function",
      "constant": false,
      "outputs": [
        {
          "name": "",
          "type": "bool"
        }
      ],
      "payable": false,
      "stateMutability": "nonpayable"
    },
    {
      "anonymous": false,
      "inputs": [
        {
          "indexed": false,
          "name": "number_1",
          "type": "uint8"
        },
        {
          "indexed": false,
          "name": "number_2",
          "type": "uint8"
        },
        {
          "name": "number_3",
          "type": "uint8"
        },
        {
          "name": "number_4",
          "type": "uint8"
        },
        {
          "name": "number_5",
          "type": "uint8"
        },
        {
          "name": "number_6",
          "type": "uint8"
        }
      ],
      "name": "updatePrizeCombination",
      "type": "function",
      "payable": false,
      "stateMutability": "nonpayable",
      "constant": false,
      "outputs": [
        {
          "name": "",
          "type": "bool"
        }
      ]
    },
    {
      "anonymous": false,
      "inputs": [
        {
          "indexed": false,
          "name": "ticket_number",
          "type": "uint256"
        },
        {
          "indexed": false,
          "name": "ticket_price",
          "type": "uint256"
        },
        {
          "indexed": false,
          "name": "ticket_owner",
          "type": "address"
        },
        {
          "indexed": false,
          "name": "buy_time",
          "type": "uint256"
        },
        {
          "indexed": false,
          "name": "lottery_number",
          "type": "uint256"
        },
        {
          "indexed": false,
          "name": "lottery_type",
          "type": "string"
        },
        {
          "indexed": false,
          "name": "ticket_numbers",
          "type": "uint8[]"
        }
      ],
      "name": "BuyTicket",
      "type": "constructor",
      "payable": false,
      "stateMutability": "nonpayable"
    },
    {
      "anonymous": false,
      "inputs": [
        {
          "indexed": false,
          "name": "ticket_number",
          "type": "uint256"
        },
        {
          "indexed": false,
          "name": "ticket_price",
          "type": "uint256"
        },
        {
          "indexed": false,
          "name": "ticket_owner",
          "type": "address"
        },
        {
          "indexed": false,
          "name": "buy_time",
          "type": "uint256"
        },
        {
          "indexed": false,
          "name": "lottery_number",
          "type": "uint256"
        },
        {
          "indexed": false,
          "name": "lottery_type",
          "type": "string"
        },
        {
          "indexed": false,
          "name": "ticket_numbers",
          "type": "uint8[]"
        }
      ],
      "name": "BuyTicket",
      "type": "event"
    },
    {
      "anonymous": false,
      "inputs": [
        {
          "indexed": false,
          "name": "target",
          "type": "address"
        },
        {
          "indexed": false,
          "name": "frozen",
          "type": "bool"
        },
        {
          "indexed": false,
          "name": "value",
          "type": "uint256"
        }
      ],
      "name": "FrozenFunds",
      "type": "event"
    },
    {
      "anonymous": false,
      "inputs": [
        {
          "indexed": true,
          "name": "from",
          "type": "address"
        },
        {
          "indexed": true,
          "name": "to",
          "type": "address"
        },
        {
          "indexed": false,
          "name": "value",
          "type": "uint256"
        }
      ],
      "name": "Transfer",
      "type": "event"
    },
    {
      "anonymous": false,
      "inputs": [
        {
          "indexed": true,
          "name": "from",
          "type": "address"
        },
        {
          "indexed": false,
          "name": "value",
          "type": "uint256"
        }
      ],
      "name": "Burn",
      "type": "event"
    }
  ],
  "bytecode": "0x60606040526012600360006101000a81548160ff021916908360ff1602179055506000600a556000600b55600a600c556028600d556028600e55602d600f60006101000a81548160ff021916908360ff1602179055506000600f60016101000a81548163ffffffff021916908363ffffffff1602179055506006600f60056101000a81548160ff021916908360ff160217905550600d600f60066101000a81548160ff021916908360ff160217905550606060405190810160405280600a60ff168152602001601e60ff168152602001603c60ff168152506010906003620000e9929190620003ce565b50606060405190810160405280602d60ff168152602001602d60ff168152602001600a60ff168152506011906003620001249291906200046f565b5034156200013157600080fd5b6127106040805190810160405280600f81526020017f4c6f74746572792036206f6620343500000000000000000000000000000000008152506040805190810160405280600581526020017f4c36783435000000000000000000000000000000000000000000000000000000815250828282336000806101000a81548173ffffffffffffffffffffffffffffffffffffffff021916908373ffffffffffffffffffffffffffffffffffffffff160217905550600360009054906101000a900460ff1660ff16600a0a8302600481905550600454600560003373ffffffffffffffffffffffffffffffffffffffff1673ffffffffffffffffffffffffffffffffffffffff1681526020019081526020016000208190555081600190805190602001906200025f929190620004b9565b50806002908051906020019062000278929190620004b9565b505050505050506040805190810160405280600a81526020017f30362e31312e3230313700000000000000000000000000000000000000000000815250601460008081526020019081526020016000206000019080519060200190620002e0929190620004b9565b506000601460008081526020019081526020016000206002018190555060c060405190810160405280600060ff168152602001600060ff168152602001600060ff168152602001600060ff168152602001600060ff168152602001600060ff16815250601460008081526020019081526020016000206003019060066200036992919062000540565b5060016014600080815260200190815260200160002060090160006101000a81548160ff02191690831515021790555060006014600080815260200190815260200160002060090160016101000a81548160ff021916908315150217905550620005e5565b826003601f016020900481019282156200045c5791602002820160005b838211156200042b57835183826101000a81548160ff021916908360ff1602179055509260200192600101602081600001049283019260010302620003eb565b80156200045a5782816101000a81549060ff02191690556001016020816000010492830192600103026200042b565b505b5090506200046b91906200058a565b5090565b8260038101928215620004a6579160200282015b82811115620004a5578251829060ff1690559160200191906001019062000483565b5b509050620004b59190620005bd565b5090565b828054600181600116156101000203166002900490600052602060002090601f016020900481019282601f10620004fc57805160ff19168380011785556200052d565b828001600101855582156200052d579182015b828111156200052c5782518255916020019190600101906200050f565b5b5090506200053c9190620005bd565b5090565b826006810192821562000577579160200282015b8281111562000576578251829060ff1690559160200191906001019062000554565b5b509050620005869190620005bd565b5090565b620005ba91905b80821115620005b657600081816101000a81549060ff02191690555060010162000591565b5090565b90565b620005e291905b80821115620005de576000816000905550600101620005c4565b5090565b90565b61408f80620005f56000396000f300606060405260043610610230576000357c0100000000000000000000000000000000000000000000000000000000900463ffffffff16806305fefda7146102355780630652a9d31461026157806306fdde0314610298578063095ea7b3146103265780630a2282ae146103805780631209b1f6146103a95780631398e076146103d257806318160ddd146104a857806319296aa1146104d157806323b872dd1461052f5780632c906ba2146105a8578063313ce567146105d557806342966c681461060457806343bfdb001461063f578063452b6feb1461070d5780634b7503341461073c5780635be01e451461076557806370a082311461078e57806378b5ba88146107db57806379c650681461081b57806379cc67901461085d5780637d5bf6f3146108b757806383714834146108e65780638620410b1461091d5780638da5cb5b146109465780638ef7c6491461099b57806392e845f6146109d557806395d89b4114610ab2578063999fd09b14610b405780639b3de49b14610b6f578063a426e4c814610bac578063a6f2ae3a14610c68578063a9059cbb14610c72578063b1e2cb0314610cb4578063b414d4b614610ce1578063c61694f714610d32578063cae9ca5114610d6f578063cc911d7914610e0c578063d03fc5e814610e35578063d583c5fb14610ea1578063dd62ed3e14610ed6578063e4849b3214610f42578063e724529c14610f65578063ea0a23e314610fa9578063f2fde38b14610fd2578063fee429d11461100b575b600080fd5b341561024057600080fd5b61025f6004808035906020019091908035906020019091905050611085565b005b341561026c57600080fd5b61028260048080359060200190919050506110f2565b6040518082815260200191505060405180910390f35b34156102a357600080fd5b6102ab61110c565b6040518080602001828103825283818151815260200191508051906020019080838360005b838110156102eb5780820151818401526020810190506102d0565b50505050905090810190601f1680156103185780820380516001836020036101000a031916815260200191505b509250505060405180910390f35b341561033157600080fd5b610366600480803573ffffffffffffffffffffffffffffffffffffffff169060200190919080359060200190919050506111aa565b604051808215151515815260200191505060405180910390f35b341561038b57600080fd5b610393611237565b6040518082815260200191505060405180910390f35b34156103b457600080fd5b6103bc61123d565b6040518082815260200191505060405180910390f35b34156103dd57600080fd5b6103f36004808035906020019091905050611243565b604051808060200185815260200184151515158152602001831515151581526020018281038252868181546001816001161561010002031660029004815260200191508054600181600116156101000203166002900480156104965780601f1061046b57610100808354040283529160200191610496565b820191906000526020600020905b81548152906001019060200180831161047957829003601f168201915b50509550505050505060405180910390f35b34156104b357600080fd5b6104bb61128c565b6040518082815260200191505060405180910390f35b34156104dc57600080fd5b6105156004808060c001906006806020026040519081016040528092919082600660200280828437820191505050505091905050611292565b604051808215151515815260200191505060405180910390f35b341561053a57600080fd5b61058e600480803573ffffffffffffffffffffffffffffffffffffffff1690602001909190803573ffffffffffffffffffffffffffffffffffffffff169060200190919080359060200190919050506113c7565b604051808215151515815260200191505060405180910390f35b34156105b357600080fd5b6105bb6114f4565b604051808215151515815260200191505060405180910390f35b34156105e057600080fd5b6105e8611646565b604051808260ff1660ff16815260200191505060405180910390f35b341561060f57600080fd5b6106256004808035906020019091905050611659565b604051808215151515815260200191505060405180910390f35b341561064a57600080fd5b6106f3600480803560ff1690602001909190803560ff1690602001909190803560ff1690602001909190803560ff1690602001909190803560ff1690602001909190803560ff1690602001909190803560ff1690602001909190803560ff1690602001909190803560ff1690602001909190803560ff1690602001909190803560ff1690602001909190803560ff1690602001909190803560ff1690602001909190505061175d565b604051808215151515815260200191505060405180910390f35b341561071857600080fd5b610720611965565b604051808260ff1660ff16815260200191505060405180910390f35b341561074757600080fd5b61074f611978565b6040518082815260200191505060405180910390f35b341561077057600080fd5b61077861197e565b6040518082815260200191505060405180910390f35b341561079957600080fd5b6107c5600480803573ffffffffffffffffffffffffffffffffffffffff16906020019091905050611984565b6040518082815260200191505060405180910390f35b34156107e657600080fd5b610805600480803590602001909190803590602001909190505061199c565b6040518082815260200191505060405180910390f35b341561082657600080fd5b61085b600480803573ffffffffffffffffffffffffffffffffffffffff16906020019091908035906020019091905050611b86565b005b341561086857600080fd5b61089d600480803573ffffffffffffffffffffffffffffffffffffffff16906020019091908035906020019091905050611cf7565b604051808215151515815260200191505060405180910390f35b34156108c257600080fd5b6108ca611f11565b604051808260ff1660ff16815260200191505060405180910390f35b34156108f157600080fd5b6109076004808035906020019091905050611f24565b6040518082815260200191505060405180910390f35b341561092857600080fd5b610930611f67565b6040518082815260200191505060405180910390f35b341561095157600080fd5b610959611f6d565b604051808273ffffffffffffffffffffffffffffffffffffffff1673ffffffffffffffffffffffffffffffffffffffff16815260200191505060405180910390f35b34156109a657600080fd5b6109bf600480803560ff16906020019091905050611f92565b6040518082815260200191505060405180910390f35b34156109e057600080fd5b6109f66004808035906020019091905050611fee565b604051808060200185815260200184600660200280838360005b83811015610a2b578082015181840152602081019050610a10565b5050505090500183151515158152602001828103825286818151815260200191508051906020019080838360005b83811015610a74578082015181840152602081019050610a59565b50505050905090810190601f168015610aa15780820380516001836020036101000a031916815260200191505b509550505050505060405180910390f35b3415610abd57600080fd5b610ac5612153565b6040518080602001828103825283818151815260200191508051906020019080838360005b83811015610b05578082015181840152602081019050610aea565b50505050905090810190601f168015610b325780820380516001836020036101000a031916815260200191505b509250505060405180910390f35b3415610b4b57600080fd5b610b536121f1565b604051808260ff1660ff16815260200191505060405180910390f35b3415610b7a57600080fd5b610b9260048080351515906020019091905050612204565b604051808215151515815260200191505060405180910390f35b3415610bb757600080fd5b610bd660048080359060200190919080359060200190919050506122fb565b6040518086600d60200280838360005b83811015610c01578082015181840152602081019050610be6565b505050509050018560ff1660ff1681526020018460ff1660ff1681526020018381526020018273ffffffffffffffffffffffffffffffffffffffff1673ffffffffffffffffffffffffffffffffffffffff1681526020019550505050505060405180910390f35b610c70612492565b005b3415610c7d57600080fd5b610cb2600480803573ffffffffffffffffffffffffffffffffffffffff169060200190919080359060200190919050506124b2565b005b3415610cbf57600080fd5b610cc76124c1565b604051808215151515815260200191505060405180910390f35b3415610cec57600080fd5b610d18600480803573ffffffffffffffffffffffffffffffffffffffff169060200190919050506127b3565b604051808215151515815260200191505060405180910390f35b3415610d3d57600080fd5b610d5360048080359060200190919050506127d3565b604051808260ff1660ff16815260200191505060405180910390f35b3415610d7a57600080fd5b610df2600480803573ffffffffffffffffffffffffffffffffffffffff1690602001909190803590602001909190803590602001908201803590602001908080601f016020809104026020016040519081016040528093929190818152602001838380828437820191505050505050919050506127fc565b604051808215151515815260200191505060405180910390f35b3415610e1757600080fd5b610e1f61297a565b6040518082815260200191505060405180910390f35b3415610e4057600080fd5b610e7a600480806101a00190600d806020026040519081016040528092919082600d60200280828437820191505050505091905050612980565b60405180831515151581526020018260ff1660ff1681526020019250505060405180910390f35b3415610eac57600080fd5b610eb4612afd565b604051808263ffffffff1663ffffffff16815260200191505060405180910390f35b3415610ee157600080fd5b610f2c600480803573ffffffffffffffffffffffffffffffffffffffff1690602001909190803573ffffffffffffffffffffffffffffffffffffffff16906020019091905050612b13565b6040518082815260200191505060405180910390f35b3415610f4d57600080fd5b610f636004808035906020019091905050612b38565b005b3415610f7057600080fd5b610fa7600480803573ffffffffffffffffffffffffffffffffffffffff169060200190919080351515906020019091905050612bb4565b005b3415610fb457600080fd5b610fbc612cd9565b6040518082815260200191505060405180910390f35b3415610fdd57600080fd5b611009600480803573ffffffffffffffffffffffffffffffffffffffff16906020019091905050612cdf565b005b341561101657600080fd5b61106b600480803560ff1690602001909190803560ff1690602001909190803560ff1690602001909190803560ff1690602001909190803560ff1690602001909190803560ff16906020019091905050612d7d565b604051808215151515815260200191505060405180910390f35b6000809054906101000a900473ffffffffffffffffffffffffffffffffffffffff1673ffffffffffffffffffffffffffffffffffffffff163373ffffffffffffffffffffffffffffffffffffffff161415156110e057600080fd5b81600781905550806008819055505050565b60118160038110151561110157fe5b016000915090505481565b60018054600181600116156101000203166002900480601f0160208091040260200160405190810160405280929190818152602001828054600181600116156101000203166002900480156111a25780601f10611177576101008083540402835291602001916111a2565b820191906000526020600020905b81548152906001019060200180831161118557829003601f168201915b505050505081565b600081600660003373ffffffffffffffffffffffffffffffffffffffff1673ffffffffffffffffffffffffffffffffffffffff16815260200190815260200160002060008573ffffffffffffffffffffffffffffffffffffffff1673ffffffffffffffffffffffffffffffffffffffff168152602001908152602001600020819055506001905092915050565b600a5481565b600c5481565b601460205280600052604060002060009150905080600001908060020154908060090160009054906101000a900460ff16908060090160019054906101000a900460ff16905084565b60045481565b6000806000808460056006811015156112a757fe5b602002015160ff1614806112e25750600f60009054906101000a900460ff1660ff168460056006811015156112d857fe5b602002015160ff16115b156112f057600092506113c0565b600091505b60058210156113bb57600f60009054906101000a900460ff1660ff16848360068110151561131f57fe5b602002015160ff16118061134857506000848360068110151561133e57fe5b602002015160ff16145b1561135657600092506113c0565b6001820190505b60068110156113ae57838160068110151561137457fe5b602002015160ff16848360068110151561138a57fe5b602002015160ff1614156113a157600092506113c0565b808060010191505061135d565b81806001019250506112f5565b600192505b5050919050565b6000600660008573ffffffffffffffffffffffffffffffffffffffff1673ffffffffffffffffffffffffffffffffffffffff16815260200190815260200160002060003373ffffffffffffffffffffffffffffffffffffffff1673ffffffffffffffffffffffffffffffffffffffff16815260200190815260200160002054821115151561145457600080fd5b81600660008673ffffffffffffffffffffffffffffffffffffffff1673ffffffffffffffffffffffffffffffffffffffff16815260200190815260200160002060003373ffffffffffffffffffffffffffffffffffffffff1673ffffffffffffffffffffffffffffffffffffffff168152602001908152602001600020600082825403925050819055506114e9848484612f30565b600190509392505050565b60008060009054906101000a900473ffffffffffffffffffffffffffffffffffffffff1673ffffffffffffffffffffffffffffffffffffffff163373ffffffffffffffffffffffffffffffffffffffff1614151561155157600080fd5b60146000600f60019054906101000a900463ffffffff1663ffffffff16815260200190815260200160002060090160009054906101000a900460ff161561159b5760009050611643565b60146000600f60019054906101000a900463ffffffff1663ffffffff16815260200190815260200160002060090160019054906101000a900460ff16156115e55760009050611643565b6115ed6131e7565b506115f6613806565b50600160146000600f60019054906101000a900463ffffffff1663ffffffff16815260200190815260200160002060090160016101000a81548160ff021916908315150217905550600190505b90565b600360009054906101000a900460ff1681565b600081600560003373ffffffffffffffffffffffffffffffffffffffff1673ffffffffffffffffffffffffffffffffffffffff16815260200190815260200160002054101515156116a957600080fd5b81600560003373ffffffffffffffffffffffffffffffffffffffff1673ffffffffffffffffffffffffffffffffffffffff16815260200190815260200160002060008282540392505081905550816004600082825403925050819055503373ffffffffffffffffffffffffffffffffffffffff167fcc16f5dbb4873280815c1ee09dbd06736cffcc184412cf7a71a0fdb75d397ca5836040518082815260200191505060405180910390a260019050919050565b6000611767613cfc565b8e81604001516000600d8110151561177b57fe5b602002019060ff16908160ff16815250508d81604001516001600d811015156117a057fe5b602002019060ff16908160ff16815250508c81604001516002600d811015156117c557fe5b602002019060ff16908160ff16815250508b81604001516003600d811015156117ea57fe5b602002019060ff16908160ff16815250508a81604001516004600d8110151561180f57fe5b602002019060ff16908160ff16815250508981604001516005600d8110151561183457fe5b602002019060ff16908160ff16815250508881604001516006600d8110151561185957fe5b602002019060ff16908160ff16815250508781604001516007600d8110151561187e57fe5b602002019060ff16908160ff16815250508681604001516008600d811015156118a357fe5b602002019060ff16908160ff16815250508581604001516009600d811015156118c857fe5b602002019060ff16908160ff1681525050848160400151600a600d811015156118ed57fe5b602002019060ff16908160ff1681525050838160400151600b600d8110151561191257fe5b602002019060ff16908160ff1681525050828160400151600c600d8110151561193757fe5b602002019060ff16908160ff1681525050611951816138ec565b9150509d9c50505050505050505050505050565b600f60059054906101000a900460ff1681565b60075481565b600b5481565b60056020528060005260406000206000915090505481565b6119a4613cfc565b60146000848152602001908152602001600020600101600083815260200190815260200160002060c060405190810160405290816000820160009054906101000a900473ffffffffffffffffffffffffffffffffffffffff1673ffffffffffffffffffffffffffffffffffffffff1673ffffffffffffffffffffffffffffffffffffffff168152602001600182018054600181600116156101000203166002900480601f016020809104026020016040519081016040528092919081815260200182805460018160011615610100020316600290048015611ac65780601f10611a9b57610100808354040283529160200191611ac6565b820191906000526020600020905b815481529060010190602001808311611aa957829003601f168201915b5050505050815260200160028201600d806020026040519081016040528092919082600d8015611b31576020028201916000905b82829054906101000a900460ff1660ff1681526020019060010190602082600001049283019260010382029150808411611afa5790505b505050505081526020016003820160009054906101000a900460ff1660ff1660ff1681526020016003820160019054906101000a900460ff1660ff1660ff168152602001600482015481525050905092915050565b6000809054906101000a900473ffffffffffffffffffffffffffffffffffffffff1673ffffffffffffffffffffffffffffffffffffffff163373ffffffffffffffffffffffffffffffffffffffff16141515611be157600080fd5b80600560008473ffffffffffffffffffffffffffffffffffffffff1673ffffffffffffffffffffffffffffffffffffffff16815260200190815260200160002060008282540192505081905550806004600082825401925050819055503073ffffffffffffffffffffffffffffffffffffffff1660007fddf252ad1be2c89b69c2b068fc378daa952ba7f163c4a11628f55a4df523b3ef836040518082815260200191505060405180910390a38173ffffffffffffffffffffffffffffffffffffffff163073ffffffffffffffffffffffffffffffffffffffff167fddf252ad1be2c89b69c2b068fc378daa952ba7f163c4a11628f55a4df523b3ef836040518082815260200191505060405180910390a35050565b600081600560008573ffffffffffffffffffffffffffffffffffffffff1673ffffffffffffffffffffffffffffffffffffffff1681526020019081526020016000205410151515611d4757600080fd5b600660008473ffffffffffffffffffffffffffffffffffffffff1673ffffffffffffffffffffffffffffffffffffffff16815260200190815260200160002060003373ffffffffffffffffffffffffffffffffffffffff1673ffffffffffffffffffffffffffffffffffffffff168152602001908152602001600020548211151515611dd257600080fd5b81600560008573ffffffffffffffffffffffffffffffffffffffff1673ffffffffffffffffffffffffffffffffffffffff1681526020019081526020016000206000828254039250508190555081600660008573ffffffffffffffffffffffffffffffffffffffff1673ffffffffffffffffffffffffffffffffffffffff16815260200190815260200160002060003373ffffffffffffffffffffffffffffffffffffffff1673ffffffffffffffffffffffffffffffffffffffff16815260200190815260200160002060008282540392505081905550816004600082825403925050819055508273ffffffffffffffffffffffffffffffffffffffff167fcc16f5dbb4873280815c1ee09dbd06736cffcc184412cf7a71a0fdb75d397ca5836040518082815260200191505060405180910390a26001905092915050565b600f60009054906101000a900460ff1681565b600080600191506000831415611f3d5760019150611f61565b600190505b8281111515611f5d5780820291508080600101915050611f42565b8191505b50919050565b60085481565b6000809054906101000a900473ffffffffffffffffffffffffffffffffffffffff1681565b6000611faf600f60059054906101000a900460ff1660ff16611f24565b611fcc600f60059054906101000a900460ff16840360ff16611f24565b02600c54611fdc8460ff16611f24565b02811515611fe657fe5b049050919050565b611ff6613d5c565b6000612000613d70565b6000601460008681526020019081526020016000206000016014600087815260200190815260200160002060020154601460008881526020019081526020016000206003016014600089815260200190815260200160002060090160009054906101000a900460ff16838054600181600116156101000203166002900480601f0160208091040260200160405190810160405280929190818152602001828054600181600116156101000203166002900480156120fe5780601f106120d3576101008083540402835291602001916120fe565b820191906000526020600020905b8154815290600101906020018083116120e157829003601f168201915b505050505093508160068060200260405190810160405280929190826006801561213d576020028201915b815481526020019060010190808311612129575b5050505050915093509350935093509193509193565b60028054600181600116156101000203166002900480601f0160208091040260200160405190810160405280929190818152602001828054600181600116156101000203166002900480156121e95780601f106121be576101008083540402835291602001916121e9565b820191906000526020600020905b8154815290600101906020018083116121cc57829003601f168201915b505050505081565b600f60069054906101000a900460ff1681565b60008060009054906101000a900473ffffffffffffffffffffffffffffffffffffffff1673ffffffffffffffffffffffffffffffffffffffff163373ffffffffffffffffffffffffffffffffffffffff1614151561226157600080fd5b60146000600f60019054906101000a900463ffffffff1663ffffffff16815260200190815260200160002060090160019054906101000a900460ff16156122ab57600090506122f6565b8160146000600f60019054906101000a900463ffffffff1663ffffffff16815260200190815260200160002060090160006101000a81548160ff021916908315150217905550600190505b919050565b612303613d98565b60008060008060146000888152602001908152602001600020600101600087815260200190815260200160002060020160146000898152602001908152602001600020600101600088815260200190815260200160002060030160009054906101000a900460ff16601460008a8152602001908152602001600020600101600089815260200190815260200160002060030160019054906101000a900460ff16601460008b815260200190815260200160002060010160008a815260200190815260200160002060040154601460008c815260200190815260200160002060010160008b815260200190815260200160002060000160009054906101000a900473ffffffffffffffffffffffffffffffffffffffff1684600d806020026040519081016040528092919082600d8015612477576020028201916000905b82829054906101000a900460ff1660ff16815260200190600101906020826000010492830192600103820291508084116124405790505b50505050509450945094509450945094509295509295909350565b6000600854348115156124a157fe5b0490506124af303383612f30565b50565b6124bd338383612f30565b5050565b60008060009054906101000a900473ffffffffffffffffffffffffffffffffffffffff1673ffffffffffffffffffffffffffffffffffffffff163373ffffffffffffffffffffffffffffffffffffffff1614151561251e57600080fd5b60146000600f60019054906101000a900463ffffffff1663ffffffff16815260200190815260200160002060090160009054906101000a900460ff161561256857600090506127b0565b60146000600f60019054906101000a900463ffffffff1663ffffffff16815260200190815260200160002060090160019054906101000a900460ff1615156125b357600090506127b0565b600f600181819054906101000a900463ffffffff168092919060010191906101000a81548163ffffffff021916908363ffffffff160217905550506040805190810160405280600a81526020017f32312e31312e323031370000000000000000000000000000000000000000000081525060146000600f60019054906101000a900463ffffffff1663ffffffff1681526020019081526020016000206000019080519060200190612665929190613dc4565b50600060146000600f60019054906101000a900463ffffffff1663ffffffff1681526020019081526020016000206002018190555060c060405190810160405280600060ff168152602001600060ff168152602001600060ff168152602001600060ff168152602001600060ff168152602001600060ff1681525060146000600f60019054906101000a900463ffffffff1663ffffffff16815260200190815260200160002060030190600661271c929190613e44565b50600160146000600f60019054906101000a900463ffffffff1663ffffffff16815260200190815260200160002060090160006101000a81548160ff021916908315150217905550600060146000600f60019054906101000a900463ffffffff1663ffffffff16815260200190815260200160002060090160016101000a81548160ff021916908315150217905550600190505b90565b60096020528060005260406000206000915054906101000a900460ff1681565b6010816003811015156127e257fe5b60209182820401919006915054906101000a900460ff1681565b60008084905061280c85856111aa565b15612971578073ffffffffffffffffffffffffffffffffffffffff16638f4ffcb1338630876040518563ffffffff167c0100000000000000000000000000000000000000000000000000000000028152600401808573ffffffffffffffffffffffffffffffffffffffff1673ffffffffffffffffffffffffffffffffffffffff1681526020018481526020018373ffffffffffffffffffffffffffffffffffffffff1673ffffffffffffffffffffffffffffffffffffffff16815260200180602001828103825283818151815260200191508051906020019080838360005b838110156129065780820151818401526020810190506128eb565b50505050905090810190601f1680156129335780820380516001836020036101000a031916815260200191505b5095505050505050600060405180830381600087803b151561295457600080fd5b6102c65a03f1151561296557600080fd5b50505060019150612972565b5b509392505050565b600d5481565b600080600080600d9250600085600c600d8110151561299b57fe5b602002015160ff1614156129b3578280600190039350505b600091505b600c821015612aee57600f60009054906101000a900460ff1660ff168583600d811015156129e257fe5b602002015160ff161180612a1d5750600f60009054906101000a900460ff1660ff1685600c600d81101515612a1357fe5b602002015160ff16115b80612a2b575060068360ff16105b15612a3c5760008393509350612af6565b60008583600d81101515612a4c57fe5b602002015160ff161415612a64578280600190039350505b6001820190505b600d811015612ae1578481600d81101515612a8257fe5b602002015160ff168583600d81101515612a9857fe5b602002015160ff16148015612ac3575060008583600d81101515612ab857fe5b602002015160ff1614155b15612ad45760008393509350612af6565b8080600101915050612a6b565b81806001019250506129b8565b600183935093505b5050915091565b600f60019054906101000a900463ffffffff1681565b6006602052816000526040600020602052806000526040600020600091509150505481565b60075481023073ffffffffffffffffffffffffffffffffffffffff163110151515612b6257600080fd5b612b6d333083612f30565b3373ffffffffffffffffffffffffffffffffffffffff166108fc60075483029081150290604051600060405180830381858888f193505050501515612bb157600080fd5b50565b6000809054906101000a900473ffffffffffffffffffffffffffffffffffffffff1673ffffffffffffffffffffffffffffffffffffffff163373ffffffffffffffffffffffffffffffffffffffff16141515612c0f57600080fd5b80600960008473ffffffffffffffffffffffffffffffffffffffff1673ffffffffffffffffffffffffffffffffffffffff16815260200190815260200160002060006101000a81548160ff0219169083151502179055507f48335238b4855f35377ed80f164e8c6f3c366e54ac00b96a6402d4a9814a03a58282604051808373ffffffffffffffffffffffffffffffffffffffff1673ffffffffffffffffffffffffffffffffffffffff168152602001821515151581526020019250505060405180910390a15050565b600e5481565b6000809054906101000a900473ffffffffffffffffffffffffffffffffffffffff1673ffffffffffffffffffffffffffffffffffffffff163373ffffffffffffffffffffffffffffffffffffffff16141515612d3a57600080fd5b806000806101000a81548173ffffffffffffffffffffffffffffffffffffffff021916908373ffffffffffffffffffffffffffffffffffffffff16021790555050565b6000612d87613e89565b6000809054906101000a900473ffffffffffffffffffffffffffffffffffffffff1673ffffffffffffffffffffffffffffffffffffffff163373ffffffffffffffffffffffffffffffffffffffff16141515612de257600080fd5b60146000600f60019054906101000a900463ffffffff1663ffffffff16815260200190815260200160002060090160009054906101000a900460ff1615612e2c5760009150612f25565b60146000600f60019054906101000a900463ffffffff1663ffffffff16815260200190815260200160002060090160019054906101000a900460ff1615612e765760009150612f25565b60c0604051908101604052808960ff1660ff1681526020018860ff1660ff1681526020018760ff1660ff1681526020018660ff1660ff1681526020018560ff1660ff1681526020018460ff1660ff168152509050612ed381611292565b1515612ee25760009150612f25565b8060146000600f60019054906101000a900463ffffffff1663ffffffff168152602001908152602001600020600301906006612f1f929190613e44565b50600191505b509695505050505050565b60008273ffffffffffffffffffffffffffffffffffffffff1614151515612f5657600080fd5b80600560008573ffffffffffffffffffffffffffffffffffffffff1673ffffffffffffffffffffffffffffffffffffffff16815260200190815260200160002054111515612fa357600080fd5b600560008373ffffffffffffffffffffffffffffffffffffffff1673ffffffffffffffffffffffffffffffffffffffff1681526020019081526020016000205481600560008573ffffffffffffffffffffffffffffffffffffffff1673ffffffffffffffffffffffffffffffffffffffff168152602001908152602001600020540111151561303157600080fd5b600960008473ffffffffffffffffffffffffffffffffffffffff1673ffffffffffffffffffffffffffffffffffffffff16815260200190815260200160002060009054906101000a900460ff1615151561308a57600080fd5b600960008373ffffffffffffffffffffffffffffffffffffffff1673ffffffffffffffffffffffffffffffffffffffff16815260200190815260200160002060009054906101000a900460ff161515156130e357600080fd5b80600560008573ffffffffffffffffffffffffffffffffffffffff1673ffffffffffffffffffffffffffffffffffffffff1681526020019081526020016000206000828254039250508190555080600560008473ffffffffffffffffffffffffffffffffffffffff1673ffffffffffffffffffffffffffffffffffffffff168152602001908152602001600020600082825401925050819055508173ffffffffffffffffffffffffffffffffffffffff168373ffffffffffffffffffffffffffffffffffffffff167fddf252ad1be2c89b69c2b068fc378daa952ba7f163c4a11628f55a4df523b3ef836040518082815260200191505060405180910390a3505050565b60008060008060008060008060008090505b60146000600f60019054906101000a900463ffffffff1663ffffffff16815260200190815260200160002060020154811015613399576132db60146000600f60019054906101000a900463ffffffff1663ffffffff1681526020019081526020016000206001016000838152602001908152602001600020600201600d806020026040519081016040528092919082600d80156132d1576020028201916000905b82829054906101000a900460ff1660ff168152602001906001019060208260000104928301926001038202915080841161329a5790505b5050505050613c52565b91508160146000600f60019054906101000a900463ffffffff1663ffffffff168152602001908152602001600020600101600083815260200190815260200160002060030160006101000a81548160ff021916908360ff16021790555060038260ff16141561334d5784806001019550505b60048260ff1614156133625785806001019650505b60058260ff1614156133775786806001019750505b60068260ff16141561338c5787806001019850505b80806001019150506131f9565b600090505b60146000600f60019054906101000a900463ffffffff1663ffffffff168152602001908152602001600020600201548110156137d75760146000600f60019054906101000a900463ffffffff1663ffffffff168152602001908152602001600020600101600082815260200190815260200160002060030160009054906101000a900460ff16915060038260ff1614156134b457606485026010600060038110151561344657fe5b602091828204019190069054906101000a900460ff1660ff16600b540281151561346c57fe5b0460146000600f60019054906101000a900463ffffffff1663ffffffff1681526020019081526020016000206001016000838152602001908152602001600020600401819055505b60048260ff1614156135425760648602601060016003811015156134d457fe5b602091828204019190069054906101000a900460ff1660ff16600b54028115156134fa57fe5b0460146000600f60019054906101000a900463ffffffff1663ffffffff1681526020019081526020016000206001016000838152602001908152602001600020600401819055505b60058260ff1614156135d057606487026010600260038110151561356257fe5b602091828204019190069054906101000a900460ff1660ff16600b540281151561358857fe5b0460146000600f60019054906101000a900463ffffffff1663ffffffff1681526020019081526020016000206001016000838152602001908152602001600020600401819055505b60068260ff1614156136315787600a548115156135e957fe5b0460146000600f60019054906101000a900463ffffffff1663ffffffff1681526020019081526020016000206001016000838152602001908152602001600020600401819055505b60068260ff1610156136855760146000600f60019054906101000a900463ffffffff1663ffffffff168152602001908152602001600020600101600082815260200190815260200160002060040154840193505b60068260ff1614156136d95760146000600f60019054906101000a900463ffffffff1663ffffffff168152602001908152602001600020600101600082815260200190815260200160002060040154830192505b60146000600f60019054906101000a900463ffffffff1663ffffffff1681526020019081526020016000206001016000828152602001908152602001600020600401546005600060146000600f60019054906101000a900463ffffffff1663ffffffff168152602001908152602001600020600101600085815260200190815260200160002060000160009054906101000a900473ffffffffffffffffffffffffffffffffffffffff1673ffffffffffffffffffffffffffffffffffffffff1673ffffffffffffffffffffffffffffffffffffffff16815260200190815260200160002060008282540192505081905550808060010191505061339e565b83600b6000828254039250508190555082600a6000828254039250508190555060019850505050505050505090565b600080600060646011600160038110151561381d57fe5b0154600b540281151561382c57fe5b04915060646011600260038110151561384157fe5b0154600b540281151561385057fe5b049050808201600b6000828254039250508190555081600a6000828254019250508190555080600560008060009054906101000a900473ffffffffffffffffffffffffffffffffffffffff1673ffffffffffffffffffffffffffffffffffffffff1673ffffffffffffffffffffffffffffffffffffffff1681526020019081526020016000206000828254019250508190555060019250505090565b60008060008060146000600f60019054906101000a900463ffffffff1663ffffffff16815260200190815260200160002060090160009054906101000a900460ff16151561393d5760009350613c4a565b61394a8560400151612980565b9250925082151561395e5760009350613c4a565b61396782611f92565b905080600560003373ffffffffffffffffffffffffffffffffffffffff1673ffffffffffffffffffffffffffffffffffffffff1681526020019081526020016000205410156139b95760009350613c4a565b33856000019073ffffffffffffffffffffffffffffffffffffffff16908173ffffffffffffffffffffffffffffffffffffffff16815250506040805190810160405280600a81526020017f30362e31312e3230313700000000000000000000000000000000000000000000815250856020018190525081856080019060ff16908160ff16815250508460146000600f60019054906101000a900463ffffffff1663ffffffff168152602001908152602001600020600101600060146000600f60019054906101000a900463ffffffff1663ffffffff16815260200190815260200160002060020154815260200190815260200160002060008201518160000160006101000a81548173ffffffffffffffffffffffffffffffffffffffff021916908373ffffffffffffffffffffffffffffffffffffffff1602179055506020820151816001019080519060200190613b12929190613eb4565b5060408201518160020190600d613b2a929190613f34565b5060608201518160030160006101000a81548160ff021916908360ff16021790555060808201518160030160016101000a81548160ff021916908360ff16021790555060a0820151816004015590505060146000600f60019054906101000a900463ffffffff1663ffffffff1681526020019081526020016000206002016000815480929190600101919050555080600560003373ffffffffffffffffffffffffffffffffffffffff1673ffffffffffffffffffffffffffffffffffffffff168152602001908152602001600020600082825403925050819055506064600d548202811515613c1557fe5b04600a600082825401925050819055506064600e548202811515613c3557fe5b04600b60008282540192505081905550600193505b505050919050565b6000806000809250600091505b600d821015613cf257600090505b6006811015613ce55760146000600f60019054906101000a900463ffffffff1663ffffffff16815260200190815260200160002060030181600681101515613cb157fe5b01548483600d81101515613cc157fe5b602002015160ff161415613cd85782806001019350505b8080600101915050613c6d565b8180600101925050613c5f565b8292505050919050565b61024060405190810160405280600073ffffffffffffffffffffffffffffffffffffffff168152602001613d2e613fce565b8152602001613d3b613fe2565b8152602001600060ff168152602001600060ff168152602001600081525090565b602060405190810160405280600081525090565b60c0604051908101604052806006905b6000815260200190600190039081613d805790505090565b6101a060405190810160405280600d905b600060ff16815260200190600190039081613da95790505090565b828054600181600116156101000203166002900490600052602060002090601f016020900481019282601f10613e0557805160ff1916838001178555613e33565b82800160010185558215613e33579182015b82811115613e32578251825591602001919060010190613e17565b5b509050613e40919061400e565b5090565b8260068101928215613e78579160200282015b82811115613e77578251829060ff16905591602001919060010190613e57565b5b509050613e85919061400e565b5090565b60c0604051908101604052806006905b600060ff16815260200190600190039081613e995790505090565b828054600181600116156101000203166002900490600052602060002090601f016020900481019282601f10613ef557805160ff1916838001178555613f23565b82800160010185558215613f23579182015b82811115613f22578251825591602001919060010190613f07565b5b509050613f30919061400e565b5090565b82600d601f01602090048101928215613fbd5791602002820160005b83821115613f8e57835183826101000a81548160ff021916908360ff1602179055509260200192600101602081600001049283019260010302613f50565b8015613fbb5782816101000a81549060ff0219169055600101602081600001049283019260010302613f8e565b505b509050613fca9190614033565b5090565b602060405190810160405280600081525090565b6101a060405190810160405280600d905b600060ff16815260200190600190039081613ff35790505090565b61403091905b8082111561402c576000816000905550600101614014565b5090565b90565b61406091905b8082111561405c57600081816101000a81549060ff021916905550600101614039565b5090565b905600a165627a7a7230582060fade9674be68f4ebd3d449049ce05e2120d6391428023d7df247452c62e3da0029",
  "source": "pragma solidity ^0.4.11;\r\n    \r\nimport \"./DHFBaseCurrency.sol\";\r\n    \r\n/*-  4  20\r\n *4    -, 4 -   , 2      \r\n *  .\r\n *3.11.2017\r\n */\r\ncontract lottery_6_45 is DHFBaseCurrency \r\n{\r\n    uint public JackPot = 0; //  \r\n    uint public regularPrize = 0; //   \r\n    uint public ticketPrice = 10; //  \r\n    uint public JackPot_assignment = 40; //    -   \r\n    uint public regularPrize_assignment = 40; //     \r\n    uint8 public max_Number = 45; //  ,     \r\n    uint32 public last_lottery_id = 0; //   \r\n    uint8 public prize_combination_size = 6;//    \r\n    uint8 public max_numbers_in_ticket = 13;//    \r\n    uint8[3] public won_percent = [10, 30, 60];//      3, 4  5     \r\n    uint[3] public redistributionPercent = [45, 45, 10];//     :  .    -.   \r\n    // \r\n    struct ticket{\r\n        address owner; // \r\n        string time; //    \r\n        uint8[13] numbers; //   -     -  4   \r\n        uint8 compliance_level; //      -  \r\n        uint8 valuable_numbers;//    - \r\n        uint money;//   \r\n    }\r\n    // 1  \r\n    struct lottery{\r\n        string date; //   \r\n        mapping(uint => ticket) tickets; //   .\r\n        uint tickets_count; //    \r\n        uint[6] prize_combination; //    \r\n        bool active; //     \r\n        bool played; //  \r\n    }\r\n    mapping (uint => lottery) public lotteries;\r\n\r\n    /* \r\n     *        \r\n     *  .\r\n     *3.11.2017\r\n     */\r\n    function lottery_6_45() DHFBaseCurrency (10000, \"Lottery 6 of 45\", \"L6x45\") public\r\n    { \r\n        lotteries[0].date = \"06.11.2017\";\r\n        lotteries[0].tickets_count = 0;\r\n        lotteries[0].prize_combination = [0,0,0,0,0,0];\r\n        lotteries[0].active = true;\r\n        lotteries[0].played = false;\r\n    }\r\n    //   \r\n    event BuyTicket(uint ticket_number, uint ticket_price, address ticket_owner, uint buy_time, uint lottery_number, string lottery_type, uint8[] ticket_numbers );\r\n    \r\n    /*  \r\n     *  .\r\n     *@lottery_id  \r\n     *@ticket_Id   \r\n     *6.11.2017\r\n     */\r\n    function getTicket(uint lottery_id,uint ticket_Id) public view returns (uint8[13] ticket_numbers, uint8 ticket_prize_level,uint8 numbers_in_ticket,uint money,address owner)\r\n    {\r\n        return (lotteries[lottery_id].tickets[ticket_Id].numbers, lotteries[lottery_id].tickets[ticket_Id].compliance_level, lotteries[lottery_id].tickets[ticket_Id].valuable_numbers, lotteries[lottery_id].tickets[ticket_Id].money, lotteries[lottery_id].tickets[ticket_Id].owner);\r\n    }\r\n    \r\n    /*   \r\n     *  .\r\n     *@lottery_id  \r\n     *@ticket_Id   \r\n     *23.11.2017\r\n     */\r\n    function getTicketAsStruct(uint lottery_id,uint ticket_Id) public view returns (ticket ticketGetted)\r\n    {\r\n        return (lotteries[lottery_id].tickets[ticket_Id]);\r\n    }\r\n    \r\n    /*    \r\n     *  .\r\n     *return @count    \r\n     *21.11.2017\r\n     */\r\n    function newLottery() public onlyOwner returns (bool result)\r\n    {\r\n        if(lotteries[last_lottery_id].active) return false; //   ,    \r\n        if(!lotteries[last_lottery_id].played) return false; //    ,    \r\n        last_lottery_id++;\r\n        lotteries[last_lottery_id].date = \"21.11.2017\";\r\n        lotteries[last_lottery_id].tickets_count = 0;\r\n        lotteries[last_lottery_id].prize_combination = [0,0,0,0,0,0];\r\n        lotteries[last_lottery_id].active = true;\r\n        lotteries[last_lottery_id].played = false;\r\n        return true;\r\n    }\r\n    \r\n    /*   \r\n     *  .\r\n     *uint8 number_1  ,\r\n     *uint8 number_2  ,\r\n     *uint8 number_3  ,\r\n     *uint8 number_4  ,\r\n     *uint8 number_5  ,\r\n     *return @count   \r\n     *22.11.2017\r\n     */\r\n    function updatePrizeCombination(\r\n            uint8 number_1,\r\n            uint8 number_2,\r\n            uint8 number_3,\r\n            uint8 number_4,\r\n            uint8 number_5,\r\n            uint8 number_6) public onlyOwner returns (bool)\r\n    {\r\n        if(lotteries[last_lottery_id].active) return false;//    ,       \r\n        if(lotteries[last_lottery_id].played) return false;//    ,    \r\n        uint8[6] memory prizeCombinationForCheck = [number_1, number_2, number_3, number_4, number_5, number_6];\r\n        if(!isAllowablePrizeCombination(prizeCombinationForCheck)) return false;\r\n        lotteries[last_lottery_id].prize_combination = prizeCombinationForCheck;\r\n        return true;\r\n    }\r\n    \r\n    /*  \r\n     *  .\r\n     *@lottery_id  \r\n     *return @count    \r\n     *21.11.2017\r\n     */\r\n    function getLottery(uint lottery_id) public view returns (\r\n        string date, //   \r\n        uint tickets_count, //    \r\n        uint[6] prize_combination, //    \r\n        bool active\r\n        )\r\n    {\r\n        return (lotteries[lottery_id].date,lotteries[lottery_id].tickets_count,lotteries[lottery_id].prize_combination, lotteries[lottery_id].active);\r\n    }\r\n    \r\n    /*   \r\n     *       -     \r\n     *      \r\n     *       \r\n     *  .\r\n     *@array_to_search ,   \r\n     *return bool success -  \r\n     *8.11.2017\r\n     */ \r\n    function finishLottery() onlyOwner public returns (bool success)\r\n    {\r\n        if(lotteries[last_lottery_id].active) return false;\r\n        if(lotteries[last_lottery_id].played) return false;\r\n        calculatePrizes();\r\n        redistributionOfRegularPrize();\r\n        lotteries[last_lottery_id].played = true;\r\n        return true;\r\n    }\r\n    \r\n    /*     \r\n     *  .\r\n     *@lottery_activity bool    \r\n     *return bool success -  \r\n     *14.11.2017\r\n     */ \r\n    function changeStatus(bool lottery_activity) onlyOwner public returns (bool success)\r\n    {\r\n        if(lotteries[last_lottery_id].played) return false;//   ,   \r\n        lotteries[last_lottery_id].active = lottery_activity;\r\n        return true;\r\n    }\r\n    \r\n    /*    \r\n     *     \r\n     *  .\r\n     *@array_to_search ,   \r\n     *return uint compliance_level -     \r\n     *8.11.2017\r\n     */ \r\n    function getTicketComplianceLevel(uint8[13] ticket_numbers) internal constant returns (uint8 compliance_level)\r\n    {\r\n        compliance_level = 0;\r\n        for(uint i = 0; i < 13; i++)\r\n        {\r\n            for(uint k = 0; k < 6; k++)\r\n            {\r\n                if(ticket_numbers[i] == lotteries[last_lottery_id].prize_combination[k])\r\n                    compliance_level++;\r\n            }\r\n        }\r\n        return compliance_level;\r\n    }\r\n    \r\n    /*   \r\n     *            \r\n     *  .\r\n     *return bool success -    \r\n     *9.11.2017\r\n     */\r\n    function calculatePrizes() internal returns (bool)\r\n    {\r\n        uint jack_pot_numbers;//      \r\n        uint numbers_5_of_6;//      5  \r\n        uint numbers_4_of_6;//      4  \r\n        uint numbers_3_of_6;//      3  \r\n        uint regularLotteryCountedPrize;//    \r\n        uint JackPotCountedPrize;//   -\r\n        uint8 ticketComplianceLevel; \r\n        //      ,         \r\n        for (uint i = 0; i < lotteries[last_lottery_id].tickets_count; i++)\r\n        {\r\n            ticketComplianceLevel = getTicketComplianceLevel(lotteries[last_lottery_id].tickets[i].numbers);\r\n            lotteries[last_lottery_id].tickets[i].compliance_level = ticketComplianceLevel;\r\n            if(ticketComplianceLevel == 3) numbers_3_of_6++;\r\n            if(ticketComplianceLevel == 4) numbers_4_of_6++;\r\n            if(ticketComplianceLevel == 5) numbers_5_of_6++;\r\n            if(ticketComplianceLevel == 6) jack_pot_numbers++;\r\n        }\r\n        //         ,      \r\n        for (i = 0; i < lotteries[last_lottery_id].tickets_count; i++)\r\n        {\r\n            ticketComplianceLevel = lotteries[last_lottery_id].tickets[i].compliance_level;\r\n            if(ticketComplianceLevel == 3)\r\n                lotteries[last_lottery_id].tickets[i].money = regularPrize * (won_percent[0]) / (numbers_3_of_6 * 100);\r\n            if(ticketComplianceLevel == 4)\r\n                lotteries[last_lottery_id].tickets[i].money = regularPrize * (won_percent[1]) / (numbers_4_of_6 * 100);\r\n            if(ticketComplianceLevel == 5)\r\n                lotteries[last_lottery_id].tickets[i].money = regularPrize * (won_percent[2]) / (numbers_5_of_6 * 100);\r\n            if(ticketComplianceLevel == 6)\r\n                lotteries[last_lottery_id].tickets[i].money = JackPot / jack_pot_numbers;\r\n            if(ticketComplianceLevel < 6) regularLotteryCountedPrize += lotteries[last_lottery_id].tickets[i].money; //   ,       \r\n            if(ticketComplianceLevel == 6) JackPotCountedPrize += lotteries[last_lottery_id].tickets[i].money; //   ,       \r\n            balanceOf[lotteries[last_lottery_id].tickets[i].owner] += lotteries[last_lottery_id].tickets[i].money;//      \r\n        }\r\n        regularPrize -= regularLotteryCountedPrize;//    \r\n        JackPot -= JackPotCountedPrize;//    \r\n        return true;\r\n    }\r\n    \r\n    /*\r\n     *       \r\n     *45%      \r\n     *45%      -\r\n     *10%     -\r\n     *  .\r\n     *return bool success -   \r\n     *21.11.2017\r\n     */\r\n    function redistributionOfRegularPrize() internal returns (bool)\r\n    {\r\n        uint jackPotAdditional = regularPrize * redistributionPercent[1] / 100;//        \r\n        uint ownersAdditional = regularPrize * redistributionPercent[2] / 100;//        \r\n        regularPrize -= (jackPotAdditional + ownersAdditional);\r\n        JackPot += jackPotAdditional;\r\n        balanceOf[owner] += ownersAdditional;\r\n        return true;\r\n    }\r\n    \r\n    /*    6  13   \r\n     *  .\r\n     *@number_1-number_13 uint8    -  13\r\n     *return bool success -    \r\n     *9.11.2017\r\n     */\r\n    function buyTicket(\r\n            uint8 number_1,\r\n            uint8 number_2,\r\n            uint8 number_3,\r\n            uint8 number_4,\r\n            uint8 number_5,\r\n            uint8 number_6,\r\n            uint8 number_7,\r\n            uint8 number_8,\r\n            uint8 number_9,\r\n            uint8 number_10,\r\n            uint8 number_11,\r\n            uint8 number_12,\r\n            uint8 number_13)\r\n        public returns (bool success){\r\n        ticket memory new_ticket;\r\n        new_ticket.numbers[0] = number_1;\r\n        new_ticket.numbers[1] = number_2;\r\n        new_ticket.numbers[2] = number_3;\r\n        new_ticket.numbers[3] = number_4;\r\n        new_ticket.numbers[4] = number_5;\r\n        new_ticket.numbers[5] = number_6;\r\n        new_ticket.numbers[6] = number_7;\r\n        new_ticket.numbers[7] = number_8;\r\n        new_ticket.numbers[8] = number_9;\r\n        new_ticket.numbers[9] = number_10;\r\n        new_ticket.numbers[10] = number_11;\r\n        new_ticket.numbers[11] = number_12;\r\n        new_ticket.numbers[12] = number_13;\r\n        return checkTicketBuying(new_ticket);\r\n    }\r\n    \r\n    /*   \r\n     *   -       -  16!\r\n     *  .\r\n     *@ticked_for_checking  \r\n     *return bool success -    \r\n     *9.11.2017\r\n     */\r\n    function checkTicketBuying(ticket ticked_for_checking) internal returns (bool success)\r\n    {\r\n        if(!lotteries[last_lottery_id].active) return false;\r\n        var(allowability, valuable_numbers) = isAllowableBigTicket(ticked_for_checking.numbers);\r\n        if(!allowability) return false;\r\n        uint current_ticket_price = getTicketPrice(valuable_numbers);//          \r\n        if (balanceOf[msg.sender] < current_ticket_price) return false;\r\n        ticked_for_checking.owner = msg.sender;\r\n        ticked_for_checking.time = \"06.11.2017\";\r\n        ticked_for_checking.valuable_numbers = valuable_numbers;\r\n        lotteries[last_lottery_id].tickets[lotteries[last_lottery_id].tickets_count] = ticked_for_checking;\r\n        lotteries[last_lottery_id].tickets_count++;\r\n        balanceOf[msg.sender] -= current_ticket_price;\r\n        JackPot += (current_ticket_price * JackPot_assignment) / 100;//       ,      \r\n        regularPrize += (current_ticket_price * regularPrize_assignment) / 100;//         ,      \r\n        /*\r\n        uint8[] memory temp;\r\n        for (uint8 i = 0; i < 13; i++ ){\r\n            temp[i] = ticked_for_checking.numbers[i];\r\n        }*/\r\n        //BuyTicket(current_ticket_number, current_ticket_price, msg.sender, now, last_lottery_id , \"Lottery 6 45\", temp);\r\n        return true;\r\n    }\r\n    \r\n    \r\n    /*      6  13   \r\n     *   ,        7\r\n     *  .\r\n     **@ticket_numbers  \r\n     *return bool success -        \r\n     **return uint8 numbers_in_ticket      -     \r\n     *9.11.2017\r\n     */\r\n    function isAllowableBigTicket(uint8[13] ticket_numbers) public constant returns (bool, uint8 numbers_in_ticket)\r\n    {\r\n        numbers_in_ticket = 13;\r\n        if(ticket_numbers[12] == 0) numbers_in_ticket--;\r\n        for (uint i = 0; i < 12; i++)\r\n        {\r\n            if((ticket_numbers[i] > max_Number) || (ticket_numbers[12] > max_Number) || (numbers_in_ticket < 6)) return (false, numbers_in_ticket);\r\n            if(ticket_numbers[i] == 0) numbers_in_ticket--;\r\n            for(uint k = i + 1; k < 13; k++)\r\n            {\r\n                if ((ticket_numbers[i] == ticket_numbers[k]) && (ticket_numbers[i] != 0)) return (false, numbers_in_ticket);\r\n            }\r\n        }\r\n        return (true,numbers_in_ticket);\r\n    }\r\n    \r\n    /*     -  6     1  45\r\n     *   ,        7\r\n     *  .\r\n     *@prizeNumbers  \r\n     *return bool success -        \r\n     *22.11.2017\r\n     */\r\n    function isAllowablePrizeCombination(uint8[6] prizeNumbers) public constant returns (bool)\r\n    {\r\n        if((prizeNumbers[5] == 0) || (prizeNumbers[5] > max_Number)) return false;\r\n        for (uint i = 0; i < 5; i++)\r\n        {\r\n            if((prizeNumbers[i] > max_Number) || (prizeNumbers[i] == 0)) return false;\r\n            for(uint k = i + 1; k < 6; k++)\r\n                if (prizeNumbers[i] == prizeNumbers[k]) return false;\r\n        }\r\n        return true;\r\n    }\r\n    \r\n    \r\n    /*       \r\n     *  .\r\n     *@number_count uint8    \r\n     *return uint256 price -    -     ,      \r\n     *9.11.2017\r\n     */\r\n    function getTicketPrice(uint8 number_count) public constant returns (uint256 price)\r\n    {\r\n        return (factorial(number_count) * ticketPrice) / (factorial(number_count - prize_combination_size) * factorial(prize_combination_size));\r\n    }\r\n    \r\n    /*  \r\n     *  .\r\n     *@number uint256    \r\n     *return uint256 fact -   \r\n     *10.11.2017\r\n     */\r\n    function factorial(uint256 number) public constant returns(uint256 fact) \r\n    {\r\n        fact = 1;\r\n        if(number == 0) return 1;\r\n        for(uint256 i = 1;i<=number;i++)\r\n            fact = fact * i;\r\n        return fact;\r\n    }\r\n    \r\n    \r\n}",
  "sourcePath": "D:\\Digital Heritage Fund\\\\    \\Lottery\\contracts\\lottery_6_45.sol",
  "compiler": {
    "name": "solc",
    "version": "0.4.18+commit.9cf6e910.Emscripten.clang"
  },
  "schemaVersion": "1.0.1",
  "updatedAt": "2017-11-23T13:41:52.262Z"
}