{
  "contractName": "Lottery_6_Of_45_Light",
  "abi": [
    {
      "constant": false,
      "inputs": [
        {
          "name": "newSellPrice",
          "type": "uint256"
        },
        {
          "name": "newBuyPrice",
          "type": "uint256"
        }
      ],
      "name": "setPrices",
      "outputs": [],
      "payable": false,
      "stateMutability": "nonpayable",
      "type": "function"
    },
    {
      "constant": true,
      "inputs": [],
      "name": "name",
      "outputs": [
        {
          "name": "",
          "type": "string"
        }
      ],
      "payable": false,
      "stateMutability": "view",
      "type": "function"
    },
    {
      "constant": false,
      "inputs": [
        {
          "name": "_spender",
          "type": "address"
        },
        {
          "name": "_value",
          "type": "uint256"
        }
      ],
      "name": "approve",
      "outputs": [
        {
          "name": "success",
          "type": "bool"
        }
      ],
      "payable": false,
      "stateMutability": "nonpayable",
      "type": "function"
    },
    {
      "constant": true,
      "inputs": [],
      "name": "JackPot",
      "outputs": [
        {
          "name": "",
          "type": "uint256"
        }
      ],
      "payable": false,
      "stateMutability": "view",
      "type": "function"
    },
    {
      "constant": true,
      "inputs": [],
      "name": "ticketPrice",
      "outputs": [
        {
          "name": "",
          "type": "uint256"
        }
      ],
      "payable": false,
      "stateMutability": "view",
      "type": "function"
    },
    {
      "constant": true,
      "inputs": [
        {
          "name": "",
          "type": "uint256"
        }
      ],
      "name": "lotteries",
      "outputs": [
        {
          "name": "date",
          "type": "string"
        },
        {
          "name": "tickets_count",
          "type": "uint256"
        },
        {
          "name": "active",
          "type": "bool"
        },
        {
          "name": "played",
          "type": "bool"
        }
      ],
      "payable": false,
      "stateMutability": "view",
      "type": "function"
    },
    {
      "constant": true,
      "inputs": [],
      "name": "totalSupply",
      "outputs": [
        {
          "name": "",
          "type": "uint256"
        }
      ],
      "payable": false,
      "stateMutability": "view",
      "type": "function"
    },
    {
      "constant": false,
      "inputs": [
        {
          "name": "_from",
          "type": "address"
        },
        {
          "name": "_to",
          "type": "address"
        },
        {
          "name": "_value",
          "type": "uint256"
        }
      ],
      "name": "transferFrom",
      "outputs": [
        {
          "name": "success",
          "type": "bool"
        }
      ],
      "payable": false,
      "stateMutability": "nonpayable",
      "type": "function"
    },
    {
      "constant": true,
      "inputs": [],
      "name": "decimals",
      "outputs": [
        {
          "name": "",
          "type": "uint8"
        }
      ],
      "payable": false,
      "stateMutability": "view",
      "type": "function"
    },
    {
      "constant": true,
      "inputs": [],
      "name": "regularPrizeAssignment",
      "outputs": [
        {
          "name": "",
          "type": "uint256"
        }
      ],
      "payable": false,
      "stateMutability": "view",
      "type": "function"
    },
    {
      "constant": true,
      "inputs": [],
      "name": "JackPotAssignment",
      "outputs": [
        {
          "name": "",
          "type": "uint256"
        }
      ],
      "payable": false,
      "stateMutability": "view",
      "type": "function"
    },
    {
      "constant": false,
      "inputs": [
        {
          "name": "_value",
          "type": "uint256"
        }
      ],
      "name": "burn",
      "outputs": [
        {
          "name": "success",
          "type": "bool"
        }
      ],
      "payable": false,
      "stateMutability": "nonpayable",
      "type": "function"
    },
    {
      "constant": true,
      "inputs": [],
      "name": "sellPrice",
      "outputs": [
        {
          "name": "",
          "type": "uint256"
        }
      ],
      "payable": false,
      "stateMutability": "view",
      "type": "function"
    },
    {
      "constant": true,
      "inputs": [],
      "name": "regularPrize",
      "outputs": [
        {
          "name": "",
          "type": "uint256"
        }
      ],
      "payable": false,
      "stateMutability": "view",
      "type": "function"
    },
    {
      "constant": true,
      "inputs": [
        {
          "name": "",
          "type": "address"
        }
      ],
      "name": "balanceOf",
      "outputs": [
        {
          "name": "",
          "type": "uint256"
        }
      ],
      "payable": false,
      "stateMutability": "view",
      "type": "function"
    },
    {
      "constant": false,
      "inputs": [
        {
          "name": "target",
          "type": "address"
        },
        {
          "name": "mintedAmount",
          "type": "uint256"
        }
      ],
      "name": "mintToken",
      "outputs": [],
      "payable": false,
      "stateMutability": "nonpayable",
      "type": "function"
    },
    {
      "constant": false,
      "inputs": [
        {
          "name": "_from",
          "type": "address"
        },
        {
          "name": "_value",
          "type": "uint256"
        }
      ],
      "name": "burnFrom",
      "outputs": [
        {
          "name": "success",
          "type": "bool"
        }
      ],
      "payable": false,
      "stateMutability": "nonpayable",
      "type": "function"
    },
    {
      "constant": true,
      "inputs": [
        {
          "name": "number",
          "type": "uint256"
        }
      ],
      "name": "factorial",
      "outputs": [
        {
          "name": "fact",
          "type": "uint256"
        }
      ],
      "payable": false,
      "stateMutability": "view",
      "type": "function"
    },
    {
      "constant": true,
      "inputs": [],
      "name": "buyPrice",
      "outputs": [
        {
          "name": "",
          "type": "uint256"
        }
      ],
      "payable": false,
      "stateMutability": "view",
      "type": "function"
    },
    {
      "constant": true,
      "inputs": [],
      "name": "owner",
      "outputs": [
        {
          "name": "",
          "type": "address"
        }
      ],
      "payable": false,
      "stateMutability": "view",
      "type": "function"
    },
    {
      "constant": true,
      "inputs": [],
      "name": "symbol",
      "outputs": [
        {
          "name": "",
          "type": "string"
        }
      ],
      "payable": false,
      "stateMutability": "view",
      "type": "function"
    },
    {
      "constant": false,
      "inputs": [],
      "name": "buy",
      "outputs": [],
      "payable": true,
      "stateMutability": "payable",
      "type": "function"
    },
    {
      "constant": false,
      "inputs": [
        {
          "name": "_to",
          "type": "address"
        },
        {
          "name": "_value",
          "type": "uint256"
        }
      ],
      "name": "transfer",
      "outputs": [],
      "payable": false,
      "stateMutability": "nonpayable",
      "type": "function"
    },
    {
      "constant": true,
      "inputs": [
        {
          "name": "",
          "type": "address"
        }
      ],
      "name": "frozenAccount",
      "outputs": [
        {
          "name": "",
          "type": "bool"
        }
      ],
      "payable": false,
      "stateMutability": "view",
      "type": "function"
    },
    {
      "constant": false,
      "inputs": [
        {
          "name": "_spender",
          "type": "address"
        },
        {
          "name": "_value",
          "type": "uint256"
        },
        {
          "name": "_extraData",
          "type": "bytes"
        }
      ],
      "name": "approveAndCall",
      "outputs": [
        {
          "name": "success",
          "type": "bool"
        }
      ],
      "payable": false,
      "stateMutability": "nonpayable",
      "type": "function"
    },
    {
      "constant": true,
      "inputs": [
        {
          "name": "",
          "type": "address"
        },
        {
          "name": "",
          "type": "address"
        }
      ],
      "name": "allowance",
      "outputs": [
        {
          "name": "",
          "type": "uint256"
        }
      ],
      "payable": false,
      "stateMutability": "view",
      "type": "function"
    },
    {
      "constant": false,
      "inputs": [
        {
          "name": "amount",
          "type": "uint256"
        }
      ],
      "name": "sell",
      "outputs": [],
      "payable": false,
      "stateMutability": "nonpayable",
      "type": "function"
    },
    {
      "constant": false,
      "inputs": [
        {
          "name": "target",
          "type": "address"
        },
        {
          "name": "freeze",
          "type": "bool"
        }
      ],
      "name": "freezeAccount",
      "outputs": [],
      "payable": false,
      "stateMutability": "nonpayable",
      "type": "function"
    },
    {
      "constant": false,
      "inputs": [
        {
          "name": "newOwner",
          "type": "address"
        }
      ],
      "name": "transferOwnership",
      "outputs": [],
      "payable": false,
      "stateMutability": "nonpayable",
      "type": "function"
    },
    {
      "inputs": [],
      "payable": false,
      "stateMutability": "nonpayable",
      "type": "constructor"
    },
    {
      "anonymous": false,
      "inputs": [
        {
          "indexed": false,
          "name": "target",
          "type": "address"
        },
        {
          "indexed": false,
          "name": "frozen",
          "type": "bool"
        }
      ],
      "name": "FrozenFunds",
      "type": "event"
    },
    {
      "anonymous": false,
      "inputs": [
        {
          "indexed": true,
          "name": "from",
          "type": "address"
        },
        {
          "indexed": true,
          "name": "to",
          "type": "address"
        },
        {
          "indexed": false,
          "name": "value",
          "type": "uint256"
        }
      ],
      "name": "Transfer",
      "type": "event"
    },
    {
      "anonymous": false,
      "inputs": [
        {
          "indexed": true,
          "name": "from",
          "type": "address"
        },
        {
          "indexed": false,
          "name": "value",
          "type": "uint256"
        }
      ],
      "name": "Burn",
      "type": "event"
    }
  ],
  "bytecode": "0x60606040526012600360006101000a81548160ff021916908360ff1602179055506000600a556000600b55600a600c556028600d556028600e5534156200004557600080fd5b6127106040805190810160405280600f81526020017f4c6f74746572792036206f6620343500000000000000000000000000000000008152506040805190810160405280600581526020017f4c36783435000000000000000000000000000000000000000000000000000000815250828282336000806101000a81548173ffffffffffffffffffffffffffffffffffffffff021916908373ffffffffffffffffffffffffffffffffffffffff160217905550600360009054906101000a900460ff1660ff16600a0a8302600481905550600454600560003373ffffffffffffffffffffffffffffffffffffffff1673ffffffffffffffffffffffffffffffffffffffff16815260200190815260200160002081905550816001908051906020019062000173929190620002e2565b5080600290805190602001906200018c929190620002e2565b505050505050506040805190810160405280600a81526020017f30362e31312e3230313700000000000000000000000000000000000000000000815250600f60008081526020019081526020016000206000019080519060200190620001f4929190620002e2565b506000600f60008081526020019081526020016000206002018190555060c060405190810160405280600060ff168152602001600060ff168152602001600060ff168152602001600060ff168152602001600060ff168152602001600060ff16815250600f60008081526020019081526020016000206003019060066200027d92919062000369565b506001600f600080815260200190815260200160002060090160006101000a81548160ff0219169083151502179055506000600f600080815260200190815260200160002060090160016101000a81548160ff021916908315150217905550620003db565b828054600181600116156101000203166002900490600052602060002090601f016020900481019282601f106200032557805160ff191683800117855562000356565b8280016001018555821562000356579182015b828111156200035557825182559160200191906001019062000338565b5b509050620003659190620003b3565b5090565b8260068101928215620003a0579160200282015b828111156200039f578251829060ff169055916020019190600101906200037d565b5b509050620003af9190620003b3565b5090565b620003d891905b80821115620003d4576000816000905550600101620003ba565b5090565b90565b6119ea80620003eb6000396000f300606060405260043610610175576000357c0100000000000000000000000000000000000000000000000000000000900463ffffffff16806305fefda71461017a57806306fdde03146101a6578063095ea7b3146102345780630a2282ae1461028e5780631209b1f6146102b75780631398e076146102e057806318160ddd146103b657806323b872dd146103df578063313ce56714610458578063343679c414610487578063384a6a95146104b057806342966c68146104d95780634b750334146105145780635be01e451461053d57806370a082311461056657806379c65068146105b357806379cc6790146105f5578063837148341461064f5780638620410b146106865780638da5cb5b146106af57806395d89b4114610704578063a6f2ae3a14610792578063a9059cbb1461079c578063b414d4b6146107de578063cae9ca511461082f578063dd62ed3e146108cc578063e4849b3214610938578063e724529c1461095b578063f2fde38b1461099f575b600080fd5b341561018557600080fd5b6101a460048080359060200190919080359060200190919050506109d8565b005b34156101b157600080fd5b6101b9610a45565b6040518080602001828103825283818151815260200191508051906020019080838360005b838110156101f95780820151818401526020810190506101de565b50505050905090810190601f1680156102265780820380516001836020036101000a031916815260200191505b509250505060405180910390f35b341561023f57600080fd5b610274600480803573ffffffffffffffffffffffffffffffffffffffff16906020019091908035906020019091905050610ae3565b604051808215151515815260200191505060405180910390f35b341561029957600080fd5b6102a1610b70565b6040518082815260200191505060405180910390f35b34156102c257600080fd5b6102ca610b76565b6040518082815260200191505060405180910390f35b34156102eb57600080fd5b6103016004808035906020019091905050610b7c565b604051808060200185815260200184151515158152602001831515151581526020018281038252868181546001816001161561010002031660029004815260200191508054600181600116156101000203166002900480156103a45780601f10610379576101008083540402835291602001916103a4565b820191906000526020600020905b81548152906001019060200180831161038757829003601f168201915b50509550505050505060405180910390f35b34156103c157600080fd5b6103c9610bc5565b6040518082815260200191505060405180910390f35b34156103ea57600080fd5b61043e600480803573ffffffffffffffffffffffffffffffffffffffff1690602001909190803573ffffffffffffffffffffffffffffffffffffffff16906020019091908035906020019091905050610bcb565b604051808215151515815260200191505060405180910390f35b341561046357600080fd5b61046b610cf8565b604051808260ff1660ff16815260200191505060405180910390f35b341561049257600080fd5b61049a610d0b565b6040518082815260200191505060405180910390f35b34156104bb57600080fd5b6104c3610d11565b6040518082815260200191505060405180910390f35b34156104e457600080fd5b6104fa6004808035906020019091905050610d17565b604051808215151515815260200191505060405180910390f35b341561051f57600080fd5b610527610e1b565b6040518082815260200191505060405180910390f35b341561054857600080fd5b610550610e21565b6040518082815260200191505060405180910390f35b341561057157600080fd5b61059d600480803573ffffffffffffffffffffffffffffffffffffffff16906020019091905050610e27565b6040518082815260200191505060405180910390f35b34156105be57600080fd5b6105f3600480803573ffffffffffffffffffffffffffffffffffffffff16906020019091908035906020019091905050610e3f565b005b341561060057600080fd5b610635600480803573ffffffffffffffffffffffffffffffffffffffff16906020019091908035906020019091905050610fb0565b604051808215151515815260200191505060405180910390f35b341561065a57600080fd5b61067060048080359060200190919050506111ca565b6040518082815260200191505060405180910390f35b341561069157600080fd5b61069961120d565b6040518082815260200191505060405180910390f35b34156106ba57600080fd5b6106c2611213565b604051808273ffffffffffffffffffffffffffffffffffffffff1673ffffffffffffffffffffffffffffffffffffffff16815260200191505060405180910390f35b341561070f57600080fd5b610717611238565b6040518080602001828103825283818151815260200191508051906020019080838360005b8381101561075757808201518184015260208101905061073c565b50505050905090810190601f1680156107845780820380516001836020036101000a031916815260200191505b509250505060405180910390f35b61079a6112d6565b005b34156107a757600080fd5b6107dc600480803573ffffffffffffffffffffffffffffffffffffffff169060200190919080359060200190919050506112f6565b005b34156107e957600080fd5b610815600480803573ffffffffffffffffffffffffffffffffffffffff16906020019091905050611305565b604051808215151515815260200191505060405180910390f35b341561083a57600080fd5b6108b2600480803573ffffffffffffffffffffffffffffffffffffffff1690602001909190803590602001909190803590602001908201803590602001908080601f01602080910402602001604051908101604052809392919081815260200183838082843782019150505050505091905050611325565b604051808215151515815260200191505060405180910390f35b34156108d757600080fd5b610922600480803573ffffffffffffffffffffffffffffffffffffffff1690602001909190803573ffffffffffffffffffffffffffffffffffffffff169060200190919050506114a3565b6040518082815260200191505060405180910390f35b341561094357600080fd5b61095960048080359060200190919050506114c8565b005b341561096657600080fd5b61099d600480803573ffffffffffffffffffffffffffffffffffffffff169060200190919080351515906020019091905050611544565b005b34156109aa57600080fd5b6109d6600480803573ffffffffffffffffffffffffffffffffffffffff16906020019091905050611669565b005b6000809054906101000a900473ffffffffffffffffffffffffffffffffffffffff1673ffffffffffffffffffffffffffffffffffffffff163373ffffffffffffffffffffffffffffffffffffffff16141515610a3357600080fd5b81600781905550806008819055505050565b60018054600181600116156101000203166002900480601f016020809104026020016040519081016040528092919081815260200182805460018160011615610100020316600290048015610adb5780601f10610ab057610100808354040283529160200191610adb565b820191906000526020600020905b815481529060010190602001808311610abe57829003601f168201915b505050505081565b600081600660003373ffffffffffffffffffffffffffffffffffffffff1673ffffffffffffffffffffffffffffffffffffffff16815260200190815260200160002060008573ffffffffffffffffffffffffffffffffffffffff1673ffffffffffffffffffffffffffffffffffffffff168152602001908152602001600020819055506001905092915050565b600a5481565b600c5481565b600f60205280600052604060002060009150905080600001908060020154908060090160009054906101000a900460ff16908060090160019054906101000a900460ff16905084565b60045481565b6000600660008573ffffffffffffffffffffffffffffffffffffffff1673ffffffffffffffffffffffffffffffffffffffff16815260200190815260200160002060003373ffffffffffffffffffffffffffffffffffffffff1673ffffffffffffffffffffffffffffffffffffffff168152602001908152602001600020548211151515610c5857600080fd5b81600660008673ffffffffffffffffffffffffffffffffffffffff1673ffffffffffffffffffffffffffffffffffffffff16815260200190815260200160002060003373ffffffffffffffffffffffffffffffffffffffff1673ffffffffffffffffffffffffffffffffffffffff16815260200190815260200160002060008282540392505081905550610ced848484611707565b600190509392505050565b600360009054906101000a900460ff1681565b600e5481565b600d5481565b600081600560003373ffffffffffffffffffffffffffffffffffffffff1673ffffffffffffffffffffffffffffffffffffffff1681526020019081526020016000205410151515610d6757600080fd5b81600560003373ffffffffffffffffffffffffffffffffffffffff1673ffffffffffffffffffffffffffffffffffffffff16815260200190815260200160002060008282540392505081905550816004600082825403925050819055503373ffffffffffffffffffffffffffffffffffffffff167fcc16f5dbb4873280815c1ee09dbd06736cffcc184412cf7a71a0fdb75d397ca5836040518082815260200191505060405180910390a260019050919050565b60075481565b600b5481565b60056020528060005260406000206000915090505481565b6000809054906101000a900473ffffffffffffffffffffffffffffffffffffffff1673ffffffffffffffffffffffffffffffffffffffff163373ffffffffffffffffffffffffffffffffffffffff16141515610e9a57600080fd5b80600560008473ffffffffffffffffffffffffffffffffffffffff1673ffffffffffffffffffffffffffffffffffffffff16815260200190815260200160002060008282540192505081905550806004600082825401925050819055503073ffffffffffffffffffffffffffffffffffffffff1660007fddf252ad1be2c89b69c2b068fc378daa952ba7f163c4a11628f55a4df523b3ef836040518082815260200191505060405180910390a38173ffffffffffffffffffffffffffffffffffffffff163073ffffffffffffffffffffffffffffffffffffffff167fddf252ad1be2c89b69c2b068fc378daa952ba7f163c4a11628f55a4df523b3ef836040518082815260200191505060405180910390a35050565b600081600560008573ffffffffffffffffffffffffffffffffffffffff1673ffffffffffffffffffffffffffffffffffffffff168152602001908152602001600020541015151561100057600080fd5b600660008473ffffffffffffffffffffffffffffffffffffffff1673ffffffffffffffffffffffffffffffffffffffff16815260200190815260200160002060003373ffffffffffffffffffffffffffffffffffffffff1673ffffffffffffffffffffffffffffffffffffffff16815260200190815260200160002054821115151561108b57600080fd5b81600560008573ffffffffffffffffffffffffffffffffffffffff1673ffffffffffffffffffffffffffffffffffffffff1681526020019081526020016000206000828254039250508190555081600660008573ffffffffffffffffffffffffffffffffffffffff1673ffffffffffffffffffffffffffffffffffffffff16815260200190815260200160002060003373ffffffffffffffffffffffffffffffffffffffff1673ffffffffffffffffffffffffffffffffffffffff16815260200190815260200160002060008282540392505081905550816004600082825403925050819055508273ffffffffffffffffffffffffffffffffffffffff167fcc16f5dbb4873280815c1ee09dbd06736cffcc184412cf7a71a0fdb75d397ca5836040518082815260200191505060405180910390a26001905092915050565b6000806001915060008314156111e35760019150611207565b600190505b828111151561120357808202915080806001019150506111e8565b8191505b50919050565b60085481565b6000809054906101000a900473ffffffffffffffffffffffffffffffffffffffff1681565b60028054600181600116156101000203166002900480601f0160208091040260200160405190810160405280929190818152602001828054600181600116156101000203166002900480156112ce5780601f106112a3576101008083540402835291602001916112ce565b820191906000526020600020905b8154815290600101906020018083116112b157829003601f168201915b505050505081565b6000600854348115156112e557fe5b0490506112f3303383611707565b50565b611301338383611707565b5050565b60096020528060005260406000206000915054906101000a900460ff1681565b6000808490506113358585610ae3565b1561149a578073ffffffffffffffffffffffffffffffffffffffff16638f4ffcb1338630876040518563ffffffff167c0100000000000000000000000000000000000000000000000000000000028152600401808573ffffffffffffffffffffffffffffffffffffffff1673ffffffffffffffffffffffffffffffffffffffff1681526020018481526020018373ffffffffffffffffffffffffffffffffffffffff1673ffffffffffffffffffffffffffffffffffffffff16815260200180602001828103825283818151815260200191508051906020019080838360005b8381101561142f578082015181840152602081019050611414565b50505050905090810190601f16801561145c5780820380516001836020036101000a031916815260200191505b5095505050505050600060405180830381600087803b151561147d57600080fd5b6102c65a03f1151561148e57600080fd5b5050506001915061149b565b5b509392505050565b6006602052816000526040600020602052806000526040600020600091509150505481565b60075481023073ffffffffffffffffffffffffffffffffffffffff1631101515156114f257600080fd5b6114fd333083611707565b3373ffffffffffffffffffffffffffffffffffffffff166108fc60075483029081150290604051600060405180830381858888f19350505050151561154157600080fd5b50565b6000809054906101000a900473ffffffffffffffffffffffffffffffffffffffff1673ffffffffffffffffffffffffffffffffffffffff163373ffffffffffffffffffffffffffffffffffffffff1614151561159f57600080fd5b80600960008473ffffffffffffffffffffffffffffffffffffffff1673ffffffffffffffffffffffffffffffffffffffff16815260200190815260200160002060006101000a81548160ff0219169083151502179055507f48335238b4855f35377ed80f164e8c6f3c366e54ac00b96a6402d4a9814a03a58282604051808373ffffffffffffffffffffffffffffffffffffffff1673ffffffffffffffffffffffffffffffffffffffff168152602001821515151581526020019250505060405180910390a15050565b6000809054906101000a900473ffffffffffffffffffffffffffffffffffffffff1673ffffffffffffffffffffffffffffffffffffffff163373ffffffffffffffffffffffffffffffffffffffff161415156116c457600080fd5b806000806101000a81548173ffffffffffffffffffffffffffffffffffffffff021916908373ffffffffffffffffffffffffffffffffffffffff16021790555050565b60008273ffffffffffffffffffffffffffffffffffffffff161415151561172d57600080fd5b80600560008573ffffffffffffffffffffffffffffffffffffffff1673ffffffffffffffffffffffffffffffffffffffff1681526020019081526020016000205411151561177a57600080fd5b600560008373ffffffffffffffffffffffffffffffffffffffff1673ffffffffffffffffffffffffffffffffffffffff1681526020019081526020016000205481600560008573ffffffffffffffffffffffffffffffffffffffff1673ffffffffffffffffffffffffffffffffffffffff168152602001908152602001600020540111151561180857600080fd5b600960008473ffffffffffffffffffffffffffffffffffffffff1673ffffffffffffffffffffffffffffffffffffffff16815260200190815260200160002060009054906101000a900460ff1615151561186157600080fd5b600960008373ffffffffffffffffffffffffffffffffffffffff1673ffffffffffffffffffffffffffffffffffffffff16815260200190815260200160002060009054906101000a900460ff161515156118ba57600080fd5b80600560008573ffffffffffffffffffffffffffffffffffffffff1673ffffffffffffffffffffffffffffffffffffffff1681526020019081526020016000206000828254039250508190555080600560008473ffffffffffffffffffffffffffffffffffffffff1673ffffffffffffffffffffffffffffffffffffffff168152602001908152602001600020600082825401925050819055508173ffffffffffffffffffffffffffffffffffffffff168373ffffffffffffffffffffffffffffffffffffffff167fddf252ad1be2c89b69c2b068fc378daa952ba7f163c4a11628f55a4df523b3ef836040518082815260200191505060405180910390a35050505600a165627a7a7230582093a6eccc326d7225275b4aa0c90aca42f194d5f2590f95af58a10114e56731e70029",
  "source": "pragma solidity ^0.4.16;\r\n    \r\nimport \"./DHFBaseCurrency.sol\";\r\n    \r\n/*смарт-контракт лотереи 4 из 20\r\n *4 коина идет в джек-пот, 4 - на обычные призы, 2 остается и распределяется между держателями контракта\r\n *Создано Вопиловым А.\r\n *1.12.2017\r\n */\r\ncontract Lottery_6_Of_45_Light is DHFBaseCurrency \r\n{\r\n    uint public JackPot = 0; //Размер Джек Пота\r\n    uint public regularPrize = 0; //Размер основного приза лотереи\r\n    uint public ticketPrice = 10; // цена билета\r\n    uint public JackPotAssignment = 40; // процент отчислений в Джек-Пот от каждого билета\r\n    uint public regularPrizeAssignment = 40; //процент отчислений в регулярный призовой фонд    \r\n    //структура билета\r\n    struct ticket{\r\n        address owner; //владелец билета\r\n        string time; //время и дата покупки билета\r\n        uint8[13] numbers; //числа в номере - сейчас сделаем ограниченное число - точно 4 числа в билете\r\n        uint8 compliance_level; //число совпавших номеров с выигрышной комбинацией - инициализируется нулем\r\n        uint8 valuable_numbers;//значащих чисел в билете - ненулевых\r\n        uint money;//выграно данным билетом денег\r\n    }\r\n    //структура 1го тиража лотереи\r\n    struct lottery{\r\n        string date; // дата проведения лотереи\r\n        mapping(uint => ticket) tickets; //все билеты одной лотереи.\r\n        uint tickets_count; //количество билетов в этой лотерее\r\n        uint[6] prize_combination; //выигрышная комбинация текущего тиража лотереи\r\n        bool active; //ведется или не ведется прием ставок\r\n        bool played; //проведен ли розыгрыш\r\n    }\r\n    mapping (uint => lottery) public lotteries;\r\n    \r\n    /*Инициализация лотереи\r\n     *задаем первой лотерее дату и количество билетов в ней\r\n     *Создано Вопиловым А.\r\n     *3.11.2017\r\n     */\r\n    function Lottery_6_Of_45_Light() DHFBaseCurrency (10000, \"Lottery 6 of 45\", \"L6x45\") public\r\n    { \r\n        lotteries[0].date = \"06.11.2017\";\r\n        lotteries[0].tickets_count = 0;\r\n        lotteries[0].prize_combination = [0,0,0,0,0,0];\r\n        lotteries[0].active = true;\r\n        lotteries[0].played = false;\r\n    }\r\n    \r\n    /*Расчет факториала числа\r\n     *Создано Вопиловым А.\r\n     *@number uint256 число для расчета факториала\r\n     *return uint256 fact - значение факториала числа\r\n     *10.11.2017\r\n     */\r\n    function factorial(uint number) public constant returns(uint fact) \r\n    {\r\n        fact = 1; \r\n        if(number == 0) return 1;\r\n        for(uint i = 1;i<=number;i++)\r\n            fact = fact * i;\r\n        return fact;\r\n    }\r\n    \r\n    \r\n}",
  "sourcePath": "D:\\Digital Heritage Fund\\Лотерея\\легковесная лотерея\\Lottery\\contracts\\Lottery_6_Of_45_Light.sol",
  "compiler": {
    "name": "solc",
    "version": "0.4.18+commit.9cf6e910.Emscripten.clang"
  },
  "schemaVersion": "1.0.1",
  "updatedAt": "2017-12-01T08:58:01.030Z"
}